{"abi":[{"type":"constructor","inputs":[{"name":"_manager","type":"address","internalType":"contract IPoolManager"}],"stateMutability":"nonpayable"},{"type":"function","name":"ActionModifyLiquidity","inputs":[{"name":"key","type":"tuple","internalType":"struct PoolKey","components":[{"name":"currency0","type":"address","internalType":"Currency"},{"name":"currency1","type":"address","internalType":"Currency"},{"name":"fee","type":"uint24","internalType":"uint24"},{"name":"tickSpacing","type":"int24","internalType":"int24"},{"name":"hooks","type":"address","internalType":"contract IHooks"}]},{"name":"params","type":"tuple","internalType":"struct IPoolManager.ModifyLiquidityParams","components":[{"name":"tickLower","type":"int24","internalType":"int24"},{"name":"tickUpper","type":"int24","internalType":"int24"},{"name":"liquidityDelta","type":"int256","internalType":"int256"},{"name":"salt","type":"bytes32","internalType":"bytes32"}]},{"name":"hookData","type":"bytes","internalType":"bytes"}],"outputs":[{"name":"callerDelta","type":"int256","internalType":"BalanceDelta"},{"name":"feesAccrued","type":"int256","internalType":"BalanceDelta"}],"stateMutability":"nonpayable"},{"type":"function","name":"manager","inputs":[],"outputs":[{"name":"","type":"address","internalType":"contract IPoolManager"}],"stateMutability":"view"},{"type":"function","name":"swap","inputs":[{"name":"key","type":"tuple","internalType":"struct PoolKey","components":[{"name":"currency0","type":"address","internalType":"Currency"},{"name":"currency1","type":"address","internalType":"Currency"},{"name":"fee","type":"uint24","internalType":"uint24"},{"name":"tickSpacing","type":"int24","internalType":"int24"},{"name":"hooks","type":"address","internalType":"contract IHooks"}]},{"name":"params","type":"tuple","internalType":"struct IPoolManager.SwapParams","components":[{"name":"zeroForOne","type":"bool","internalType":"bool"},{"name":"amountSpecified","type":"int256","internalType":"int256"},{"name":"sqrtPriceLimitX96","type":"uint160","internalType":"uint160"}]},{"name":"hookData","type":"bytes","internalType":"bytes"}],"outputs":[{"name":"swapDelta","type":"int256","internalType":"BalanceDelta"}],"stateMutability":"nonpayable"},{"type":"function","name":"unlockCallback","inputs":[{"name":"input","type":"bytes","internalType":"bytes"}],"outputs":[{"name":"","type":"bytes","internalType":"bytes"}],"stateMutability":"nonpayable"},{"type":"event","name":"Debug","inputs":[{"name":"","type":"string","indexed":false,"internalType":"string"}],"anonymous":false},{"type":"error","name":"ActionNotSupported","inputs":[]},{"type":"error","name":"CheckParameters","inputs":[]}],"bytecode":{"object":"60a06040523461007657610019610014610147565b610168565b61002161007b565b611f2561016e8239608051818181608101528181610a5d01528181610c4a01528181610e20015281816111eb015281816114540152818161169d015281816116e70152818161173201526117810152611f2590f35b610081565b60405190565b5f80fd5b601f801991011690565b634e487b7160e01b5f52604160045260245ffd5b906100ad90610085565b810190811060018060401b038211176100c557604052565b61008f565b906100dd6100d661007b565b92836100a3565b565b5f80fd5b60018060a01b031690565b6100f7906100e3565b90565b610103906100ee565b90565b61010f816100fa565b0361011657565b5f80fd5b9050519061012782610106565b565b906020828203126101425761013f915f0161011a565b90565b6100df565b6101656120938038038061015a816100ca565b928339810190610129565b90565b60805256fe60806040526004361015610013575b6106cd565b61001d5f3561005c565b8063481c6a751461005757806381a30ce61461005257806391dd73461461004d5763f3cd914c0361000e57610694565b610559565b610488565b610115565b60e01c90565b60405190565b5f80fd5b5f80fd5b5f91031261007a57565b61006c565b7f000000000000000000000000000000000000000000000000000000000000000090565b73ffffffffffffffffffffffffffffffffffffffff1690565b90565b6100d36100ce6100d8926100a3565b6100bc565b6100a3565b90565b6100e4906100bf565b90565b6100f0906100db565b90565b6100fc906100e7565b9052565b9190610113905f602085019401906100f3565b565b3461014557610125366004610070565b61014161013061007f565b610138610062565b91829182610100565b0390f35b610068565b5f80fd5b5f80fd5b601f801991011690565b7f4e487b71000000000000000000000000000000000000000000000000000000005f52604160045260245ffd5b9061019390610152565b810190811067ffffffffffffffff8211176101ad57604052565b61015c565b906101c56101be610062565b9283610189565b565b6101d0906100a3565b90565b6101dc816101c7565b036101e357565b5f80fd5b905035906101f4826101d3565b565b62ffffff1690565b610207816101f6565b0361020e57565b5f80fd5b9050359061021f826101fe565b565b60020b90565b61023081610221565b0361023757565b5f80fd5b9050359061024882610227565b565b610253906101c7565b90565b61025f8161024a565b0361026657565b5f80fd5b9050359061027782610256565b565b919060a0838203126102e9576102e29061029360a06101b2565b936102a0825f83016101e7565b5f8601526102b182602083016101e7565b60208601526102c38260408301610212565b60408601526102d5826060830161023b565b606086015260800161026a565b6080830152565b61014e565b90565b6102fa816102ee565b0361030157565b5f80fd5b90503590610312826102f1565b565b90565b61032081610314565b0361032757565b5f80fd5b9050359061033882610317565b565b9190608083820312610398576103919061035460806101b2565b93610361825f830161023b565b5f860152610372826020830161023b565b60208601526103848260408301610305565b604086015260600161032b565b6060830152565b61014e565b5f80fd5b5f80fd5b5f80fd5b909182601f830112156103e35781359167ffffffffffffffff83116103de5760200192600183028401116103d957565b6103a5565b6103a1565b61039d565b916101408383031261043757610400825f8501610279565b9261040e8360a0830161033a565b9261012082013567ffffffffffffffff81116104325761042e92016103a9565b9091565b61014a565b61006c565b61045061044b610455926102ee565b6100bc565b6102ee565b90565b6104619061043c565b9052565b91602061048692949361047f60408201965f830190610458565b0190610458565b565b346104bd576104a461049b3660046103e8565b929190916109e9565b906104b96104b0610062565b92839283610465565b0390f35b610068565b906020828203126104f3575f82013567ffffffffffffffff81116104ee576104ea92016103a9565b9091565b61014a565b61006c565b5190565b60209181520190565b90825f9392825e0152565b61052f61053860209361053d93610526816104f8565b938480936104fc565b95869101610505565b610152565b0190565b6105569160208201915f818403910152610510565b90565b3461058a5761058661057561056f3660046104c2565b90610c2d565b61057d610062565b91829182610541565b0390f35b610068565b151590565b61059d8161058f565b036105a457565b5f80fd5b905035906105b582610594565b565b6105c0816100a3565b036105c757565b5f80fd5b905035906105d8826105b7565b565b91906060838203126106265761061f906105f460606101b2565b93610601825f83016105a8565b5f8601526106128260208301610305565b60208601526040016105cb565b6040830152565b61014e565b916101208383031261067a57610643825f8501610279565b926106518360a083016105da565b9261010082013567ffffffffffffffff81116106755761067192016103a9565b9091565b61014a565b61006c565b9190610692905f60208501940190610458565b565b346106c8576106c46106b36106aa36600461062b565b92919091610db4565b6106bb610062565b9182918261067f565b0390f35b610068565b5f80fd5b5f90565b6106de906100db565b90565b6106ea906106d5565b9052565b6106f7906101f6565b9052565b61070490610221565b9052565b610711906100db565b90565b61071d90610708565b9052565b90608080610779936107395f8201515f8601906106e1565b61074b602082015160208601906106e1565b61075d604082015160408601906106ee565b61076f606082015160608601906106fb565b0151910190610714565b565b610784906102ee565b9052565b61079190610314565b9052565b906060806107db936107ad5f8201515f8601906106fb565b6107bf602082015160208601906106fb565b6107d16040820151604086019061077b565b0151910190610788565b565b90825f939282370152565b9190610802816107fb81610807956104fc565b80956107dd565b610152565b0190565b61083261084095939492946108286101408401965f850190610721565b60a0830190610795565b6101208185039101526107e8565b90565b7f4e487b71000000000000000000000000000000000000000000000000000000005f52602160045260245ffd5b6002111561087a57565b610843565b9061088982610870565b565b6108949061087f565b90565b6108a09061088b565b9052565b916108c7926108ba60408201935f830190610897565b6020818403910152610510565b90565b5f80fd5b60e01b90565b5f80fd5b67ffffffffffffffff81116108f6576108f2602091610152565b0190565b61015c565b9092919261091061090b826108d8565b6101b2565b9381855260208501908284011161092c5761092a92610505565b565b6108d4565b9080601f8301121561094f5781602061094c935191016108fb565b90565b61039d565b90602082820312610984575f82015167ffffffffffffffff811161097f5761097c9201610931565b90565b61014a565b61006c565b610991610062565b3d5f823e3d90fd5b6109a2816102ee565b036109a957565b5f80fd5b905051906109ba82610999565b565b91906040838203126109e457806109d86109e1925f86016109ad565b936020016109ad565b90565b61006c565b5f9291610a1f610aa995610a2e936109ff6106d1565b50610a086106d1565b509294610a13610062565b9586946020860161080b565b60208201810382520382610189565b610a5882610a49610a3d610062565b938492602084016108a4565b60208201810382520382610189565b610a817f00000000000000000000000000000000000000000000000000000000000000006100e7565b610a9e836348c89491610a92610062565b968795869485936108ce565b835260048301610541565b03925af18015610afb57610ad5915f91610ad9575b506020610aca826104f8565b8183010191016109bc565b9091565b610af591503d805f833e610aed8183610189565b810190610954565b5f610abe565b610989565b606090565b15610b0c57565b5f80fd5b60021115610b1a57565b5f80fd5b90503590610b2b82610b10565b565b90929192610b42610b3d826108d8565b6101b2565b93818552602085019082840111610b5e57610b5c926107dd565b565b6108d4565b9080601f83011215610b8157816020610b7e93359101610b2d565b90565b61039d565b919091604081840312610bc657610b9f835f8301610b1e565b92602082013567ffffffffffffffff8111610bc157610bbe9201610b63565b90565b61014a565b61006c565b60209181520190565b5f7f696e76616c696420706f6f6c20616374696f6e00000000000000000000000000910152565b610c086013602092610bcb565b610c1181610bd4565b0190565b610c2a9060208101905f818303910152610bfb565b90565b90610c8891610c3a610b00565b50610c7f33610c79610c73610c6e7f00000000000000000000000000000000000000000000000000000000000000006100e7565b6101c7565b916101c7565b14610b05565b90810190610b86565b9080610c9c610c965f61087f565b9161087f565b14610d0157610cb4610cae600161087f565b9161087f565b14610cf557610cc1610062565b7f08c379a000000000000000000000000000000000000000000000000000000000815280610cf160048201610c15565b0390fd5b610cfe90611429565b90565b50610d0b90611188565b90565b610d179061058f565b9052565b610d24906100a3565b9052565b90604080610d5c93610d405f8201515f860190610d0e565b610d526020820151602086019061077b565b0151910190610d1b565b565b610d85610d939593949294610d7b6101208401965f850190610721565b60a0830190610d28565b6101008185039101526107e8565b90565b90602082820312610daf57610dac915f016109ad565b90565b61006c565b5f9291610de1610e6c95610df093610dca6106d1565b509294610dd5610062565b95869460208601610d5e565b60208201810382520382610189565b610e1b6001610e0c610e00610062565b938492602084016108a4565b60208201810382520382610189565b610e447f00000000000000000000000000000000000000000000000000000000000000006100e7565b610e61836348c89491610e55610062565b968795869485936108ce565b835260048301610541565b03925af18015610ebd57610e98915f91610e9b575b506020610e8d826104f8565b818301019101610d96565b90565b610eb791503d805f833e610eaf8183610189565b810190610954565b5f610e81565b610989565b90505190610ecf826101d3565b565b90505190610ede826101fe565b565b90505190610eed82610227565b565b90505190610efc82610256565b565b919060a083820312610f6e57610f6790610f1860a06101b2565b93610f25825f8301610ec2565b5f860152610f368260208301610ec2565b6020860152610f488260408301610ed1565b6040860152610f5a8260608301610ee0565b6060860152608001610eef565b6080830152565b61014e565b90505190610f80826102f1565b565b90505190610f8f82610317565b565b9190608083820312610fef57610fe890610fab60806101b2565b93610fb8825f8301610ee0565b5f860152610fc98260208301610ee0565b6020860152610fdb8260408301610f73565b6040860152606001610f82565b6060830152565b61014e565b91610140838303126110425761100c825f8501610efe565b9261101a8360a08301610f91565b9261012082015167ffffffffffffffff811161103d5761103a9201610931565b90565b61014a565b61006c565b5f7f6100000000000000000000000000000000000000000000000000000000000000910152565b61107b6001602092610bcb565b61108481611047565b0190565b61109d9060208101905f81830391015261106e565b90565b6110c56110d39492936110bb6101408401955f850190610721565b60a0830190610795565b610120818403910152610510565b90565b5f7f6200000000000000000000000000000000000000000000000000000000000000910152565b61110a6001602092610bcb565b611113816110d6565b0190565b61112c9060208101905f8183039101526110fd565b90565b5f7f6300000000000000000000000000000000000000000000000000000000000000910152565b6111636001602092610bcb565b61116c8161112f565b0190565b6111859060208101905f818303910152611156565b90565b6111ad604091611196610b00565b5060206111a2826104f8565b818301019101610ff4565b9192907f7cdb51e9dbbc205231228146c3246e7f914aa6d4a33170e43ecc8e3593481d1a6111d9610062565b806111e381611088565b0390a161120f7f00000000000000000000000000000000000000000000000000000000000000006100e7565b6112325f635a6bcfda61123d889597611226610062565b988997889687956108ce565b8552600485016110a0565b03925af190811561132c576112f6915f809290916112f9575b5061129a9091937f7cdb51e9dbbc205231228146c3246e7f914aa6d4a33170e43ecc8e3593481d1a611286610062565b8061129081611117565b0390a182906115f9565b7f7cdb51e9dbbc205231228146c3246e7f914aa6d4a33170e43ecc8e3593481d1a6112c3610062565b806112cd81611170565b0390a16112e76112db610062565b93849260208401610465565b60208201810382520382610189565b90565b61129a925061131f915060403d8111611325575b6113178183610189565b8101906109bc565b91611256565b503d61130d565b610989565b9050519061133e82610594565b565b9050519061134d826105b7565b565b919060608382031261139b576113949061136960606101b2565b93611376825f8301611331565b5f8601526113878260208301610f73565b6020860152604001611340565b6040830152565b61014e565b91610120838303126113ee576113b8825f8501610efe565b926113c68360a0830161134f565b9261010082015167ffffffffffffffff81116113e9576113e69201610931565b90565b61014a565b61006c565b61141861142694929361140e6101208401955f850190610721565b60a0830190610d28565b610100818403910152610510565b90565b61144d602091611437610b00565b5082611442826104f8565b8183010191016113a0565b92906114787f00000000000000000000000000000000000000000000000000000000000000006100e7565b61149b5f63f3cd914c6114a687959861148f610062565b998a97889687956108ce565b8552600485016113f3565b03925af1908115611520576114cc6114ef926114e0945f916114f2575b509182906115f9565b6114d4610062565b9283916020830161067f565b60208201810382520382610189565b90565b611513915060203d8111611519575b61150b8183610189565b810190610d96565b5f6114c3565b503d611501565b610989565b600f0b90565b61153f61153a61154492611525565b6100bc565b6102ee565b90565b90565b61155e61155961156392611547565b6100bc565b6102ee565b90565b61157090516101c7565b90565b7f4e487b71000000000000000000000000000000000000000000000000000000005f52601160045260245ffd5b6115a9906102ee565b7f800000000000000000000000000000000000000000000000000000000000000081146115d5575f0390565b611573565b90565b6115f16115ec6115f6926102ee565b6100bc565b6115da565b90565b9061161c61161761161161160c846117c3565b61152b565b926117d2565b61152b565b905f8161163161162b5f61154a565b916102ee565b12611771575b8261164a6116445f61154a565b916102ee565b1261171f575b505f90806116666116605f61154a565b916102ee565b136116d5575b508161168061167a5f61154a565b916102ee565b1361168b575b505050565b61169a60206116cd9401611566565b917f00000000000000000000000000000000000000000000000000000000000000006116c632926115dd565b9293611cfb565b5f8080611686565b611719906116e45f8601611566565b907f00000000000000000000000000000000000000000000000000000000000000009061171132916115dd565b918593611cfb565b5f61166c565b61176b9061172f60208601611566565b907f0000000000000000000000000000000000000000000000000000000000000000329061176461175f886115a0565b6115dd565b9293611942565b5f611650565b6117ba61177f5f8601611566565b7f0000000000000000000000000000000000000000000000000000000000000000326117b26117ad876115a0565b6115dd565b918593611942565b611637565b5f90565b6117cb6117bf565b5060801d90565b6117da6117bf565b50600f0b90565b6117ea816115da565b036117f157565b5f80fd5b90505190611802826117e1565b565b9060208282031261181d5761181a915f016117f5565b90565b61006c565b61182b906106d5565b9052565b9190611842905f60208501940190611822565b565b61184d906100db565b90565b611859906100bf565b90565b61186590611850565b90565b611871906100db565b90565b9060208282031261188d5761188a915f01611331565b90565b61006c565b61189b906101c7565b9052565b6118a8906115da565b9052565b9160206118cd9294936118c660408201965f830190611892565b019061189f565b565b6040906118f86118ff94969593966118ee60608401985f850190611892565b6020830190611892565b019061189f565b565b5f91031261190b57565b61006c565b604090611939611940949695939661192f60608401985f850190611892565b602083019061189f565b019061189f565b565b9192935f146119de57611954906100e7565b61196363f5298aca9392611eca565b9392813b156119d9575f61198a91611995829661197e610062565b988997889687956108ce565b855260048501611910565b03925af180156119d4576119a8575b505b565b6119c7905f3d81116119cd575b6119bf8183610189565b810190611901565b5f6119a4565b503d6119b5565b610989565b6108ca565b9092916119ea84611e67565b5f14611a76575091602091611a24611a04611a2f956100e7565b92636a256b29929392939093611a18610062565b968795869485936108ce565b83526004830161182f565b03925af18015611a7157611a45575b505b6119a6565b611a659060203d8111611a6a575b611a5d8183610189565b810190611804565b611a3e565b503d611a53565b610989565b611ab16020611a868496946100e7565b63a584119490611aa65f8793611a9a610062565b968795869485936108ce565b83526004830161182f565b03925af18015611cc457611c98575b5080611adc611ad6611ad130611844565b6101c7565b916101c7565b14155f14611bf457602090611b00611afb611af6856106d5565b61185c565b611868565b611b2a5f6323b872dd611b35611b158a6100e7565b98611b1e610062565b998a97889687956108ce565b8552600485016118cf565b03925af18015611bef57611b7e93602093611b5692611bc4575b505b6100e7565b611b735f636a256b29611b67610062565b968795869485936108ce565b83526004830161182f565b03925af18015611bbf57611b93575b50611a40565b611bb39060203d8111611bb8575b611bab8183610189565b810190611804565b611b8d565b503d611ba1565b610989565b611be390853d8111611be8575b611bdb8183610189565b810190611874565b611b4f565b503d611bd1565b610989565b506020611c10611c0b611c06846106d5565b61185c565b611868565b9263a9059cbb93611c3d5f611c24886100e7565b9396611c48611c31610062565b988996879586946108ce565b8452600484016118ac565b03925af18015611c9357611b7e93602093611b5692611c68575b50611b51565b611c8790853d8111611c8c575b611c7f8183610189565b810190611874565b611c62565b503d611c75565b610989565b611cb89060203d8111611cbd575b611cb08183610189565b810190611804565b611ac0565b503d611ca6565b610989565b604090611cf2611cf99496959396611ce860608401985f850190611822565b6020830190611892565b019061189f565b565b9192935f14611d9757611d0d906100e7565b611d1c63156e29f69392611eca565b9392813b15611d92575f611d4391611d4e8296611d37610062565b988997889687956108ce565b855260048501611910565b03925af18015611d8d57611d61575b505b565b611d80905f3d8111611d86575b611d788183610189565b810190611901565b5f611d5d565b503d611d6e565b610989565b6108ca565b611da3909291926100e7565b630b0d9c0992919392813b15611e22575f611dd191611ddc8296611dc5610062565b988997889687956108ce565b855260048501611cc9565b03925af18015611e1d57611df1575b50611d5f565b611e10905f3d8111611e16575b611e088183610189565b810190611901565b5f611deb565b503d611dfe565b610989565b6108ca565b5f90565b611e3f611e3a611e4492611547565b6100bc565b6100a3565b90565b611e5090611e2b565b90565b611e64611e5f5f611e47565b6106d5565b90565b611e7990611e73611e27565b506106d5565b611e9a611e94611e8f611e8a611e53565b6106d5565b6101c7565b916101c7565b1490565b5f90565b611eab906100bf565b90565b611ec2611ebd611ec7926100a3565b6100bc565b6115da565b90565b611ee7611ee2611eec92611edc611e9e565b506106d5565b611ea2565b611eae565b9056fea26469706673582212202b3ab468c17020dcba65abd415fe1d0037a54c187e4a6637ee04c9ff626f08ef64736f6c634300081a0033","linkReferences":{}},"methodIdentifiers":{"ActionModifyLiquidity((address,address,uint24,int24,address),(int24,int24,int256,bytes32),bytes)":"81a30ce6","manager()":"481c6a75","swap((address,address,uint24,int24,address),(bool,int256,uint160),bytes)":"f3cd914c","unlockCallback(bytes)":"91dd7346"},"id":0}