{"abi":[{"type":"constructor","inputs":[{"name":"controllerGasLimit","type":"uint256","internalType":"uint256"}],"stateMutability":"nonpayable"},{"type":"function","name":"MAX_TICK_SPACING","inputs":[],"outputs":[{"name":"","type":"int24","internalType":"int24"}],"stateMutability":"view"},{"type":"function","name":"MIN_TICK_SPACING","inputs":[],"outputs":[{"name":"","type":"int24","internalType":"int24"}],"stateMutability":"view"},{"type":"function","name":"allowance","inputs":[{"name":"","type":"address","internalType":"address"},{"name":"","type":"address","internalType":"address"},{"name":"","type":"uint256","internalType":"uint256"}],"outputs":[{"name":"","type":"uint256","internalType":"uint256"}],"stateMutability":"view"},{"type":"function","name":"approve","inputs":[{"name":"spender","type":"address","internalType":"address"},{"name":"id","type":"uint256","internalType":"uint256"},{"name":"amount","type":"uint256","internalType":"uint256"}],"outputs":[{"name":"","type":"bool","internalType":"bool"}],"stateMutability":"nonpayable"},{"type":"function","name":"balanceOf","inputs":[{"name":"","type":"address","internalType":"address"},{"name":"","type":"uint256","internalType":"uint256"}],"outputs":[{"name":"","type":"uint256","internalType":"uint256"}],"stateMutability":"view"},{"type":"function","name":"burn","inputs":[{"name":"from","type":"address","internalType":"address"},{"name":"id","type":"uint256","internalType":"uint256"},{"name":"amount","type":"uint256","internalType":"uint256"}],"outputs":[],"stateMutability":"nonpayable"},{"type":"function","name":"collectProtocolFees","inputs":[{"name":"recipient","type":"address","internalType":"address"},{"name":"currency","type":"address","internalType":"Currency"},{"name":"amount","type":"uint256","internalType":"uint256"}],"outputs":[{"name":"amountCollected","type":"uint256","internalType":"uint256"}],"stateMutability":"nonpayable"},{"type":"function","name":"donate","inputs":[{"name":"key","type":"tuple","internalType":"struct PoolKey","components":[{"name":"currency0","type":"address","internalType":"Currency"},{"name":"currency1","type":"address","internalType":"Currency"},{"name":"fee","type":"uint24","internalType":"uint24"},{"name":"tickSpacing","type":"int24","internalType":"int24"},{"name":"hooks","type":"address","internalType":"contract IHooks"}]},{"name":"amount0","type":"uint256","internalType":"uint256"},{"name":"amount1","type":"uint256","internalType":"uint256"},{"name":"hookData","type":"bytes","internalType":"bytes"}],"outputs":[{"name":"delta","type":"int256","internalType":"BalanceDelta"}],"stateMutability":"nonpayable"},{"type":"function","name":"extsload","inputs":[{"name":"slot","type":"bytes32","internalType":"bytes32"}],"outputs":[{"name":"","type":"bytes32","internalType":"bytes32"}],"stateMutability":"view"},{"type":"function","name":"extsload","inputs":[{"name":"startSlot","type":"bytes32","internalType":"bytes32"},{"name":"nSlots","type":"uint256","internalType":"uint256"}],"outputs":[{"name":"","type":"bytes","internalType":"bytes"}],"stateMutability":"view"},{"type":"function","name":"extsload","inputs":[{"name":"slots","type":"bytes32[]","internalType":"bytes32[]"}],"outputs":[{"name":"","type":"bytes32[]","internalType":"bytes32[]"}],"stateMutability":"view"},{"type":"function","name":"exttload","inputs":[{"name":"slots","type":"bytes32[]","internalType":"bytes32[]"}],"outputs":[{"name":"","type":"bytes32[]","internalType":"bytes32[]"}],"stateMutability":"view"},{"type":"function","name":"exttload","inputs":[{"name":"slot","type":"bytes32","internalType":"bytes32"}],"outputs":[{"name":"","type":"bytes32","internalType":"bytes32"}],"stateMutability":"view"},{"type":"function","name":"initialize","inputs":[{"name":"key","type":"tuple","internalType":"struct PoolKey","components":[{"name":"currency0","type":"address","internalType":"Currency"},{"name":"currency1","type":"address","internalType":"Currency"},{"name":"fee","type":"uint24","internalType":"uint24"},{"name":"tickSpacing","type":"int24","internalType":"int24"},{"name":"hooks","type":"address","internalType":"contract IHooks"}]},{"name":"sqrtPriceX96","type":"uint160","internalType":"uint160"},{"name":"hookData","type":"bytes","internalType":"bytes"}],"outputs":[{"name":"tick","type":"int24","internalType":"int24"}],"stateMutability":"nonpayable"},{"type":"function","name":"isOperator","inputs":[{"name":"","type":"address","internalType":"address"},{"name":"","type":"address","internalType":"address"}],"outputs":[{"name":"","type":"bool","internalType":"bool"}],"stateMutability":"view"},{"type":"function","name":"mint","inputs":[{"name":"to","type":"address","internalType":"address"},{"name":"id","type":"uint256","internalType":"uint256"},{"name":"amount","type":"uint256","internalType":"uint256"}],"outputs":[],"stateMutability":"nonpayable"},{"type":"function","name":"modifyLiquidity","inputs":[{"name":"key","type":"tuple","internalType":"struct PoolKey","components":[{"name":"currency0","type":"address","internalType":"Currency"},{"name":"currency1","type":"address","internalType":"Currency"},{"name":"fee","type":"uint24","internalType":"uint24"},{"name":"tickSpacing","type":"int24","internalType":"int24"},{"name":"hooks","type":"address","internalType":"contract IHooks"}]},{"name":"params","type":"tuple","internalType":"struct IPoolManager.ModifyLiquidityParams","components":[{"name":"tickLower","type":"int24","internalType":"int24"},{"name":"tickUpper","type":"int24","internalType":"int24"},{"name":"liquidityDelta","type":"int256","internalType":"int256"},{"name":"salt","type":"bytes32","internalType":"bytes32"}]},{"name":"hookData","type":"bytes","internalType":"bytes"}],"outputs":[{"name":"callerDelta","type":"int256","internalType":"BalanceDelta"},{"name":"feesAccrued","type":"int256","internalType":"BalanceDelta"}],"stateMutability":"nonpayable"},{"type":"function","name":"owner","inputs":[],"outputs":[{"name":"","type":"address","internalType":"address"}],"stateMutability":"view"},{"type":"function","name":"protocolFeeController","inputs":[],"outputs":[{"name":"","type":"address","internalType":"contract IProtocolFeeController"}],"stateMutability":"view"},{"type":"function","name":"protocolFeesAccrued","inputs":[{"name":"currency","type":"address","internalType":"Currency"}],"outputs":[{"name":"","type":"uint256","internalType":"uint256"}],"stateMutability":"view"},{"type":"function","name":"setOperator","inputs":[{"name":"operator","type":"address","internalType":"address"},{"name":"approved","type":"bool","internalType":"bool"}],"outputs":[{"name":"","type":"bool","internalType":"bool"}],"stateMutability":"nonpayable"},{"type":"function","name":"setProtocolFee","inputs":[{"name":"key","type":"tuple","internalType":"struct PoolKey","components":[{"name":"currency0","type":"address","internalType":"Currency"},{"name":"currency1","type":"address","internalType":"Currency"},{"name":"fee","type":"uint24","internalType":"uint24"},{"name":"tickSpacing","type":"int24","internalType":"int24"},{"name":"hooks","type":"address","internalType":"contract IHooks"}]},{"name":"newProtocolFee","type":"uint24","internalType":"uint24"}],"outputs":[],"stateMutability":"nonpayable"},{"type":"function","name":"setProtocolFeeController","inputs":[{"name":"controller","type":"address","internalType":"contract IProtocolFeeController"}],"outputs":[],"stateMutability":"nonpayable"},{"type":"function","name":"settle","inputs":[{"name":"currency","type":"address","internalType":"Currency"}],"outputs":[{"name":"paid","type":"uint256","internalType":"uint256"}],"stateMutability":"payable"},{"type":"function","name":"supportsInterface","inputs":[{"name":"interfaceId","type":"bytes4","internalType":"bytes4"}],"outputs":[{"name":"","type":"bool","internalType":"bool"}],"stateMutability":"view"},{"type":"function","name":"swap","inputs":[{"name":"key","type":"tuple","internalType":"struct PoolKey","components":[{"name":"currency0","type":"address","internalType":"Currency"},{"name":"currency1","type":"address","internalType":"Currency"},{"name":"fee","type":"uint24","internalType":"uint24"},{"name":"tickSpacing","type":"int24","internalType":"int24"},{"name":"hooks","type":"address","internalType":"contract IHooks"}]},{"name":"params","type":"tuple","internalType":"struct IPoolManager.SwapParams","components":[{"name":"zeroForOne","type":"bool","internalType":"bool"},{"name":"amountSpecified","type":"int256","internalType":"int256"},{"name":"sqrtPriceLimitX96","type":"uint160","internalType":"uint160"}]},{"name":"hookData","type":"bytes","internalType":"bytes"}],"outputs":[{"name":"swapDelta","type":"int256","internalType":"BalanceDelta"}],"stateMutability":"nonpayable"},{"type":"function","name":"sync","inputs":[{"name":"currency","type":"address","internalType":"Currency"}],"outputs":[{"name":"balance","type":"uint256","internalType":"uint256"}],"stateMutability":"nonpayable"},{"type":"function","name":"take","inputs":[{"name":"currency","type":"address","internalType":"Currency"},{"name":"to","type":"address","internalType":"address"},{"name":"amount","type":"uint256","internalType":"uint256"}],"outputs":[],"stateMutability":"nonpayable"},{"type":"function","name":"transfer","inputs":[{"name":"receiver","type":"address","internalType":"address"},{"name":"id","type":"uint256","internalType":"uint256"},{"name":"amount","type":"uint256","internalType":"uint256"}],"outputs":[{"name":"","type":"bool","internalType":"bool"}],"stateMutability":"nonpayable"},{"type":"function","name":"transferFrom","inputs":[{"name":"sender","type":"address","internalType":"address"},{"name":"receiver","type":"address","internalType":"address"},{"name":"id","type":"uint256","internalType":"uint256"},{"name":"amount","type":"uint256","internalType":"uint256"}],"outputs":[{"name":"","type":"bool","internalType":"bool"}],"stateMutability":"nonpayable"},{"type":"function","name":"transferOwnership","inputs":[{"name":"newOwner","type":"address","internalType":"address"}],"outputs":[],"stateMutability":"nonpayable"},{"type":"function","name":"unlock","inputs":[{"name":"data","type":"bytes","internalType":"bytes"}],"outputs":[{"name":"result","type":"bytes","internalType":"bytes"}],"stateMutability":"nonpayable"},{"type":"function","name":"updateDynamicLPFee","inputs":[{"name":"key","type":"tuple","internalType":"struct PoolKey","components":[{"name":"currency0","type":"address","internalType":"Currency"},{"name":"currency1","type":"address","internalType":"Currency"},{"name":"fee","type":"uint24","internalType":"uint24"},{"name":"tickSpacing","type":"int24","internalType":"int24"},{"name":"hooks","type":"address","internalType":"contract IHooks"}]},{"name":"newDynamicLPFee","type":"uint24","internalType":"uint24"}],"outputs":[],"stateMutability":"nonpayable"},{"type":"event","name":"Approval","inputs":[{"name":"owner","type":"address","indexed":true,"internalType":"address"},{"name":"spender","type":"address","indexed":true,"internalType":"address"},{"name":"id","type":"uint256","indexed":true,"internalType":"uint256"},{"name":"amount","type":"uint256","indexed":false,"internalType":"uint256"}],"anonymous":false},{"type":"event","name":"Initialize","inputs":[{"name":"id","type":"bytes32","indexed":false,"internalType":"PoolId"},{"name":"currency0","type":"address","indexed":true,"internalType":"Currency"},{"name":"currency1","type":"address","indexed":true,"internalType":"Currency"},{"name":"fee","type":"uint24","indexed":false,"internalType":"uint24"},{"name":"tickSpacing","type":"int24","indexed":false,"internalType":"int24"},{"name":"hooks","type":"address","indexed":false,"internalType":"contract IHooks"}],"anonymous":false},{"type":"event","name":"ModifyLiquidity","inputs":[{"name":"id","type":"bytes32","indexed":true,"internalType":"PoolId"},{"name":"sender","type":"address","indexed":true,"internalType":"address"},{"name":"tickLower","type":"int24","indexed":false,"internalType":"int24"},{"name":"tickUpper","type":"int24","indexed":false,"internalType":"int24"},{"name":"liquidityDelta","type":"int256","indexed":false,"internalType":"int256"}],"anonymous":false},{"type":"event","name":"OperatorSet","inputs":[{"name":"owner","type":"address","indexed":true,"internalType":"address"},{"name":"operator","type":"address","indexed":true,"internalType":"address"},{"name":"approved","type":"bool","indexed":false,"internalType":"bool"}],"anonymous":false},{"type":"event","name":"OwnershipTransferred","inputs":[{"name":"user","type":"address","indexed":true,"internalType":"address"},{"name":"newOwner","type":"address","indexed":true,"internalType":"address"}],"anonymous":false},{"type":"event","name":"ProtocolFeeControllerUpdated","inputs":[{"name":"protocolFeeController","type":"address","indexed":false,"internalType":"address"}],"anonymous":false},{"type":"event","name":"ProtocolFeeUpdated","inputs":[{"name":"id","type":"bytes32","indexed":true,"internalType":"PoolId"},{"name":"protocolFee","type":"uint24","indexed":false,"internalType":"uint24"}],"anonymous":false},{"type":"event","name":"Swap","inputs":[{"name":"id","type":"bytes32","indexed":true,"internalType":"PoolId"},{"name":"sender","type":"address","indexed":false,"internalType":"address"},{"name":"amount0","type":"int128","indexed":false,"internalType":"int128"},{"name":"amount1","type":"int128","indexed":false,"internalType":"int128"},{"name":"sqrtPriceX96","type":"uint160","indexed":false,"internalType":"uint160"},{"name":"liquidity","type":"uint128","indexed":false,"internalType":"uint128"},{"name":"tick","type":"int24","indexed":false,"internalType":"int24"},{"name":"fee","type":"uint24","indexed":false,"internalType":"uint24"}],"anonymous":false},{"type":"event","name":"Transfer","inputs":[{"name":"caller","type":"address","indexed":false,"internalType":"address"},{"name":"from","type":"address","indexed":true,"internalType":"address"},{"name":"to","type":"address","indexed":true,"internalType":"address"},{"name":"id","type":"uint256","indexed":true,"internalType":"uint256"},{"name":"amount","type":"uint256","indexed":false,"internalType":"uint256"}],"anonymous":false},{"type":"error","name":"AlreadyUnlocked","inputs":[]},{"type":"error","name":"CurrenciesOutOfOrderOrEqual","inputs":[]},{"type":"error","name":"CurrencyNotSettled","inputs":[]},{"type":"error","name":"DelegateCallNotAllowed","inputs":[]},{"type":"error","name":"InvalidCaller","inputs":[]},{"type":"error","name":"InvalidProtocolFee","inputs":[]},{"type":"error","name":"ManagerLocked","inputs":[]},{"type":"error","name":"NonZeroNativeValue","inputs":[]},{"type":"error","name":"PoolNotInitialized","inputs":[]},{"type":"error","name":"ProtocolFeeCannotBeFetched","inputs":[]},{"type":"error","name":"SwapAmountCannotBeZero","inputs":[]},{"type":"error","name":"TickSpacingTooLarge","inputs":[]},{"type":"error","name":"TickSpacingTooSmall","inputs":[]},{"type":"error","name":"UnauthorizedDynamicLPFeeUpdate","inputs":[]}],"bytecode":{"object":"60c060405234610048576100196100146100f9565b61011a565b61002161004d565b619ef16102978239608051818181614d7a0152614dc7015260a05181613a230152619ef190f35b610053565b60405190565b5f80fd5b601f801991011690565b634e487b7160e01b5f52604160045260245ffd5b9061007f90610057565b810190811060018060401b0382111761009757604052565b610061565b906100af6100a861004d565b9283610075565b565b5f80fd5b90565b6100c1816100b5565b036100c857565b5f80fd5b905051906100d9826100b8565b565b906020828203126100f4576100f1915f016100cc565b90565b6100b1565b61011761a1888038038061010c8161009c565b9283398101906100db565b90565b61012390610125565b565b61012e90610130565b565b6101399061013b565b565b61014490610146565b565b61014f90610193565b565b60018060a01b031690565b90565b61017361016e61017892610151565b61015c565b610151565b90565b6101849061015f565b90565b6101909061017b565b90565b61019c906101aa565b6101a530610187565b60a052565b6101b333610237565b608052565b5f1b90565b906101ce60018060a01b03916101b8565b9181191691161790565b6101e19061017b565b90565b90565b906101fc6101f7610203926101d8565b6101e4565b82546101bd565b9055565b90565b61021e61021961022392610207565b61015c565b610151565b90565b61022f9061020a565b90565b5f0190565b610241815f6101e7565b61024a5f610226565b9061027e6102787f8be0079c531659141344cd1fd0a4f28419497f9722a3daafe3b4186f6b6457e0936101d8565b916101d8565b9161028761004d565b8061029181610232565b0390a356fe60e06040526004361015610013575b611610565b61001d5f3561022b565b8062fdd58e1461022657806301ffc9a71461022157806307eff0dd1461021c578063095bcdb6146102175780630b0d9c0914610212578063156e29f61461020d5780631e2eaeaf14610208578063234266d7146102035780632d771389146101fe57806335fd631a146101f9578063426a8493146101f457806348c89491146101ef57806352759651146101ea578063558a7297146101e5578063598af9e7146101e05780635a6bcfda146101db57806360460f06146101d6578063695c5bf5146101d15780636a256b29146101cc5780637e87ce7d146101c75780638161b874146101c25780638da5cb5b146101bd57806397e8cd4e146101b85780639bf6645f146101b3578063a5841194146101ae578063b6363cf2146101a9578063dbd035ff146101a4578063f02de3b21461019f578063f135baaa1461019a578063f2fde38b14610195578063f3cd914c14610190578063f5298aca1461018b5763fe99049a0361000e576115d7565b61155d565b611524565b61144c565b611414565b6113df565b611348565b611312565b611237565b61121c565b61111e565b6110ba565b611016565b610fa8565b610f7d565b610f26565b610e7c565b610dfc565b610cc9565b610c18565b610b94565b610b31565b610ac5565b610aaa565b6109e9565b610963565b6106f1565b610679565b610645565b6105ad565b61053e565b610490565b6103cd565b60e01c90565b60405190565b5f80fd5b5f80fd5b5f80fd5b73ffffffffffffffffffffffffffffffffffffffff1690565b61026590610243565b90565b6102718161025c565b0361027857565b5f80fd5b9050359061028982610268565b565b90565b6102978161028b565b0361029e57565b5f80fd5b905035906102af8261028e565b565b91906040838203126102d957806102cd6102d6925f860161027c565b936020016102a2565b90565b61023b565b90565b6102f56102f06102fa92610243565b6102de565b610243565b90565b610306906102e1565b90565b610312906102fd565b90565b9061031f90610309565b5f5260205260405f2090565b61033f61033a6103449261028b565b6102de565b61028b565b90565b906103519061032b565b5f5260205260405f2090565b1c90565b90565b610374906008610379930261035d565b610361565b90565b906103879154610364565b90565b6103a36103a89261039e6004935f94610315565b610347565b61037c565b90565b6103b49061028b565b9052565b91906103cb905f602085019401906103ab565b565b346103fe576103fa6103e96103e33660046102b1565b9061038a565b6103f1610231565b918291826103b8565b0390f35b610237565b7fffffffff000000000000000000000000000000000000000000000000000000001690565b61043181610403565b0361043857565b5f80fd5b9050359061044982610428565b565b9060208282031261046457610461915f0161043c565b90565b61023b565b151590565b61047790610469565b9052565b919061048e905f6020850194019061046e565b565b346104c0576104bc6104ab6104a636600461044b565b61165c565b6104b3610231565b9182918261047b565b0390f35b610237565b5f9103126104cf57565b61023b565b90565b60020b90565b6104f16104ec6104f6926104d4565b6102de565b6104d7565b90565b61050360016104dd565b90565b61050e6104f9565b90565b610519610506565b90565b610525906104d7565b9052565b919061053c905f6020850194019061051c565b565b3461056e5761054e3660046104c5565b61056a610559610511565b610561610231565b91829182610529565b0390f35b610237565b90916060828403126105a8576105a561058e845f850161027c565b9361059c81602086016102a2565b936040016102a2565b90565b61023b565b346105de576105da6105c96105c3366004610573565b916117c5565b6105d1610231565b9182918261047b565b0390f35b610237565b6105ec8161025c565b036105f357565b5f80fd5b90503590610604826105e3565b565b909160608284031261063b57610638610621845f85016105f7565b9361062f816020860161027c565b936040016102a2565b90565b61023b565b5f0190565b346106745761065e610658366004610606565b9161191a565b610666610231565b8061067081610640565b0390f35b610237565b346106a85761069261068c366004610573565b916119a2565b61069a610231565b806106a481610640565b0390f35b610237565b90565b6106b9816106ad565b036106c057565b5f80fd5b905035906106d1826106b0565b565b906020828203126106ec576106e9915f016106c4565b90565b61023b565b34610706576107013660046106d3565b6119b3565b610237565b5f80fd5b601f801991011690565b7f4e487b71000000000000000000000000000000000000000000000000000000005f52604160045260245ffd5b906107509061070f565b810190811067ffffffffffffffff82111761076a57604052565b610719565b9061078261077b610231565b9283610746565b565b62ffffff1690565b61079581610784565b0361079c57565b5f80fd5b905035906107ad8261078c565b565b6107b8816104d7565b036107bf57565b5f80fd5b905035906107d0826107af565b565b6107db9061025c565b90565b6107e7816107d2565b036107ee57565b5f80fd5b905035906107ff826107de565b565b919060a0838203126108715761086a9061081b60a061076f565b93610828825f83016105f7565b5f86015261083982602083016105f7565b602086015261084b82604083016107a0565b604086015261085d82606083016107c3565b60608601526080016107f2565b6080830152565b61070b565b5f80fd5b5f80fd5b5f80fd5b909182601f830112156108bc5781359167ffffffffffffffff83116108b75760200192600183028401116108b257565b61087e565b61087a565b610876565b906101008282031261091d576108d9815f8401610801565b926108e78260a085016102a2565b926108f58360c083016102a2565b9260e082013567ffffffffffffffff8111610918576109149201610882565b9091565b61023f565b61023b565b90565b61093961093461093e92610922565b6102de565b610922565b90565b61094a90610925565b9052565b9190610961905f60208501940190610941565b565b34610997576109936109826109793660046108c1565b93929092611a94565b61098a610231565b9182918261094e565b0390f35b610237565b6109a59061025c565b90565b6109b18161099c565b036109b857565b5f80fd5b905035906109c9826109a8565b565b906020828203126109e4576109e1915f016109bc565b90565b61023b565b34610a1757610a016109fc3660046109cb565b611c54565b610a09610231565b80610a1381610640565b0390f35b610237565b9190604083820312610a445780610a38610a41925f86016106c4565b936020016102a2565b90565b61023b565b5190565b60209181520190565b90825f9392825e0152565b610a80610a89602093610a8e93610a7781610a49565b93848093610a4d565b95869101610a56565b61070f565b0190565b610aa79160208201915f818403910152610a61565b90565b34610ac057610aba366004610a1c565b90611c64565b610237565b34610af657610af2610ae1610adb366004610573565b91611ca6565b610ae9610231565b9182918261047b565b0390f35b610237565b90602082820312610b2c575f82013567ffffffffffffffff8111610b2757610b239201610882565b9091565b61023f565b61023b565b34610b6257610b5e610b4d610b47366004610afb565b90611fa7565b610b55610231565b91829182610a92565b0390f35b610237565b919060c083820312610b8f5780610b83610b8c925f8601610801565b9360a0016107a0565b90565b61023b565b34610bc357610bad610ba7366004610b67565b90611ffa565b610bb5610231565b80610bbf81610640565b0390f35b610237565b610bd181610469565b03610bd857565b5f80fd5b90503590610be982610bc8565b565b9190604083820312610c135780610c07610c10925f860161027c565b93602001610bdc565b90565b61023b565b34610c4957610c45610c34610c2e366004610beb565b906120ea565b610c3c610231565b9182918261047b565b0390f35b610237565b9091606082840312610c8357610c80610c69845f850161027c565b93610c77816020860161027c565b936040016102a2565b90565b61023b565b90610c9290610309565b5f5260205260405f2090565b90610cc692610cbc610cc192610cb76005955f96610c88565b610315565b610347565b61037c565b90565b34610cfa57610cf6610ce5610cdf366004610c4e565b91610c9e565b610ced610231565b918291826103b8565b0390f35b610237565b610d0881610922565b03610d0f57565b5f80fd5b90503590610d2082610cff565b565b9190608083820312610d8057610d7990610d3c608061076f565b93610d49825f83016107c3565b5f860152610d5a82602083016107c3565b6020860152610d6c8260408301610d13565b60408601526060016106c4565b6060830152565b61070b565b9161014083830312610dd457610d9d825f8501610801565b92610dab8360a08301610d22565b9261012082013567ffffffffffffffff8111610dcf57610dcb9201610882565b9091565b61023f565b61023b565b916020610dfa929493610df360408201965f830190610941565b0190610941565b565b34610e3157610e18610e0f366004610d85565b9291909161245f565b90610e2d610e24610231565b92839283610dd9565b0390f35b610237565b60010b90565b610e50610e4b610e5592610e36565b6102de565b6104d7565b90565b610e63617fff610e3c565b90565b610e6e610e58565b90565b610e79610e66565b90565b34610eac57610e8c3660046104c5565b610ea8610e97610e71565b610e9f610231565b91829182610529565b0390f35b610237565b610eba81610243565b03610ec157565b5f80fd5b90503590610ed282610eb1565b565b9160e083830312610f2157610eeb825f8501610801565b92610ef98360a08301610ec5565b9260c082013567ffffffffffffffff8111610f1c57610f189201610882565b9091565b61023f565b61023b565b34610f5a57610f56610f45610f3c366004610ed4565b92919091612775565b610f4d610231565b91829182610529565b0390f35b610237565b90602082820312610f7857610f75915f016105f7565b90565b61023b565b610fa4610f93610f8e366004610f5f565b612864565b610f9b610231565b918291826103b8565b0390f35b34610fd757610fc1610fbb366004610b67565b906128ae565b610fc9610231565b80610fd381610640565b0390f35b610237565b90916060828403126110115761100e610ff7845f850161027c565b9361100581602086016105f7565b936040016102a2565b90565b61023b565b346110475761104361103261102c366004610fdc565b91612999565b61103a610231565b918291826103b8565b0390f35b610237565b73ffffffffffffffffffffffffffffffffffffffff1690565b61107590600861107a930261035d565b61104c565b90565b906110889154611065565b90565b6110955f8061107d565b90565b6110a19061025c565b9052565b91906110b8905f60208501940190611098565b565b346110ea576110ca3660046104c5565b6110e66110d561108b565b6110dd610231565b918291826110a5565b0390f35b610237565b906110f990610309565b5f5260205260405f2090565b61111b906111166001915f926110ef565b61037c565b90565b3461114e5761114a611139611134366004610f5f565b611105565b611141610231565b918291826103b8565b0390f35b610237565b909182601f8301121561118d5781359167ffffffffffffffff831161118857602001926020830284011161118357565b61087e565b61087a565b610876565b906020828203126111c3575f82013567ffffffffffffffff81116111be576111ba9201611153565b9091565b61023f565b61023b565b6111d1906106ad565b9052565b906111e2816020936111c8565b0190565b60200190565b8181106111f95750505090565b90919261121261120c60019286516111d5565b946111e6565b91019190916111ec565b346112325761122c366004611192565b90612a66565b610237565b346112675761126361125261124d366004610f5f565b612aa2565b61125a610231565b918291826103b8565b0390f35b610237565b91906040838203126112945780611288611291925f860161027c565b9360200161027c565b90565b61023b565b906112a390610309565b5f5260205260405f2090565b906112b990610309565b5f5260205260405f2090565b60ff1690565b6112db9060086112e0930261035d565b6112c5565b90565b906112ee91546112cb565b90565b61130a61130f926113056003935f94611299565b6112af565b6112e3565b90565b346113435761133f61132e61132836600461126c565b906112f1565b611336610231565b9182918261047b565b0390f35b610237565b3461135e57611358366004611192565b90612ac2565b610237565b73ffffffffffffffffffffffffffffffffffffffff1690565b61138c906008611391930261035d565b611363565b90565b9061139f915461137c565b90565b6113ae60025f90611394565b90565b6113ba906102fd565b90565b6113c6906113b1565b9052565b91906113dd905f602085019401906113bd565b565b3461140f576113ef3660046104c5565b61140b6113fa6113a2565b611402610231565b918291826113ca565b0390f35b610237565b34611429576114243660046106d3565b612afe565b610237565b9060208282031261144757611444915f0161027c565b90565b61023b565b3461147a5761146461145f36600461142e565b612bb8565b61146c610231565b8061147681610640565b0390f35b610237565b91906060838203126114cb576114c490611499606061076f565b936114a6825f8301610bdc565b5f8601526114b78260208301610d13565b6020860152604001610ec5565b6040830152565b61070b565b916101208383031261151f576114e8825f8501610801565b926114f68360a0830161147f565b9261010082013567ffffffffffffffff811161151a576115169201610882565b9091565b61023f565b61023b565b346115585761155461154361153a3660046114d0565b92919091612e3a565b61154b610231565b9182918261094e565b0390f35b610237565b3461158c57611576611570366004610573565b91612ec4565b61157e610231565b8061158881610640565b0390f35b610237565b6080818303126115d2576115a7825f830161027c565b926115cf6115b8846020850161027c565b936115c681604086016102a2565b936060016102a2565b90565b61023b565b3461160b576116076115f66115ed366004611591565b92919091612ef2565b6115fe610231565b9182918261047b565b0390f35b610237565b5f80fd5b5f90565b90565b60e01b90565b61163561163061163a92611618565b61161b565b610403565b90565b90565b61165461164f6116599261163d565b61161b565b610403565b90565b611664611614565b508061167c6116766301ffc9a7611621565b91610403565b14908115611689575b5090565b90506116a161169b630f632fb3611640565b91610403565b145f611685565b5f1c90565b6116b96116be916116a8565b610361565b90565b6116cb90546116ad565b90565b7f4e487b71000000000000000000000000000000000000000000000000000000005f52601160045260245ffd5b61170a6117109193929361028b565b9261028b565b820391821161171b57565b6116ce565b5f1b90565b906117507fffffffffffffffffffffffffffffffffffffffffffffffffffffffffffffffff91611720565b9181191691161790565b90565b9061177261176d6117799261032b565b61175a565b8254611725565b9055565b61178c6117929193929361028b565b9261028b565b820180921161179d57565b6116ce565b9160206117c39294936117bc60408201965f830190611098565b01906103ab565b565b91906117cf611614565b50611802826117fc6117ed6117e660043390610315565b8590610347565b916117f7836116c1565b6116fb565b9061175d565b6118348261182e61181f61181860048890610315565b8590610347565b91611829836116c1565b61177d565b9061175d565b33923390919261187661187061186a7f1b3d7edb2e9c0b0e7c525b20aaaef0f5940d2ed71663c7d39266ecafac72885994610309565b94610309565b9461032b565b9461188b611882610231565b928392836117a2565b0390a4600190565b91906118a66118a06130ad565b15610469565b6118b5576118b3926118ef565b565b7f54e3ca0d000000000000000000000000000000000000000000000000000000006130db565b600f0b90565b6118ec905f036118db565b90565b9161191892611910816119096119048561313d565b6118e1565b33916131f5565b919091613290565b565b906119259291611893565b565b919061193a6119346130ad565b15610469565b611949576119479261196f565b565b7f54e3ca0d000000000000000000000000000000000000000000000000000000006130db565b916119a09261199861198084613327565b61199161198c8561313d565b6118e1565b33916131f5565b919091613374565b565b906119ad9291611927565b565b5f90565b6119bb6119af565b50545f5260205ff35b5f90565b94939291906119de6119d86130ad565b15610469565b6119ee576119eb95611a21565b90565b7f54e3ca0d000000000000000000000000000000000000000000000000000000006130db565b611a1e90516107d2565b90565b92611a929491939695929650611a6e611a41611a3c86613410565b613423565b611a4a8161345d565b611a66611a5960808801611a14565b878b869088928a94613695565b888391613772565b96611a7b858933916138b2565b611a8760808601611a14565b9490919293946139f6565b565b90611aa994939291611aa46119c4565b6119c8565b90565b611ab8611abd916116a8565b61104c565b90565b611aca9054611aac565b90565b60209181520190565b5f7f554e415554484f52495a45440000000000000000000000000000000000000000910152565b611b0a600c602092611acd565b611b1381611ad6565b0190565b611b2c9060208101905f818303910152611afd565b90565b15611b3657565b611b3e610231565b7f08c379a000000000000000000000000000000000000000000000000000000000815280611b6e60048201611b17565b0390fd5b611b9f90611b9a33611b94611b8e611b895f611ac0565b61025c565b9161025c565b14611b2f565b611c05565b565b90611bc073ffffffffffffffffffffffffffffffffffffffff91611720565b9181191691161790565b611bd3906102e1565b90565b611bdf90611bca565b90565b90565b90611bfa611bf5611c0192611bd6565b611be2565b8254611ba1565b9055565b611c1990611c14816002611be5565b6113b1565b611c4f7fb4bd8ef53df690b9943d3318996006dbb82a25f54719d8c8035b516a2a5b8acc91611c46610231565b918291826110a5565b0390a1565b611c5d90611b72565b565b606090565b90611c6d611c5f565b5060205f528060051b60205260051b60400180916001602060405b835481520191019082811015611ca2576020600191611c88565b825ff35b9190611cb0611614565b50611cda82611cd5611cce611cc760053390610c88565b8790610315565b8490610347565b61175d565b3392909192611d30611d1e611d18611d127fb3fd5071835887567a0671151121894ddccc2842f1d10bedad13e0d17cace9a794610309565b94610309565b9461032b565b94611d27610231565b918291826103b8565b0390a4600190565b90611d4b9291611d46613a12565b611e9e565b90565b611d57906102e1565b90565b611d6390611d4e565b90565b611d6f906102fd565b90565b5f80fd5b67ffffffffffffffff8111611d9457611d9060209161070f565b0190565b610719565b90929192611dae611da982611d76565b61076f565b93818552602085019082840111611dca57611dc892610a56565b565b611d72565b9080601f83011215611ded57816020611dea93519101611d99565b90565b610876565b90602082820312611e22575f82015167ffffffffffffffff8111611e1d57611e1a9201611dcf565b90565b61023f565b61023b565b90825f939282370152565b9190611e4c81611e4581611e5195610a4d565b8095611e27565b61070f565b0190565b9091611e6c9260208301925f818503910152611e32565b90565b611e77610231565b3d5f823e3d90fd5b90565b611e96611e91611e9b92611e7f565b6102de565b61028b565b90565b91909150611eaa6130ad565b611f81575f90611eb8613a7a565b611ec9611ec433611d5a565b611d66565b611eec836391dd7346959395611ef7611ee0610231565b9788968795869461161b565b845260048401611e55565b03925af1908115611f7c575f91611f5a575b5090611f13613aa0565b611f25611f1f5f611e82565b9161028b565b03611f3457611f32613ace565b565b7f5212cba1000000000000000000000000000000000000000000000000000000006130db565b611f7691503d805f833e611f6e8183610746565b810190611df2565b5f611f09565b611e6f565b7f5090d6c6000000000000000000000000000000000000000000000000000000006130db565b90611fb991611fb4611c5f565b611d38565b90565b611fc69051610784565b90565b611fd2906102fd565b90565b611fde906106ad565b90565b90611feb90611fd5565b5f5260205260405f2090565b90565b9061201861201261200d60408501611fbc565b613b21565b15610469565b8015612077575b6120515761204a61204561203e61204f9461203985613b47565b613410565b6006611fe1565b611ff7565b613bb1565b565b7f30d21641000000000000000000000000000000000000000000000000000000006130db565b503361209e61209861209361208e60808701611a14565b611fc9565b61025c565b9161025c565b141561201f565b906120b160ff91611720565b9181191691161790565b6120c490610469565b90565b90565b906120df6120da6120e6926120bb565b6120c7565b82546120a5565b9055565b906120f3611614565b506121138161210e61210760033390611299565b85906112af565b6120ca565b3391909161215f61214d6121477fceb576d9f15e4e200fdb5096d64d5dfd667e16def20c1eefd14256d8e3faa26793610309565b93610309565b93612156610231565b9182918261047b565b0390a3600190565b949392919061217d6121776130ad565b15610469565b61218e5761218a95612287565b9091565b7f54e3ca0d000000000000000000000000000000000000000000000000000000006130db565b6121be90516104d7565b90565b6121cb9051610922565b90565b6121d890516106ad565b90565b6121e560c061076f565b90565b906121f29061025c565b9052565b90612200906104d7565b9052565b9061220e906118db565b9052565b9061221c906106ad565b9052565b61222990610922565b9052565b60409061225661225d949695939661224c60608401985f85019061051c565b602083019061051c565b0190612220565b565b61227361226e61227892611e7f565b6102de565b610922565b90565b6122845f61225f565b90565b9461241492969461243794926123819750506122a288613410565b6123785f8a6122d36122c860806122b887613423565b936122c28561345d565b01611a14565b8d8988918a93613e7f565b6122db6119c4565b506123738c61236a8961236133936123588361234f6122fb8b83016121b4565b612346612335606061232e81612327612322604061231b60208c016121b4565b9a016121c1565b613ef6565b99016121b4565b99016121ce565b9961233e6121db565b9d8e016121e8565b60208c016121f6565b60408a016121f6565b60608801612204565b608086016121f6565b60a08401612212565b61405f565b9890899061448a565b903361238e5f87016121b4565b9161239b602088016121b4565b6123a7604089016121c1565b936123f06123de6123d87f541c041c2cce48e614b3de043c9280f06b6164c0a1741649e2de3c3d375f797495611fd5565b95610309565b956123e7610231565b9384938461222d565b0390a36123fb6119c4565b5061240860808a01611a14565b938990919293946145de565b9490946124298161242361227b565b906147c9565b612439575b508433916138b2565b565b61245990829061245361244e60808601611a14565b611fc9565b916138b2565b5f61242e565b9061247c93929161246e6119c4565b6124766119c4565b90612167565b9091565b5f90565b9061249994939291612494613a12565b61250e565b90565b6124a6905161025c565b90565b6124b290611fd5565b9052565b6124bf90610784565b9052565b6124cc90611fc9565b9052565b61250561250c946124fb6060949897956124f1608086019a5f8701906124a9565b60208501906124b6565b604083019061051c565b01906124c3565b565b94939190929450612521606084016121b4565b61253a61253461252f610e66565b6104d7565b916104d7565b1361274f5761254b606084016121b4565b61256461255e612559610506565b6104d7565b916104d7565b12612729576125896125775f850161249c565b6125836020860161249c565b906147fa565b612703576125b76125b161259f60808601611a14565b6125ab60408701611fbc565b90614911565b15610469565b6126c75761263d906125d36125ce60408601611fbc565b614ad8565b926125ee6125e360808701611a14565b86848a918593614c56565b6126256125fa86613410565b9461260487614d26565b90509061261b61261660068990611fe1565b611ff7565b9185909192614f3a565b9661263260808701611a14565b92868992939461513b565b6126485f830161249c565b6126546020840161249c565b9161266160408501611fbc565b906126c261267d6080612676606089016121b4565b9701611a14565b6126b06126aa7f3fd553db44f207b1f41348cfc4d251860814af9eadc470e8e7895e4d120511f496610309565b96610309565b966126b9610231565b948594856124d0565b0390a3565b826126fd6126f860807fe65af6a0000000000000000000000000000000000000000000000000000000009301611a14565b611fc9565b90614ab2565b7feaa6c6eb000000000000000000000000000000000000000000000000000000006130db565b7f16fe7696000000000000000000000000000000000000000000000000000000006130db565b7fb02b5dc2000000000000000000000000000000000000000000000000000000006130db565b90612789939291612784612480565b612484565b90565b5f90565b906127a261279c6130ad565b15610469565b6127b2576127af916127d8565b90565b7f54e3ca0d000000000000000000000000000000000000000000000000000000006130db565b919091506127e58261515f565b5f146128035761280134925b6127fa8461313d565b33916131f5565b565b346128166128105f611e82565b9161028b565b1161283e5761280161283861282a846151ba565b61283385612aa2565b6116fb565b926127f1565b7f19d245cf000000000000000000000000000000000000000000000000000000006130db565b6128759061287061278c565b612790565b90565b612884612889916116a8565b611363565b90565b6128969054612878565b90565b91906128ac905f602085019401906124b6565b565b336128d26128cc6128c76128c2600261288c565b6113b1565b61025c565b9161025c565b03612973576128e96128e38361523f565b15610469565b61294d576128f690613410565b61290961290282613423565b839061525b565b6129486129367fe9c42593e71f84403b84352cd168d693e2c9fcd1fdbcc3feb21d92b43e6696f992611fd5565b9261293f610231565b91829182612899565b0390a2565b7fba97f838000000000000000000000000000000000000000000000000000000006130db565b7f48f5c3ed000000000000000000000000000000000000000000000000000000006130db565b929190926129a561278c565b50336129ca6129c46129bf6129ba600261288c565b6113b1565b61025c565b9161025c565b03612a3b5781612a34926129e66129e05f611e82565b9161028b565b145f14612a365750612a026129fd600186906110ef565b6116c1565b5b93612a2c85612a26612a17600185906110ef565b91612a21836116c1565b6116fb565b9061175d565b908491613290565b565b612a03565b7f48f5c3ed000000000000000000000000000000000000000000000000000000006130db565b606090565b90612a6f612a61565b50604060045f3760051b604001809160208060405b83355c81520191019082811015612a9e5760208091612a84565b825ff35b90612aab61278c565b50612ac0612ab8836152e2565b9283906153a1565b565b90612acb612a61565b50604060045f3760051b604001809160208060405b83355481520191019082811015612afa5760208091612ae0565b825ff35b612b066119af565b505c5f5260205ff35b612b3c90612b3733612b31612b2b612b265f611ac0565b61025c565b9161025c565b14611b2f565b612b61565b565b90565b90612b56612b51612b5d92610309565b612b3e565b8254611ba1565b9055565b612b6b815f612b41565b3390612ba0612b9a7f8be0079c531659141344cd1fd0a4f28419497f9722a3daafe3b4186f6b6457e093610309565b91610309565b91612ba9610231565b80612bb381610640565b0390a3565b612bc190612b0f565b565b93929190612bd8612bd26130ad565b15610469565b612be857612be594612c79565b90565b7f54e3ca0d000000000000000000000000000000000000000000000000000000006130db565b5f90565b5f90565b5f90565b612c249051610469565b90565b612c319051610243565b90565b612c3e60a061076f565b90565b90612c4b90610469565b9052565b90612c5990610922565b9052565b90612c6790610243565b9052565b90612c7590610784565b9052565b949391909450612c8b602082016121c1565b612c9d612c975f61225f565b91610922565b14612e1457612d18612db792612dda94612d95612cb989613410565b60608a612d72612cc884613423565b612cd18161345d565b612cd9612c0e565b50612ce2612c12565b50612ceb612c16565b50612d69612d09612cfe60808601611a14565b858d8b918d9361547d565b9b919b96909b939795016121b4565b94612d608c612d57612d386040612d305f8501612c1a565b979301612c27565b9395612d4e612d45612c34565b9a5f8c016121f6565b60208a01612c41565b60408801612c4f565b60608601612c5d565b60808401612c6b565b612d7d5f8901612c1a565b5f14612e0257612d8e5f8d0161249c565b925b6156fc565b612d9d6119c4565b50612daa60808a01611a14565b9489909192939495615874565b939093612dcc81612dc661227b565b906147c9565b612ddc575b508333916138b2565b565b612dfc908290612df6612df160808601611a14565b611fc9565b916138b2565b5f612dd1565b612e0e60208d0161249c565b92612d90565b7fbe8b8507000000000000000000000000000000000000000000000000000000006130db565b90612e4e939291612e496119c4565b612bc3565b90565b9190612e64612e5e6130ad565b15610469565b612e7357612e7192612e99565b565b7f54e3ca0d000000000000000000000000000000000000000000000000000000006130db565b91612ec292612eba612eaa84613327565b612eb38461313d565b33916131f5565b919091615a4a565b565b90612ecf9291612e51565b565b612edd612ee2916116a8565b6112c5565b90565b612eef9054612ed1565b90565b929190612efd611614565b5033612f11612f0b8661025c565b9161025c565b141580613080575b612fe0575b612f5083612f4a612f3b612f3460048990610315565b8690610347565b91612f45836116c1565b6116fb565b9061175d565b612f8283612f7c612f6d612f6660048690610315565b8690610347565b91612f77836116c1565b61177d565b9061175d565b3393909192612fc3612fbd612fb77f1b3d7edb2e9c0b0e7c525b20aaaef0f5940d2ed71663c7d39266ecafac72885994610309565b94610309565b9461032b565b94612fd8612fcf610231565b928392836117a2565b0390a4600190565b613008613003612ffc612ff560058890610c88565b3390610315565b8490610347565b6116c1565b8061303b6130357fffffffffffffffffffffffffffffffffffffffffffffffffffffffffffffffff61028b565b9161028b565b03613047575b50612f1e565b61305561307a9185906116fb565b61307561306e61306760058990610c88565b3390610315565b8590610347565b61175d565b5f613041565b506130a86130a261309d61309660038890611299565b33906112af565b612ee5565b15610469565b612f19565b6130b5611614565b507fc090fc4683624cfc3884e9d8de5eca132f2d0ec062aff75d43c0465d5ceeab235c90565b5f5260045ffd5b5f90565b90565b6130fd6130f8613102926130e6565b6102de565b61028b565b90565b61311961311461311e9261028b565b6102de565b610922565b90565b61313561313061313a92610922565b6102de565b6118db565b90565b6131456130e2565b50806131696131636f800000000000000000000000000000006130e9565b9161028b565b10156131835761317b61318091613105565b613121565b90565b615b49565b61319c6131976131a192611e7f565b6102de565b6118db565b90565b6131b86131b36131bd926118db565b6102de565b610922565b90565b6131cf6131d591939293610922565b92610922565b808301925f828512158183121692851291121516176131f057565b6116ce565b91908061320a6132045f613188565b916118db565b1461328b578261323261322161325f958590615b56565b9261322c84916131a4565b906131c0565b91826132466132405f61225f565b91610922565b145f146132615750613256615bb5565b5b919091615bfe565b565b61327361326d5f61225f565b91610922565b1461327e575b613257565b613286615b6c565b613279565b505050565b6132998161515f565b5f146132bd57505f80809381935af1156132b0575b565b63f4b3b1bc5f526004601cfd5b60105f60449260209582956014526034526fa9059cbb00000000000000000000000082525af13d1560015f51141716156132fa575f6034526132ae565b63f27f64e45f526004601cfd5b5f90565b61331f61331a6133249261028b565b6102de565b610243565b90565b61334461333f61334992613339613307565b5061330b565b6102fd565b610309565b90565b61336061335b61336592611e7f565b6102de565b610243565b90565b6133719061334c565b90565b91906133a8826133a261339361338c60048890610315565b8590610347565b9161339d836116c1565b61177d565b9061175d565b33926133b35f613368565b9091926133f26133ec6133e67f1b3d7edb2e9c0b0e7c525b20aaaef0f5940d2ed71663c7d39266ecafac72885994610309565b94610309565b9461032b565b946134076133fe610231565b928392836117a2565b0390a4565b5f90565b61341861340c565b506005602002902090565b613431613436916006611fe1565b611ff7565b90565b90565b61344861344d916116a8565b613439565b90565b61345a905461343c565b90565b61346b5f6134709201613450565b615c0e565b61348261347c5f61334c565b91610243565b1461348957565b7f486aa307000000000000000000000000000000000000000000000000000000006130db565b9493929190856134d06134ca6134c53393611fc9565b61025c565b9161025c565b036134de575b505050505050565b6134e795613600565b5f80808080806134d6565b90565b61350961350461350e926134f2565b6102de565b610243565b90565b61351b60206134f5565b90565b61352790610309565b9052565b61353490610784565b9052565b613541906104d7565b9052565b61354e90611fc9565b9052565b906080806135aa9361356a5f8201515f86019061351e565b61357c6020820151602086019061351e565b61358e6040820151604086019061352b565b6135a060608201516060860190613538565b0151910190613545565b565b91936135e56135ef9296946135db6135fd99976135d161012088019a5f890190611098565b6020870190613552565b60c08501906103ab565b60e08301906103ab565b610100818503910152611e32565b90565b949391909461361781613611613511565b90615c30565b613624575b505050505050565b613689956004956136849461367593967fb6a8b0fa000000000000000000000000000000000000000000000000000000009533949091929394613665610231565b9a8b9860208a01908152016135ac565b60208201810382520383610746565b615c62565b505f808080808061361c565b906136a395949392916134af565b565b6fffffffffffffffffffffffffffffffff1690565b6136c66136cb916116a8565b6136a5565b90565b6136d890546136ba565b90565b6fffffffffffffffffffffffffffffffff1690565b6137046136ff61370992611e7f565b6102de565b6136db565b90565b90565b61372361371e6137289261370c565b6102de565b61028b565b90565b61374570010000000000000000000000000000000061370f565b90565b61375c613757613761926136db565b6102de565b61028b565b90565b9061376f910161028b565b90565b9291909261377e6119c4565b5061378b600382016136ce565b918261379f6137995f6136f0565b916136db565b1461388c576137cf6137b86137b38761313d565b6118e1565b6137c96137c48461313d565b6118e1565b90615d07565b94806137e36137dd5f611e82565b9161028b565b1161384c575b50806137fd6137f75f611e82565b9161028b565b11613808575b505050565b600261382d6138449461383e939061382761382161372b565b91613748565b91615d83565b920191613839836116c1565b613764565b9061175d565b5f8080613803565b61386a6138869161385b61372b565b61386487613748565b91615d83565b613880600185019161387b836116c1565b613764565b9061175d565b5f6137e9565b7fa74f97ab000000000000000000000000000000000000000000000000000000006130db565b916138e96138e360206138f0956138dd6138cd5f830161249c565b6138d688615f45565b87916131f5565b0161249c565b92615f54565b90916131f5565b565b94939291908561391361390d6139083393611fc9565b61025c565b9161025c565b03613921575b505050505050565b61392a95613961565b5f8080808080613919565b90565b61394c61394761395192613935565b6102de565b610243565b90565b61395e6010613938565b90565b949391909461397881613972613954565b90615c30565b613985575b505050505050565b6139ea956004956139e5946139d693967fe1b4af690000000000000000000000000000000000000000000000000000000095339490919293946139c6610231565b9a8b9860208a01908152016135ac565b60208201810382520383610746565b615c62565b505f808080808061397d565b90613a0495949392916138f2565b565b613a0f906102fd565b90565b613a1b30613a06565b613a4d613a477f000000000000000000000000000000000000000000000000000000000000000061025c565b9161025c565b03613a5457565b7f0d89438e000000000000000000000000000000000000000000000000000000006130db565b60017fc090fc4683624cfc3884e9d8de5eca132f2d0ec062aff75d43c0465d5ceeab235d565b613aa861278c565b507f7d4b3164c6e45b97e7d87b7125a44c5828d005af88f9d751cfd78729c5d99a0b5c90565b5f7fc090fc4683624cfc3884e9d8de5eca132f2d0ec062aff75d43c0465d5ceeab235d565b90565b613b0a613b05613b0f92613af3565b6102de565b610784565b90565b613b1e62800000613af6565b90565b613b29611614565b50613b43613b3d613b38613b12565b610784565b91610784565b1490565b613b53613b5991615f91565b15610469565b613b5f57565b7ffc5bee12000000000000000000000000000000000000000000000000000000006130db565b613b8e906116a8565b90565b90613ba6613ba1613bad92611fd5565b613b85565b8254611725565b9055565b5f613bd2613bd993613bc28461345d565b613bcd838501613450565b615fbc565b9101613b91565b565b9392919084613bfb613bf5613bf03393611fc9565b61025c565b9161025c565b03613c08575b5050505050565b613c1194613d10565b5f80808080613c01565b90565b613c32613c2d613c3792613c1b565b6102de565b610243565b90565b613c45610800613c1e565b90565b90565b613c5f613c5a613c6492613c48565b6102de565b610243565b90565b613c72610200613c4b565b90565b613c7e90610922565b9052565b90606080613cc893613c9a5f8201515f860190613538565b613cac60208201516020860190613538565b613cbe60408201516040860190613c75565b01519101906111c8565b565b909391613d0d9593613cf5613cff92613ceb6101608601985f870190611098565b6020850190613552565b60c0830190613c82565b610140818503910152611e32565b90565b9390919293613d21604085016121c1565b613d33613d2d5f61225f565b91610922565b1380613e67575b5f14613da95792613d91613da59593613da093600496957f259982e50000000000000000000000000000000000000000000000000000000094339390919293613d81610231565b998a976020890190815201613cca565b60208201810382520383610746565b615c62565b505b565b939192613db8604082016121c1565b613dca613dc45f61225f565b91610922565b131580613e4f575b613de1575b5050505050613da7565b613e30600494613e3f93613e4497957f21d0ee700000000000000000000000000000000000000000000000000000000094339390919293613e20610231565b998a976020890190815201613cca565b60208201810382520383610746565b615c62565b505f80808080613dd7565b50613e6285613e5c613c67565b90615c30565b613dd2565b50613e7a81613e74613c3a565b90615c30565b613d3a565b90613e8c94939291613bdb565b565b613ea2613e9d613ea792610922565b6102de565b61028b565b90565b90565b60ff1690565b613ec7613ec2613ecc92613eaa565b6102de565b613ead565b90565b613eee90613ee8613ee2613ef394613ead565b9161028b565b9061035d565b61028b565b90565b613efe6130e2565b50613f3d613f2d6f80000000000000000000000000000000613f28613f2285613e8e565b916130e9565b613764565b613f376080613eb3565b90613ecf565b613f57613f51613f4c5f611e82565b61028b565b9161028b565b03615b4957613f6590613121565b90565b613f7290516118db565b90565b613f7f608061076f565b90565b5f90565b5f90565b613f92613f75565b90602080808085613fa1613f82565b815201613fac613f86565b815201613fb7613f82565b815201613fc2613f86565b81525050565b613fd0613f8a565b90565b90613fdd906136db565b9052565b613feb90516136db565b90565b613ff8905161025c565b90565b906140166fffffffffffffffffffffffffffffffff91611720565b9181191691161790565b61403461402f614039926136db565b6102de565b6136db565b90565b90565b9061405461404f61405b92614020565b61403c565b8254613ffb565b9055565b916140686119c4565b926140716119c4565b5061407e60608401613f68565b61408a602085016121b4565b614096604086016121b4565b926140a2828590616055565b6140aa613fc8565b95836140be6140b85f613188565b916118db565b036142fb575b61411b61412161411461410a614127946140e087898c9161636b565b9290929160068901908c8b61410460a06140fb5f8601613fee565b929394016121ce565b93616518565b918990919261654c565b929061313d565b9161313d565b90615d07565b958361413b6141355f613188565b916118db565b126142b4575b508261415561414f5f613188565b916118db565b03614161575b50505050565b9091929395506141725f8201613450565b61418461417e82616761565b91615c0e565b9080614198614192866104d7565b916104d7565b125f146141e5575050506141da926141cb926141bf6141b96141c694616bae565b92616bae565b9091617411565b613ef6565b6141d45f613188565b90615d07565b915b5f80808061415b565b9694909193966141fd6141f7836104d7565b916104d7565b125f146142705761425261426a949361424c6142478561423f614239614234614263988f61422d60039c92616bae565b9091617411565b613ef6565b94616bae565b908c91617391565b613ef6565b90615d07565b9661425e8385016136ce565b617491565b910161403f565b5b6141dc565b6142a99293506142a3915061429e906142ae95976142976142915f97616bae565b92616bae565b9091617391565b613ef6565b91613188565b615d07565b9161426b565b6040816142c55f6142d09401612c1a565b6142eb575b01612c1a565b6142db575b5f614141565b6142e6818590616749565b6142d5565b6142f6848690616749565b6142ca565b61432361430c838587905f926161b6565b9061431d5f8b019260208c01613fd3565b90612c41565b61434d614335838787906001926161b6565b9061434760408b019260608c01613fd3565b90612c41565b8361436061435a5f613188565b916118db565b12156143e1575b61411b61412161411461410a614127946143825f8d01612c1a565b6143c2575b61439360408d01612c1a565b6143a3575b9450505050506140c4565b6143bd600588018b6143b7608085016121b4565b91616332565b614398565b6143dc60058801896143d6608085016121b4565b91616332565b614387565b6143f56143f0608083016121b4565b6162f5565b61440160208901613fe1565b61441361440d836136db565b916136db565b116144635761443661443061442a60608b01613fe1565b926136db565b916136db565b111561436757847fb8e3c38500000000000000000000000000000000000000000000000000000000616328565b837fb8e3c38500000000000000000000000000000000000000000000000000000000616328565b906144d16144cb6144d79361449d6119c4565b506144a6612c12565b506144af612c12565b508060801d90600f0b938060801d90600f0b9101930192613ef6565b91613ef6565b90615d07565b90565b90565b6144f16144ec6144f6926144da565b6102de565b610243565b90565b6145046101006144dd565b90565b919361454061454b929694614536614559999761452c61018088019a5f890190611098565b6020870190613552565b60c0850190613c82565b610140830190610941565b610160818503910152611e32565b90565b61457061456b614575926104d4565b6102de565b610243565b90565b614582600161455c565b90565b90565b61459c6145976145a192614585565b6102de565b610243565b90565b6145af610400614588565b90565b90565b6145c96145c46145ce926145b2565b6102de565b610243565b90565b6145db60026145b5565b90565b9095939294956145ec6119c4565b506145f56119c4565b953361461161460b61460686611fc9565b61025c565b9161025c565b146147b5578097614624604086016121c1565b6146366146305f61225f565b91610922565b135f146146f85761464f846146496145a4565b90615c30565b61465d575b5050505050505b565b6146ec96989750926146cb6146df95936146bc6146d9946146e4999785983394989290919261468a610231565b998a966004602089017f5a2a810000000000000000000000000000000000000000000000000000000000815201614507565b60208201810382520384610746565b6146d36145d1565b90615c30565b916174b3565b610925565b9182906174ed565b915f8080808080614654565b61470a846147046144f9565b90615c30565b61471a575b50505050505061465b565b6147a9969897509261478861479c9593614779614796946147a19997859833949892909192614747610231565b998a966004602089017f8db2b65200000000000000000000000000000000000000000000000000000000815201614507565b60208201810382520384610746565b614790614578565b90615c30565b916174b3565b610925565b9182906174ed565b915f808080808061470f565b9550505050509150906147c661227b565b90565b6147ef6147ea6147e46147f5936147de611614565b50610925565b93610925565b610922565b91610922565b141590565b61482061481b6148156148269361480f611614565b50610309565b93610309565b61025c565b9161025c565b101590565b61483f61483a61484492613eaa565b6102de565b610243565b90565b614851608061482b565b90565b90565b61486b61486661487092614854565b6102de565b610243565b90565b61487d6008614857565b90565b90565b61489761489261489c92614880565b6102de565b610243565b90565b6148a96040614883565b90565b90565b6148c36148be6148c8926148ac565b6102de565b610243565b90565b6148d560046148af565b90565b6148e1906102e1565b90565b90565b6148fb6148f6614900926148e4565b6102de565b610243565b90565b61490e613fff6148e7565b90565b614919611614565b5061493561492f82614929614847565b90615c30565b15610469565b80614a9a575b614a945761495a6149548261494e61489f565b90615c30565b15610469565b80614a7c575b614a765761497f614979826149736145a4565b90615c30565b15610469565b80614a5e575b614a58576149a461499e826149986144f9565b90615c30565b15610469565b80614a40575b614a3a576149b781611fc9565b6149d16149cb6149c65f613368565b61025c565b9161025c565b145f146149ef57506149e56149eb91613b21565b15610469565b5b90565b6149fb614a0091611fc9565b6148d8565b614a08614903565b16614a1b614a155f61334c565b91610243565b11908115614a2a575b506149ec565b614a349150613b21565b5f614a24565b50505f90565b50614a5381614a4d614578565b90615c30565b6149aa565b50505f90565b50614a7181614a6b6145d1565b90615c30565b614985565b50505f90565b50614a8f81614a896148cb565b90615c30565b614960565b50505f90565b50614aad81614aa7614873565b90615c30565b61493b565b5f5260045260245ffd5b614ad0614acb614ad592611e7f565b6102de565b610784565b90565b614ae0612c16565b50614aea81613b21565b614afa57614af781613b47565b90565b50614b045f614abc565b90565b9392919084614b27614b21614b1c3393611fc9565b61025c565b9161025c565b03614b34575b5050505050565b614b3d94614bc6565b5f80808080614b2d565b90565b614b5e614b59614b6392614b47565b6102de565b610243565b90565b614b71612000614b4a565b90565b614b7d90610243565b9052565b909391614bc39593614bac614bb692614ba26101008601985f870190611098565b6020850190613552565b60c0830190614b74565b60e0818503910152611e32565b90565b93909291614bdc85614bd6614b66565b90615c30565b614be8575b5050505050565b614c37600494614c4693614c4b97957f3440d8200000000000000000000000000000000000000000000000000000000094339390919293614c27610231565b998a976020890190815201614b81565b60208201810382520383610746565b615c62565b505f80808080614be1565b90614c6394939291614b07565b565b9190614c78905f60a08501940190613552565b565b90614c8c614c8783611d76565b61076f565b918252565b3d5f14614cac57614ca13d614c7a565b903d5f602084013e5b565b614cb4611c5f565b90614caa565b614cce614cc9614cd3926134f2565b6102de565b61028b565b90565b614cea614ce5614cef9261028b565b6102de565b610784565b90565b614d06614d01614d0b92610784565b6102de565b61028b565b90565b614d1d614d23919392936120bb565b92614abc565b90565b614d2e611614565b91614d37612c16565b91614d4a614d45600261288c565b6113b1565b614d64614d5e614d595f613368565b61025c565b9161025c565b03614d6d575b50565b915091505a614da4614d9e7f000000000000000000000000000000000000000000000000000000000000000061028b565b9161028b565b10614ef8575f8091614e2182614dc2614dbd600261288c565b6113b1565b614e307f000000000000000000000000000000000000000000000000000000000000000094614def610231565b9485916004602084017f553bfc3700000000000000000000000000000000000000000000000000000000815201614c65565b60208201810382520384610746565b60208301925193f1614e4a614e43614c91565b9115610469565b8015614ed5575b614ec657602090614e6061278c565b50015180614e7e614e78614e7384614cd6565b614cf2565b9161028b565b1480614eaf575b5f14614e9f57614e96600191614cd6565b5b90915f614d6a565b50614eaa5f80614d0e565b614e97565b50614ec1614ebc82614cd6565b61523f565b614e85565b505f90614ed25f614abc565b90565b50614edf81610a49565b614ef2614eec6020614cba565b9161028b565b11614e51565b7f1ee49702000000000000000000000000000000000000000000000000000000006130db565b614f32614f2d614f3792611e7f565b611720565b6106ad565b90565b909392614f45612480565b50614f59614f545f8401613450565b615c0e565b614f6b614f655f61334c565b91610243565b03614fbc57614fb35f91614fae614fba95614fa9614fa2614f8b8b617736565b9a614f9d614f9889614f1e565b611fd5565b617a6a565b8a90617aa6565b617ac6565b615fbc565b9101613b91565b565b7f7983c051000000000000000000000000000000000000000000000000000000006130db565b949392919085615003614ffd614ff83393611fc9565b61025c565b9161025c565b03615011575b505050505050565b61501a956150a6565b5f8080808080615009565b90565b61503c61503761504192615025565b6102de565b610243565b90565b61504f611000615028565b90565b919361508b6150959296946150816150a3999761507761012088019a5f890190611098565b6020870190613552565b60c0850190614b74565b60e083019061051c565b610100818503910152611e32565b90565b94939190946150bd816150b7615044565b90615c30565b6150ca575b505050505050565b61512f9560049561512a9461511b93967fa910f80f00000000000000000000000000000000000000000000000000000000953394909192939461510b610231565b9a8b9860208a0190815201615052565b60208201810382520383610746565b615c62565b505f80808080806150c2565b906151499594939291614fe2565b565b61515c6151575f613368565b610309565b90565b6151719061516b611614565b50610309565b61519261518c61518761518261514b565b610309565b61025c565b9161025c565b1490565b7fffffffffffffffffffffffffffffffffffffffffffffffffffffffffffffffff90565b6151cc906151c661278c565b50617ae6565b5c90816151e16151db5f611e82565b9161028b565b1461521957816152006151fa6151f5615196565b61028b565b9161028b565b14615208575b565b90506152135f611e82565b90615206565b7f8774be48000000000000000000000000000000000000000000000000000000006130db565b615247611614565b50623e90006103e9610fff83161091101690565b5f61527c6152839361526c8461345d565b615277838501613450565b617ac6565b9101613b91565b565b61528e906102e1565b90565b61529a90615285565b90565b6152a6906102fd565b90565b6152b2906102fd565b90565b905051906152c28261028e565b565b906020828203126152dd576152da915f016152b5565b90565b61023b565b6152ea61278c565b506152f48161515f565b5f146153085750615304306152a9565b3190565b602061532661532161531c61535894610309565b615291565b61529d565b6370a082319061534d615338306152a9565b92615341610231565b9586948593849361161b565b8352600483016110a5565b03915afa90811561539c575f9161536e575b5090565b61538f915060203d8111615395575b6153878183610746565b8101906152c4565b5f61536a565b503d61537d565b611e6f565b816153b46153ae5f611e82565b9161028b565b146153c6575b6153c390617ae6565b5d565b90506153c36153d3615196565b9190506153ba565b6153e45f61225f565b90565b6153f090610469565b9052565b6153fd90610243565b9052565b90604080615435936154195f8201515f8601906153e7565b61542b60208201516020860190613c75565b01519101906153f4565b565b90939161547a959361546261546c926154586101408601985f870190611098565b6020850190613552565b60c0830190615401565b610120818503910152611e32565b90565b94919294615489612c12565b50615492612c0e565b9461549b612c16565b946154a8602082016121c1565b97336154c46154be6154b987611fc9565b61025c565b9161025c565b14615662576154db846154d5614847565b90615c30565b6154e7575b5050505050565b6155526155599260409261554d61555e9661553e899333928c9691909161550c610231565b9788956004602088017f575e24b400000000000000000000000000000000000000000000000000000000815201615437565b60208201810382520383610746565b615c62565b9401611fbc565b613b21565b61564c575b6155759061556f614873565b90615c30565b615583575b808080806154e0565b61559791935061559290617b2d565b610925565b916155a183617b3e565b806155b46155ae5f613188565b916118db565b036155bf575b61557a565b93806155e16155e7926155da6155d45f61225f565b91610922565b12966131a4565b906131c0565b935f1461563357836156016155fb5f61225f565b91610922565b135b61560d575f6155ba565b7ffa0b71d6000000000000000000000000000000000000000000000000000000006130db565b836156466156405f61225f565b91610922565b12615603565b925061557561565a82617b1c565b939050615563565b5050505050915091906156736153db565b9291929190565b615683906118db565b9052565b615690906136db565b9052565b949290979695939160e08601985f87016156ad91611098565b602086016156ba9161567a565b604085016156c79161567a565b606084016156d491614b74565b608083016156e191615687565b60a082016156ee9161051c565b60c0016156fa916124b6565b565b91615710919261570a6119c4565b50617daf565b9391939290916080519293928061572f6157295f611e82565b9161028b565b116157b9575b505090336157b361574586615f45565b9261574f87615f54565b9561575c60408301612c27565b91615775606061576e60a08401613fe1565b92016121b4565b91926157a17f40e9cecb9f5f1f1c5b9c97dec2917b7ee92e57ba5563708daca94dd84ad7112f98611fd5565b986157aa610231565b97889788615694565b0390a290565b6157c2916188b3565b5f80615735565b919361580261580d9296946157f861581b99976157ee61016088019a5f890190611098565b6020870190613552565b60c0850190615401565b610120830190610941565b610140818503910152611e32565b90565b61582a615830916118db565b916118db565b01907fffffffffffffffffffffffffffffffff8000000000000000000000000000000082126f7fffffffffffffffffffffffffffffff83131761586f57565b6116ce565b90969592949391966158846119c4565b5061588d6119c4565b50336158a96158a361589e85611fc9565b61025c565b9161025c565b14615a3657908791866158c46158be87617b3e565b966188dc565b966158d7846158d161489f565b90615c30565b61599f575b5050505050506158ea6119c4565b94826158fe6158f85f613188565b916118db565b14158015615984575b615913575b5050509190565b61596e93955061595461594e6159495f61592f602086016121c1565b61594161593b8361225f565b91610922565b129401612c1a565b610469565b91610469565b145f14615976579061596591615d07565b5b9283906174ed565b5f808061590c565b61597f91615d07565b615966565b50816159986159925f613188565b916118db565b1415615907565b83615a0b615a2a989997946159fc615a249895615a1995615a1f9998339498929091926159ca610231565b998a966004602089017fb47b2fb1000000000000000000000000000000000000000000000000000000008152016157c9565b60208201810382520384610746565b615a136148cb565b90615c30565b916174b3565b613ef6565b9061581e565b905f85818086816158dc565b505050505090915090615a4761227b565b90565b91615a79923381615a63615a5d8361025c565b9161025c565b141580615b1c575b615a7b575b509190916188eb565b565b615aa3615a9e615a97615a9060058690610c88565b8490610315565b8690610347565b6116c1565b9081615ad7615ad17fffffffffffffffffffffffffffffffffffffffffffffffffffffffffffffffff61028b565b9161028b565b03615ae3575b50615a70565b615b10615b09615af7615b159487906116fb565b92615b0460058790610c88565b610315565b8690610347565b61175d565b5f80615add565b50615b44615b3e615b39615b3260038690611299565b84906112af565b612ee5565b15610469565b615a6b565b6393dafdf15f526004601cfd5b615b6891615b62612c12565b50618982565b5c90565b60017f7d4b3164c6e45b97e7d87b7125a44c5828d005af88f9d751cfd78729c5d99a0b5c017f7d4b3164c6e45b97e7d87b7125a44c5828d005af88f9d751cfd78729c5d99a0b5d565b60017f7d4b3164c6e45b97e7d87b7125a44c5828d005af88f9d751cfd78729c5d99a0b5c037f7d4b3164c6e45b97e7d87b7125a44c5828d005af88f9d751cfd78729c5d99a0b5d565b615c0791618982565b5d565b5f90565b615c16615c0a565b5073ffffffffffffffffffffffffffffffffffffffff1690565b615c45615c4a91615c3f611614565b50611fc9565b6148d8565b16615c5d615c575f61334c565b91610243565b141590565b5f8091939293615c70611c5f565b508451908260208701915af115615cec5760405191601f19603f3d011683016040523d83523d5f602085013e615cbf615cb9615cb4615cae8661899b565b9361899b565b610403565b91610403565b03615cc657565b7f1e048e1d000000000000000000000000000000000000000000000000000000006130db565b3d15615cfa573d5f803e3d5ffd5b6336bc48c55f526004601cfd5b90615d106119c4565b5060018060801b03169060801b1790565b90615d2c910261028b565b90565b15615d3657565b5f80fd5b90615d45910361028b565b90565b90565b615d5f615d5a615d6492615d48565b6102de565b61028b565b90565b615d7b615d76615d80926145b2565b6102de565b61028b565b90565b615d8b61278c565b50615d97818390615d21565b91615da061278c565b505f198183098380821091030391615dca85615dc4615dbe8661028b565b9161028b565b11615d2f565b82615ddd615dd75f611e82565b9161028b565b14615f3e57615f359285615f3b9693615e2c93615df861278c565b50099085821190039403936001615e185f615e138691611e82565b615d3a565b841680809504960493805f03040190615d21565b1791615f2f615f13615eef615ecb615ea7615e83615e546003615e4f8991615d4b565b615d21565b615e5e6002615d67565b18615e7d6002615e78615e728b8590615d21565b91615d67565b615d3a565b90615d21565b615ea16002615e9c615e968a8590615d21565b91615d67565b615d3a565b90615d21565b615ec56002615ec0615eba898590615d21565b91615d67565b615d3a565b90615d21565b615ee96002615ee4615ede888590615d21565b91615d67565b615d3a565b90615d21565b615f0d6002615f08615f02878590615d21565b91615d67565b615d3a565b90615d21565b91615f2a615f246002928590615d21565b91615d67565b615d3a565b90615d21565b90615d21565b90565b5050500490565b615f4d6130e2565b5060801d90565b615f5c6130e2565b50600f0b90565b90565b615f7a615f75615f7f92615f63565b6102de565b610784565b90565b615f8e620f4240615f66565b90565b615f99611614565b50615fb3615fad615fa8615f82565b610784565b91610784565b111590565b5f90565b90615fc5615fb8565b5062ffffff1660d01b9062ffffff60d01b19161790565b90565b615ff3615fee615ff892615fdc565b6102de565b6104d7565b90565b6160247ffffffffffffffffffffffffffffffffffffffffffffffffffffffffffff27618615fdf565b90565b90565b61603e61603961604392616027565b6102de565b6104d7565b90565b616052620d89e861602a565b90565b80616068616062846104d7565b916104d7565b12156160fc578061608861608261607d615ffb565b6104d7565b916104d7565b126160d65750806160a86160a261609d616046565b6104d7565b916104d7565b136160b05750565b7f1ad777f800000000000000000000000000000000000000000000000000000000616328565b7fd5e2f7ab00000000000000000000000000000000000000000000000000000000616328565b907fc4433ed5000000000000000000000000000000000000000000000000000000009190916189ac565b5f90565b61613e616139616143926104d7565b6102de565b6104d7565b90565b906161509061612a565b5f5260205260405f2090565b90565b61616b616171916118db565b916118db565b9003906f7fffffffffffffffffffffffffffffff82137fffffffffffffffffffffffffffffffff800000000000000000000000000000008312176161b157565b6116ce565b93919092936161c3611614565b506161cc616126565b506161e36161de600483018690616146565b61615c565b916161ec616126565b506161f56130e2565b508254958660801b60801c9660801d92616210888490617491565b968761622461621e5f6136f0565b916136db565b1461624a6162448b61623e6162385f6136f0565b916136db565b14610469565b91610469565b14159861625f6162595f6136f0565b916136db565b1461628e575b50505f14616280576162769161615f565b5b60801b83179055565b6162899161581e565b616277565b6162b26162ac6162a76162a25f8601613450565b616761565b6104d7565b916104d7565b13156162bf575b80616265565b6162e66002826162e06162d760016162ef96016116c1565b60018a0161175d565b016116c1565b6002860161175d565b5f6162b9565b600190616300616126565b50616309616046565b81808080616315615ffb565b050292050203050160018060801b030490565b5f5260045260245ffd5b91908181076163585705908160081d5f52602052600160ff60405f2092161b8154189055565b63d4d8f3e65f526020526040526044601cfd5b92919261637661278c565b5061637f61278c565b50616396616391600483018490616146565b61615c565b936163ad6163a8600484018390616146565b61615c565b926163c16163bc5f8501613450565b616761565b906163d56163cf83926104d7565b916104d7565b125f14616425575050506164219061641b60026164148161640d6163fb60018a016116c1565b616407600188016116c1565b90615d3a565b97016116c1565b92016116c1565b90615d3a565b905b565b61643561643b91969496926104d7565b916104d7565b12155f1461648d57506164869061648060026164798161647261646060018a016116c1565b61646c600188016116c1565b90615d3a565b97016116c1565b92016116c1565b90615d3a565b905b616423565b926164f360026164ec6164f9946164e6836164df816164d86164c66164b460018f016116c1565b6164c0600189016116c1565b90615d3a565b6164d260018c016116c1565b90615d3a565b9b016116c1565b92016116c1565b90615d3a565b92016116c1565b90615d3a565b90616488565b9061650990611fd5565b5f5260205260405f2090565b90565b9161654493616549956165296119af565b506026526006526003525f52603a600c20905f6026526164ff565b616515565b90565b939192909361655961278c565b5061656261278c565b5061656e5f82016136ce565b948061658261657c5f613188565b916118db565b145f1461664757508461659d6165975f6136f0565b916136db565b1461662157600261661f925b61661861660e6165e16165c8896165c2600189016116c1565b90615d3a565b8a906165db6165d561372b565b92613748565b90615d83565b986165f7846165f18789016116c1565b90615d3a565b61660861660261372b565b92613748565b90615d83565b966001850161175d565b910161175d565b565b7faefeb924000000000000000000000000000000000000000000000000000000006130db565b61661f9261666261665a60029389617491565b5f850161403f565b6165a9565b1b90565b919060086166a591029161669f7fffffffffffffffffffffffffffffffffffffffffffffffffffffffffffffffff84616667565b92616667565b9181191691161790565b91906166c56166c06166cd9361032b565b61175a565b90835461666b565b9055565b6166e3916166dd61278c565b916166af565b565b5f60026167049282808201556166fe83600183016166d1565b016166d1565b565b7f4e487b71000000000000000000000000000000000000000000000000000000005f525f60045260245ffd5b905f0361674457616742906166e5565b565b616706565b61675a61675f9260045f9301616146565b616732565b565b616769612480565b5060a01c60020b90565b90565b61678a61678561678f92616773565b6102de565b61028b565b90565b6167a66167a16167ab926148ac565b6102de565b61028b565b90565b90565b6167c56167c06167ca926167ae565b6102de565b61028b565b90565b6167e16167dc6167e692614854565b6102de565b61028b565b90565b90565b6168006167fb616805926167e9565b6102de565b61028b565b90565b61681c61681761682192613935565b6102de565b61028b565b90565b90565b61683b61683661684092616824565b6102de565b61028b565b90565b90565b61685a61685561685f92616843565b6102de565b61028b565b90565b61687661687161687b92614880565b6102de565b61028b565b90565b90565b61689561689061689a9261687e565b6102de565b61028b565b90565b6168b16168ac6168b692613eaa565b6102de565b61028b565b90565b90565b6168d06168cb6168d5926168b9565b6102de565b61028b565b90565b6168ec6168e76168f1926144da565b6102de565b61028b565b90565b90565b61690b616906616910926168f4565b6102de565b61028b565b90565b61692761692261692c92613c48565b6102de565b61028b565b90565b90565b61694661694161694b9261692f565b6102de565b61028b565b90565b61696261695d61696792614585565b6102de565b61028b565b90565b90565b61698161697c6169869261696a565b6102de565b61028b565b90565b61699d6169986169a292613c1b565b6102de565b61028b565b90565b90565b6169bc6169b76169c1926169a5565b6102de565b61028b565b90565b6169d86169d36169dd92615025565b6102de565b61028b565b90565b90565b6169f76169f26169fc926169e0565b6102de565b61028b565b90565b616a13616a0e616a1892614b47565b6102de565b61028b565b90565b90565b616a32616a2d616a3792616a1b565b6102de565b61028b565b90565b90565b616a51616a4c616a5692616a3a565b6102de565b61028b565b90565b90565b616a70616a6b616a7592616a59565b6102de565b61028b565b90565b90565b616a8f616a8a616a9492616a78565b6102de565b61028b565b90565b90565b616aae616aa9616ab392616a97565b6102de565b61028b565b90565b90565b616acd616ac8616ad292616ab6565b6102de565b61028b565b90565b90565b616aec616ae7616af192616ad5565b6102de565b61028b565b90565b90565b616b0b616b06616b1092616af4565b6102de565b61028b565b90565b90565b616b2a616b25616b2f92616b13565b6102de565b61028b565b90565b90565b616b49616b44616b4e92616b32565b6102de565b61028b565b90565b90565b616b68616b63616b6d92616b51565b6102de565b61028b565b90565b90565b616b87616b82616b8c92616b70565b6102de565b61028b565b90565b90565b616ba6616ba1616bab92616b8f565b6102de565b61028b565b90565b616bb6615c0a565b50616bbf61278c565b508060ff1d8181011890620d89e8821161735a57616bdb61278c565b50600182166ffffcb933bd6fad37aa2d162d1a594001600160801b1802600160801b189180616c0a6002615d67565b16616c1d616c175f611e82565b9161028b565b0361731d575b80616c2e6004616792565b16616c41616c3b5f611e82565b9161028b565b036172e0575b80616c5260086167cd565b16616c65616c5f5f611e82565b9161028b565b036172a3575b80616c766010616808565b16616c89616c835f611e82565b9161028b565b03617266575b80616c9a6020614cba565b16616cad616ca75f611e82565b9161028b565b03617229575b80616cbe6040616862565b16616cd1616ccb5f611e82565b9161028b565b036171ec575b80616ce2608061689d565b16616cf5616cef5f611e82565b9161028b565b036171af575b80616d076101006168d8565b16616d1a616d145f611e82565b9161028b565b03617172575b80616d2c610200616913565b16616d3f616d395f611e82565b9161028b565b03617135575b80616d5161040061694e565b16616d64616d5e5f611e82565b9161028b565b036170f8575b80616d76610800616989565b16616d89616d835f611e82565b9161028b565b036170bb575b80616d9b6110006169c4565b16616dae616da85f611e82565b9161028b565b0361707e575b80616dc06120006169ff565b16616dd3616dcd5f611e82565b9161028b565b03617041575b80616de5614000616a3d565b16616df8616df25f611e82565b9161028b565b03617004575b80616e0a618000616a7b565b16616e1d616e175f611e82565b9161028b565b03616fc7575b80616e3062010000616ab9565b16616e43616e3d5f611e82565b9161028b565b03616f8a575b80616e5662020000616af7565b16616e69616e635f611e82565b9161028b565b03616f4e575b80616e7c62040000616b35565b16616e8f616e895f611e82565b9161028b565b03616f13575b616ea162080000616b73565b16616eb4616eae5f611e82565b9161028b565b03616ed7575b5f12616ecf575b60018060201b030160201c90565b5f1904616ec1565b90616f0b616efb5f92616ef56b048a170391f7dc42444e8fa2616b92565b90615d21565b616f056080613eb3565b90613ecf565b919050616eba565b91616f38616f4891616f326d2216e584f5fa1ea926041bedfe98616b54565b90615d21565b616f426080613eb3565b90613ecf565b91616e95565b91616f74616f8491616f6e6e5d6af8dedb81196699c329225ee604616b16565b90615d21565b616f7e6080613eb3565b90613ecf565b91616e6f565b91616fb1616fc191616fab6f09aa508b5b7a84e1c677de54f3e99bc9616ad8565b90615d21565b616fbb6080613eb3565b90613ecf565b91616e49565b91616fee616ffe91616fe86f31be135f97d08fd981231505542fcfa6616a9a565b90615d21565b616ff86080613eb3565b90613ecf565b91616e23565b9161702b61703b916170256f70d869a156d2a1b890bb3df62baf32f7616a5c565b90615d21565b6170356080613eb3565b90613ecf565b91616dfe565b91617068617078916170626fa9f746462d870fdf8a65dc1f90e061e5616a1e565b90615d21565b6170726080613eb3565b90613ecf565b91616dd9565b916170a56170b59161709f6fd097f3bdfd2022b8845ad8f792aa58256169e3565b90615d21565b6170af6080613eb3565b90613ecf565b91616db4565b916170e26170f2916170dc6fe7159475a2c29b7443b29c7fa6e889d96169a8565b90615d21565b6170ec6080613eb3565b90613ecf565b91616d8f565b9161711f61712f916171196ff3392b0822b70005940c7a398e4b70f361696d565b90615d21565b6171296080613eb3565b90613ecf565b91616d6a565b9161715c61716c916171566ff987a7253ac413176f2b074cf7815e54616932565b90615d21565b6171666080613eb3565b90613ecf565b91616d45565b916171996171a9916171936ffcbe86c7900a88aedcffc83b479aa3a46168f7565b90615d21565b6171a36080613eb3565b90613ecf565b91616d20565b916171d66171e6916171d06ffe5dee046a99a2a811c461f1969c30536168bc565b90615d21565b6171e06080613eb3565b90613ecf565b91616cfb565b916172136172239161720d6fff2ea16466c96a3843ec78b326b52861616881565b90615d21565b61721d6080613eb3565b90613ecf565b91616cd7565b916172506172609161724a6fff973b41fa98c081472e6896dfb254c0616846565b90615d21565b61725a6080613eb3565b90613ecf565b91616cb3565b9161728d61729d916172876fffcb9843d60f6159c9db58835c926644616827565b90615d21565b6172976080613eb3565b90613ecf565b91616c8f565b916172ca6172da916172c46fffe5caca7e10e4e61c3624eaa0941cd06167ec565b90615d21565b6172d46080613eb3565b90613ecf565b91616c6b565b91617307617317916173016ffff2e50f5f656932ef12357cf3c7fdcc6167b1565b90615d21565b6173116080613eb3565b90613ecf565b91616c47565b916173446173549161733e6ffff97272373d413259a46990580e213a616776565b90615d21565b61734e6080613eb3565b90613ecf565b91616c23565b63ce8ef7fc5f526004601cfd5b61737b617376617380926118db565b6102de565b6136db565b90565b61738e905f03610922565b90565b91909161739c612c12565b50816173b06173aa5f613188565b916118db565b125f146173e357916173da916173d26173cd6173df9593926118e1565b617367565b905f926189f1565b618a30565b5b90565b61740c92617407926173f9617402939291617367565b906001926189f1565b618a30565b617383565b6173e0565b91909161741c612c12565b508161743061742a5f613188565b916118db565b125f14617463579161745a9161745261744d61745f9593926118e1565b617367565b905f92618a9f565b618a30565b5b90565b61748c9261748792617479617482939291617367565b90600192618a9f565b618a30565b617383565b617460565b617499616126565b5001908160801c6174a657565b6393dafdf15f526004601cfd5b6174d0916174c9916174c3612c12565b50615c62565b9115610469565b6174e0576174dd90617b2d565b90565b506174ea5f61225f565b90565b9061753461752e61753a936175006119c4565b50617509612c12565b50617512612c12565b508060801d90600f0b938060801d90600f0b9103930392613ef6565b91613ef6565b90615d07565b90565b61755161754c61755692610243565b6102de565b61028b565b90565b61756d617568617572926134f2565b6102de565b613ead565b90565b6175949061758e61758861759994613ead565b9161028b565b90616667565b61028b565b90565b90565b6175b36175ae6175b89261759c565b6102de565b61028b565b90565b6175da906175d46175ce6175df9461028b565b9161028b565b90616667565b61028b565b90565b617601906175fb6175f56176069461028b565b9161028b565b9061035d565b61028b565b90565b61761d61761861762292613eaa565b6102de565b610922565b90565b906176309103610922565b90565b61764761764261764c92614880565b6102de565b613ead565b90565b61766e9061766861766261767394613ead565b91610922565b90616667565b610922565b90565b90565b61768d61768861769292617676565b6102de565b610922565b90565b906176a09102610922565b90565b90565b6176ba6176b56176bf926176a3565b6102de565b610922565b90565b1d90565b6176e5906176df6176d96176ea94613ead565b91610922565b906176c2565b610922565b90565b6177016176fc61770692610922565b6102de565b6104d7565b90565b90565b61772061771b61772592617709565b6102de565b610922565b90565b906177339101610922565b90565b61773e612480565b5073fffd8963efd1fc6a506488495d951d51639616826401000276a3820311617a5d5761796a6177806177708361753d565b61777a6020617559565b90617575565b6178676178576178478360016177955f611e82565b916fffffffffffffffffffffffffffffffff811160071b809317921c67ffffffffffffffff811160061b809317921c63ffffffff811160051b809317921c61ffff811160041b809317921c60ff811160031b809317921c600f811160021b809317921c60038111821b809317921c1117938461781a617814608061689d565b9161028b565b10155f14617a39576178409061783a86617834607f61759f565b90615d3a565b906175e2565b935b613105565b6178516080617609565b90617625565b6178616040617633565b9061764f565b908002607f1c8060801c9182603f1b17911c8002607f1c8060801c9182603e1b17911c8002607f1c8060801c9182603d1b17911c8002607f1c8060801c9182603c1b17911c8002607f1c8060801c9182603b1b17911c8002607f1c8060801c9182603a1b17911c8002607f1c8060801c918260391b17911c8002607f1c8060801c918260381b17911c8002607f1c8060801c918260371b17911c8002607f1c8060801c918260361b17911c8002607f1c8060801c918260351b17911c8002607f1c8060801c918260341b17911c8002607f1c8060801c918260331b17911c8002607f1c60801c60321b17617964693627a301d71055774c85617679565b90617695565b6179e66179e16179d16179b16179ac61799c866179966f028f6481ab7f045a5af012a19d003aaa6176a6565b90617625565b6179a66080613eb3565b906176c6565b6176ed565b936179cb6fdb2df09e81959a81455e260799a0632f61770c565b90617728565b6179db6080613eb3565b906176c6565b6176ed565b91816179fa6179f4856104d7565b916104d7565b145f14617a08575090505b90565b617a23617a1d617a1785616bae565b92610243565b91610243565b11155f14617a3257505b617a05565b9050617a2d565b617a5790617a51607f617a4c889161759f565b615d3a565b906175bb565b93617842565b6331efafe85f526004601cfd5b90617a73615fb8565b5073ffffffffffffffffffffffffffffffffffffffff169073ffffffffffffffffffffffffffffffffffffffff19161790565b90617aaf615fb8565b5062ffffff1660a01b9062ffffff60a01b19161790565b90617acf615fb8565b5062ffffff1660b81b9062ffffff60b81b19161790565b617aee6119af565b507f1e0745a7db1623981f0b2a5d4232364c00787266eb75ad546f190e6cebe9bd955f5260205260405f2090565b606090617b27612c16565b50015190565b604090617b38612c12565b50015190565b617b466130e2565b5060801d90565b617b5760c061076f565b90565b5f90565b5f90565b5f90565b5f90565b617b72617b4d565b906020808080808087617b83617b5a565b815201617b8e617b5a565b815201617b99617b5e565b815201617ba4617b62565b815201617baf617b66565b815201617bba613f86565b81525050565b617bc8617b6a565b90565b61ffff1690565b617be6617be1617beb92617bcb565b6102de565b61028b565b90565b90617bf89061028b565b9052565b90565b617c13617c0e617c1892617bfc565b6102de565b610243565b90565b617c3873fffd8963efd1fc6a506488495d951d5263988d26617bff565b90565b90565b617c52617c4d617c5792617c3b565b6102de565b610243565b90565b617c686401000276a3617c3e565b90565b617c7560e061076f565b90565b617c80617c6b565b90602080808080808088617c92617b5e565b815201617c9d617b62565b815201617ca8613f82565b815201617cb3617b5e565b815201617cbe617b66565b815201617cc9617b66565b815201617cd4617b66565b81525050565b617ce2617c78565b90565b617cef905161028b565b90565b617d01617d0791939293610922565b92610922565b91828103925f828512818312169285139112151617617d2257565b6116ce565b617d3b617d36617d4092615f63565b6102de565b61028b565b90565b617d4f620f4240617d27565b90565b7f4e487b71000000000000000000000000000000000000000000000000000000005f52601260045260245ffd5b617d8b617d919161028b565b9161028b565b908115617d9c570490565b617d52565b90617dac91036104d7565b90565b60c0525f608052617dbe6119c4565b50617dc761278c565b608052617dd2612c16565b50617ddb617bc0565b91617de95f60c05101613450565b91617df660208201612c1a565b91617e05600360c051016136ce565b91835f1461889a57617e27617e21617e1c87618b69565b618c2a565b5b617bd2565b60a052617e41617e39604083016121c1565b5f8801612c4f565b617e56617e4d5f61225f565b60208801612c4f565b617e6b617e6286615c0e565b60408801612c5d565b617e80617e7786616761565b606088016121f6565b835f1461888457617ea2617e98600160c051016116c1565b5b60808801617bee565b617eaf8360a08801613fd3565b617ec3617ebe60808301611fbc565b618c79565b5f1461887657617edd617ed860808301611fbc565b618cb6565b5b60a051617ef3617eed5f611e82565b9161028b565b145f1461885d575b91617f08604083016121c1565b617f1a617f145f61225f565b91610922565b1293617f268515610469565b8061883c575b61881657617f3c604084016121c1565b617f4e617f485f61225f565b91610922565b146187f157855f1461872957617f6660608401612c27565b617f80617f7a617f758a615c0e565b610243565b91610243565b10156186eb57617f9260608401612c27565b617fab617fa5617fa0617c5a565b610243565b91610243565b11156186b7575b617fba617cda565b965b617fc75f8a016121c1565b617fd9617fd35f61225f565b91610922565b148015618682575b617feb9015610469565b1561850657618007617fff60408b01612c27565b5f8a01612c5d565b61804a618032600560c0510161801f60608d016121b4565b61802a5f89016121b4565b908b92618dc9565b9061804460208c019260408d01612c41565b906121f6565b618056602089016121b4565b61806f618069618064615ffb565b6104d7565b916104d7565b13156184ed575b618082602089016121b4565b61809b618095618090616046565b6104d7565b916104d7565b12156184d4575b6180c26180b96180b460208b016121b4565b616bae565b60608a01612c5d565b618151898961814b61814560406181218d8c6181028d6180e3868b01612c27565b93906180fc60606180f5818d01612c27565b9201612c27565b91618fbb565b61810e60a08a01613fe1565b9061811a5f8b016121c1565b9293618fe0565b94929691939097019661813f608083019560c060a085019401617bee565b90617bee565b90617bee565b90612c5d565b61815b8615610469565b5f146184535761819361817861817360a08b01617ce5565b618a30565b61818d5f8c0191618188836121c1565b617625565b90612c4f565b6181de6181d56181a560208c016121c1565b6181cf6181ca8c6181c460c06181bd60808401617ce5565b9201617ce5565b9061177d565b618a30565b90617cf2565b60208b01612c4f565b5b60a0516181f46181ee5f611e82565b9161028b565b116183e1575b61820660a08a01613fe1565b6182186182125f6136f0565b916136db565b1161838b575b61822a60408a01612c27565b61824761824161823c60608c01612c27565b610243565b91610243565b145f146183335761825a60408901612c1a565b61828f575b618267612480565b506182896182808861827b60208c016121b4565b617da1565b60608b016121f6565b5b617fbc565b8888885f14618308576182d56182ec916182ae60806182f59501617ce5565b6182bc600260c051016116c1565b905b6182cd602060c05194016121b4565b909192619295565b896182fa575b6182e760a08d01613fe1565b617491565b60a08b01613fd3565b61825f565b618303906118e1565b6182db565b6182d56182ec916182f59361832d6080618326600160c051016116c1565b9201617ce5565b906182be565b61833f60408a01612c27565b61835b6183556183505f8c01612c27565b610243565b91610243565b03618366575b61828a565b61838661837d61837860408c01612c27565b617736565b60608b016121f6565b618361565b6183dc6183c061839d60c08b01617ce5565b8b6183ba6183b560a06183ae61372b565b9301613fe1565b613748565b91615d83565b6183d660808c01916183d183617ce5565b613764565b90617bee565b61821e565b61844b61842361841561840c8b61840660c06183ff60808401617ce5565b9201617ce5565b90613764565b60a05190615d21565b61841d617d43565b90617d7f565b6184438161843d60c08d019161843883617ce5565b615d3a565b90617bee565b608051613764565b6080526181fa565b61849a61847f61847a61846860808c01617ce5565b61847460c08d01617ce5565b90613764565b618a30565b6184945f8c019161848f836121c1565b617728565b90612c4f565b6184cf6184c66184ac60208c016121c1565b6184c06184bb60a08d01617ce5565b618a30565b906131c0565b60208b01612c4f565b6181df565b6184e86184df616046565b60208a016121f6565b6180a2565b6185016184f8615ffb565b60208a016121f6565b618076565b6185a793959497509061854d6185436185316185a1959b999461852b60608c016121b4565b90617aa6565b61853d60408b01612c27565b90617a6a565b5f60c05101613b91565b61856a61856461855f60a08a01613fe1565b6136db565b916136db565b03618663575b61857a8115610469565b5f146186445761859a61858f60808801617ce5565b600260c0510161175d565b5b92610469565b91610469565b14155f146185f9576185f5906185ef6185ea6185d960406185d26185cd602089016121c1565b613ef6565b94016121c1565b6185e45f87016121c1565b90617625565b613ef6565b90615d07565b925b565b61862461861f61860e604061863e94016121c1565b6186195f86016121c1565b90617625565b613ef6565b618638618633602085016121c1565b613ef6565b90615d07565b926185f7565b61865e61865360808801617ce5565b600160c0510161175d565b61859b565b61867d61867260a08801613fe1565b600360c0510161403f565b618570565b50617feb61869260408b01612c27565b6186af6186a96186a460608901612c27565b610243565b91610243565b149050617fe1565b826186e560607f9e4d7cc7000000000000000000000000000000000000000000000000000000009201612c27565b90618d00565b8683618723606061871c7f7c9c6e8f0000000000000000000000000000000000000000000000000000000094615c0e565b9201612c27565b91618cf3565b61873560608401612c27565b61874f6187496187448a615c0e565b610243565b91610243565b11156187b35761876160608401612c27565b61877a61877461876f617c1b565b610243565b91610243565b10617fb257826187ad60607f9e4d7cc7000000000000000000000000000000000000000000000000000000009201612c27565b90618d00565b86836187eb60606187e47f7c9c6e8f0000000000000000000000000000000000000000000000000000000094615c0e565b9201612c27565b91618cf3565b509350509392505061880161227b565b9161880f5f94919394611e82565b6080529190565b7f96206246000000000000000000000000000000000000000000000000000000006130db565b508361885761885161884c615f82565b610784565b91610784565b14617f2c565b6188719061886c60a051614cd6565b618cd4565b617efb565b61887f85618ca2565b617ede565b617ea2618895600260c051016116c1565b617e99565b617e276188ae6188a987618b69565b618be3565b617e22565b6188d46188c56188da939260016110ef565b916188cf836116c1565b613764565b9061175d565b565b6188e46130e2565b50600f0b90565b919061891f8261891961890a61890360048890610315565b8590610347565b91618914836116c1565b6116fb565b9061175d565b339261892a5f613368565b919261896861896261895c7f1b3d7edb2e9c0b0e7c525b20aaaef0f5940d2ed71663c7d39266ecafac72885994610309565b94610309565b9461032b565b9461897d618974610231565b928392836117a2565b0390a4565b61898a6119af565b505f5260205260405f2090565b5f90565b6020906189a6618997565b50015190565b5f5260045260245260445ffd5b90565b6189d06189cb6189d5926189b9565b6102de565b61028b565b90565b6189ee6c010000000000000000000000006189bc565b90565b5f91618a0891949394618a0261278c565b50619305565b92618a116189d8565b90618a1a61278c565b5093618a2885828491615d83565b940911160190565b618a38612c12565b50618a4281613105565b618a54618a4e5f61225f565b91610922565b12615b4957618a6290613105565b90565b90565b618a7c618a77618a8192618a65565b6102de565b613ead565b90565b618a8e6060618a68565b90565b90618a9c9103610243565b90565b91618aa861278c565b5082618abc618ab684610243565b91610243565b11618b61575b8215618b5557618ad4618ae291613748565b618adc618a84565b90617575565b618af5618af0838590618a91565b61753d565b935f14618b2857618b2493618b1e92618b12618b1893929161753d565b91619329565b9161753d565b90619396565b5b90565b618b5093618b4a92618b3e618b4493929161753d565b91615d83565b9161753d565b90617d7f565b618b25565b62bfc9215f526004601cfd5b919091618ac2565b618b71612c16565b5060b81c62ffffff1690565b5f90565b90565b618b98618b93618b9d92618b81565b6102de565b613ead565b90565b618bbf90618bb9618bb3618bc494613ead565b91610784565b9061035d565b610784565b90565b618bdb618bd6618be092610784565b6102de565b617bcb565b90565b618c03618c0891618bf2618b7d565b50618bfd600c618b84565b90618ba0565b618bc7565b90565b90565b618c22618c1d618c2792618c0b565b6102de565b610784565b90565b618c4890618c36618b7d565b50618c42610fff618c0e565b16618bc7565b90565b90565b618c62618c5d618c6792618c4b565b6102de565b610784565b90565b618c7662400000618c4e565b90565b618c81611614565b50618c8a618c6a565b16618c9d618c975f614abc565b91610784565b141590565b618caa612c16565b5060d01c62ffffff1690565b618cc890618cc2612c16565b506193d9565b90618cd282613b47565b565b90618cdd612c16565b50808202620f42405f8183061191040191010390565b5f5260045260245260445ffd5b5f5260045260245ffd5b6001618d1691016104d7565b90565b618d2d618d28618d32926104d4565b6102de565b61028b565b90565b618d49618d44618d4e92610e36565b6102de565b610e36565b90565b90618d5b90618d35565b5f5260205260405f2090565b90618d729103613ead565b90565b618d89618d84618d8e92613ead565b6102de565b610784565b90565b618da5618da0618daa92610784565b6102de565b6104d7565b90565b90618db891016104d7565b90565b90618dc691026104d7565b90565b929190618de990618dd8612480565b50618de1611614565b5082906193ee565b915f14618ed657618e4c92618e51618e008461940b565b9590618e46618e2c618e1c6001618e178b91618d19565b617575565b618e266001618d19565b90615d3a565b618e406001618e3b8b91618d19565b617575565b90613764565b93618d51565b6116c1565b169283618e66618e605f611e82565b9161028b565b141593845f14618eac5790618e9c618e97618e92618ea294618e8c618ea7989591619886565b90618d67565b618d75565b618d91565b90617da1565b618dbb565b5b915b565b50618ecc90618ec6618ec1618ed19592618d75565b618d91565b90617da1565b618dbb565b618ea8565b618ee3618f289392618d0a565b91618f2d618ef08461940b565b9590618f22618f1c618f0c6001618f078b91618d19565b617575565b618f166001618d19565b90615d3a565b1961028b565b93618d51565b6116c1565b1680618f41618f3b5f611e82565b9161028b565b141593845f14618f875790618f75618f70618f6b618f7b94618f66618f80989561955d565b618d67565b618d75565b618d91565b90618dad565b618dbb565b5b91618eaa565b618fb19150618fab618fa6618fa1618fb6969360ff618d67565b618d75565b618d91565b90618dad565b618dbb565b618f81565b8290618fc5615c0a565b50818310189118021890565b618fdd620f4240617d27565b90565b909194929361901290618ff1615c0a565b50618ffa61278c565b5061900361278c565b5061900c61278c565b50614cf2565b948161902661902085610243565b91610243565b1015928561903c6190365f61225f565b91610922565b125f1461919f5761907761905761905288617383565b613e8e565b619069619062618fd1565b8a90615d3a565b619071618fd1565b91615d83565b95845f1461918b5761908e82858590600192618a9f565b5b96806190a361909d8a61028b565b9161028b565b10155f1461912157505095806190c86190c26190bd618fd1565b61028b565b9161028b565b145f146190ff5750845b925b5f146190ed57906190e89186915f926189f1565b5b915b565b6190fa9190865f92618a9f565b6190e9565b61911c90869061911681619111618fd1565b615d3a565b91619329565b6190d2565b915095506191359196508290878592619b4b565b94825f1461916e5761916861916161915c61915589868690600192618a9f565b5b97617383565b613e8e565b8690615d3a565b926190d4565b61916861916161915c619186858a86906001926189f1565b619156565b61919a848385906001926189f1565b61908f565b83969594935f14619255576191b8818484905f926189f1565b5b946191c381613e8e565b6191d56191cf8861028b565b9161028b565b10155f1461922f5750906192169291965b5f1461921c57906191fb918791600192618a9f565b5b9384906192108161920b618fd1565b615d3a565b91619329565b906190eb565b61922a9190876001926189f1565b6191fc565b619216939295506192409150613e8e565b9361924f828287908a92619b01565b966191e6565b619263838284905f92618a9f565b6191b9565b60801c90565b600f0b90565b61928061928591619268565b61926e565b90565b6192929054619274565b90565b6192f3619302946192e16192d86192c56192c05f989760046192fc986192b96130e2565b5001616146565b61615c565b956192d2600188016116c1565b90615d3a565b6001860161175d565b6192ed600285016116c1565b90615d3a565b6002830161175d565b01619288565b90565b61930d61278c565b50038060ff1d9081011890565b6001619326910161028b565b90565b929161933361278c565b5061934084838391615d83565b939190918215619391570961935d6193575f611e82565b9161028b565b03619365575b565b9061936f9061931a565b9061938c826193866193805f611e82565b9161028b565b11615d2f565b619363565b617d52565b9061939f61278c565b505f8183061191040190565b90565b6193c26193bd6193c7926193ab565b6102de565b610784565b90565b6193d662bfffff6193ae565b90565b6193e1612c16565b506193ea6193ca565b1690565b906193f7612480565b505f8183071291050390565b5f90565b5f90565b90619414619403565b5061941d619407565b5060ff8260081d921690565b90565b61944061943b61944592619429565b6102de565b613ead565b90565b67ffffffffffffffff1690565b61946961946461946e92619448565b6102de565b61028b565b90565b63ffffffff1690565b61948e61948961949392619471565b6102de565b61028b565b90565b6194aa6194a56194af92613935565b6102de565b613ead565b90565b6194c66194c16194cb92613ead565b6102de565b61028b565b90565b6194e26194dd6194e792614854565b6102de565b613ead565b90565b90565b6195016194fc619506926194ea565b6102de565b61028b565b90565b61951d619518619522926148ac565b6102de565b613ead565b90565b61953961953461953e926145b2565b6102de565b613ead565b90565b61955561955061955a926104d4565b6102de565b613ead565b90565b90619566619407565b506195838261957d6195775f611e82565b9161028b565b11615d2f565b61958d60ff61942c565b826195a76fffffffffffffffffffffffffffffffff613748565b166195ba6195b45f611e82565b9161028b565b115f1461981f576195d5906195cf6080613eb3565b90618d67565b5b826195e867ffffffffffffffff619455565b166195fb6195f55f611e82565b9161028b565b115f1461980457619616906196106040617633565b90618d67565b5b8261962563ffffffff61947a565b166196386196325f611e82565b9161028b565b115f146197e9576196539061964d6020617559565b90618d67565b5b8261966061ffff617bd2565b1661967361966d5f611e82565b9161028b565b115f146197ce5761968e906196886010619496565b90618d67565b5b8261969a60ff6194b2565b166196ad6196a75f611e82565b9161028b565b115f146197b3576196c8906196c260086194ce565b90618d67565b5b826196d4600f6194ed565b166196e76196e15f611e82565b9161028b565b115f1461979857619702906196fc6004619509565b90618d67565b5b8261970e6003615d4b565b1661972161971b5f611e82565b9161028b565b115f1461977e5761973c906197366002619525565b90618d67565b915b6197486001618d19565b1661975b6197555f611e82565b9161028b565b11619763575b565b90619778906197726001619541565b90618d67565b90619761565b916197939061978d6002619525565b90613ecf565b61973e565b916197ad906197a76004619509565b90613ecf565b91619703565b916197c8906197c260086194ce565b90613ecf565b916196c9565b916197e3906197dd6010619496565b90613ecf565b9161968f565b916197fe906197f86020617559565b90613ecf565b91619654565b91619819906198136040617633565b90613ecf565b91619617565b916198349061982e6080613eb3565b90613ecf565b916195d6565b906198459101613ead565b90565b90565b61985f61985a61986492619848565b6102de565b61028b565b90565b90565b61987e61987961988392619867565b6102de565b61028b565b90565b9061988f619407565b916198ac816198a66198a05f611e82565b9161028b565b11615d2f565b806198d06198ca70010000000000000000000000000000000061370f565b9161028b565b1015619ad3575b806198f36198ed6801000000000000000061984b565b9161028b565b1015619aa5575b8061991261990c64010000000061986a565b9161028b565b1015619a77575b8061992f61992962010000616ab9565b9161028b565b1015619a49575b8061994b6199456101006168d8565b9161028b565b1015619a1b575b806199666199606010616808565b9161028b565b10156199ed575b8061998161997b6004616792565b9161028b565b10156199bf575b61999b6199956002615d67565b9161028b565b10156199a4575b565b906199b9906199b36001619541565b9061983a565b906199a2565b6199d66199e7916199d06002619525565b90613ecf565b926199e16002619525565b9061983a565b91619988565b619a04619a15916199fe6004619509565b90613ecf565b92619a0f6004619509565b9061983a565b9161996d565b619a32619a4391619a2c60086194ce565b90613ecf565b92619a3d60086194ce565b9061983a565b91619952565b619a60619a7191619a5a6010619496565b90613ecf565b92619a6b6010619496565b9061983a565b91619936565b619a8e619a9f91619a886020617559565b90613ecf565b92619a996020617559565b9061983a565b91619919565b619abc619acd91619ab66040617633565b90613ecf565b92619ac76040617633565b9061983a565b916198fa565b619aea619afb91619ae46080613eb3565b90613ecf565b92619af56080613eb3565b9061983a565b916198d7565b92919091619b0d615c0a565b508215841517619b3e575f14619b2d57619b2992915f92619d08565b5b90565b619b3992915f92619bb9565b619b2a565b634f2461b85f526004601cfd5b92919091619b57615c0a565b508215841517619b8a575f14619b7857619b749291600192619bb9565b5b90565b619b859291600192619d08565b619b75565b634f2461b85f526004601cfd5b619ba3619ba99161028b565b9161028b565b908115619bb4570490565b617d52565b90619bc2615c0a565b5082619bd6619bd05f611e82565b9161028b565b14619d0157619be7619bf591613748565b619bef618a84565b90617575565b925f14619ca857619c0f82619c098361753d565b90615d21565b619c1a818490617d7f565b619c2c619c268461753d565b9161028b565b14619c65575b5091619c57619c5d92619c52619c6295619c4c859161753d565b90619b97565b61177d565b90619396565b61330b565b90565b619c6f9084613764565b80619c82619c7c8661028b565b9161028b565b10619c325790619ca09250619c9a619ca5949161753d565b90619329565b61330b565b90565b91619cbc82619cb68561753d565b90615d21565b9183838311918404141615619cf457619cf192619ce6619cdf619cec9484615d3a565b929161753d565b90619329565b619e73565b90565b63f5c787f15f526004601cfd5b5091505090565b92619d11615c0a565b505f14619dac5791619d7e82619d8894619d8394619d4b619d4573ffffffffffffffffffffffffffffffffffffffff61753d565b9161028b565b11155f14619d8b57619d71619d6b619d7793619d65618a84565b90617575565b91613748565b90619b97565b5b9161753d565b61177d565b619e73565b90565b619da79190619da1619d9b6189d8565b91613748565b91615d83565b619d78565b81619dd3619dcd73ffffffffffffffffffffffffffffffffffffffff61753d565b9161028b565b11155f14619e3357619df9619df3619dff93619ded618a84565b90617575565b91613748565b90619396565b5b9081811115619e2657619e2391619e19619e1e9261753d565b615d3a565b61330b565b90565b634323a5555f526004601cfd5b619e4f9190619e49619e436189d8565b91613748565b91619329565b619e00565b90565b619e6b619e66619e7092619e54565b6102de565b61028b565b90565b619e7b615c0a565b5080619ea4619e9e74010000000000000000000000000000000000000000619e57565b9161028b565b1015619eb657619eb39061330b565b90565b615b4956fea26469706673582212204a5894349640626c6c68ca37f284cf8876d32d0e5ee7b2149175a0b9fc7e262764736f6c634300081a0033","linkReferences":{}},"methodIdentifiers":{"MAX_TICK_SPACING()":"60460f06","MIN_TICK_SPACING()":"07eff0dd","allowance(address,address,uint256)":"598af9e7","approve(address,uint256,uint256)":"426a8493","balanceOf(address,uint256)":"00fdd58e","burn(address,uint256,uint256)":"f5298aca","collectProtocolFees(address,address,uint256)":"8161b874","donate((address,address,uint24,int24,address),uint256,uint256,bytes)":"234266d7","extsload(bytes32)":"1e2eaeaf","extsload(bytes32,uint256)":"35fd631a","extsload(bytes32[])":"dbd035ff","exttload(bytes32)":"f135baaa","exttload(bytes32[])":"9bf6645f","initialize((address,address,uint24,int24,address),uint160,bytes)":"695c5bf5","isOperator(address,address)":"b6363cf2","mint(address,uint256,uint256)":"156e29f6","modifyLiquidity((address,address,uint24,int24,address),(int24,int24,int256,bytes32),bytes)":"5a6bcfda","owner()":"8da5cb5b","protocolFeeController()":"f02de3b2","protocolFeesAccrued(address)":"97e8cd4e","setOperator(address,bool)":"558a7297","setProtocolFee((address,address,uint24,int24,address),uint24)":"7e87ce7d","setProtocolFeeController(address)":"2d771389","settle(address)":"6a256b29","supportsInterface(bytes4)":"01ffc9a7","swap((address,address,uint24,int24,address),(bool,int256,uint160),bytes)":"f3cd914c","sync(address)":"a5841194","take(address,address,uint256)":"0b0d9c09","transfer(address,uint256,uint256)":"095bcdb6","transferFrom(address,address,uint256,uint256)":"fe99049a","transferOwnership(address)":"f2fde38b","unlock(bytes)":"48c89491","updateDynamicLPFee((address,address,uint24,int24,address),uint24)":"52759651"},"id":36}