{"abi":[{"type":"constructor","inputs":[{"name":"controllerGasLimit","type":"uint256","internalType":"uint256"}],"stateMutability":"nonpayable"},{"type":"function","name":"MAX_TICK_SPACING","inputs":[],"outputs":[{"name":"","type":"int24","internalType":"int24"}],"stateMutability":"view"},{"type":"function","name":"MIN_TICK_SPACING","inputs":[],"outputs":[{"name":"","type":"int24","internalType":"int24"}],"stateMutability":"view"},{"type":"function","name":"allowance","inputs":[{"name":"","type":"address","internalType":"address"},{"name":"","type":"address","internalType":"address"},{"name":"","type":"uint256","internalType":"uint256"}],"outputs":[{"name":"","type":"uint256","internalType":"uint256"}],"stateMutability":"view"},{"type":"function","name":"approve","inputs":[{"name":"spender","type":"address","internalType":"address"},{"name":"id","type":"uint256","internalType":"uint256"},{"name":"amount","type":"uint256","internalType":"uint256"}],"outputs":[{"name":"","type":"bool","internalType":"bool"}],"stateMutability":"nonpayable"},{"type":"function","name":"balanceOf","inputs":[{"name":"","type":"address","internalType":"address"},{"name":"","type":"uint256","internalType":"uint256"}],"outputs":[{"name":"","type":"uint256","internalType":"uint256"}],"stateMutability":"view"},{"type":"function","name":"burn","inputs":[{"name":"from","type":"address","internalType":"address"},{"name":"id","type":"uint256","internalType":"uint256"},{"name":"amount","type":"uint256","internalType":"uint256"}],"outputs":[],"stateMutability":"nonpayable"},{"type":"function","name":"collectProtocolFees","inputs":[{"name":"recipient","type":"address","internalType":"address"},{"name":"currency","type":"address","internalType":"Currency"},{"name":"amount","type":"uint256","internalType":"uint256"}],"outputs":[{"name":"amountCollected","type":"uint256","internalType":"uint256"}],"stateMutability":"nonpayable"},{"type":"function","name":"donate","inputs":[{"name":"key","type":"tuple","internalType":"struct PoolKey","components":[{"name":"currency0","type":"address","internalType":"Currency"},{"name":"currency1","type":"address","internalType":"Currency"},{"name":"fee","type":"uint24","internalType":"uint24"},{"name":"tickSpacing","type":"int24","internalType":"int24"},{"name":"hooks","type":"address","internalType":"contract IHooks"}]},{"name":"amount0","type":"uint256","internalType":"uint256"},{"name":"amount1","type":"uint256","internalType":"uint256"},{"name":"hookData","type":"bytes","internalType":"bytes"}],"outputs":[{"name":"delta","type":"int256","internalType":"BalanceDelta"}],"stateMutability":"nonpayable"},{"type":"function","name":"extsload","inputs":[{"name":"slot","type":"bytes32","internalType":"bytes32"}],"outputs":[{"name":"","type":"bytes32","internalType":"bytes32"}],"stateMutability":"view"},{"type":"function","name":"extsload","inputs":[{"name":"startSlot","type":"bytes32","internalType":"bytes32"},{"name":"nSlots","type":"uint256","internalType":"uint256"}],"outputs":[{"name":"","type":"bytes","internalType":"bytes"}],"stateMutability":"view"},{"type":"function","name":"extsload","inputs":[{"name":"slots","type":"bytes32[]","internalType":"bytes32[]"}],"outputs":[{"name":"","type":"bytes32[]","internalType":"bytes32[]"}],"stateMutability":"view"},{"type":"function","name":"exttload","inputs":[{"name":"slots","type":"bytes32[]","internalType":"bytes32[]"}],"outputs":[{"name":"","type":"bytes32[]","internalType":"bytes32[]"}],"stateMutability":"view"},{"type":"function","name":"exttload","inputs":[{"name":"slot","type":"bytes32","internalType":"bytes32"}],"outputs":[{"name":"","type":"bytes32","internalType":"bytes32"}],"stateMutability":"view"},{"type":"function","name":"initialize","inputs":[{"name":"key","type":"tuple","internalType":"struct PoolKey","components":[{"name":"currency0","type":"address","internalType":"Currency"},{"name":"currency1","type":"address","internalType":"Currency"},{"name":"fee","type":"uint24","internalType":"uint24"},{"name":"tickSpacing","type":"int24","internalType":"int24"},{"name":"hooks","type":"address","internalType":"contract IHooks"}]},{"name":"sqrtPriceX96","type":"uint160","internalType":"uint160"},{"name":"hookData","type":"bytes","internalType":"bytes"}],"outputs":[{"name":"tick","type":"int24","internalType":"int24"}],"stateMutability":"nonpayable"},{"type":"function","name":"isOperator","inputs":[{"name":"","type":"address","internalType":"address"},{"name":"","type":"address","internalType":"address"}],"outputs":[{"name":"","type":"bool","internalType":"bool"}],"stateMutability":"view"},{"type":"function","name":"mint","inputs":[{"name":"to","type":"address","internalType":"address"},{"name":"id","type":"uint256","internalType":"uint256"},{"name":"amount","type":"uint256","internalType":"uint256"}],"outputs":[],"stateMutability":"nonpayable"},{"type":"function","name":"modifyLiquidity","inputs":[{"name":"key","type":"tuple","internalType":"struct PoolKey","components":[{"name":"currency0","type":"address","internalType":"Currency"},{"name":"currency1","type":"address","internalType":"Currency"},{"name":"fee","type":"uint24","internalType":"uint24"},{"name":"tickSpacing","type":"int24","internalType":"int24"},{"name":"hooks","type":"address","internalType":"contract IHooks"}]},{"name":"params","type":"tuple","internalType":"struct IPoolManager.ModifyLiquidityParams","components":[{"name":"tickLower","type":"int24","internalType":"int24"},{"name":"tickUpper","type":"int24","internalType":"int24"},{"name":"liquidityDelta","type":"int256","internalType":"int256"},{"name":"salt","type":"bytes32","internalType":"bytes32"}]},{"name":"hookData","type":"bytes","internalType":"bytes"}],"outputs":[{"name":"callerDelta","type":"int256","internalType":"BalanceDelta"},{"name":"feesAccrued","type":"int256","internalType":"BalanceDelta"}],"stateMutability":"nonpayable"},{"type":"function","name":"owner","inputs":[],"outputs":[{"name":"","type":"address","internalType":"address"}],"stateMutability":"view"},{"type":"function","name":"protocolFeeController","inputs":[],"outputs":[{"name":"","type":"address","internalType":"contract IProtocolFeeController"}],"stateMutability":"view"},{"type":"function","name":"protocolFeesAccrued","inputs":[{"name":"currency","type":"address","internalType":"Currency"}],"outputs":[{"name":"","type":"uint256","internalType":"uint256"}],"stateMutability":"view"},{"type":"function","name":"setOperator","inputs":[{"name":"operator","type":"address","internalType":"address"},{"name":"approved","type":"bool","internalType":"bool"}],"outputs":[{"name":"","type":"bool","internalType":"bool"}],"stateMutability":"nonpayable"},{"type":"function","name":"setProtocolFee","inputs":[{"name":"key","type":"tuple","internalType":"struct PoolKey","components":[{"name":"currency0","type":"address","internalType":"Currency"},{"name":"currency1","type":"address","internalType":"Currency"},{"name":"fee","type":"uint24","internalType":"uint24"},{"name":"tickSpacing","type":"int24","internalType":"int24"},{"name":"hooks","type":"address","internalType":"contract IHooks"}]},{"name":"newProtocolFee","type":"uint24","internalType":"uint24"}],"outputs":[],"stateMutability":"nonpayable"},{"type":"function","name":"setProtocolFeeController","inputs":[{"name":"controller","type":"address","internalType":"contract IProtocolFeeController"}],"outputs":[],"stateMutability":"nonpayable"},{"type":"function","name":"settle","inputs":[{"name":"currency","type":"address","internalType":"Currency"}],"outputs":[{"name":"paid","type":"uint256","internalType":"uint256"}],"stateMutability":"payable"},{"type":"function","name":"supportsInterface","inputs":[{"name":"interfaceId","type":"bytes4","internalType":"bytes4"}],"outputs":[{"name":"","type":"bool","internalType":"bool"}],"stateMutability":"view"},{"type":"function","name":"swap","inputs":[{"name":"key","type":"tuple","internalType":"struct PoolKey","components":[{"name":"currency0","type":"address","internalType":"Currency"},{"name":"currency1","type":"address","internalType":"Currency"},{"name":"fee","type":"uint24","internalType":"uint24"},{"name":"tickSpacing","type":"int24","internalType":"int24"},{"name":"hooks","type":"address","internalType":"contract IHooks"}]},{"name":"params","type":"tuple","internalType":"struct IPoolManager.SwapParams","components":[{"name":"zeroForOne","type":"bool","internalType":"bool"},{"name":"amountSpecified","type":"int256","internalType":"int256"},{"name":"sqrtPriceLimitX96","type":"uint160","internalType":"uint160"}]},{"name":"hookData","type":"bytes","internalType":"bytes"}],"outputs":[{"name":"swapDelta","type":"int256","internalType":"BalanceDelta"}],"stateMutability":"nonpayable"},{"type":"function","name":"sync","inputs":[{"name":"currency","type":"address","internalType":"Currency"}],"outputs":[{"name":"balance","type":"uint256","internalType":"uint256"}],"stateMutability":"nonpayable"},{"type":"function","name":"take","inputs":[{"name":"currency","type":"address","internalType":"Currency"},{"name":"to","type":"address","internalType":"address"},{"name":"amount","type":"uint256","internalType":"uint256"}],"outputs":[],"stateMutability":"nonpayable"},{"type":"function","name":"transfer","inputs":[{"name":"receiver","type":"address","internalType":"address"},{"name":"id","type":"uint256","internalType":"uint256"},{"name":"amount","type":"uint256","internalType":"uint256"}],"outputs":[{"name":"","type":"bool","internalType":"bool"}],"stateMutability":"nonpayable"},{"type":"function","name":"transferFrom","inputs":[{"name":"sender","type":"address","internalType":"address"},{"name":"receiver","type":"address","internalType":"address"},{"name":"id","type":"uint256","internalType":"uint256"},{"name":"amount","type":"uint256","internalType":"uint256"}],"outputs":[{"name":"","type":"bool","internalType":"bool"}],"stateMutability":"nonpayable"},{"type":"function","name":"transferOwnership","inputs":[{"name":"newOwner","type":"address","internalType":"address"}],"outputs":[],"stateMutability":"nonpayable"},{"type":"function","name":"unlock","inputs":[{"name":"data","type":"bytes","internalType":"bytes"}],"outputs":[{"name":"result","type":"bytes","internalType":"bytes"}],"stateMutability":"nonpayable"},{"type":"function","name":"updateDynamicLPFee","inputs":[{"name":"key","type":"tuple","internalType":"struct PoolKey","components":[{"name":"currency0","type":"address","internalType":"Currency"},{"name":"currency1","type":"address","internalType":"Currency"},{"name":"fee","type":"uint24","internalType":"uint24"},{"name":"tickSpacing","type":"int24","internalType":"int24"},{"name":"hooks","type":"address","internalType":"contract IHooks"}]},{"name":"newDynamicLPFee","type":"uint24","internalType":"uint24"}],"outputs":[],"stateMutability":"nonpayable"},{"type":"event","name":"Approval","inputs":[{"name":"owner","type":"address","indexed":true,"internalType":"address"},{"name":"spender","type":"address","indexed":true,"internalType":"address"},{"name":"id","type":"uint256","indexed":true,"internalType":"uint256"},{"name":"amount","type":"uint256","indexed":false,"internalType":"uint256"}],"anonymous":false},{"type":"event","name":"Debug","inputs":[{"name":"","type":"string","indexed":false,"internalType":"string"}],"anonymous":false},{"type":"event","name":"Initialize","inputs":[{"name":"id","type":"bytes32","indexed":false,"internalType":"PoolId"},{"name":"currency0","type":"address","indexed":true,"internalType":"Currency"},{"name":"currency1","type":"address","indexed":true,"internalType":"Currency"},{"name":"fee","type":"uint24","indexed":false,"internalType":"uint24"},{"name":"tickSpacing","type":"int24","indexed":false,"internalType":"int24"},{"name":"hooks","type":"address","indexed":false,"internalType":"contract IHooks"}],"anonymous":false},{"type":"event","name":"ModifyLiquidity","inputs":[{"name":"id","type":"bytes32","indexed":true,"internalType":"PoolId"},{"name":"sender","type":"address","indexed":true,"internalType":"address"},{"name":"tickLower","type":"int24","indexed":false,"internalType":"int24"},{"name":"tickUpper","type":"int24","indexed":false,"internalType":"int24"},{"name":"liquidityDelta","type":"int256","indexed":false,"internalType":"int256"}],"anonymous":false},{"type":"event","name":"OperatorSet","inputs":[{"name":"owner","type":"address","indexed":true,"internalType":"address"},{"name":"operator","type":"address","indexed":true,"internalType":"address"},{"name":"approved","type":"bool","indexed":false,"internalType":"bool"}],"anonymous":false},{"type":"event","name":"OwnershipTransferred","inputs":[{"name":"user","type":"address","indexed":true,"internalType":"address"},{"name":"newOwner","type":"address","indexed":true,"internalType":"address"}],"anonymous":false},{"type":"event","name":"ProtocolFeeControllerUpdated","inputs":[{"name":"protocolFeeController","type":"address","indexed":false,"internalType":"address"}],"anonymous":false},{"type":"event","name":"ProtocolFeeUpdated","inputs":[{"name":"id","type":"bytes32","indexed":true,"internalType":"PoolId"},{"name":"protocolFee","type":"uint24","indexed":false,"internalType":"uint24"}],"anonymous":false},{"type":"event","name":"Swap","inputs":[{"name":"id","type":"bytes32","indexed":true,"internalType":"PoolId"},{"name":"sender","type":"address","indexed":false,"internalType":"address"},{"name":"amount0","type":"int128","indexed":false,"internalType":"int128"},{"name":"amount1","type":"int128","indexed":false,"internalType":"int128"},{"name":"sqrtPriceX96","type":"uint160","indexed":false,"internalType":"uint160"},{"name":"liquidity","type":"uint128","indexed":false,"internalType":"uint128"},{"name":"tick","type":"int24","indexed":false,"internalType":"int24"},{"name":"fee","type":"uint24","indexed":false,"internalType":"uint24"}],"anonymous":false},{"type":"event","name":"Transfer","inputs":[{"name":"caller","type":"address","indexed":false,"internalType":"address"},{"name":"from","type":"address","indexed":true,"internalType":"address"},{"name":"to","type":"address","indexed":true,"internalType":"address"},{"name":"id","type":"uint256","indexed":true,"internalType":"uint256"},{"name":"amount","type":"uint256","indexed":false,"internalType":"uint256"}],"anonymous":false},{"type":"error","name":"AlreadyUnlocked","inputs":[]},{"type":"error","name":"CurrenciesOutOfOrderOrEqual","inputs":[]},{"type":"error","name":"CurrencyNotSettled","inputs":[]},{"type":"error","name":"DelegateCallNotAllowed","inputs":[]},{"type":"error","name":"InvalidCaller","inputs":[]},{"type":"error","name":"InvalidProtocolFee","inputs":[]},{"type":"error","name":"ManagerLocked","inputs":[]},{"type":"error","name":"NonZeroNativeValue","inputs":[]},{"type":"error","name":"PoolNotInitialized","inputs":[]},{"type":"error","name":"ProtocolFeeCannotBeFetched","inputs":[]},{"type":"error","name":"SwapAmountCannotBeZero","inputs":[]},{"type":"error","name":"TickSpacingTooLarge","inputs":[]},{"type":"error","name":"TickSpacingTooSmall","inputs":[]},{"type":"error","name":"UnauthorizedDynamicLPFeeUpdate","inputs":[]}],"bytecode":{"object":"60c060405234610048576100196100146100f9565b61011a565b61002161004d565b61a3f8610297823960805181818161528101526152ce015260a05181613f2a015261a3f890f35b610053565b60405190565b5f80fd5b601f801991011690565b634e487b7160e01b5f52604160045260245ffd5b9061007f90610057565b810190811060018060401b0382111761009757604052565b610061565b906100af6100a861004d565b9283610075565b565b5f80fd5b90565b6100c1816100b5565b036100c857565b5f80fd5b905051906100d9826100b8565b565b906020828203126100f4576100f1915f016100cc565b90565b6100b1565b61011761a68f8038038061010c8161009c565b9283398101906100db565b90565b61012390610125565b565b61012e90610130565b565b6101399061013b565b565b61014490610146565b565b61014f90610193565b565b60018060a01b031690565b90565b61017361016e61017892610151565b61015c565b610151565b90565b6101849061015f565b90565b6101909061017b565b90565b61019c906101aa565b6101a530610187565b60a052565b6101b333610237565b608052565b5f1b90565b906101ce60018060a01b03916101b8565b9181191691161790565b6101e19061017b565b90565b90565b906101fc6101f7610203926101d8565b6101e4565b82546101bd565b9055565b90565b61021e61021961022392610207565b61015c565b610151565b90565b61022f9061020a565b90565b5f0190565b610241815f6101e7565b61024a5f610226565b9061027e6102787f8be0079c531659141344cd1fd0a4f28419497f9722a3daafe3b4186f6b6457e0936101d8565b916101d8565b9161028761004d565b8061029181610232565b0390a356fe60e06040526004361015610013575b611610565b61001d5f3561022b565b8062fdd58e1461022657806301ffc9a71461022157806307eff0dd1461021c578063095bcdb6146102175780630b0d9c0914610212578063156e29f61461020d5780631e2eaeaf14610208578063234266d7146102035780632d771389146101fe57806335fd631a146101f9578063426a8493146101f457806348c89491146101ef57806352759651146101ea578063558a7297146101e5578063598af9e7146101e05780635a6bcfda146101db57806360460f06146101d6578063695c5bf5146101d15780636a256b29146101cc5780637e87ce7d146101c75780638161b874146101c25780638da5cb5b146101bd57806397e8cd4e146101b85780639bf6645f146101b3578063a5841194146101ae578063b6363cf2146101a9578063dbd035ff146101a4578063f02de3b21461019f578063f135baaa1461019a578063f2fde38b14610195578063f3cd914c14610190578063f5298aca1461018b5763fe99049a0361000e576115d7565b61155d565b611524565b61144c565b611414565b6113df565b611348565b611312565b611237565b61121c565b61111e565b6110ba565b611016565b610fa8565b610f7d565b610f26565b610e7c565b610dfc565b610cc9565b610c18565b610b94565b610b31565b610ac5565b610aaa565b6109e9565b610963565b6106f1565b610679565b610645565b6105ad565b61053e565b610490565b6103cd565b60e01c90565b60405190565b5f80fd5b5f80fd5b5f80fd5b73ffffffffffffffffffffffffffffffffffffffff1690565b61026590610243565b90565b6102718161025c565b0361027857565b5f80fd5b9050359061028982610268565b565b90565b6102978161028b565b0361029e57565b5f80fd5b905035906102af8261028e565b565b91906040838203126102d957806102cd6102d6925f860161027c565b936020016102a2565b90565b61023b565b90565b6102f56102f06102fa92610243565b6102de565b610243565b90565b610306906102e1565b90565b610312906102fd565b90565b9061031f90610309565b5f5260205260405f2090565b61033f61033a6103449261028b565b6102de565b61028b565b90565b906103519061032b565b5f5260205260405f2090565b1c90565b90565b610374906008610379930261035d565b610361565b90565b906103879154610364565b90565b6103a36103a89261039e6004935f94610315565b610347565b61037c565b90565b6103b49061028b565b9052565b91906103cb905f602085019401906103ab565b565b346103fe576103fa6103e96103e33660046102b1565b9061038a565b6103f1610231565b918291826103b8565b0390f35b610237565b7fffffffff000000000000000000000000000000000000000000000000000000001690565b61043181610403565b0361043857565b5f80fd5b9050359061044982610428565b565b9060208282031261046457610461915f0161043c565b90565b61023b565b151590565b61047790610469565b9052565b919061048e905f6020850194019061046e565b565b346104c0576104bc6104ab6104a636600461044b565b61165c565b6104b3610231565b9182918261047b565b0390f35b610237565b5f9103126104cf57565b61023b565b90565b60020b90565b6104f16104ec6104f6926104d4565b6102de565b6104d7565b90565b61050360016104dd565b90565b61050e6104f9565b90565b610519610506565b90565b610525906104d7565b9052565b919061053c905f6020850194019061051c565b565b3461056e5761054e3660046104c5565b61056a610559610511565b610561610231565b91829182610529565b0390f35b610237565b90916060828403126105a8576105a561058e845f850161027c565b9361059c81602086016102a2565b936040016102a2565b90565b61023b565b346105de576105da6105c96105c3366004610573565b916117c5565b6105d1610231565b9182918261047b565b0390f35b610237565b6105ec8161025c565b036105f357565b5f80fd5b90503590610604826105e3565b565b909160608284031261063b57610638610621845f85016105f7565b9361062f816020860161027c565b936040016102a2565b90565b61023b565b5f0190565b346106745761065e610658366004610606565b9161191a565b610666610231565b8061067081610640565b0390f35b610237565b346106a85761069261068c366004610573565b916119a2565b61069a610231565b806106a481610640565b0390f35b610237565b90565b6106b9816106ad565b036106c057565b5f80fd5b905035906106d1826106b0565b565b906020828203126106ec576106e9915f016106c4565b90565b61023b565b34610706576107013660046106d3565b6119b3565b610237565b5f80fd5b601f801991011690565b7f4e487b71000000000000000000000000000000000000000000000000000000005f52604160045260245ffd5b906107509061070f565b810190811067ffffffffffffffff82111761076a57604052565b610719565b9061078261077b610231565b9283610746565b565b62ffffff1690565b61079581610784565b0361079c57565b5f80fd5b905035906107ad8261078c565b565b6107b8816104d7565b036107bf57565b5f80fd5b905035906107d0826107af565b565b6107db9061025c565b90565b6107e7816107d2565b036107ee57565b5f80fd5b905035906107ff826107de565b565b919060a0838203126108715761086a9061081b60a061076f565b93610828825f83016105f7565b5f86015261083982602083016105f7565b602086015261084b82604083016107a0565b604086015261085d82606083016107c3565b60608601526080016107f2565b6080830152565b61070b565b5f80fd5b5f80fd5b5f80fd5b909182601f830112156108bc5781359167ffffffffffffffff83116108b75760200192600183028401116108b257565b61087e565b61087a565b610876565b906101008282031261091d576108d9815f8401610801565b926108e78260a085016102a2565b926108f58360c083016102a2565b9260e082013567ffffffffffffffff8111610918576109149201610882565b9091565b61023f565b61023b565b90565b61093961093461093e92610922565b6102de565b610922565b90565b61094a90610925565b9052565b9190610961905f60208501940190610941565b565b34610997576109936109826109793660046108c1565b93929092611a94565b61098a610231565b9182918261094e565b0390f35b610237565b6109a59061025c565b90565b6109b18161099c565b036109b857565b5f80fd5b905035906109c9826109a8565b565b906020828203126109e4576109e1915f016109bc565b90565b61023b565b34610a1757610a016109fc3660046109cb565b611c54565b610a09610231565b80610a1381610640565b0390f35b610237565b9190604083820312610a445780610a38610a41925f86016106c4565b936020016102a2565b90565b61023b565b5190565b60209181520190565b90825f9392825e0152565b610a80610a89602093610a8e93610a7781610a49565b93848093610a4d565b95869101610a56565b61070f565b0190565b610aa79160208201915f818403910152610a61565b90565b34610ac057610aba366004610a1c565b90611c64565b610237565b34610af657610af2610ae1610adb366004610573565b91611ca6565b610ae9610231565b9182918261047b565b0390f35b610237565b90602082820312610b2c575f82013567ffffffffffffffff8111610b2757610b239201610882565b9091565b61023f565b61023b565b34610b6257610b5e610b4d610b47366004610afb565b90611fa7565b610b55610231565b91829182610a92565b0390f35b610237565b919060c083820312610b8f5780610b83610b8c925f8601610801565b9360a0016107a0565b90565b61023b565b34610bc357610bad610ba7366004610b67565b90611ffa565b610bb5610231565b80610bbf81610640565b0390f35b610237565b610bd181610469565b03610bd857565b5f80fd5b90503590610be982610bc8565b565b9190604083820312610c135780610c07610c10925f860161027c565b93602001610bdc565b90565b61023b565b34610c4957610c45610c34610c2e366004610beb565b906120ea565b610c3c610231565b9182918261047b565b0390f35b610237565b9091606082840312610c8357610c80610c69845f850161027c565b93610c77816020860161027c565b936040016102a2565b90565b61023b565b90610c9290610309565b5f5260205260405f2090565b90610cc692610cbc610cc192610cb76005955f96610c88565b610315565b610347565b61037c565b90565b34610cfa57610cf6610ce5610cdf366004610c4e565b91610c9e565b610ced610231565b918291826103b8565b0390f35b610237565b610d0881610922565b03610d0f57565b5f80fd5b90503590610d2082610cff565b565b9190608083820312610d8057610d7990610d3c608061076f565b93610d49825f83016107c3565b5f860152610d5a82602083016107c3565b6020860152610d6c8260408301610d13565b60408601526060016106c4565b6060830152565b61070b565b9161014083830312610dd457610d9d825f8501610801565b92610dab8360a08301610d22565b9261012082013567ffffffffffffffff8111610dcf57610dcb9201610882565b9091565b61023f565b61023b565b916020610dfa929493610df360408201965f830190610941565b0190610941565b565b34610e3157610e18610e0f366004610d85565b9291909161260c565b90610e2d610e24610231565b92839283610dd9565b0390f35b610237565b60010b90565b610e50610e4b610e5592610e36565b6102de565b6104d7565b90565b610e63617fff610e3c565b90565b610e6e610e58565b90565b610e79610e66565b90565b34610eac57610e8c3660046104c5565b610ea8610e97610e71565b610e9f610231565b91829182610529565b0390f35b610237565b610eba81610243565b03610ec157565b5f80fd5b90503590610ed282610eb1565b565b9160e083830312610f2157610eeb825f8501610801565b92610ef98360a08301610ec5565b9260c082013567ffffffffffffffff8111610f1c57610f189201610882565b9091565b61023f565b61023b565b34610f5a57610f56610f45610f3c366004610ed4565b92919091612922565b610f4d610231565b91829182610529565b0390f35b610237565b90602082820312610f7857610f75915f016105f7565b90565b61023b565b610fa4610f93610f8e366004610f5f565b612a11565b610f9b610231565b918291826103b8565b0390f35b34610fd757610fc1610fbb366004610b67565b90612a5b565b610fc9610231565b80610fd381610640565b0390f35b610237565b90916060828403126110115761100e610ff7845f850161027c565b9361100581602086016105f7565b936040016102a2565b90565b61023b565b346110475761104361103261102c366004610fdc565b91612b46565b61103a610231565b918291826103b8565b0390f35b610237565b73ffffffffffffffffffffffffffffffffffffffff1690565b61107590600861107a930261035d565b61104c565b90565b906110889154611065565b90565b6110955f8061107d565b90565b6110a19061025c565b9052565b91906110b8905f60208501940190611098565b565b346110ea576110ca3660046104c5565b6110e66110d561108b565b6110dd610231565b918291826110a5565b0390f35b610237565b906110f990610309565b5f5260205260405f2090565b61111b906111166001915f926110ef565b61037c565b90565b3461114e5761114a611139611134366004610f5f565b611105565b611141610231565b918291826103b8565b0390f35b610237565b909182601f8301121561118d5781359167ffffffffffffffff831161118857602001926020830284011161118357565b61087e565b61087a565b610876565b906020828203126111c3575f82013567ffffffffffffffff81116111be576111ba9201611153565b9091565b61023f565b61023b565b6111d1906106ad565b9052565b906111e2816020936111c8565b0190565b60200190565b8181106111f95750505090565b90919261121261120c60019286516111d5565b946111e6565b91019190916111ec565b346112325761122c366004611192565b90612c13565b610237565b346112675761126361125261124d366004610f5f565b612c4f565b61125a610231565b918291826103b8565b0390f35b610237565b91906040838203126112945780611288611291925f860161027c565b9360200161027c565b90565b61023b565b906112a390610309565b5f5260205260405f2090565b906112b990610309565b5f5260205260405f2090565b60ff1690565b6112db9060086112e0930261035d565b6112c5565b90565b906112ee91546112cb565b90565b61130a61130f926113056003935f94611299565b6112af565b6112e3565b90565b346113435761133f61132e61132836600461126c565b906112f1565b611336610231565b9182918261047b565b0390f35b610237565b3461135e57611358366004611192565b90612c6f565b610237565b73ffffffffffffffffffffffffffffffffffffffff1690565b61138c906008611391930261035d565b611363565b90565b9061139f915461137c565b90565b6113ae60025f90611394565b90565b6113ba906102fd565b90565b6113c6906113b1565b9052565b91906113dd905f602085019401906113bd565b565b3461140f576113ef3660046104c5565b61140b6113fa6113a2565b611402610231565b918291826113ca565b0390f35b610237565b34611429576114243660046106d3565b612cab565b610237565b9060208282031261144757611444915f0161027c565b90565b61023b565b3461147a5761146461145f36600461142e565b612d65565b61146c610231565b8061147681610640565b0390f35b610237565b91906060838203126114cb576114c490611499606061076f565b936114a6825f8301610bdc565b5f8601526114b78260208301610d13565b6020860152604001610ec5565b6040830152565b61070b565b916101208383031261151f576114e8825f8501610801565b926114f68360a0830161147f565b9261010082013567ffffffffffffffff811161151a576115169201610882565b9091565b61023f565b61023b565b346115585761155461154361153a3660046114d0565b92919091612fe7565b61154b610231565b9182918261094e565b0390f35b610237565b3461158c57611576611570366004610573565b91613071565b61157e610231565b8061158881610640565b0390f35b610237565b6080818303126115d2576115a7825f830161027c565b926115cf6115b8846020850161027c565b936115c681604086016102a2565b936060016102a2565b90565b61023b565b3461160b576116076115f66115ed366004611591565b9291909161309f565b6115fe610231565b9182918261047b565b0390f35b610237565b5f80fd5b5f90565b90565b60e01b90565b61163561163061163a92611618565b61161b565b610403565b90565b90565b61165461164f6116599261163d565b61161b565b610403565b90565b611664611614565b508061167c6116766301ffc9a7611621565b91610403565b14908115611689575b5090565b90506116a161169b630f632fb3611640565b91610403565b145f611685565b5f1c90565b6116b96116be916116a8565b610361565b90565b6116cb90546116ad565b90565b7f4e487b71000000000000000000000000000000000000000000000000000000005f52601160045260245ffd5b61170a6117109193929361028b565b9261028b565b820391821161171b57565b6116ce565b5f1b90565b906117507fffffffffffffffffffffffffffffffffffffffffffffffffffffffffffffffff91611720565b9181191691161790565b90565b9061177261176d6117799261032b565b61175a565b8254611725565b9055565b61178c6117929193929361028b565b9261028b565b820180921161179d57565b6116ce565b9160206117c39294936117bc60408201965f830190611098565b01906103ab565b565b91906117cf611614565b50611802826117fc6117ed6117e660043390610315565b8590610347565b916117f7836116c1565b6116fb565b9061175d565b6118348261182e61181f61181860048890610315565b8590610347565b91611829836116c1565b61177d565b9061175d565b33923390919261187661187061186a7f1b3d7edb2e9c0b0e7c525b20aaaef0f5940d2ed71663c7d39266ecafac72885994610309565b94610309565b9461032b565b9461188b611882610231565b928392836117a2565b0390a4600190565b91906118a66118a061325a565b15610469565b6118b5576118b3926118ef565b565b7f54e3ca0d00000000000000000000000000000000000000000000000000000000613288565b600f0b90565b6118ec905f036118db565b90565b916119189261191081611909611904856132ea565b6118e1565b33916135b8565b919091613797565b565b906119259291611893565b565b919061193a61193461325a565b15610469565b611949576119479261196f565b565b7f54e3ca0d00000000000000000000000000000000000000000000000000000000613288565b916119a0926119986119808461382e565b61199161198c856132ea565b6118e1565b33916135b8565b91909161387b565b565b906119ad9291611927565b565b5f90565b6119bb6119af565b50545f5260205ff35b5f90565b94939291906119de6119d861325a565b15610469565b6119ee576119eb95611a21565b90565b7f54e3ca0d00000000000000000000000000000000000000000000000000000000613288565b611a1e90516107d2565b90565b92611a929491939695929650611a6e611a41611a3c86613917565b61392a565b611a4a81613964565b611a66611a5960808801611a14565b878b869088928a94613b9c565b888391613c79565b96611a7b85893391613db9565b611a8760808601611a14565b949091929394613efd565b565b90611aa994939291611aa46119c4565b6119c8565b90565b611ab8611abd916116a8565b61104c565b90565b611aca9054611aac565b90565b60209181520190565b5f7f554e415554484f52495a45440000000000000000000000000000000000000000910152565b611b0a600c602092611acd565b611b1381611ad6565b0190565b611b2c9060208101905f818303910152611afd565b90565b15611b3657565b611b3e610231565b7f08c379a000000000000000000000000000000000000000000000000000000000815280611b6e60048201611b17565b0390fd5b611b9f90611b9a33611b94611b8e611b895f611ac0565b61025c565b9161025c565b14611b2f565b611c05565b565b90611bc073ffffffffffffffffffffffffffffffffffffffff91611720565b9181191691161790565b611bd3906102e1565b90565b611bdf90611bca565b90565b90565b90611bfa611bf5611c0192611bd6565b611be2565b8254611ba1565b9055565b611c1990611c14816002611be5565b6113b1565b611c4f7fb4bd8ef53df690b9943d3318996006dbb82a25f54719d8c8035b516a2a5b8acc91611c46610231565b918291826110a5565b0390a1565b611c5d90611b72565b565b606090565b90611c6d611c5f565b5060205f528060051b60205260051b60400180916001602060405b835481520191019082811015611ca2576020600191611c88565b825ff35b9190611cb0611614565b50611cda82611cd5611cce611cc760053390610c88565b8790610315565b8490610347565b61175d565b3392909192611d30611d1e611d18611d127fb3fd5071835887567a0671151121894ddccc2842f1d10bedad13e0d17cace9a794610309565b94610309565b9461032b565b94611d27610231565b918291826103b8565b0390a4600190565b90611d4b9291611d46613f19565b611e9e565b90565b611d57906102e1565b90565b611d6390611d4e565b90565b611d6f906102fd565b90565b5f80fd5b67ffffffffffffffff8111611d9457611d9060209161070f565b0190565b610719565b90929192611dae611da982611d76565b61076f565b93818552602085019082840111611dca57611dc892610a56565b565b611d72565b9080601f83011215611ded57816020611dea93519101611d99565b90565b610876565b90602082820312611e22575f82015167ffffffffffffffff8111611e1d57611e1a9201611dcf565b90565b61023f565b61023b565b90825f939282370152565b9190611e4c81611e4581611e5195610a4d565b8095611e27565b61070f565b0190565b9091611e6c9260208301925f818503910152611e32565b90565b611e77610231565b3d5f823e3d90fd5b90565b611e96611e91611e9b92611e7f565b6102de565b61028b565b90565b91909150611eaa61325a565b611f81575f90611eb8613f81565b611ec9611ec433611d5a565b611d66565b611eec836391dd7346959395611ef7611ee0610231565b9788968795869461161b565b845260048401611e55565b03925af1908115611f7c575f91611f5a575b5090611f13613fa7565b611f25611f1f5f611e82565b9161028b565b03611f3457611f32613fd5565b565b7f5212cba100000000000000000000000000000000000000000000000000000000613288565b611f7691503d805f833e611f6e8183610746565b810190611df2565b5f611f09565b611e6f565b7f5090d6c600000000000000000000000000000000000000000000000000000000613288565b90611fb991611fb4611c5f565b611d38565b90565b611fc69051610784565b90565b611fd2906102fd565b90565b611fde906106ad565b90565b90611feb90611fd5565b5f5260205260405f2090565b90565b9061201861201261200d60408501611fbc565b614028565b15610469565b8015612077575b6120515761204a61204561203e61204f946120398561404e565b613917565b6006611fe1565b611ff7565b6140b8565b565b7f30d2164100000000000000000000000000000000000000000000000000000000613288565b503361209e61209861209361208e60808701611a14565b611fc9565b61025c565b9161025c565b141561201f565b906120b160ff91611720565b9181191691161790565b6120c490610469565b90565b90565b906120df6120da6120e6926120bb565b6120c7565b82546120a5565b9055565b906120f3611614565b506121138161210e61210760033390611299565b85906112af565b6120ca565b3391909161215f61214d6121477fceb576d9f15e4e200fdb5096d64d5dfd667e16def20c1eefd14256d8e3faa26793610309565b93610309565b93612156610231565b9182918261047b565b0390a3600190565b949392919061217d61217761325a565b15610469565b61218e5761218a95612392565b9091565b7f54e3ca0d00000000000000000000000000000000000000000000000000000000613288565b6121be90516104d7565b90565b6121cb9051610922565b90565b6121d890516106ad565b90565b6121e560c061076f565b90565b906121f29061025c565b9052565b90612200906104d7565b9052565b9061220e906118db565b9052565b9061221c906106ad565b9052565b61222990610922565b9052565b60409061225661225d949695939661224c60608401985f85019061051c565b602083019061051c565b0190612220565b565b5f7f3100000000000000000000000000000000000000000000000000000000000000910152565b6122936001602092611acd565b61229c8161225f565b0190565b6122b59060208101905f818303910152612286565b90565b6122cc6122c76122d192611e7f565b6102de565b610922565b90565b6122dd5f6122b8565b90565b5f7f3200000000000000000000000000000000000000000000000000000000000000910152565b6123146001602092611acd565b61231d816122e0565b0190565b6123369060208101905f818303910152612307565b90565b5f7f3300000000000000000000000000000000000000000000000000000000000000910152565b61236d6001602092611acd565b61237681612339565b0190565b61238f9060208101905f818303910152612360565b90565b9461251f9296946125ae949261248c9750506123ad88613917565b6124835f8a6123de6123d360806123c38761392a565b936123cd85613964565b01611a14565b8d8988918a93614386565b6123e66119c4565b5061247e8c6124758961246c33936124638361245a6124068b83016121b4565b61245161244060606124398161243261242d604061242660208c016121b4565b9a016121c1565b6143fd565b99016121b4565b99016121ce565b996124496121db565b9d8e016121e8565b60208c016121f6565b60408a016121f6565b60608801612204565b608086016121f6565b60a08401612212565b614566565b98908990614991565b90336124995f87016121b4565b916124a6602088016121b4565b6124b2604089016121c1565b936124fb6124e96124e37f541c041c2cce48e614b3de043c9280f06b6164c0a1741649e2de3c3d375f797495611fd5565b95610309565b956124f2610231565b9384938461222d565b0390a36125066119c4565b5061251360808a01611a14565b93899091929394614ae5565b9490947f7cdb51e9dbbc205231228146c3246e7f914aa6d4a33170e43ecc8e3593481d1a61254b610231565b80612555816122a0565b0390a161256a816125646122d4565b90614cd0565b6125e6575b507f7cdb51e9dbbc205231228146c3246e7f914aa6d4a33170e43ecc8e3593481d1a612599610231565b806125a381612321565b0390a1843391613db9565b7f7cdb51e9dbbc205231228146c3246e7f914aa6d4a33170e43ecc8e3593481d1a6125d7610231565b806125e18161237a565b0390a1565b6126069082906126006125fb60808601611a14565b611fc9565b91613db9565b5f61256f565b9061262993929161261b6119c4565b6126236119c4565b90612167565b9091565b5f90565b9061264694939291612641613f19565b6126bb565b90565b612653905161025c565b90565b61265f90611fd5565b9052565b61266c90610784565b9052565b61267990611fc9565b9052565b6126b26126b9946126a860609498979561269e608086019a5f870190612656565b6020850190612663565b604083019061051c565b0190612670565b565b949391909294506126ce606084016121b4565b6126e76126e16126dc610e66565b6104d7565b916104d7565b136128fc576126f8606084016121b4565b61271161270b612706610506565b6104d7565b916104d7565b126128d6576127366127245f8501612649565b61273060208601612649565b90614d01565b6128b05761276461275e61274c60808601611a14565b61275860408701611fbc565b90614e18565b15610469565b612874576127ea9061278061277b60408601611fbc565b614fdf565b9261279b61279060808701611a14565b86848a91859361515d565b6127d26127a786613917565b946127b18761522d565b9050906127c86127c360068990611fe1565b611ff7565b9185909192615441565b966127df60808701611a14565b928689929394615642565b6127f55f8301612649565b61280160208401612649565b9161280e60408501611fbc565b9061286f61282a6080612823606089016121b4565b9701611a14565b61285d6128577f3fd553db44f207b1f41348cfc4d251860814af9eadc470e8e7895e4d120511f496610309565b96610309565b96612866610231565b9485948561267d565b0390a3565b826128aa6128a560807fe65af6a0000000000000000000000000000000000000000000000000000000009301611a14565b611fc9565b90614fb9565b7feaa6c6eb00000000000000000000000000000000000000000000000000000000613288565b7f16fe769600000000000000000000000000000000000000000000000000000000613288565b7fb02b5dc200000000000000000000000000000000000000000000000000000000613288565b9061293693929161293161262d565b612631565b90565b5f90565b9061294f61294961325a565b15610469565b61295f5761295c91612985565b90565b7f54e3ca0d00000000000000000000000000000000000000000000000000000000613288565b9190915061299282615666565b5f146129b0576129ae34925b6129a7846132ea565b33916135b8565b565b346129c36129bd5f611e82565b9161028b565b116129eb576129ae6129e56129d7846156c1565b6129e085612c4f565b6116fb565b9261299e565b7f19d245cf00000000000000000000000000000000000000000000000000000000613288565b612a2290612a1d612939565b61293d565b90565b612a31612a36916116a8565b611363565b90565b612a439054612a25565b90565b9190612a59905f60208501940190612663565b565b33612a7f612a79612a74612a6f6002612a39565b6113b1565b61025c565b9161025c565b03612b2057612a96612a9083615746565b15610469565b612afa57612aa390613917565b612ab6612aaf8261392a565b8390615762565b612af5612ae37fe9c42593e71f84403b84352cd168d693e2c9fcd1fdbcc3feb21d92b43e6696f992611fd5565b92612aec610231565b91829182612a46565b0390a2565b7fba97f83800000000000000000000000000000000000000000000000000000000613288565b7f48f5c3ed00000000000000000000000000000000000000000000000000000000613288565b92919092612b52612939565b5033612b77612b71612b6c612b676002612a39565b6113b1565b61025c565b9161025c565b03612be85781612be192612b93612b8d5f611e82565b9161028b565b145f14612be35750612baf612baa600186906110ef565b6116c1565b5b93612bd985612bd3612bc4600185906110ef565b91612bce836116c1565b6116fb565b9061175d565b908491613797565b565b612bb0565b7f48f5c3ed00000000000000000000000000000000000000000000000000000000613288565b606090565b90612c1c612c0e565b50604060045f3760051b604001809160208060405b83355c81520191019082811015612c4b5760208091612c31565b825ff35b90612c58612939565b50612c6d612c65836157e9565b9283906158a8565b565b90612c78612c0e565b50604060045f3760051b604001809160208060405b83355481520191019082811015612ca75760208091612c8d565b825ff35b612cb36119af565b505c5f5260205ff35b612ce990612ce433612cde612cd8612cd35f611ac0565b61025c565b9161025c565b14611b2f565b612d0e565b565b90565b90612d03612cfe612d0a92610309565b612ceb565b8254611ba1565b9055565b612d18815f612cee565b3390612d4d612d477f8be0079c531659141344cd1fd0a4f28419497f9722a3daafe3b4186f6b6457e093610309565b91610309565b91612d56610231565b80612d6081610640565b0390a3565b612d6e90612cbc565b565b93929190612d85612d7f61325a565b15610469565b612d9557612d9294612e26565b90565b7f54e3ca0d00000000000000000000000000000000000000000000000000000000613288565b5f90565b5f90565b5f90565b612dd19051610469565b90565b612dde9051610243565b90565b612deb60a061076f565b90565b90612df890610469565b9052565b90612e0690610922565b9052565b90612e1490610243565b9052565b90612e2290610784565b9052565b949391909450612e38602082016121c1565b612e4a612e445f6122b8565b91610922565b14612fc157612ec5612f6492612f8794612f42612e6689613917565b60608a612f1f612e758461392a565b612e7e81613964565b612e86612dbb565b50612e8f612dbf565b50612e98612dc3565b50612f16612eb6612eab60808601611a14565b858d8b918d93615984565b9b919b96909b939795016121b4565b94612f0d8c612f04612ee56040612edd5f8501612dc7565b979301612dd4565b9395612efb612ef2612de1565b9a5f8c016121f6565b60208a01612dee565b60408801612dfc565b60608601612e0a565b60808401612e18565b612f2a5f8901612dc7565b5f14612faf57612f3b5f8d01612649565b925b615c03565b612f4a6119c4565b50612f5760808a01611a14565b9489909192939495615d7b565b939093612f7981612f736122d4565b90614cd0565b612f89575b50833391613db9565b565b612fa9908290612fa3612f9e60808601611a14565b611fc9565b91613db9565b5f612f7e565b612fbb60208d01612649565b92612f3d565b7fbe8b850700000000000000000000000000000000000000000000000000000000613288565b90612ffb939291612ff66119c4565b612d70565b90565b919061301161300b61325a565b15610469565b6130205761301e92613046565b565b7f54e3ca0d00000000000000000000000000000000000000000000000000000000613288565b9161306f926130676130578461382e565b613060846132ea565b33916135b8565b919091615f51565b565b9061307c9291612ffe565b565b61308a61308f916116a8565b6112c5565b90565b61309c905461307e565b90565b9291906130aa611614565b50336130be6130b88661025c565b9161025c565b14158061322d575b61318d575b6130fd836130f76130e86130e160048990610315565b8690610347565b916130f2836116c1565b6116fb565b9061175d565b61312f8361312961311a61311360048690610315565b8690610347565b91613124836116c1565b61177d565b9061175d565b339390919261317061316a6131647f1b3d7edb2e9c0b0e7c525b20aaaef0f5940d2ed71663c7d39266ecafac72885994610309565b94610309565b9461032b565b9461318561317c610231565b928392836117a2565b0390a4600190565b6131b56131b06131a96131a260058890610c88565b3390610315565b8490610347565b6116c1565b806131e86131e27fffffffffffffffffffffffffffffffffffffffffffffffffffffffffffffffff61028b565b9161028b565b036131f4575b506130cb565b6132026132279185906116fb565b61322261321b61321460058990610c88565b3390610315565b8590610347565b61175d565b5f6131ee565b5061325561324f61324a61324360038890611299565b33906112af565b613092565b15610469565b6130c6565b613262611614565b507fc090fc4683624cfc3884e9d8de5eca132f2d0ec062aff75d43c0465d5ceeab235c90565b5f5260045ffd5b5f90565b90565b6132aa6132a56132af92613293565b6102de565b61028b565b90565b6132c66132c16132cb9261028b565b6102de565b610922565b90565b6132e26132dd6132e792610922565b6102de565b6118db565b90565b6132f261328f565b50806133166133106f80000000000000000000000000000000613296565b9161028b565b10156133305761332861332d916132b2565b6132ce565b90565b616050565b61334961334461334e92611e7f565b6102de565b6118db565b90565b5f7f3400000000000000000000000000000000000000000000000000000000000000910152565b6133856001602092611acd565b61338e81613351565b0190565b6133a79060208101905f818303910152613378565b90565b6133be6133b96133c3926118db565b6102de565b610922565b90565b6133d56133db91939293610922565b92610922565b808301925f828512158183121692851291121516176133f657565b6116ce565b5f7f3500000000000000000000000000000000000000000000000000000000000000910152565b61342f6001602092611acd565b613438816133fb565b0190565b6134519060208101905f818303910152613422565b90565b5f7f362e320000000000000000000000000000000000000000000000000000000000910152565b6134886003602092611acd565b61349181613454565b0190565b6134aa9060208101905f81830391015261347b565b90565b5f7f362e310000000000000000000000000000000000000000000000000000000000910152565b6134e16003602092611acd565b6134ea816134ad565b0190565b6135039060208101905f8183039101526134d4565b90565b5f7f3700000000000000000000000000000000000000000000000000000000000000910152565b61353a6001602092611acd565b61354381613506565b0190565b61355c9060208101905f81830391015261352d565b90565b5f7f3800000000000000000000000000000000000000000000000000000000000000910152565b6135936001602092611acd565b61359c8161355f565b0190565b6135b59060208101905f818303910152613586565b90565b9190806135cd6135c75f613335565b916118db565b14613792576136fa927f7cdb51e9dbbc205231228146c3246e7f914aa6d4a33170e43ecc8e3593481d1a6135ff610231565b8061360981613392565b0390a161362b61361a82859061605d565b9261362584916133aa565b906133c6565b917f7cdb51e9dbbc205231228146c3246e7f914aa6d4a33170e43ecc8e3593481d1a613655610231565b8061365f8161343c565b0390a18261367561366f5f6122b8565b91610922565b145f1461373257506136856160bc565b7f7cdb51e9dbbc205231228146c3246e7f914aa6d4a33170e43ecc8e3593481d1a6136ae610231565b806136b8816134ee565b0390a15b7f7cdb51e9dbbc205231228146c3246e7f914aa6d4a33170e43ecc8e3593481d1a6136e5610231565b806136ef81613547565b0390a1919091616105565b7f7cdb51e9dbbc205231228146c3246e7f914aa6d4a33170e43ecc8e3593481d1a613723610231565b8061372d816135a0565b0390a1565b61374461373e5f6122b8565b91610922565b1461374f575b6136bc565b613757616073565b7f7cdb51e9dbbc205231228146c3246e7f914aa6d4a33170e43ecc8e3593481d1a613780610231565b8061378a81613495565b0390a161374a565b505050565b6137a081615666565b5f146137c457505f80809381935af1156137b7575b565b63f4b3b1bc5f526004601cfd5b60105f60449260209582956014526034526fa9059cbb00000000000000000000000082525af13d1560015f5114171615613801575f6034526137b5565b63f27f64e45f526004601cfd5b5f90565b61382661382161382b9261028b565b6102de565b610243565b90565b61384b6138466138509261384061380e565b50613812565b6102fd565b610309565b90565b61386761386261386c92611e7f565b6102de565b610243565b90565b61387890613853565b90565b91906138af826138a961389a61389360048890610315565b8590610347565b916138a4836116c1565b61177d565b9061175d565b33926138ba5f61386f565b9091926138f96138f36138ed7f1b3d7edb2e9c0b0e7c525b20aaaef0f5940d2ed71663c7d39266ecafac72885994610309565b94610309565b9461032b565b9461390e613905610231565b928392836117a2565b0390a4565b5f90565b61391f613913565b506005602002902090565b61393861393d916006611fe1565b611ff7565b90565b90565b61394f613954916116a8565b613940565b90565b6139619054613943565b90565b6139725f6139779201613957565b616115565b6139896139835f613853565b91610243565b1461399057565b7f486aa30700000000000000000000000000000000000000000000000000000000613288565b9493929190856139d76139d16139cc3393611fc9565b61025c565b9161025c565b036139e5575b505050505050565b6139ee95613b07565b5f80808080806139dd565b90565b613a10613a0b613a15926139f9565b6102de565b610243565b90565b613a2260206139fc565b90565b613a2e90610309565b9052565b613a3b90610784565b9052565b613a48906104d7565b9052565b613a5590611fc9565b9052565b90608080613ab193613a715f8201515f860190613a25565b613a8360208201516020860190613a25565b613a9560408201516040860190613a32565b613aa760608201516060860190613a3f565b0151910190613a4c565b565b9193613aec613af6929694613ae2613b049997613ad861012088019a5f890190611098565b6020870190613a59565b60c08501906103ab565b60e08301906103ab565b610100818503910152611e32565b90565b9493919094613b1e81613b18613a18565b90616137565b613b2b575b505050505050565b613b9095600495613b8b94613b7c93967fb6a8b0fa000000000000000000000000000000000000000000000000000000009533949091929394613b6c610231565b9a8b9860208a0190815201613ab3565b60208201810382520383610746565b616169565b505f8080808080613b23565b90613baa95949392916139b6565b565b6fffffffffffffffffffffffffffffffff1690565b613bcd613bd2916116a8565b613bac565b90565b613bdf9054613bc1565b90565b6fffffffffffffffffffffffffffffffff1690565b613c0b613c06613c1092611e7f565b6102de565b613be2565b90565b90565b613c2a613c25613c2f92613c13565b6102de565b61028b565b90565b613c4c700100000000000000000000000000000000613c16565b90565b613c63613c5e613c6892613be2565b6102de565b61028b565b90565b90613c76910161028b565b90565b92919092613c856119c4565b50613c9260038201613bd5565b9182613ca6613ca05f613bf7565b91613be2565b14613d9357613cd6613cbf613cba876132ea565b6118e1565b613cd0613ccb846132ea565b6118e1565b9061620e565b9480613cea613ce45f611e82565b9161028b565b11613d53575b5080613d04613cfe5f611e82565b9161028b565b11613d0f575b505050565b6002613d34613d4b94613d459390613d2e613d28613c32565b91613c4f565b9161628a565b920191613d40836116c1565b613c6b565b9061175d565b5f8080613d0a565b613d71613d8d91613d62613c32565b613d6b87613c4f565b9161628a565b613d876001850191613d82836116c1565b613c6b565b9061175d565b5f613cf0565b7fa74f97ab00000000000000000000000000000000000000000000000000000000613288565b91613df0613dea6020613df795613de4613dd45f8301612649565b613ddd8861644c565b87916135b8565b01612649565b9261645b565b90916135b8565b565b949392919085613e1a613e14613e0f3393611fc9565b61025c565b9161025c565b03613e28575b505050505050565b613e3195613e68565b5f8080808080613e20565b90565b613e53613e4e613e5892613e3c565b6102de565b610243565b90565b613e656010613e3f565b90565b9493919094613e7f81613e79613e5b565b90616137565b613e8c575b505050505050565b613ef195600495613eec94613edd93967fe1b4af69000000000000000000000000000000000000000000000000000000009533949091929394613ecd610231565b9a8b9860208a0190815201613ab3565b60208201810382520383610746565b616169565b505f8080808080613e84565b90613f0b9594939291613df9565b565b613f16906102fd565b90565b613f2230613f0d565b613f54613f4e7f000000000000000000000000000000000000000000000000000000000000000061025c565b9161025c565b03613f5b57565b7f0d89438e00000000000000000000000000000000000000000000000000000000613288565b60017fc090fc4683624cfc3884e9d8de5eca132f2d0ec062aff75d43c0465d5ceeab235d565b613faf612939565b507f7d4b3164c6e45b97e7d87b7125a44c5828d005af88f9d751cfd78729c5d99a0b5c90565b5f7fc090fc4683624cfc3884e9d8de5eca132f2d0ec062aff75d43c0465d5ceeab235d565b90565b61401161400c61401692613ffa565b6102de565b610784565b90565b61402562800000613ffd565b90565b614030611614565b5061404a61404461403f614019565b610784565b91610784565b1490565b61405a61406091616498565b15610469565b61406657565b7ffc5bee1200000000000000000000000000000000000000000000000000000000613288565b614095906116a8565b90565b906140ad6140a86140b492611fd5565b61408c565b8254611725565b9055565b5f6140d96140e0936140c984613964565b6140d4838501613957565b6164c3565b9101614098565b565b93929190846141026140fc6140f73393611fc9565b61025c565b9161025c565b0361410f575b5050505050565b61411894614217565b5f80808080614108565b90565b61413961413461413e92614122565b6102de565b610243565b90565b61414c610800614125565b90565b90565b61416661416161416b9261414f565b6102de565b610243565b90565b614179610200614152565b90565b61418590610922565b9052565b906060806141cf936141a15f8201515f860190613a3f565b6141b360208201516020860190613a3f565b6141c56040820151604086019061417c565b01519101906111c8565b565b90939161421495936141fc614206926141f26101608601985f870190611098565b6020850190613a59565b60c0830190614189565b610140818503910152611e32565b90565b9390919293614228604085016121c1565b61423a6142345f6122b8565b91610922565b138061436e575b5f146142b057926142986142ac95936142a793600496957f259982e50000000000000000000000000000000000000000000000000000000094339390919293614288610231565b998a9760208901908152016141d1565b60208201810382520383610746565b616169565b505b565b9391926142bf604082016121c1565b6142d16142cb5f6122b8565b91610922565b131580614356575b6142e8575b50505050506142ae565b6143376004946143469361434b97957f21d0ee700000000000000000000000000000000000000000000000000000000094339390919293614327610231565b998a9760208901908152016141d1565b60208201810382520383610746565b616169565b505f808080806142de565b506143698561436361416e565b90616137565b6142d9565b506143818161437b614141565b90616137565b614241565b90614393949392916140e2565b565b6143a96143a46143ae92610922565b6102de565b61028b565b90565b90565b60ff1690565b6143ce6143c96143d3926143b1565b6102de565b6143b4565b90565b6143f5906143ef6143e96143fa946143b4565b9161028b565b9061035d565b61028b565b90565b61440561328f565b506144446144346f8000000000000000000000000000000061442f61442985614395565b91613296565b613c6b565b61443e60806143ba565b906143d6565b61445e6144586144535f611e82565b61028b565b9161028b565b036160505761446c906132ce565b90565b61447990516118db565b90565b614486608061076f565b90565b5f90565b5f90565b61449961447c565b906020808080856144a8614489565b8152016144b361448d565b8152016144be614489565b8152016144c961448d565b81525050565b6144d7614491565b90565b906144e490613be2565b9052565b6144f29051613be2565b90565b6144ff905161025c565b90565b9061451d6fffffffffffffffffffffffffffffffff91611720565b9181191691161790565b61453b61453661454092613be2565b6102de565b613be2565b90565b90565b9061455b61455661456292614527565b614543565b8254614502565b9055565b9161456f6119c4565b926145786119c4565b506145856060840161446f565b614591602085016121b4565b61459d604086016121b4565b926145a982859061655c565b6145b16144cf565b95836145c56145bf5f613335565b916118db565b03614802575b61462261462861461b61461161462e946145e787898c91616872565b9290929160068901908c8b61460b60a06146025f86016144f5565b929394016121ce565b93616a1f565b9189909192616a53565b92906132ea565b916132ea565b9061620e565b958361464261463c5f613335565b916118db565b126147bb575b508261465c6146565f613335565b916118db565b03614668575b50505050565b9091929395506146795f8201613957565b61468b61468582616c68565b91616115565b908061469f614699866104d7565b916104d7565b125f146146ec575050506146e1926146d2926146c66146c06146cd946170b5565b926170b5565b9091617918565b6143fd565b6146db5f613335565b9061620e565b915b5f808080614662565b9694909193966147046146fe836104d7565b916104d7565b125f1461477757614759614771949361475361474e8561474661474061473b61476a988f61473460039c926170b5565b9091617918565b6143fd565b946170b5565b908c91617898565b6143fd565b9061620e565b96614765838501613bd5565b617998565b9101614546565b5b6146e3565b6147b09293506147aa91506147a5906147b5959761479e6147985f976170b5565b926170b5565b9091617898565b6143fd565b91613335565b61620e565b91614772565b6040816147cc5f6147d79401612dc7565b6147f2575b01612dc7565b6147e2575b5f614648565b6147ed818590616c50565b6147dc565b6147fd848690616c50565b6147d1565b61482a614813838587905f926166bd565b906148245f8b019260208c016144da565b90612dee565b61485461483c838787906001926166bd565b9061484e60408b019260608c016144da565b90612dee565b836148676148615f613335565b916118db565b12156148e8575b61462261462861461b61461161462e946148895f8d01612dc7565b6148c9575b61489a60408d01612dc7565b6148aa575b9450505050506145cb565b6148c4600588018b6148be608085016121b4565b91616839565b61489f565b6148e360058801896148dd608085016121b4565b91616839565b61488e565b6148fc6148f7608083016121b4565b6167fc565b614908602089016144e8565b61491a61491483613be2565b91613be2565b1161496a5761493d61493761493160608b016144e8565b92613be2565b91613be2565b111561486e57847fb8e3c3850000000000000000000000000000000000000000000000000000000061682f565b837fb8e3c3850000000000000000000000000000000000000000000000000000000061682f565b906149d86149d26149de936149a46119c4565b506149ad612dbf565b506149b6612dbf565b508060801d90600f0b938060801d90600f0b91019301926143fd565b916143fd565b9061620e565b90565b90565b6149f86149f36149fd926149e1565b6102de565b610243565b90565b614a0b6101006149e4565b90565b9193614a47614a52929694614a3d614a609997614a3361018088019a5f890190611098565b6020870190613a59565b60c0850190614189565b610140830190610941565b610160818503910152611e32565b90565b614a77614a72614a7c926104d4565b6102de565b610243565b90565b614a896001614a63565b90565b90565b614aa3614a9e614aa892614a8c565b6102de565b610243565b90565b614ab6610400614a8f565b90565b90565b614ad0614acb614ad592614ab9565b6102de565b610243565b90565b614ae26002614abc565b90565b909593929495614af36119c4565b50614afc6119c4565b9533614b18614b12614b0d86611fc9565b61025c565b9161025c565b14614cbc578097614b2b604086016121c1565b614b3d614b375f6122b8565b91610922565b135f14614bff57614b5684614b50614aab565b90616137565b614b64575b5050505050505b565b614bf39698975092614bd2614be69593614bc3614be094614beb9997859833949892909192614b91610231565b998a966004602089017f5a2a810000000000000000000000000000000000000000000000000000000000815201614a0e565b60208201810382520384610746565b614bda614ad8565b90616137565b916179ba565b610925565b9182906179f4565b915f8080808080614b5b565b614c1184614c0b614a00565b90616137565b614c21575b505050505050614b62565b614cb09698975092614c8f614ca39593614c80614c9d94614ca89997859833949892909192614c4e610231565b998a966004602089017f8db2b65200000000000000000000000000000000000000000000000000000000815201614a0e565b60208201810382520384610746565b614c97614a7f565b90616137565b916179ba565b610925565b9182906179f4565b915f8080808080614c16565b955050505050915090614ccd6122d4565b90565b614cf6614cf1614ceb614cfc93614ce5611614565b50610925565b93610925565b610922565b91610922565b141590565b614d27614d22614d1c614d2d93614d16611614565b50610309565b93610309565b61025c565b9161025c565b101590565b614d46614d41614d4b926143b1565b6102de565b610243565b90565b614d586080614d32565b90565b90565b614d72614d6d614d7792614d5b565b6102de565b610243565b90565b614d846008614d5e565b90565b90565b614d9e614d99614da392614d87565b6102de565b610243565b90565b614db06040614d8a565b90565b90565b614dca614dc5614dcf92614db3565b6102de565b610243565b90565b614ddc6004614db6565b90565b614de8906102e1565b90565b90565b614e02614dfd614e0792614deb565b6102de565b610243565b90565b614e15613fff614dee565b90565b614e20611614565b50614e3c614e3682614e30614d4e565b90616137565b15610469565b80614fa1575b614f9b57614e61614e5b82614e55614da6565b90616137565b15610469565b80614f83575b614f7d57614e86614e8082614e7a614aab565b90616137565b15610469565b80614f65575b614f5f57614eab614ea582614e9f614a00565b90616137565b15610469565b80614f47575b614f4157614ebe81611fc9565b614ed8614ed2614ecd5f61386f565b61025c565b9161025c565b145f14614ef65750614eec614ef291614028565b15610469565b5b90565b614f02614f0791611fc9565b614ddf565b614f0f614e0a565b16614f22614f1c5f613853565b91610243565b11908115614f31575b50614ef3565b614f3b9150614028565b5f614f2b565b50505f90565b50614f5a81614f54614a7f565b90616137565b614eb1565b50505f90565b50614f7881614f72614ad8565b90616137565b614e8c565b50505f90565b50614f9681614f90614dd2565b90616137565b614e67565b50505f90565b50614fb481614fae614d7a565b90616137565b614e42565b5f5260045260245ffd5b614fd7614fd2614fdc92611e7f565b6102de565b610784565b90565b614fe7612dc3565b50614ff181614028565b61500157614ffe8161404e565b90565b5061500b5f614fc3565b90565b939291908461502e6150286150233393611fc9565b61025c565b9161025c565b0361503b575b5050505050565b615044946150cd565b5f80808080615034565b90565b61506561506061506a9261504e565b6102de565b610243565b90565b615078612000615051565b90565b61508490610243565b9052565b9093916150ca95936150b36150bd926150a96101008601985f870190611098565b6020850190613a59565b60c083019061507b565b60e0818503910152611e32565b90565b939092916150e3856150dd61506d565b90616137565b6150ef575b5050505050565b61513e60049461514d9361515297957f3440d820000000000000000000000000000000000000000000000000000000009433939091929361512e610231565b998a976020890190815201615088565b60208201810382520383610746565b616169565b505f808080806150e8565b9061516a9493929161500e565b565b919061517f905f60a08501940190613a59565b565b9061519361518e83611d76565b61076f565b918252565b3d5f146151b3576151a83d615181565b903d5f602084013e5b565b6151bb611c5f565b906151b1565b6151d56151d06151da926139f9565b6102de565b61028b565b90565b6151f16151ec6151f69261028b565b6102de565b610784565b90565b61520d61520861521292610784565b6102de565b61028b565b90565b61522461522a919392936120bb565b92614fc3565b90565b615235611614565b9161523e612dc3565b9161525161524c6002612a39565b6113b1565b61526b6152656152605f61386f565b61025c565b9161025c565b03615274575b50565b915091505a6152ab6152a57f000000000000000000000000000000000000000000000000000000000000000061028b565b9161028b565b106153ff575f8091615328826152c96152c46002612a39565b6113b1565b6153377f0000000000000000000000000000000000000000000000000000000000000000946152f6610231565b9485916004602084017f553bfc370000000000000000000000000000000000000000000000000000000081520161516c565b60208201810382520384610746565b60208301925193f161535161534a615198565b9115610469565b80156153dc575b6153cd57602090615367612939565b5001518061538561537f61537a846151dd565b6151f9565b9161028b565b14806153b6575b5f146153a65761539d6001916151dd565b5b90915f615271565b506153b15f80615215565b61539e565b506153c86153c3826151dd565b615746565b61538c565b505f906153d95f614fc3565b90565b506153e681610a49565b6153f96153f360206151c1565b9161028b565b11615358565b7f1ee4970200000000000000000000000000000000000000000000000000000000613288565b61543961543461543e92611e7f565b611720565b6106ad565b90565b90939261544c61262d565b5061546061545b5f8401613957565b616115565b61547261546c5f613853565b91610243565b036154c3576154ba5f916154b56154c1956154b06154a96154928b617c3d565b9a6154a461549f89615425565b611fd5565b617f71565b8a90617fad565b617fcd565b6164c3565b9101614098565b565b7f7983c05100000000000000000000000000000000000000000000000000000000613288565b94939291908561550a6155046154ff3393611fc9565b61025c565b9161025c565b03615518575b505050505050565b615521956155ad565b5f8080808080615510565b90565b61554361553e6155489261552c565b6102de565b610243565b90565b61555661100061552f565b90565b919361559261559c9296946155886155aa999761557e61012088019a5f890190611098565b6020870190613a59565b60c085019061507b565b60e083019061051c565b610100818503910152611e32565b90565b94939190946155c4816155be61554b565b90616137565b6155d1575b505050505050565b615636956004956156319461562293967fa910f80f000000000000000000000000000000000000000000000000000000009533949091929394615612610231565b9a8b9860208a0190815201615559565b60208201810382520383610746565b616169565b505f80808080806155c9565b9061565095949392916154e9565b565b61566361565e5f61386f565b610309565b90565b61567890615672611614565b50610309565b61569961569361568e615689615652565b610309565b61025c565b9161025c565b1490565b7fffffffffffffffffffffffffffffffffffffffffffffffffffffffffffffffff90565b6156d3906156cd612939565b50617fed565b5c90816156e86156e25f611e82565b9161028b565b1461572057816157076157016156fc61569d565b61028b565b9161028b565b1461570f575b565b905061571a5f611e82565b9061570d565b7f8774be4800000000000000000000000000000000000000000000000000000000613288565b61574e611614565b50623e90006103e9610fff83161091101690565b5f61578361578a9361577384613964565b61577e838501613957565b617fcd565b9101614098565b565b615795906102e1565b90565b6157a19061578c565b90565b6157ad906102fd565b90565b6157b9906102fd565b90565b905051906157c98261028e565b565b906020828203126157e4576157e1915f016157bc565b90565b61023b565b6157f1612939565b506157fb81615666565b5f1461580f575061580b306157b0565b3190565b602061582d61582861582361585f94610309565b615798565b6157a4565b6370a082319061585461583f306157b0565b92615848610231565b9586948593849361161b565b8352600483016110a5565b03915afa9081156158a3575f91615875575b5090565b615896915060203d811161589c575b61588e8183610746565b8101906157cb565b5f615871565b503d615884565b611e6f565b816158bb6158b55f611e82565b9161028b565b146158cd575b6158ca90617fed565b5d565b90506158ca6158da61569d565b9190506158c1565b6158eb5f6122b8565b90565b6158f790610469565b9052565b61590490610243565b9052565b9060408061593c936159205f8201515f8601906158ee565b6159326020820151602086019061417c565b01519101906158fb565b565b90939161598195936159696159739261595f6101408601985f870190611098565b6020850190613a59565b60c0830190615908565b610120818503910152611e32565b90565b94919294615990612dbf565b50615999612dbb565b946159a2612dc3565b946159af602082016121c1565b97336159cb6159c56159c087611fc9565b61025c565b9161025c565b14615b69576159e2846159dc614d4e565b90616137565b6159ee575b5050505050565b615a59615a6092604092615a54615a6596615a45899333928c96919091615a13610231565b9788956004602088017f575e24b40000000000000000000000000000000000000000000000000000000081520161593e565b60208201810382520383610746565b616169565b9401611fbc565b614028565b615b53575b615a7c90615a76614d7a565b90616137565b615a8a575b808080806159e7565b615a9e919350615a9990618034565b610925565b91615aa883618045565b80615abb615ab55f613335565b916118db565b03615ac6575b615a81565b9380615ae8615aee92615ae1615adb5f6122b8565b91610922565b12966133aa565b906133c6565b935f14615b3a5783615b08615b025f6122b8565b91610922565b135b615b14575f615ac1565b7ffa0b71d600000000000000000000000000000000000000000000000000000000613288565b83615b4d615b475f6122b8565b91610922565b12615b0a565b9250615a7c615b6182618023565b939050615a6a565b505050505091509190615b7a6158e2565b9291929190565b615b8a906118db565b9052565b615b9790613be2565b9052565b949290979695939160e08601985f8701615bb491611098565b60208601615bc191615b81565b60408501615bce91615b81565b60608401615bdb9161507b565b60808301615be891615b8e565b60a08201615bf59161051c565b60c001615c0191612663565b565b91615c179192615c116119c4565b506182b6565b93919392909160805192939280615c36615c305f611e82565b9161028b565b11615cc0575b50509033615cba615c4c8661644c565b92615c568761645b565b95615c6360408301612dd4565b91615c7c6060615c7560a084016144e8565b92016121b4565b9192615ca87f40e9cecb9f5f1f1c5b9c97dec2917b7ee92e57ba5563708daca94dd84ad7112f98611fd5565b98615cb1610231565b97889788615b9b565b0390a290565b615cc991618dba565b5f80615c3c565b9193615d09615d14929694615cff615d229997615cf561016088019a5f890190611098565b6020870190613a59565b60c0850190615908565b610120830190610941565b610140818503910152611e32565b90565b615d31615d37916118db565b916118db565b01907fffffffffffffffffffffffffffffffff8000000000000000000000000000000082126f7fffffffffffffffffffffffffffffff831317615d7657565b6116ce565b9096959294939196615d8b6119c4565b50615d946119c4565b5033615db0615daa615da585611fc9565b61025c565b9161025c565b14615f3d5790879186615dcb615dc587618045565b96618de3565b96615dde84615dd8614da6565b90616137565b615ea6575b505050505050615df16119c4565b9482615e05615dff5f613335565b916118db565b14158015615e8b575b615e1a575b5050509190565b615e75939550615e5b615e55615e505f615e36602086016121c1565b615e48615e42836122b8565b91610922565b129401612dc7565b610469565b91610469565b145f14615e7d5790615e6c9161620e565b5b9283906179f4565b5f8080615e13565b615e869161620e565b615e6d565b5081615e9f615e995f613335565b916118db565b1415615e0e565b83615f12615f3198999794615f03615f2b9895615f2095615f26999833949892909192615ed1610231565b998a966004602089017fb47b2fb100000000000000000000000000000000000000000000000000000000815201615cd0565b60208201810382520384610746565b615f1a614dd2565b90616137565b916179ba565b6143fd565b90615d25565b905f8581808681615de3565b505050505090915090615f4e6122d4565b90565b91615f80923381615f6a615f648361025c565b9161025c565b141580616023575b615f82575b50919091618df2565b565b615faa615fa5615f9e615f9760058690610c88565b8490610315565b8690610347565b6116c1565b9081615fde615fd87fffffffffffffffffffffffffffffffffffffffffffffffffffffffffffffffff61028b565b9161028b565b03615fea575b50615f77565b616017616010615ffe61601c9487906116fb565b9261600b60058790610c88565b610315565b8690610347565b61175d565b5f80615fe4565b5061604b61604561604061603960038690611299565b84906112af565b613092565b15610469565b615f72565b6393dafdf15f526004601cfd5b61606f91616069612dbf565b50618e89565b5c90565b60017f7d4b3164c6e45b97e7d87b7125a44c5828d005af88f9d751cfd78729c5d99a0b5c017f7d4b3164c6e45b97e7d87b7125a44c5828d005af88f9d751cfd78729c5d99a0b5d565b60017f7d4b3164c6e45b97e7d87b7125a44c5828d005af88f9d751cfd78729c5d99a0b5c037f7d4b3164c6e45b97e7d87b7125a44c5828d005af88f9d751cfd78729c5d99a0b5d565b61610e91618e89565b5d565b5f90565b61611d616111565b5073ffffffffffffffffffffffffffffffffffffffff1690565b61614c61615191616146611614565b50611fc9565b614ddf565b1661616461615e5f613853565b91610243565b141590565b5f8091939293616177611c5f565b508451908260208701915af1156161f35760405191601f19603f3d011683016040523d83523d5f602085013e6161c66161c06161bb6161b586618ea2565b93618ea2565b610403565b91610403565b036161cd57565b7f1e048e1d00000000000000000000000000000000000000000000000000000000613288565b3d15616201573d5f803e3d5ffd5b6336bc48c55f526004601cfd5b906162176119c4565b5060018060801b03169060801b1790565b90616233910261028b565b90565b1561623d57565b5f80fd5b9061624c910361028b565b90565b90565b61626661626161626b9261624f565b6102de565b61028b565b90565b61628261627d61628792614ab9565b6102de565b61028b565b90565b616292612939565b5061629e818390616228565b916162a7612939565b505f1981830983808210910303916162d1856162cb6162c58661028b565b9161028b565b11616236565b826162e46162de5f611e82565b9161028b565b146164455761643c92856164429693616333936162ff612939565b5009908582119003940393600161631f5f61631a8691611e82565b616241565b841680809504960493805f03040190616228565b179161643661641a6163f66163d26163ae61638a61635b60036163568991616252565b616228565b616365600261626e565b18616384600261637f6163798b8590616228565b9161626e565b616241565b90616228565b6163a860026163a361639d8a8590616228565b9161626e565b616241565b90616228565b6163cc60026163c76163c1898590616228565b9161626e565b616241565b90616228565b6163f060026163eb6163e5888590616228565b9161626e565b616241565b90616228565b616414600261640f616409878590616228565b9161626e565b616241565b90616228565b9161643161642b6002928590616228565b9161626e565b616241565b90616228565b90616228565b90565b5050500490565b61645461328f565b5060801d90565b61646361328f565b50600f0b90565b90565b61648161647c6164869261646a565b6102de565b610784565b90565b616495620f424061646d565b90565b6164a0611614565b506164ba6164b46164af616489565b610784565b91610784565b111590565b5f90565b906164cc6164bf565b5062ffffff1660d01b9062ffffff60d01b19161790565b90565b6164fa6164f56164ff926164e3565b6102de565b6104d7565b90565b61652b7ffffffffffffffffffffffffffffffffffffffffffffffffffffffffffff276186164e6565b90565b90565b61654561654061654a9261652e565b6102de565b6104d7565b90565b616559620d89e8616531565b90565b8061656f616569846104d7565b916104d7565b1215616603578061658f616589616584616502565b6104d7565b916104d7565b126165dd5750806165af6165a96165a461654d565b6104d7565b916104d7565b136165b75750565b7f1ad777f80000000000000000000000000000000000000000000000000000000061682f565b7fd5e2f7ab0000000000000000000000000000000000000000000000000000000061682f565b907fc4433ed500000000000000000000000000000000000000000000000000000000919091618eb3565b5f90565b61664561664061664a926104d7565b6102de565b6104d7565b90565b9061665790616631565b5f5260205260405f2090565b90565b616672616678916118db565b916118db565b9003906f7fffffffffffffffffffffffffffffff82137fffffffffffffffffffffffffffffffff800000000000000000000000000000008312176166b857565b6116ce565b93919092936166ca611614565b506166d361662d565b506166ea6166e560048301869061664d565b616663565b916166f361662d565b506166fc61328f565b508254958660801b60801c9660801d92616717888490617998565b968761672b6167255f613bf7565b91613be2565b1461675161674b8b61674561673f5f613bf7565b91613be2565b14610469565b91610469565b1415986167666167605f613bf7565b91613be2565b14616795575b50505f146167875761677d91616666565b5b60801b83179055565b61679091615d25565b61677e565b6167b96167b36167ae6167a95f8601613957565b616c68565b6104d7565b916104d7565b13156167c6575b8061676c565b6167ed6002826167e76167de60016167f696016116c1565b60018a0161175d565b016116c1565b6002860161175d565b5f6167c0565b60019061680761662d565b5061681061654d565b8180808061681c616502565b050292050203050160018060801b030490565b5f5260045260245ffd5b919081810761685f5705908160081d5f52602052600160ff60405f2092161b8154189055565b63d4d8f3e65f526020526040526044601cfd5b92919261687d612939565b50616886612939565b5061689d61689860048301849061664d565b616663565b936168b46168af60048401839061664d565b616663565b926168c86168c35f8501613957565b616c68565b906168dc6168d683926104d7565b916104d7565b125f1461692c5750505061692890616922600261691b8161691461690260018a016116c1565b61690e600188016116c1565b90616241565b97016116c1565b92016116c1565b90616241565b905b565b61693c61694291969496926104d7565b916104d7565b12155f14616994575061698d9061698760026169808161697961696760018a016116c1565b616973600188016116c1565b90616241565b97016116c1565b92016116c1565b90616241565b905b61692a565b926169fa60026169f3616a00946169ed836169e6816169df6169cd6169bb60018f016116c1565b6169c7600189016116c1565b90616241565b6169d960018c016116c1565b90616241565b9b016116c1565b92016116c1565b90616241565b92016116c1565b90616241565b9061698f565b90616a1090611fd5565b5f5260205260405f2090565b90565b91616a4b93616a5095616a306119af565b506026526006526003525f52603a600c20905f602652616a06565b616a1c565b90565b9391929093616a60612939565b50616a69612939565b50616a755f8201613bd5565b9480616a89616a835f613335565b916118db565b145f14616b4e575084616aa4616a9e5f613bf7565b91613be2565b14616b28576002616b26925b616b1f616b15616ae8616acf89616ac9600189016116c1565b90616241565b8a90616ae2616adc613c32565b92613c4f565b9061628a565b98616afe84616af88789016116c1565b90616241565b616b0f616b09613c32565b92613c4f565b9061628a565b966001850161175d565b910161175d565b565b7faefeb92400000000000000000000000000000000000000000000000000000000613288565b616b2692616b69616b6160029389617998565b5f8501614546565b616ab0565b1b90565b91906008616bac910291616ba67fffffffffffffffffffffffffffffffffffffffffffffffffffffffffffffffff84616b6e565b92616b6e565b9181191691161790565b9190616bcc616bc7616bd49361032b565b61175a565b908354616b72565b9055565b616bea91616be4612939565b91616bb6565b565b5f6002616c0b928280820155616c058360018301616bd8565b01616bd8565b565b7f4e487b71000000000000000000000000000000000000000000000000000000005f525f60045260245ffd5b905f03616c4b57616c4990616bec565b565b616c0d565b616c61616c669260045f930161664d565b616c39565b565b616c7061262d565b5060a01c60020b90565b90565b616c91616c8c616c9692616c7a565b6102de565b61028b565b90565b616cad616ca8616cb292614db3565b6102de565b61028b565b90565b90565b616ccc616cc7616cd192616cb5565b6102de565b61028b565b90565b616ce8616ce3616ced92614d5b565b6102de565b61028b565b90565b90565b616d07616d02616d0c92616cf0565b6102de565b61028b565b90565b616d23616d1e616d2892613e3c565b6102de565b61028b565b90565b90565b616d42616d3d616d4792616d2b565b6102de565b61028b565b90565b90565b616d61616d5c616d6692616d4a565b6102de565b61028b565b90565b616d7d616d78616d8292614d87565b6102de565b61028b565b90565b90565b616d9c616d97616da192616d85565b6102de565b61028b565b90565b616db8616db3616dbd926143b1565b6102de565b61028b565b90565b90565b616dd7616dd2616ddc92616dc0565b6102de565b61028b565b90565b616df3616dee616df8926149e1565b6102de565b61028b565b90565b90565b616e12616e0d616e1792616dfb565b6102de565b61028b565b90565b616e2e616e29616e339261414f565b6102de565b61028b565b90565b90565b616e4d616e48616e5292616e36565b6102de565b61028b565b90565b616e69616e64616e6e92614a8c565b6102de565b61028b565b90565b90565b616e88616e83616e8d92616e71565b6102de565b61028b565b90565b616ea4616e9f616ea992614122565b6102de565b61028b565b90565b90565b616ec3616ebe616ec892616eac565b6102de565b61028b565b90565b616edf616eda616ee49261552c565b6102de565b61028b565b90565b90565b616efe616ef9616f0392616ee7565b6102de565b61028b565b90565b616f1a616f15616f1f9261504e565b6102de565b61028b565b90565b90565b616f39616f34616f3e92616f22565b6102de565b61028b565b90565b90565b616f58616f53616f5d92616f41565b6102de565b61028b565b90565b90565b616f77616f72616f7c92616f60565b6102de565b61028b565b90565b90565b616f96616f91616f9b92616f7f565b6102de565b61028b565b90565b90565b616fb5616fb0616fba92616f9e565b6102de565b61028b565b90565b90565b616fd4616fcf616fd992616fbd565b6102de565b61028b565b90565b90565b616ff3616fee616ff892616fdc565b6102de565b61028b565b90565b90565b61701261700d61701792616ffb565b6102de565b61028b565b90565b90565b61703161702c6170369261701a565b6102de565b61028b565b90565b90565b61705061704b61705592617039565b6102de565b61028b565b90565b90565b61706f61706a61707492617058565b6102de565b61028b565b90565b90565b61708e61708961709392617077565b6102de565b61028b565b90565b90565b6170ad6170a86170b292617096565b6102de565b61028b565b90565b6170bd616111565b506170c6612939565b508060ff1d8181011890620d89e88211617861576170e2612939565b50600182166ffffcb933bd6fad37aa2d162d1a594001600160801b1802600160801b189180617111600261626e565b1661712461711e5f611e82565b9161028b565b03617824575b806171356004616c99565b166171486171425f611e82565b9161028b565b036177e7575b806171596008616cd4565b1661716c6171665f611e82565b9161028b565b036177aa575b8061717d6010616d0f565b1661719061718a5f611e82565b9161028b565b0361776d575b806171a160206151c1565b166171b46171ae5f611e82565b9161028b565b03617730575b806171c56040616d69565b166171d86171d25f611e82565b9161028b565b036176f3575b806171e96080616da4565b166171fc6171f65f611e82565b9161028b565b036176b6575b8061720e610100616ddf565b1661722161721b5f611e82565b9161028b565b03617679575b80617233610200616e1a565b166172466172405f611e82565b9161028b565b0361763c575b80617258610400616e55565b1661726b6172655f611e82565b9161028b565b036175ff575b8061727d610800616e90565b1661729061728a5f611e82565b9161028b565b036175c2575b806172a2611000616ecb565b166172b56172af5f611e82565b9161028b565b03617585575b806172c7612000616f06565b166172da6172d45f611e82565b9161028b565b03617548575b806172ec614000616f44565b166172ff6172f95f611e82565b9161028b565b0361750b575b80617311618000616f82565b1661732461731e5f611e82565b9161028b565b036174ce575b8061733762010000616fc0565b1661734a6173445f611e82565b9161028b565b03617491575b8061735d62020000616ffe565b1661737061736a5f611e82565b9161028b565b03617455575b806173836204000061703c565b166173966173905f611e82565b9161028b565b0361741a575b6173a86208000061707a565b166173bb6173b55f611e82565b9161028b565b036173de575b5f126173d6575b60018060201b030160201c90565b5f19046173c8565b906174126174025f926173fc6b048a170391f7dc42444e8fa2617099565b90616228565b61740c60806143ba565b906143d6565b9190506173c1565b9161743f61744f916174396d2216e584f5fa1ea926041bedfe9861705b565b90616228565b61744960806143ba565b906143d6565b9161739c565b9161747b61748b916174756e5d6af8dedb81196699c329225ee60461701d565b90616228565b61748560806143ba565b906143d6565b91617376565b916174b86174c8916174b26f09aa508b5b7a84e1c677de54f3e99bc9616fdf565b90616228565b6174c260806143ba565b906143d6565b91617350565b916174f5617505916174ef6f31be135f97d08fd981231505542fcfa6616fa1565b90616228565b6174ff60806143ba565b906143d6565b9161732a565b916175326175429161752c6f70d869a156d2a1b890bb3df62baf32f7616f63565b90616228565b61753c60806143ba565b906143d6565b91617305565b9161756f61757f916175696fa9f746462d870fdf8a65dc1f90e061e5616f25565b90616228565b61757960806143ba565b906143d6565b916172e0565b916175ac6175bc916175a66fd097f3bdfd2022b8845ad8f792aa5825616eea565b90616228565b6175b660806143ba565b906143d6565b916172bb565b916175e96175f9916175e36fe7159475a2c29b7443b29c7fa6e889d9616eaf565b90616228565b6175f360806143ba565b906143d6565b91617296565b91617626617636916176206ff3392b0822b70005940c7a398e4b70f3616e74565b90616228565b61763060806143ba565b906143d6565b91617271565b916176636176739161765d6ff987a7253ac413176f2b074cf7815e54616e39565b90616228565b61766d60806143ba565b906143d6565b9161724c565b916176a06176b09161769a6ffcbe86c7900a88aedcffc83b479aa3a4616dfe565b90616228565b6176aa60806143ba565b906143d6565b91617227565b916176dd6176ed916176d76ffe5dee046a99a2a811c461f1969c3053616dc3565b90616228565b6176e760806143ba565b906143d6565b91617202565b9161771a61772a916177146fff2ea16466c96a3843ec78b326b52861616d88565b90616228565b61772460806143ba565b906143d6565b916171de565b91617757617767916177516fff973b41fa98c081472e6896dfb254c0616d4d565b90616228565b61776160806143ba565b906143d6565b916171ba565b916177946177a49161778e6fffcb9843d60f6159c9db58835c926644616d2e565b90616228565b61779e60806143ba565b906143d6565b91617196565b916177d16177e1916177cb6fffe5caca7e10e4e61c3624eaa0941cd0616cf3565b90616228565b6177db60806143ba565b906143d6565b91617172565b9161780e61781e916178086ffff2e50f5f656932ef12357cf3c7fdcc616cb8565b90616228565b61781860806143ba565b906143d6565b9161714e565b9161784b61785b916178456ffff97272373d413259a46990580e213a616c7d565b90616228565b61785560806143ba565b906143d6565b9161712a565b63ce8ef7fc5f526004601cfd5b61788261787d617887926118db565b6102de565b613be2565b90565b617895905f03610922565b90565b9190916178a3612dbf565b50816178b76178b15f613335565b916118db565b125f146178ea57916178e1916178d96178d46178e69593926118e1565b61786e565b905f92618ef8565b618f37565b5b90565b6179139261790e9261790061790993929161786e565b90600192618ef8565b618f37565b61788a565b6178e7565b919091617923612dbf565b50816179376179315f613335565b916118db565b125f1461796a5791617961916179596179546179669593926118e1565b61786e565b905f92618fa6565b618f37565b5b90565b6179939261798e9261798061798993929161786e565b90600192618fa6565b618f37565b61788a565b617967565b6179a061662d565b5001908160801c6179ad57565b6393dafdf15f526004601cfd5b6179d7916179d0916179ca612dbf565b50616169565b9115610469565b6179e7576179e490618034565b90565b506179f15f6122b8565b90565b90617a3b617a35617a4193617a076119c4565b50617a10612dbf565b50617a19612dbf565b508060801d90600f0b938060801d90600f0b91039303926143fd565b916143fd565b9061620e565b90565b617a58617a53617a5d92610243565b6102de565b61028b565b90565b617a74617a6f617a79926139f9565b6102de565b6143b4565b90565b617a9b90617a95617a8f617aa0946143b4565b9161028b565b90616b6e565b61028b565b90565b90565b617aba617ab5617abf92617aa3565b6102de565b61028b565b90565b617ae190617adb617ad5617ae69461028b565b9161028b565b90616b6e565b61028b565b90565b617b0890617b02617afc617b0d9461028b565b9161028b565b9061035d565b61028b565b90565b617b24617b1f617b29926143b1565b6102de565b610922565b90565b90617b379103610922565b90565b617b4e617b49617b5392614d87565b6102de565b6143b4565b90565b617b7590617b6f617b69617b7a946143b4565b91610922565b90616b6e565b610922565b90565b90565b617b94617b8f617b9992617b7d565b6102de565b610922565b90565b90617ba79102610922565b90565b90565b617bc1617bbc617bc692617baa565b6102de565b610922565b90565b1d90565b617bec90617be6617be0617bf1946143b4565b91610922565b90617bc9565b610922565b90565b617c08617c03617c0d92610922565b6102de565b6104d7565b90565b90565b617c27617c22617c2c92617c10565b6102de565b610922565b90565b90617c3a9101610922565b90565b617c4561262d565b5073fffd8963efd1fc6a506488495d951d51639616826401000276a3820311617f6457617e71617c87617c7783617a44565b617c816020617a60565b90617a7c565b617d6e617d5e617d4e836001617c9c5f611e82565b916fffffffffffffffffffffffffffffffff811160071b809317921c67ffffffffffffffff811160061b809317921c63ffffffff811160051b809317921c61ffff811160041b809317921c60ff811160031b809317921c600f811160021b809317921c60038111821b809317921c11179384617d21617d1b6080616da4565b9161028b565b10155f14617f4057617d4790617d4186617d3b607f617aa6565b90616241565b90617ae9565b935b6132b2565b617d586080617b10565b90617b2c565b617d686040617b3a565b90617b56565b908002607f1c8060801c9182603f1b17911c8002607f1c8060801c9182603e1b17911c8002607f1c8060801c9182603d1b17911c8002607f1c8060801c9182603c1b17911c8002607f1c8060801c9182603b1b17911c8002607f1c8060801c9182603a1b17911c8002607f1c8060801c918260391b17911c8002607f1c8060801c918260381b17911c8002607f1c8060801c918260371b17911c8002607f1c8060801c918260361b17911c8002607f1c8060801c918260351b17911c8002607f1c8060801c918260341b17911c8002607f1c8060801c918260331b17911c8002607f1c60801c60321b17617e6b693627a301d71055774c85617b80565b90617b9c565b617eed617ee8617ed8617eb8617eb3617ea386617e9d6f028f6481ab7f045a5af012a19d003aaa617bad565b90617b2c565b617ead60806143ba565b90617bcd565b617bf4565b93617ed26fdb2df09e81959a81455e260799a0632f617c13565b90617c2f565b617ee260806143ba565b90617bcd565b617bf4565b9181617f01617efb856104d7565b916104d7565b145f14617f0f575090505b90565b617f2a617f24617f1e856170b5565b92610243565b91610243565b11155f14617f3957505b617f0c565b9050617f34565b617f5e90617f58607f617f538891617aa6565b616241565b90617ac2565b93617d49565b6331efafe85f526004601cfd5b90617f7a6164bf565b5073ffffffffffffffffffffffffffffffffffffffff169073ffffffffffffffffffffffffffffffffffffffff19161790565b90617fb66164bf565b5062ffffff1660a01b9062ffffff60a01b19161790565b90617fd66164bf565b5062ffffff1660b81b9062ffffff60b81b19161790565b617ff56119af565b507f1e0745a7db1623981f0b2a5d4232364c00787266eb75ad546f190e6cebe9bd955f5260205260405f2090565b60609061802e612dc3565b50015190565b60409061803f612dbf565b50015190565b61804d61328f565b5060801d90565b61805e60c061076f565b90565b5f90565b5f90565b5f90565b5f90565b618079618054565b90602080808080808761808a618061565b815201618095618061565b8152016180a0618065565b8152016180ab618069565b8152016180b661806d565b8152016180c161448d565b81525050565b6180cf618071565b90565b61ffff1690565b6180ed6180e86180f2926180d2565b6102de565b61028b565b90565b906180ff9061028b565b9052565b90565b61811a61811561811f92618103565b6102de565b610243565b90565b61813f73fffd8963efd1fc6a506488495d951d5263988d26618106565b90565b90565b61815961815461815e92618142565b6102de565b610243565b90565b61816f6401000276a3618145565b90565b61817c60e061076f565b90565b618187618172565b90602080808080808088618199618065565b8152016181a4618069565b8152016181af614489565b8152016181ba618065565b8152016181c561806d565b8152016181d061806d565b8152016181db61806d565b81525050565b6181e961817f565b90565b6181f6905161028b565b90565b61820861820e91939293610922565b92610922565b91828103925f82851281831216928513911215161761822957565b6116ce565b61824261823d6182479261646a565b6102de565b61028b565b90565b618256620f424061822e565b90565b7f4e487b71000000000000000000000000000000000000000000000000000000005f52601260045260245ffd5b6182926182989161028b565b9161028b565b9081156182a3570490565b618259565b906182b391036104d7565b90565b60c0525f6080526182c56119c4565b506182ce612939565b6080526182d9612dc3565b506182e26180c7565b916182f05f60c05101613957565b916182fd60208201612dc7565b9161830c600360c05101613bd5565b91835f14618da15761832e61832861832387619070565b619131565b5b6180d9565b60a052618348618340604083016121c1565b5f8801612dfc565b61835d6183545f6122b8565b60208801612dfc565b61837261836986616115565b60408801612e0a565b61838761837e86616c68565b606088016121f6565b835f14618d8b576183a961839f600160c051016116c1565b5b608088016180f5565b6183b68360a088016144da565b6183ca6183c560808301611fbc565b619180565b5f14618d7d576183e46183df60808301611fbc565b6191bd565b5b60a0516183fa6183f45f611e82565b9161028b565b145f14618d64575b9161840f604083016121c1565b61842161841b5f6122b8565b91610922565b129361842d8515610469565b80618d43575b618d1d57618443604084016121c1565b61845561844f5f6122b8565b91610922565b14618cf857855f14618c305761846d60608401612dd4565b61848761848161847c8a616115565b610243565b91610243565b1015618bf25761849960608401612dd4565b6184b26184ac6184a7618161565b610243565b91610243565b1115618bbe575b6184c16181e1565b965b6184ce5f8a016121c1565b6184e06184da5f6122b8565b91610922565b148015618b89575b6184f29015610469565b15618a0d5761850e61850660408b01612dd4565b5f8a01612e0a565b618551618539600560c0510161852660608d016121b4565b6185315f89016121b4565b908b926192d0565b9061854b60208c019260408d01612dee565b906121f6565b61855d602089016121b4565b61857661857061856b616502565b6104d7565b916104d7565b13156189f4575b618589602089016121b4565b6185a261859c61859761654d565b6104d7565b916104d7565b12156189db575b6185c96185c06185bb60208b016121b4565b6170b5565b60608a01612e0a565b618658898961865261864c60406186288d8c6186098d6185ea868b01612dd4565b939061860360606185fc818d01612dd4565b9201612dd4565b916194c2565b61861560a08a016144e8565b906186215f8b016121c1565b92936194e7565b949296919390970196618646608083019560c060a0850194016180f5565b906180f5565b906180f5565b90612e0a565b6186628615610469565b5f1461895a5761869a61867f61867a60a08b016181ec565b618f37565b6186945f8c019161868f836121c1565b617b2c565b90612dfc565b6186e56186dc6186ac60208c016121c1565b6186d66186d18c6186cb60c06186c4608084016181ec565b92016181ec565b9061177d565b618f37565b906181f9565b60208b01612dfc565b5b60a0516186fb6186f55f611e82565b9161028b565b116188e8575b61870d60a08a016144e8565b61871f6187195f613bf7565b91613be2565b11618892575b61873160408a01612dd4565b61874e61874861874360608c01612dd4565b610243565b91610243565b145f1461883a5761876160408901612dc7565b618796575b61876e61262d565b506187906187878861878260208c016121b4565b6182a8565b60608b016121f6565b5b6184c3565b8888885f1461880f576187dc6187f3916187b560806187fc95016181ec565b6187c3600260c051016116c1565b905b6187d4602060c05194016121b4565b90919261979c565b89618801575b6187ee60a08d016144e8565b617998565b60a08b016144da565b618766565b61880a906118e1565b6187e2565b6187dc6187f3916187fc93618834608061882d600160c051016116c1565b92016181ec565b906187c5565b61884660408a01612dd4565b61886261885c6188575f8c01612dd4565b610243565b91610243565b0361886d575b618791565b61888d61888461887f60408c01612dd4565b617c3d565b60608b016121f6565b618868565b6188e36188c76188a460c08b016181ec565b8b6188c16188bc60a06188b5613c32565b93016144e8565b613c4f565b9161628a565b6188dd60808c01916188d8836181ec565b613c6b565b906180f5565b618725565b61895261892a61891c6189138b61890d60c0618906608084016181ec565b92016181ec565b90613c6b565b60a05190616228565b61892461824a565b90618286565b61894a8161894460c08d019161893f836181ec565b616241565b906180f5565b608051613c6b565b608052618701565b6189a161898661898161896f60808c016181ec565b61897b60c08d016181ec565b90613c6b565b618f37565b61899b5f8c0191618996836121c1565b617c2f565b90612dfc565b6189d66189cd6189b360208c016121c1565b6189c76189c260a08d016181ec565b618f37565b906133c6565b60208b01612dfc565b6186e6565b6189ef6189e661654d565b60208a016121f6565b6185a9565b618a086189ff616502565b60208a016121f6565b61857d565b618aae939594975090618a54618a4a618a38618aa8959b9994618a3260608c016121b4565b90617fad565b618a4460408b01612dd4565b90617f71565b5f60c05101614098565b618a71618a6b618a6660a08a016144e8565b613be2565b91613be2565b03618b6a575b618a818115610469565b5f14618b4b57618aa1618a96608088016181ec565b600260c0510161175d565b5b92610469565b91610469565b14155f14618b0057618afc90618af6618af1618ae06040618ad9618ad4602089016121c1565b6143fd565b94016121c1565b618aeb5f87016121c1565b90617b2c565b6143fd565b9061620e565b925b565b618b2b618b26618b156040618b4594016121c1565b618b205f86016121c1565b90617b2c565b6143fd565b618b3f618b3a602085016121c1565b6143fd565b9061620e565b92618afe565b618b65618b5a608088016181ec565b600160c0510161175d565b618aa2565b618b84618b7960a088016144e8565b600360c05101614546565b618a77565b506184f2618b9960408b01612dd4565b618bb6618bb0618bab60608901612dd4565b610243565b91610243565b1490506184e8565b82618bec60607f9e4d7cc7000000000000000000000000000000000000000000000000000000009201612dd4565b90619207565b8683618c2a6060618c237f7c9c6e8f0000000000000000000000000000000000000000000000000000000094616115565b9201612dd4565b916191fa565b618c3c60608401612dd4565b618c56618c50618c4b8a616115565b610243565b91610243565b1115618cba57618c6860608401612dd4565b618c81618c7b618c76618122565b610243565b91610243565b106184b95782618cb460607f9e4d7cc7000000000000000000000000000000000000000000000000000000009201612dd4565b90619207565b8683618cf26060618ceb7f7c9c6e8f0000000000000000000000000000000000000000000000000000000094616115565b9201612dd4565b916191fa565b5093505093925050618d086122d4565b91618d165f94919394611e82565b6080529190565b7f9620624600000000000000000000000000000000000000000000000000000000613288565b5083618d5e618d58618d53616489565b610784565b91610784565b14618433565b618d7890618d7360a0516151dd565b6191db565b618402565b618d86856191a9565b6183e5565b6183a9618d9c600260c051016116c1565b6183a0565b61832e618db5618db087619070565b6190ea565b618329565b618ddb618dcc618de1939260016110ef565b91618dd6836116c1565b613c6b565b9061175d565b565b618deb61328f565b50600f0b90565b9190618e2682618e20618e11618e0a60048890610315565b8590610347565b91618e1b836116c1565b6116fb565b9061175d565b3392618e315f61386f565b9192618e6f618e69618e637f1b3d7edb2e9c0b0e7c525b20aaaef0f5940d2ed71663c7d39266ecafac72885994610309565b94610309565b9461032b565b94618e84618e7b610231565b928392836117a2565b0390a4565b618e916119af565b505f5260205260405f2090565b5f90565b602090618ead618e9e565b50015190565b5f5260045260245260445ffd5b90565b618ed7618ed2618edc92618ec0565b6102de565b61028b565b90565b618ef56c01000000000000000000000000618ec3565b90565b5f91618f0f91949394618f09612939565b5061980c565b92618f18618edf565b90618f21612939565b5093618f2f8582849161628a565b940911160190565b618f3f612dbf565b50618f49816132b2565b618f5b618f555f6122b8565b91610922565b1261605057618f69906132b2565b90565b90565b618f83618f7e618f8892618f6c565b6102de565b6143b4565b90565b618f956060618f6f565b90565b90618fa39103610243565b90565b91618faf612939565b5082618fc3618fbd84610243565b91610243565b11619068575b821561905c57618fdb618fe991613c4f565b618fe3618f8b565b90617a7c565b618ffc618ff7838590618f98565b617a44565b935f1461902f5761902b936190259261901961901f939291617a44565b91619830565b91617a44565b9061989d565b5b90565b619057936190519261904561904b939291617a44565b9161628a565b91617a44565b90618286565b61902c565b62bfc9215f526004601cfd5b919091618fc9565b619078612dc3565b5060b81c62ffffff1690565b5f90565b90565b61909f61909a6190a492619088565b6102de565b6143b4565b90565b6190c6906190c06190ba6190cb946143b4565b91610784565b9061035d565b610784565b90565b6190e26190dd6190e792610784565b6102de565b6180d2565b90565b61910a61910f916190f9619084565b50619104600c61908b565b906190a7565b6190ce565b90565b90565b61912961912461912e92619112565b6102de565b610784565b90565b61914f9061913d619084565b50619149610fff619115565b166190ce565b90565b90565b61916961916461916e92619152565b6102de565b610784565b90565b61917d62400000619155565b90565b619188611614565b50619191619171565b166191a461919e5f614fc3565b91610784565b141590565b6191b1612dc3565b5060d01c62ffffff1690565b6191cf906191c9612dc3565b506198e0565b906191d98261404e565b565b906191e4612dc3565b50808202620f42405f8183061191040191010390565b5f5260045260245260445ffd5b5f5260045260245ffd5b600161921d91016104d7565b90565b61923461922f619239926104d4565b6102de565b61028b565b90565b61925061924b61925592610e36565b6102de565b610e36565b90565b906192629061923c565b5f5260205260405f2090565b9061927991036143b4565b90565b61929061928b619295926143b4565b6102de565b610784565b90565b6192ac6192a76192b192610784565b6102de565b6104d7565b90565b906192bf91016104d7565b90565b906192cd91026104d7565b90565b9291906192f0906192df61262d565b506192e8611614565b5082906198f5565b915f146193dd576193539261935861930784619912565b959061934d619333619323600161931e8b91619220565b617a7c565b61932d6001619220565b90616241565b61934760016193428b91619220565b617a7c565b90613c6b565b93619258565b6116c1565b16928361936d6193675f611e82565b9161028b565b141593845f146193b357906193a361939e6193996193a9946193936193ae989591619d8d565b9061926e565b61927c565b619298565b906182a8565b6192c2565b5b915b565b506193d3906193cd6193c86193d8959261927c565b619298565b906182a8565b6192c2565b6193af565b6193ea61942f9392619211565b916194346193f784619912565b9590619429619423619413600161940e8b91619220565b617a7c565b61941d6001619220565b90616241565b1961028b565b93619258565b6116c1565b16806194486194425f611e82565b9161028b565b141593845f1461948e579061947c6194776194726194829461946d6194879895619a64565b61926e565b61927c565b619298565b906192b4565b6192c2565b5b916193b1565b6194b891506194b26194ad6194a86194bd969360ff61926e565b61927c565b619298565b906192b4565b6192c2565b619488565b82906194cc616111565b50818310189118021890565b6194e4620f424061822e565b90565b9091949293619519906194f8616111565b50619501612939565b5061950a612939565b50619513612939565b506151f9565b948161952d61952785610243565b91610243565b1015928561954361953d5f6122b8565b91610922565b125f146196a65761957e61955e6195598861788a565b614395565b6195706195696194d8565b8a90616241565b6195786194d8565b9161628a565b95845f146196925761959582858590600192618fa6565b5b96806195aa6195a48a61028b565b9161028b565b10155f1461962857505095806195cf6195c96195c46194d8565b61028b565b9161028b565b145f146196065750845b925b5f146195f457906195ef9186915f92618ef8565b5b915b565b6196019190865f92618fa6565b6195f0565b61962390869061961d816196186194d8565b616241565b91619830565b6195d9565b9150955061963c919650829087859261a052565b94825f146196755761966f61966861966361965c89868690600192618fa6565b5b9761788a565b614395565b8690616241565b926195db565b61966f61966861966361968d858a8690600192618ef8565b61965d565b6196a184838590600192618ef8565b619596565b83969594935f1461975c576196bf818484905f92618ef8565b5b946196ca81614395565b6196dc6196d68861028b565b9161028b565b10155f1461973657509061971d9291965b5f146197235790619702918791600192618fa6565b5b938490619717816197126194d8565b616241565b91619830565b906195f2565b619731919087600192618ef8565b619703565b61971d939295506197479150614395565b93619756828287908a9261a008565b966196ed565b61976a838284905f92618fa6565b6196c0565b60801c90565b600f0b90565b61978761978c9161976f565b619775565b90565b619799905461977b565b90565b6197fa619809946197e86197df6197cc6197c75f98976004619803986197c061328f565b500161664d565b616663565b956197d9600188016116c1565b90616241565b6001860161175d565b6197f4600285016116c1565b90616241565b6002830161175d565b0161978f565b90565b619814612939565b50038060ff1d9081011890565b600161982d910161028b565b90565b929161983a612939565b506198478483839161628a565b939190918215619898570961986461985e5f611e82565b9161028b565b0361986c575b565b9061987690619821565b906198938261988d6198875f611e82565b9161028b565b11616236565b61986a565b618259565b906198a6612939565b505f8183061191040190565b90565b6198c96198c46198ce926198b2565b6102de565b610784565b90565b6198dd62bfffff6198b5565b90565b6198e8612dc3565b506198f16198d1565b1690565b906198fe61262d565b505f8183071291050390565b5f90565b5f90565b9061991b61990a565b5061992461990e565b5060ff8260081d921690565b90565b61994761994261994c92619930565b6102de565b6143b4565b90565b67ffffffffffffffff1690565b61997061996b6199759261994f565b6102de565b61028b565b90565b63ffffffff1690565b61999561999061999a92619978565b6102de565b61028b565b90565b6199b16199ac6199b692613e3c565b6102de565b6143b4565b90565b6199cd6199c86199d2926143b4565b6102de565b61028b565b90565b6199e96199e46199ee92614d5b565b6102de565b6143b4565b90565b90565b619a08619a03619a0d926199f1565b6102de565b61028b565b90565b619a24619a1f619a2992614db3565b6102de565b6143b4565b90565b619a40619a3b619a4592614ab9565b6102de565b6143b4565b90565b619a5c619a57619a61926104d4565b6102de565b6143b4565b90565b90619a6d61990e565b50619a8a82619a84619a7e5f611e82565b9161028b565b11616236565b619a9460ff619933565b82619aae6fffffffffffffffffffffffffffffffff613c4f565b16619ac1619abb5f611e82565b9161028b565b115f14619d2657619adc90619ad660806143ba565b9061926e565b5b82619aef67ffffffffffffffff61995c565b16619b02619afc5f611e82565b9161028b565b115f14619d0b57619b1d90619b176040617b3a565b9061926e565b5b82619b2c63ffffffff619981565b16619b3f619b395f611e82565b9161028b565b115f14619cf057619b5a90619b546020617a60565b9061926e565b5b82619b6761ffff6180d9565b16619b7a619b745f611e82565b9161028b565b115f14619cd557619b9590619b8f601061999d565b9061926e565b5b82619ba160ff6199b9565b16619bb4619bae5f611e82565b9161028b565b115f14619cba57619bcf90619bc960086199d5565b9061926e565b5b82619bdb600f6199f4565b16619bee619be85f611e82565b9161028b565b115f14619c9f57619c0990619c036004619a10565b9061926e565b5b82619c156003616252565b16619c28619c225f611e82565b9161028b565b115f14619c8557619c4390619c3d6002619a2c565b9061926e565b915b619c4f6001619220565b16619c62619c5c5f611e82565b9161028b565b11619c6a575b565b90619c7f90619c796001619a48565b9061926e565b90619c68565b91619c9a90619c946002619a2c565b906143d6565b619c45565b91619cb490619cae6004619a10565b906143d6565b91619c0a565b91619ccf90619cc960086199d5565b906143d6565b91619bd0565b91619cea90619ce4601061999d565b906143d6565b91619b96565b91619d0590619cff6020617a60565b906143d6565b91619b5b565b91619d2090619d1a6040617b3a565b906143d6565b91619b1e565b91619d3b90619d3560806143ba565b906143d6565b91619add565b90619d4c91016143b4565b90565b90565b619d66619d61619d6b92619d4f565b6102de565b61028b565b90565b90565b619d85619d80619d8a92619d6e565b6102de565b61028b565b90565b90619d9661990e565b91619db381619dad619da75f611e82565b9161028b565b11616236565b80619dd7619dd1700100000000000000000000000000000000613c16565b9161028b565b1015619fda575b80619dfa619df468010000000000000000619d52565b9161028b565b1015619fac575b80619e19619e13640100000000619d71565b9161028b565b1015619f7e575b80619e36619e3062010000616fc0565b9161028b565b1015619f50575b80619e52619e4c610100616ddf565b9161028b565b1015619f22575b80619e6d619e676010616d0f565b9161028b565b1015619ef4575b80619e88619e826004616c99565b9161028b565b1015619ec6575b619ea2619e9c600261626e565b9161028b565b1015619eab575b565b90619ec090619eba6001619a48565b90619d41565b90619ea9565b619edd619eee91619ed76002619a2c565b906143d6565b92619ee86002619a2c565b90619d41565b91619e8f565b619f0b619f1c91619f056004619a10565b906143d6565b92619f166004619a10565b90619d41565b91619e74565b619f39619f4a91619f3360086199d5565b906143d6565b92619f4460086199d5565b90619d41565b91619e59565b619f67619f7891619f61601061999d565b906143d6565b92619f72601061999d565b90619d41565b91619e3d565b619f95619fa691619f8f6020617a60565b906143d6565b92619fa06020617a60565b90619d41565b91619e20565b619fc3619fd491619fbd6040617b3a565b906143d6565b92619fce6040617b3a565b90619d41565b91619e01565b619ff161a00291619feb60806143ba565b906143d6565b92619ffc60806143ba565b90619d41565b91619dde565b9291909161a014616111565b50821584151761a045575f1461a0345761a03092915f9261a20f565b5b90565b61a04092915f9261a0c0565b61a031565b634f2461b85f526004601cfd5b9291909161a05e616111565b50821584151761a091575f1461a07f5761a07b929160019261a0c0565b5b90565b61a08c929160019261a20f565b61a07c565b634f2461b85f526004601cfd5b61a0aa61a0b09161028b565b9161028b565b90811561a0bb570490565b618259565b9061a0c9616111565b508261a0dd61a0d75f611e82565b9161028b565b1461a2085761a0ee61a0fc91613c4f565b61a0f6618f8b565b90617a7c565b925f1461a1af5761a1168261a11083617a44565b90616228565b61a121818490618286565b61a13361a12d84617a44565b9161028b565b1461a16c575b509161a15e61a1649261a15961a1699561a1538591617a44565b9061a09e565b61177d565b9061989d565b613812565b90565b61a1769084613c6b565b8061a18961a1838661028b565b9161028b565b1061a139579061a1a7925061a1a161a1ac9491617a44565b90619830565b613812565b90565b9161a1c38261a1bd85617a44565b90616228565b918383831191840414161561a1fb5761a1f89261a1ed61a1e661a1f39484616241565b9291617a44565b90619830565b61a37a565b90565b63f5c787f15f526004601cfd5b5091505090565b9261a218616111565b505f1461a2b3579161a2858261a28f9461a28a9461a25261a24c73ffffffffffffffffffffffffffffffffffffffff617a44565b9161028b565b11155f1461a2925761a27861a27261a27e9361a26c618f8b565b90617a7c565b91613c4f565b9061a09e565b5b91617a44565b61177d565b61a37a565b90565b61a2ae919061a2a861a2a2618edf565b91613c4f565b9161628a565b61a27f565b8161a2da61a2d473ffffffffffffffffffffffffffffffffffffffff617a44565b9161028b565b11155f1461a33a5761a30061a2fa61a3069361a2f4618f8b565b90617a7c565b91613c4f565b9061989d565b5b908181111561a32d5761a32a9161a32061a32592617a44565b616241565b613812565b90565b634323a5555f526004601cfd5b61a356919061a35061a34a618edf565b91613c4f565b91619830565b61a307565b90565b61a37261a36d61a3779261a35b565b6102de565b61028b565b90565b61a382616111565b508061a3ab61a3a57401000000000000000000000000000000000000000061a35e565b9161028b565b101561a3bd5761a3ba90613812565b90565b61605056fea2646970667358221220cbffaa05dcf0569df8bc5c6c9de04d0037a05954255e3fe4c78047777fabf8e264736f6c634300081a0033","linkReferences":{}},"methodIdentifiers":{"MAX_TICK_SPACING()":"60460f06","MIN_TICK_SPACING()":"07eff0dd","allowance(address,address,uint256)":"598af9e7","approve(address,uint256,uint256)":"426a8493","balanceOf(address,uint256)":"00fdd58e","burn(address,uint256,uint256)":"f5298aca","collectProtocolFees(address,address,uint256)":"8161b874","donate((address,address,uint24,int24,address),uint256,uint256,bytes)":"234266d7","extsload(bytes32)":"1e2eaeaf","extsload(bytes32,uint256)":"35fd631a","extsload(bytes32[])":"dbd035ff","exttload(bytes32)":"f135baaa","exttload(bytes32[])":"9bf6645f","initialize((address,address,uint24,int24,address),uint160,bytes)":"695c5bf5","isOperator(address,address)":"b6363cf2","mint(address,uint256,uint256)":"156e29f6","modifyLiquidity((address,address,uint24,int24,address),(int24,int24,int256,bytes32),bytes)":"5a6bcfda","owner()":"8da5cb5b","protocolFeeController()":"f02de3b2","protocolFeesAccrued(address)":"97e8cd4e","setOperator(address,bool)":"558a7297","setProtocolFee((address,address,uint24,int24,address),uint24)":"7e87ce7d","setProtocolFeeController(address)":"2d771389","settle(address)":"6a256b29","supportsInterface(bytes4)":"01ffc9a7","swap((address,address,uint24,int24,address),(bool,int256,uint160),bytes)":"f3cd914c","sync(address)":"a5841194","take(address,address,uint256)":"0b0d9c09","transfer(address,uint256,uint256)":"095bcdb6","transferFrom(address,address,uint256,uint256)":"fe99049a","transferOwnership(address)":"f2fde38b","unlock(bytes)":"48c89491","updateDynamicLPFee((address,address,uint24,int24,address),uint24)":"52759651"},"id":36}