{
	"compilerInput": "{\"language\":\"Solidity\",\"sources\":{\"src/ERC6909.sol\":{\"content\":\"// SPDX-License-Identifier: GPL-3.0\\npragma solidity >=0.7.0 <0.9.0;\\n\\nimport \\\"@openzeppelin/contracts/token/ERC20/ERC20.sol\\\";\\nimport \\\"@openzeppelin/contracts/token/ERC20/extensions/ERC20Burnable.sol\\\";\\nimport \\\"@openzeppelin/contracts/access/AccessControl.sol\\\";\\n\\n// these can be compiled on remix\\ncontract FluxERC20 is ERC20, ERC20Burnable, AccessControl {\\n    bytes32 public constant MINTER_ROLE = keccak256(\\\"MINTER_ROLE\\\");\\n\\n    uint8 decimals_value;\\n    constructor(\\n        string memory _tokenName, \\n        string memory _tokenSymbol, \\n        address _minter,\\n        uint8 _decimals\\n    ) ERC20 (_tokenName, _tokenSymbol) {\\n        _grantRole(MINTER_ROLE, _minter);\\n        decimals_value = _decimals;\\n    }\\n\\n    // we add mint ability so that we can transfer cosmos > evm\\n    function mint(address to, uint256 amount) public onlyRole(MINTER_ROLE) {\\n        _mint(to, amount);\\n    }\\n\\n    function decimals() override public view returns (uint8) {\\n        return decimals_value;\\n    }\\n}\\n\"},\"@openzeppelin/contracts/access/AccessControl.sol\":{\"content\":\"// SPDX-License-Identifier: MIT\\n// OpenZeppelin Contracts (last updated v5.0.0) (access/AccessControl.sol)\\n\\npragma solidity ^0.8.20;\\n\\nimport {IAccessControl} from \\\"./IAccessControl.sol\\\";\\nimport {Context} from \\\"../utils/Context.sol\\\";\\nimport {ERC165} from \\\"../utils/introspection/ERC165.sol\\\";\\n\\n/**\\n * @dev Contract module that allows children to implement role-based access\\n * control mechanisms. This is a lightweight version that doesn't allow enumerating role\\n * members except through off-chain means by accessing the contract event logs. Some\\n * applications may benefit from on-chain enumerability, for those cases see\\n * {AccessControlEnumerable}.\\n *\\n * Roles are referred to by their `bytes32` identifier. These should be exposed\\n * in the external API and be unique. The best way to achieve this is by\\n * using `public constant` hash digests:\\n *\\n * ```solidity\\n * bytes32 public constant MY_ROLE = keccak256(\\\"MY_ROLE\\\");\\n * ```\\n *\\n * Roles can be used to represent a set of permissions. To restrict access to a\\n * function call, use {hasRole}:\\n *\\n * ```solidity\\n * function foo() public {\\n *     require(hasRole(MY_ROLE, msg.sender));\\n *     ...\\n * }\\n * ```\\n *\\n * Roles can be granted and revoked dynamically via the {grantRole} and\\n * {revokeRole} functions. Each role has an associated admin role, and only\\n * accounts that have a role's admin role can call {grantRole} and {revokeRole}.\\n *\\n * By default, the admin role for all roles is `DEFAULT_ADMIN_ROLE`, which means\\n * that only accounts with this role will be able to grant or revoke other\\n * roles. More complex role relationships can be created by using\\n * {_setRoleAdmin}.\\n *\\n * WARNING: The `DEFAULT_ADMIN_ROLE` is also its own admin: it has permission to\\n * grant and revoke this role. Extra precautions should be taken to secure\\n * accounts that have been granted it. We recommend using {AccessControlDefaultAdminRules}\\n * to enforce additional security measures for this role.\\n */\\nabstract contract AccessControl is Context, IAccessControl, ERC165 {\\n    struct RoleData {\\n        mapping(address account => bool) hasRole;\\n        bytes32 adminRole;\\n    }\\n\\n    mapping(bytes32 role => RoleData) private _roles;\\n\\n    bytes32 public constant DEFAULT_ADMIN_ROLE = 0x00;\\n\\n    /**\\n     * @dev Modifier that checks that an account has a specific role. Reverts\\n     * with an {AccessControlUnauthorizedAccount} error including the required role.\\n     */\\n    modifier onlyRole(bytes32 role) {\\n        _checkRole(role);\\n        _;\\n    }\\n\\n    /**\\n     * @dev See {IERC165-supportsInterface}.\\n     */\\n    function supportsInterface(bytes4 interfaceId) public view virtual override returns (bool) {\\n        return interfaceId == type(IAccessControl).interfaceId || super.supportsInterface(interfaceId);\\n    }\\n\\n    /**\\n     * @dev Returns `true` if `account` has been granted `role`.\\n     */\\n    function hasRole(bytes32 role, address account) public view virtual returns (bool) {\\n        return _roles[role].hasRole[account];\\n    }\\n\\n    /**\\n     * @dev Reverts with an {AccessControlUnauthorizedAccount} error if `_msgSender()`\\n     * is missing `role`. Overriding this function changes the behavior of the {onlyRole} modifier.\\n     */\\n    function _checkRole(bytes32 role) internal view virtual {\\n        _checkRole(role, _msgSender());\\n    }\\n\\n    /**\\n     * @dev Reverts with an {AccessControlUnauthorizedAccount} error if `account`\\n     * is missing `role`.\\n     */\\n    function _checkRole(bytes32 role, address account) internal view virtual {\\n        if (!hasRole(role, account)) {\\n            revert AccessControlUnauthorizedAccount(account, role);\\n        }\\n    }\\n\\n    /**\\n     * @dev Returns the admin role that controls `role`. See {grantRole} and\\n     * {revokeRole}.\\n     *\\n     * To change a role's admin, use {_setRoleAdmin}.\\n     */\\n    function getRoleAdmin(bytes32 role) public view virtual returns (bytes32) {\\n        return _roles[role].adminRole;\\n    }\\n\\n    /**\\n     * @dev Grants `role` to `account`.\\n     *\\n     * If `account` had not been already granted `role`, emits a {RoleGranted}\\n     * event.\\n     *\\n     * Requirements:\\n     *\\n     * - the caller must have ``role``'s admin role.\\n     *\\n     * May emit a {RoleGranted} event.\\n     */\\n    function grantRole(bytes32 role, address account) public virtual onlyRole(getRoleAdmin(role)) {\\n        _grantRole(role, account);\\n    }\\n\\n    /**\\n     * @dev Revokes `role` from `account`.\\n     *\\n     * If `account` had been granted `role`, emits a {RoleRevoked} event.\\n     *\\n     * Requirements:\\n     *\\n     * - the caller must have ``role``'s admin role.\\n     *\\n     * May emit a {RoleRevoked} event.\\n     */\\n    function revokeRole(bytes32 role, address account) public virtual onlyRole(getRoleAdmin(role)) {\\n        _revokeRole(role, account);\\n    }\\n\\n    /**\\n     * @dev Revokes `role` from the calling account.\\n     *\\n     * Roles are often managed via {grantRole} and {revokeRole}: this function's\\n     * purpose is to provide a mechanism for accounts to lose their privileges\\n     * if they are compromised (such as when a trusted device is misplaced).\\n     *\\n     * If the calling account had been revoked `role`, emits a {RoleRevoked}\\n     * event.\\n     *\\n     * Requirements:\\n     *\\n     * - the caller must be `callerConfirmation`.\\n     *\\n     * May emit a {RoleRevoked} event.\\n     */\\n    function renounceRole(bytes32 role, address callerConfirmation) public virtual {\\n        if (callerConfirmation != _msgSender()) {\\n            revert AccessControlBadConfirmation();\\n        }\\n\\n        _revokeRole(role, callerConfirmation);\\n    }\\n\\n    /**\\n     * @dev Sets `adminRole` as ``role``'s admin role.\\n     *\\n     * Emits a {RoleAdminChanged} event.\\n     */\\n    function _setRoleAdmin(bytes32 role, bytes32 adminRole) internal virtual {\\n        bytes32 previousAdminRole = getRoleAdmin(role);\\n        _roles[role].adminRole = adminRole;\\n        emit RoleAdminChanged(role, previousAdminRole, adminRole);\\n    }\\n\\n    /**\\n     * @dev Attempts to grant `role` to `account` and returns a boolean indicating if `role` was granted.\\n     *\\n     * Internal function without access restriction.\\n     *\\n     * May emit a {RoleGranted} event.\\n     */\\n    function _grantRole(bytes32 role, address account) internal virtual returns (bool) {\\n        if (!hasRole(role, account)) {\\n            _roles[role].hasRole[account] = true;\\n            emit RoleGranted(role, account, _msgSender());\\n            return true;\\n        } else {\\n            return false;\\n        }\\n    }\\n\\n    /**\\n     * @dev Attempts to revoke `role` to `account` and returns a boolean indicating if `role` was revoked.\\n     *\\n     * Internal function without access restriction.\\n     *\\n     * May emit a {RoleRevoked} event.\\n     */\\n    function _revokeRole(bytes32 role, address account) internal virtual returns (bool) {\\n        if (hasRole(role, account)) {\\n            _roles[role].hasRole[account] = false;\\n            emit RoleRevoked(role, account, _msgSender());\\n            return true;\\n        } else {\\n            return false;\\n        }\\n    }\\n}\\n\"},\"@openzeppelin/contracts/token/ERC20/extensions/ERC20Burnable.sol\":{\"content\":\"// SPDX-License-Identifier: MIT\\n// OpenZeppelin Contracts (last updated v5.0.0) (token/ERC20/extensions/ERC20Burnable.sol)\\n\\npragma solidity ^0.8.20;\\n\\nimport {ERC20} from \\\"../ERC20.sol\\\";\\nimport {Context} from \\\"../../../utils/Context.sol\\\";\\n\\n/**\\n * @dev Extension of {ERC20} that allows token holders to destroy both their own\\n * tokens and those that they have an allowance for, in a way that can be\\n * recognized off-chain (via event analysis).\\n */\\nabstract contract ERC20Burnable is Context, ERC20 {\\n    /**\\n     * @dev Destroys a `value` amount of tokens from the caller.\\n     *\\n     * See {ERC20-_burn}.\\n     */\\n    function burn(uint256 value) public virtual {\\n        _burn(_msgSender(), value);\\n    }\\n\\n    /**\\n     * @dev Destroys a `value` amount of tokens from `account`, deducting from\\n     * the caller's allowance.\\n     *\\n     * See {ERC20-_burn} and {ERC20-allowance}.\\n     *\\n     * Requirements:\\n     *\\n     * - the caller must have allowance for ``accounts``'s tokens of at least\\n     * `value`.\\n     */\\n    function burnFrom(address account, uint256 value) public virtual {\\n        _spendAllowance(account, _msgSender(), value);\\n        _burn(account, value);\\n    }\\n}\\n\"},\"@openzeppelin/contracts/token/ERC20/ERC20.sol\":{\"content\":\"// SPDX-License-Identifier: MIT\\n// OpenZeppelin Contracts (last updated v5.0.0) (token/ERC20/ERC20.sol)\\n\\npragma solidity ^0.8.20;\\n\\nimport {IERC20} from \\\"./IERC20.sol\\\";\\nimport {IERC20Metadata} from \\\"./extensions/IERC20Metadata.sol\\\";\\nimport {Context} from \\\"../../utils/Context.sol\\\";\\nimport {IERC20Errors} from \\\"../../interfaces/draft-IERC6093.sol\\\";\\n\\n/**\\n * @dev Implementation of the {IERC20} interface.\\n *\\n * This implementation is agnostic to the way tokens are created. This means\\n * that a supply mechanism has to be added in a derived contract using {_mint}.\\n *\\n * TIP: For a detailed writeup see our guide\\n * https://forum.openzeppelin.com/t/how-to-implement-erc20-supply-mechanisms/226[How\\n * to implement supply mechanisms].\\n *\\n * The default value of {decimals} is 18. To change this, you should override\\n * this function so it returns a different value.\\n *\\n * We have followed general OpenZeppelin Contracts guidelines: functions revert\\n * instead returning `false` on failure. This behavior is nonetheless\\n * conventional and does not conflict with the expectations of ERC20\\n * applications.\\n *\\n * Additionally, an {Approval} event is emitted on calls to {transferFrom}.\\n * This allows applications to reconstruct the allowance for all accounts just\\n * by listening to said events. Other implementations of the EIP may not emit\\n * these events, as it isn't required by the specification.\\n */\\nabstract contract ERC20 is Context, IERC20, IERC20Metadata, IERC20Errors {\\n    mapping(address account => uint256) private _balances;\\n\\n    mapping(address account => mapping(address spender => uint256)) private _allowances;\\n\\n    uint256 private _totalSupply;\\n\\n    string private _name;\\n    string private _symbol;\\n\\n    /**\\n     * @dev Sets the values for {name} and {symbol}.\\n     *\\n     * All two of these values are immutable: they can only be set once during\\n     * construction.\\n     */\\n    constructor(string memory name_, string memory symbol_) {\\n        _name = name_;\\n        _symbol = symbol_;\\n    }\\n\\n    /**\\n     * @dev Returns the name of the token.\\n     */\\n    function name() public view virtual returns (string memory) {\\n        return _name;\\n    }\\n\\n    /**\\n     * @dev Returns the symbol of the token, usually a shorter version of the\\n     * name.\\n     */\\n    function symbol() public view virtual returns (string memory) {\\n        return _symbol;\\n    }\\n\\n    /**\\n     * @dev Returns the number of decimals used to get its user representation.\\n     * For example, if `decimals` equals `2`, a balance of `505` tokens should\\n     * be displayed to a user as `5.05` (`505 / 10 ** 2`).\\n     *\\n     * Tokens usually opt for a value of 18, imitating the relationship between\\n     * Ether and Wei. This is the default value returned by this function, unless\\n     * it's overridden.\\n     *\\n     * NOTE: This information is only used for _display_ purposes: it in\\n     * no way affects any of the arithmetic of the contract, including\\n     * {IERC20-balanceOf} and {IERC20-transfer}.\\n     */\\n    function decimals() public view virtual returns (uint8) {\\n        return 18;\\n    }\\n\\n    /**\\n     * @dev See {IERC20-totalSupply}.\\n     */\\n    function totalSupply() public view virtual returns (uint256) {\\n        return _totalSupply;\\n    }\\n\\n    /**\\n     * @dev See {IERC20-balanceOf}.\\n     */\\n    function balanceOf(address account) public view virtual returns (uint256) {\\n        return _balances[account];\\n    }\\n\\n    /**\\n     * @dev See {IERC20-transfer}.\\n     *\\n     * Requirements:\\n     *\\n     * - `to` cannot be the zero address.\\n     * - the caller must have a balance of at least `value`.\\n     */\\n    function transfer(address to, uint256 value) public virtual returns (bool) {\\n        address owner = _msgSender();\\n        _transfer(owner, to, value);\\n        return true;\\n    }\\n\\n    /**\\n     * @dev See {IERC20-allowance}.\\n     */\\n    function allowance(address owner, address spender) public view virtual returns (uint256) {\\n        return _allowances[owner][spender];\\n    }\\n\\n    /**\\n     * @dev See {IERC20-approve}.\\n     *\\n     * NOTE: If `value` is the maximum `uint256`, the allowance is not updated on\\n     * `transferFrom`. This is semantically equivalent to an infinite approval.\\n     *\\n     * Requirements:\\n     *\\n     * - `spender` cannot be the zero address.\\n     */\\n    function approve(address spender, uint256 value) public virtual returns (bool) {\\n        address owner = _msgSender();\\n        _approve(owner, spender, value);\\n        return true;\\n    }\\n\\n    /**\\n     * @dev See {IERC20-transferFrom}.\\n     *\\n     * Emits an {Approval} event indicating the updated allowance. This is not\\n     * required by the EIP. See the note at the beginning of {ERC20}.\\n     *\\n     * NOTE: Does not update the allowance if the current allowance\\n     * is the maximum `uint256`.\\n     *\\n     * Requirements:\\n     *\\n     * - `from` and `to` cannot be the zero address.\\n     * - `from` must have a balance of at least `value`.\\n     * - the caller must have allowance for ``from``'s tokens of at least\\n     * `value`.\\n     */\\n    function transferFrom(address from, address to, uint256 value) public virtual returns (bool) {\\n        address spender = _msgSender();\\n        _spendAllowance(from, spender, value);\\n        _transfer(from, to, value);\\n        return true;\\n    }\\n\\n    /**\\n     * @dev Moves a `value` amount of tokens from `from` to `to`.\\n     *\\n     * This internal function is equivalent to {transfer}, and can be used to\\n     * e.g. implement automatic token fees, slashing mechanisms, etc.\\n     *\\n     * Emits a {Transfer} event.\\n     *\\n     * NOTE: This function is not virtual, {_update} should be overridden instead.\\n     */\\n    function _transfer(address from, address to, uint256 value) internal {\\n        if (from == address(0)) {\\n            revert ERC20InvalidSender(address(0));\\n        }\\n        if (to == address(0)) {\\n            revert ERC20InvalidReceiver(address(0));\\n        }\\n        _update(from, to, value);\\n    }\\n\\n    /**\\n     * @dev Transfers a `value` amount of tokens from `from` to `to`, or alternatively mints (or burns) if `from`\\n     * (or `to`) is the zero address. All customizations to transfers, mints, and burns should be done by overriding\\n     * this function.\\n     *\\n     * Emits a {Transfer} event.\\n     */\\n    function _update(address from, address to, uint256 value) internal virtual {\\n        if (from == address(0)) {\\n            // Overflow check required: The rest of the code assumes that totalSupply never overflows\\n            _totalSupply += value;\\n        } else {\\n            uint256 fromBalance = _balances[from];\\n            if (fromBalance < value) {\\n                revert ERC20InsufficientBalance(from, fromBalance, value);\\n            }\\n            unchecked {\\n                // Overflow not possible: value <= fromBalance <= totalSupply.\\n                _balances[from] = fromBalance - value;\\n            }\\n        }\\n\\n        if (to == address(0)) {\\n            unchecked {\\n                // Overflow not possible: value <= totalSupply or value <= fromBalance <= totalSupply.\\n                _totalSupply -= value;\\n            }\\n        } else {\\n            unchecked {\\n                // Overflow not possible: balance + value is at most totalSupply, which we know fits into a uint256.\\n                _balances[to] += value;\\n            }\\n        }\\n\\n        emit Transfer(from, to, value);\\n    }\\n\\n    /**\\n     * @dev Creates a `value` amount of tokens and assigns them to `account`, by transferring it from address(0).\\n     * Relies on the `_update` mechanism\\n     *\\n     * Emits a {Transfer} event with `from` set to the zero address.\\n     *\\n     * NOTE: This function is not virtual, {_update} should be overridden instead.\\n     */\\n    function _mint(address account, uint256 value) internal {\\n        if (account == address(0)) {\\n            revert ERC20InvalidReceiver(address(0));\\n        }\\n        _update(address(0), account, value);\\n    }\\n\\n    /**\\n     * @dev Destroys a `value` amount of tokens from `account`, lowering the total supply.\\n     * Relies on the `_update` mechanism.\\n     *\\n     * Emits a {Transfer} event with `to` set to the zero address.\\n     *\\n     * NOTE: This function is not virtual, {_update} should be overridden instead\\n     */\\n    function _burn(address account, uint256 value) internal {\\n        if (account == address(0)) {\\n            revert ERC20InvalidSender(address(0));\\n        }\\n        _update(account, address(0), value);\\n    }\\n\\n    /**\\n     * @dev Sets `value` as the allowance of `spender` over the `owner` s tokens.\\n     *\\n     * This internal function is equivalent to `approve`, and can be used to\\n     * e.g. set automatic allowances for certain subsystems, etc.\\n     *\\n     * Emits an {Approval} event.\\n     *\\n     * Requirements:\\n     *\\n     * - `owner` cannot be the zero address.\\n     * - `spender` cannot be the zero address.\\n     *\\n     * Overrides to this logic should be done to the variant with an additional `bool emitEvent` argument.\\n     */\\n    function _approve(address owner, address spender, uint256 value) internal {\\n        _approve(owner, spender, value, true);\\n    }\\n\\n    /**\\n     * @dev Variant of {_approve} with an optional flag to enable or disable the {Approval} event.\\n     *\\n     * By default (when calling {_approve}) the flag is set to true. On the other hand, approval changes made by\\n     * `_spendAllowance` during the `transferFrom` operation set the flag to false. This saves gas by not emitting any\\n     * `Approval` event during `transferFrom` operations.\\n     *\\n     * Anyone who wishes to continue emitting `Approval` events on the`transferFrom` operation can force the flag to\\n     * true using the following override:\\n     * ```\\n     * function _approve(address owner, address spender, uint256 value, bool) internal virtual override {\\n     *     super._approve(owner, spender, value, true);\\n     * }\\n     * ```\\n     *\\n     * Requirements are the same as {_approve}.\\n     */\\n    function _approve(address owner, address spender, uint256 value, bool emitEvent) internal virtual {\\n        if (owner == address(0)) {\\n            revert ERC20InvalidApprover(address(0));\\n        }\\n        if (spender == address(0)) {\\n            revert ERC20InvalidSpender(address(0));\\n        }\\n        _allowances[owner][spender] = value;\\n        if (emitEvent) {\\n            emit Approval(owner, spender, value);\\n        }\\n    }\\n\\n    /**\\n     * @dev Updates `owner` s allowance for `spender` based on spent `value`.\\n     *\\n     * Does not update the allowance value in case of infinite allowance.\\n     * Revert if not enough allowance is available.\\n     *\\n     * Does not emit an {Approval} event.\\n     */\\n    function _spendAllowance(address owner, address spender, uint256 value) internal virtual {\\n        uint256 currentAllowance = allowance(owner, spender);\\n        if (currentAllowance != type(uint256).max) {\\n            if (currentAllowance < value) {\\n                revert ERC20InsufficientAllowance(spender, currentAllowance, value);\\n            }\\n            unchecked {\\n                _approve(owner, spender, currentAllowance - value, false);\\n            }\\n        }\\n    }\\n}\\n\"},\"@openzeppelin/contracts/utils/Context.sol\":{\"content\":\"// SPDX-License-Identifier: MIT\\n// OpenZeppelin Contracts (last updated v5.0.1) (utils/Context.sol)\\n\\npragma solidity ^0.8.20;\\n\\n/**\\n * @dev Provides information about the current execution context, including the\\n * sender of the transaction and its data. While these are generally available\\n * via msg.sender and msg.data, they should not be accessed in such a direct\\n * manner, since when dealing with meta-transactions the account sending and\\n * paying for execution may not be the actual sender (as far as an application\\n * is concerned).\\n *\\n * This contract is only required for intermediate, library-like contracts.\\n */\\nabstract contract Context {\\n    function _msgSender() internal view virtual returns (address) {\\n        return msg.sender;\\n    }\\n\\n    function _msgData() internal view virtual returns (bytes calldata) {\\n        return msg.data;\\n    }\\n\\n    function _contextSuffixLength() internal view virtual returns (uint256) {\\n        return 0;\\n    }\\n}\\n\"},\"@openzeppelin/contracts/interfaces/draft-IERC6093.sol\":{\"content\":\"// SPDX-License-Identifier: MIT\\n// OpenZeppelin Contracts (last updated v5.0.0) (interfaces/draft-IERC6093.sol)\\npragma solidity ^0.8.20;\\n\\n/**\\n * @dev Standard ERC20 Errors\\n * Interface of the https://eips.ethereum.org/EIPS/eip-6093[ERC-6093] custom errors for ERC20 tokens.\\n */\\ninterface IERC20Errors {\\n    /**\\n     * @dev Indicates an error related to the current `balance` of a `sender`. Used in transfers.\\n     * @param sender Address whose tokens are being transferred.\\n     * @param balance Current balance for the interacting account.\\n     * @param needed Minimum amount required to perform a transfer.\\n     */\\n    error ERC20InsufficientBalance(address sender, uint256 balance, uint256 needed);\\n\\n    /**\\n     * @dev Indicates a failure with the token `sender`. Used in transfers.\\n     * @param sender Address whose tokens are being transferred.\\n     */\\n    error ERC20InvalidSender(address sender);\\n\\n    /**\\n     * @dev Indicates a failure with the token `receiver`. Used in transfers.\\n     * @param receiver Address to which tokens are being transferred.\\n     */\\n    error ERC20InvalidReceiver(address receiver);\\n\\n    /**\\n     * @dev Indicates a failure with the `spender`’s `allowance`. Used in transfers.\\n     * @param spender Address that may be allowed to operate on tokens without being their owner.\\n     * @param allowance Amount of tokens a `spender` is allowed to operate with.\\n     * @param needed Minimum amount required to perform a transfer.\\n     */\\n    error ERC20InsufficientAllowance(address spender, uint256 allowance, uint256 needed);\\n\\n    /**\\n     * @dev Indicates a failure with the `approver` of a token to be approved. Used in approvals.\\n     * @param approver Address initiating an approval operation.\\n     */\\n    error ERC20InvalidApprover(address approver);\\n\\n    /**\\n     * @dev Indicates a failure with the `spender` to be approved. Used in approvals.\\n     * @param spender Address that may be allowed to operate on tokens without being their owner.\\n     */\\n    error ERC20InvalidSpender(address spender);\\n}\\n\\n/**\\n * @dev Standard ERC721 Errors\\n * Interface of the https://eips.ethereum.org/EIPS/eip-6093[ERC-6093] custom errors for ERC721 tokens.\\n */\\ninterface IERC721Errors {\\n    /**\\n     * @dev Indicates that an address can't be an owner. For example, `address(0)` is a forbidden owner in EIP-20.\\n     * Used in balance queries.\\n     * @param owner Address of the current owner of a token.\\n     */\\n    error ERC721InvalidOwner(address owner);\\n\\n    /**\\n     * @dev Indicates a `tokenId` whose `owner` is the zero address.\\n     * @param tokenId Identifier number of a token.\\n     */\\n    error ERC721NonexistentToken(uint256 tokenId);\\n\\n    /**\\n     * @dev Indicates an error related to the ownership over a particular token. Used in transfers.\\n     * @param sender Address whose tokens are being transferred.\\n     * @param tokenId Identifier number of a token.\\n     * @param owner Address of the current owner of a token.\\n     */\\n    error ERC721IncorrectOwner(address sender, uint256 tokenId, address owner);\\n\\n    /**\\n     * @dev Indicates a failure with the token `sender`. Used in transfers.\\n     * @param sender Address whose tokens are being transferred.\\n     */\\n    error ERC721InvalidSender(address sender);\\n\\n    /**\\n     * @dev Indicates a failure with the token `receiver`. Used in transfers.\\n     * @param receiver Address to which tokens are being transferred.\\n     */\\n    error ERC721InvalidReceiver(address receiver);\\n\\n    /**\\n     * @dev Indicates a failure with the `operator`’s approval. Used in transfers.\\n     * @param operator Address that may be allowed to operate on tokens without being their owner.\\n     * @param tokenId Identifier number of a token.\\n     */\\n    error ERC721InsufficientApproval(address operator, uint256 tokenId);\\n\\n    /**\\n     * @dev Indicates a failure with the `approver` of a token to be approved. Used in approvals.\\n     * @param approver Address initiating an approval operation.\\n     */\\n    error ERC721InvalidApprover(address approver);\\n\\n    /**\\n     * @dev Indicates a failure with the `operator` to be approved. Used in approvals.\\n     * @param operator Address that may be allowed to operate on tokens without being their owner.\\n     */\\n    error ERC721InvalidOperator(address operator);\\n}\\n\\n/**\\n * @dev Standard ERC1155 Errors\\n * Interface of the https://eips.ethereum.org/EIPS/eip-6093[ERC-6093] custom errors for ERC1155 tokens.\\n */\\ninterface IERC1155Errors {\\n    /**\\n     * @dev Indicates an error related to the current `balance` of a `sender`. Used in transfers.\\n     * @param sender Address whose tokens are being transferred.\\n     * @param balance Current balance for the interacting account.\\n     * @param needed Minimum amount required to perform a transfer.\\n     * @param tokenId Identifier number of a token.\\n     */\\n    error ERC1155InsufficientBalance(address sender, uint256 balance, uint256 needed, uint256 tokenId);\\n\\n    /**\\n     * @dev Indicates a failure with the token `sender`. Used in transfers.\\n     * @param sender Address whose tokens are being transferred.\\n     */\\n    error ERC1155InvalidSender(address sender);\\n\\n    /**\\n     * @dev Indicates a failure with the token `receiver`. Used in transfers.\\n     * @param receiver Address to which tokens are being transferred.\\n     */\\n    error ERC1155InvalidReceiver(address receiver);\\n\\n    /**\\n     * @dev Indicates a failure with the `operator`’s approval. Used in transfers.\\n     * @param operator Address that may be allowed to operate on tokens without being their owner.\\n     * @param owner Address of the current owner of a token.\\n     */\\n    error ERC1155MissingApprovalForAll(address operator, address owner);\\n\\n    /**\\n     * @dev Indicates a failure with the `approver` of a token to be approved. Used in approvals.\\n     * @param approver Address initiating an approval operation.\\n     */\\n    error ERC1155InvalidApprover(address approver);\\n\\n    /**\\n     * @dev Indicates a failure with the `operator` to be approved. Used in approvals.\\n     * @param operator Address that may be allowed to operate on tokens without being their owner.\\n     */\\n    error ERC1155InvalidOperator(address operator);\\n\\n    /**\\n     * @dev Indicates an array length mismatch between ids and values in a safeBatchTransferFrom operation.\\n     * Used in batch transfers.\\n     * @param idsLength Length of the array of token identifiers\\n     * @param valuesLength Length of the array of token amounts\\n     */\\n    error ERC1155InvalidArrayLength(uint256 idsLength, uint256 valuesLength);\\n}\\n\"},\"@openzeppelin/contracts/token/ERC20/extensions/IERC20Metadata.sol\":{\"content\":\"// SPDX-License-Identifier: MIT\\n// OpenZeppelin Contracts (last updated v5.0.0) (token/ERC20/extensions/IERC20Metadata.sol)\\n\\npragma solidity ^0.8.20;\\n\\nimport {IERC20} from \\\"../IERC20.sol\\\";\\n\\n/**\\n * @dev Interface for the optional metadata functions from the ERC20 standard.\\n */\\ninterface IERC20Metadata is IERC20 {\\n    /**\\n     * @dev Returns the name of the token.\\n     */\\n    function name() external view returns (string memory);\\n\\n    /**\\n     * @dev Returns the symbol of the token.\\n     */\\n    function symbol() external view returns (string memory);\\n\\n    /**\\n     * @dev Returns the decimals places of the token.\\n     */\\n    function decimals() external view returns (uint8);\\n}\\n\"},\"@openzeppelin/contracts/token/ERC20/IERC20.sol\":{\"content\":\"// SPDX-License-Identifier: MIT\\n// OpenZeppelin Contracts (last updated v5.0.0) (token/ERC20/IERC20.sol)\\n\\npragma solidity ^0.8.20;\\n\\n/**\\n * @dev Interface of the ERC20 standard as defined in the EIP.\\n */\\ninterface IERC20 {\\n    /**\\n     * @dev Emitted when `value` tokens are moved from one account (`from`) to\\n     * another (`to`).\\n     *\\n     * Note that `value` may be zero.\\n     */\\n    event Transfer(address indexed from, address indexed to, uint256 value);\\n\\n    /**\\n     * @dev Emitted when the allowance of a `spender` for an `owner` is set by\\n     * a call to {approve}. `value` is the new allowance.\\n     */\\n    event Approval(address indexed owner, address indexed spender, uint256 value);\\n\\n    /**\\n     * @dev Returns the value of tokens in existence.\\n     */\\n    function totalSupply() external view returns (uint256);\\n\\n    /**\\n     * @dev Returns the value of tokens owned by `account`.\\n     */\\n    function balanceOf(address account) external view returns (uint256);\\n\\n    /**\\n     * @dev Moves a `value` amount of tokens from the caller's account to `to`.\\n     *\\n     * Returns a boolean value indicating whether the operation succeeded.\\n     *\\n     * Emits a {Transfer} event.\\n     */\\n    function transfer(address to, uint256 value) external returns (bool);\\n\\n    /**\\n     * @dev Returns the remaining number of tokens that `spender` will be\\n     * allowed to spend on behalf of `owner` through {transferFrom}. This is\\n     * zero by default.\\n     *\\n     * This value changes when {approve} or {transferFrom} are called.\\n     */\\n    function allowance(address owner, address spender) external view returns (uint256);\\n\\n    /**\\n     * @dev Sets a `value` amount of tokens as the allowance of `spender` over the\\n     * caller's tokens.\\n     *\\n     * Returns a boolean value indicating whether the operation succeeded.\\n     *\\n     * IMPORTANT: Beware that changing an allowance with this method brings the risk\\n     * that someone may use both the old and the new allowance by unfortunate\\n     * transaction ordering. One possible solution to mitigate this race\\n     * condition is to first reduce the spender's allowance to 0 and set the\\n     * desired value afterwards:\\n     * https://github.com/ethereum/EIPs/issues/20#issuecomment-263524729\\n     *\\n     * Emits an {Approval} event.\\n     */\\n    function approve(address spender, uint256 value) external returns (bool);\\n\\n    /**\\n     * @dev Moves a `value` amount of tokens from `from` to `to` using the\\n     * allowance mechanism. `value` is then deducted from the caller's\\n     * allowance.\\n     *\\n     * Returns a boolean value indicating whether the operation succeeded.\\n     *\\n     * Emits a {Transfer} event.\\n     */\\n    function transferFrom(address from, address to, uint256 value) external returns (bool);\\n}\\n\"},\"@openzeppelin/contracts/utils/introspection/ERC165.sol\":{\"content\":\"// SPDX-License-Identifier: MIT\\n// OpenZeppelin Contracts (last updated v5.0.0) (utils/introspection/ERC165.sol)\\n\\npragma solidity ^0.8.20;\\n\\nimport {IERC165} from \\\"./IERC165.sol\\\";\\n\\n/**\\n * @dev Implementation of the {IERC165} interface.\\n *\\n * Contracts that want to implement ERC165 should inherit from this contract and override {supportsInterface} to check\\n * for the additional interface id that will be supported. For example:\\n *\\n * ```solidity\\n * function supportsInterface(bytes4 interfaceId) public view virtual override returns (bool) {\\n *     return interfaceId == type(MyInterface).interfaceId || super.supportsInterface(interfaceId);\\n * }\\n * ```\\n */\\nabstract contract ERC165 is IERC165 {\\n    /**\\n     * @dev See {IERC165-supportsInterface}.\\n     */\\n    function supportsInterface(bytes4 interfaceId) public view virtual returns (bool) {\\n        return interfaceId == type(IERC165).interfaceId;\\n    }\\n}\\n\"},\"@openzeppelin/contracts/access/IAccessControl.sol\":{\"content\":\"// SPDX-License-Identifier: MIT\\n// OpenZeppelin Contracts (last updated v5.0.0) (access/IAccessControl.sol)\\n\\npragma solidity ^0.8.20;\\n\\n/**\\n * @dev External interface of AccessControl declared to support ERC165 detection.\\n */\\ninterface IAccessControl {\\n    /**\\n     * @dev The `account` is missing a role.\\n     */\\n    error AccessControlUnauthorizedAccount(address account, bytes32 neededRole);\\n\\n    /**\\n     * @dev The caller of a function is not the expected one.\\n     *\\n     * NOTE: Don't confuse with {AccessControlUnauthorizedAccount}.\\n     */\\n    error AccessControlBadConfirmation();\\n\\n    /**\\n     * @dev Emitted when `newAdminRole` is set as ``role``'s admin role, replacing `previousAdminRole`\\n     *\\n     * `DEFAULT_ADMIN_ROLE` is the starting admin for all roles, despite\\n     * {RoleAdminChanged} not being emitted signaling this.\\n     */\\n    event RoleAdminChanged(bytes32 indexed role, bytes32 indexed previousAdminRole, bytes32 indexed newAdminRole);\\n\\n    /**\\n     * @dev Emitted when `account` is granted `role`.\\n     *\\n     * `sender` is the account that originated the contract call, an admin role\\n     * bearer except when using {AccessControl-_setupRole}.\\n     */\\n    event RoleGranted(bytes32 indexed role, address indexed account, address indexed sender);\\n\\n    /**\\n     * @dev Emitted when `account` is revoked `role`.\\n     *\\n     * `sender` is the account that originated the contract call:\\n     *   - if using `revokeRole`, it is the admin role bearer\\n     *   - if using `renounceRole`, it is the role bearer (i.e. `account`)\\n     */\\n    event RoleRevoked(bytes32 indexed role, address indexed account, address indexed sender);\\n\\n    /**\\n     * @dev Returns `true` if `account` has been granted `role`.\\n     */\\n    function hasRole(bytes32 role, address account) external view returns (bool);\\n\\n    /**\\n     * @dev Returns the admin role that controls `role`. See {grantRole} and\\n     * {revokeRole}.\\n     *\\n     * To change a role's admin, use {AccessControl-_setRoleAdmin}.\\n     */\\n    function getRoleAdmin(bytes32 role) external view returns (bytes32);\\n\\n    /**\\n     * @dev Grants `role` to `account`.\\n     *\\n     * If `account` had not been already granted `role`, emits a {RoleGranted}\\n     * event.\\n     *\\n     * Requirements:\\n     *\\n     * - the caller must have ``role``'s admin role.\\n     */\\n    function grantRole(bytes32 role, address account) external;\\n\\n    /**\\n     * @dev Revokes `role` from `account`.\\n     *\\n     * If `account` had been granted `role`, emits a {RoleRevoked} event.\\n     *\\n     * Requirements:\\n     *\\n     * - the caller must have ``role``'s admin role.\\n     */\\n    function revokeRole(bytes32 role, address account) external;\\n\\n    /**\\n     * @dev Revokes `role` from the calling account.\\n     *\\n     * Roles are often managed via {grantRole} and {revokeRole}: this function's\\n     * purpose is to provide a mechanism for accounts to lose their privileges\\n     * if they are compromised (such as when a trusted device is misplaced).\\n     *\\n     * If the calling account had been granted `role`, emits a {RoleRevoked}\\n     * event.\\n     *\\n     * Requirements:\\n     *\\n     * - the caller must be `callerConfirmation`.\\n     */\\n    function renounceRole(bytes32 role, address callerConfirmation) external;\\n}\\n\"},\"@openzeppelin/contracts/utils/introspection/IERC165.sol\":{\"content\":\"// SPDX-License-Identifier: MIT\\n// OpenZeppelin Contracts (last updated v5.0.0) (utils/introspection/IERC165.sol)\\n\\npragma solidity ^0.8.20;\\n\\n/**\\n * @dev Interface of the ERC165 standard, as defined in the\\n * https://eips.ethereum.org/EIPS/eip-165[EIP].\\n *\\n * Implementers can declare support of contract interfaces, which can then be\\n * queried by others ({ERC165Checker}).\\n *\\n * For an implementation, see {ERC165}.\\n */\\ninterface IERC165 {\\n    /**\\n     * @dev Returns true if this contract implements the interface defined by\\n     * `interfaceId`. See the corresponding\\n     * https://eips.ethereum.org/EIPS/eip-165#how-interfaces-are-identified[EIP section]\\n     * to learn more about how these ids are created.\\n     *\\n     * This function call must use less than 30 000 gas.\\n     */\\n    function supportsInterface(bytes4 interfaceId) external view returns (bool);\\n}\\n\"}},\"settings\":{\"optimizer\":{\"enabled\":false,\"runs\":200},\"outputSelection\":{\"*\":{\"\":[\"ast\"],\"*\":[\"abi\",\"metadata\",\"devdoc\",\"userdoc\",\"storageLayout\",\"evm.legacyAssembly\",\"evm.bytecode\",\"evm.deployedBytecode\",\"evm.methodIdentifiers\",\"evm.gasEstimates\",\"evm.assembly\"]}},\"remappings\":[]}}",
	"name": "FluxERC20",
	"bytecode": {
		"linkReferences": {},
		"object": "608060405234801561000f575f80fd5b50604051611eed380380611eed833981810160405281019061003191906103e7565b838381600390816100429190610690565b5080600490816100529190610690565b5050506100857f9f2df0fed2c77648de5860a4cc508cd0818c85b8b8a1ab4ceeef8d981c8956a6836100a960201b60201c565b508060065f6101000a81548160ff021916908360ff1602179055505050505061075f565b5f6100ba838361019f60201b60201c565b61019557600160055f8581526020019081526020015f205f015f8473ffffffffffffffffffffffffffffffffffffffff1673ffffffffffffffffffffffffffffffffffffffff1681526020019081526020015f205f6101000a81548160ff02191690831515021790555061013261020360201b60201c565b73ffffffffffffffffffffffffffffffffffffffff168273ffffffffffffffffffffffffffffffffffffffff16847f2f8788117e7eff1d82e926ec794901d17c78024a50270940304540a733656f0d60405160405180910390a460019050610199565b5f90505b92915050565b5f60055f8481526020019081526020015f205f015f8373ffffffffffffffffffffffffffffffffffffffff1673ffffffffffffffffffffffffffffffffffffffff1681526020019081526020015f205f9054906101000a900460ff16905092915050565b5f33905090565b5f604051905090565b5f80fd5b5f80fd5b5f80fd5b5f80fd5b5f601f19601f8301169050919050565b7f4e487b71000000000000000000000000000000000000000000000000000000005f52604160045260245ffd5b61026982610223565b810181811067ffffffffffffffff8211171561028857610287610233565b5b80604052505050565b5f61029a61020a565b90506102a68282610260565b919050565b5f67ffffffffffffffff8211156102c5576102c4610233565b5b6102ce82610223565b9050602081019050919050565b8281835e5f83830152505050565b5f6102fb6102f6846102ab565b610291565b9050828152602081018484840111156103175761031661021f565b5b6103228482856102db565b509392505050565b5f82601f83011261033e5761033d61021b565b5b815161034e8482602086016102e9565b91505092915050565b5f73ffffffffffffffffffffffffffffffffffffffff82169050919050565b5f61038082610357565b9050919050565b61039081610376565b811461039a575f80fd5b50565b5f815190506103ab81610387565b92915050565b5f60ff82169050919050565b6103c6816103b1565b81146103d0575f80fd5b50565b5f815190506103e1816103bd565b92915050565b5f805f80608085870312156103ff576103fe610213565b5b5f85015167ffffffffffffffff81111561041c5761041b610217565b5b6104288782880161032a565b945050602085015167ffffffffffffffff81111561044957610448610217565b5b6104558782880161032a565b93505060406104668782880161039d565b9250506060610477878288016103d3565b91505092959194509250565b5f81519050919050565b7f4e487b71000000000000000000000000000000000000000000000000000000005f52602260045260245ffd5b5f60028204905060018216806104d157607f821691505b6020821081036104e4576104e361048d565b5b50919050565b5f819050815f5260205f209050919050565b5f6020601f8301049050919050565b5f82821b905092915050565b5f600883026105467fffffffffffffffffffffffffffffffffffffffffffffffffffffffffffffffff8261050b565b610550868361050b565b95508019841693508086168417925050509392505050565b5f819050919050565b5f819050919050565b5f61059461058f61058a84610568565b610571565b610568565b9050919050565b5f819050919050565b6105ad8361057a565b6105c16105b98261059b565b848454610517565b825550505050565b5f90565b6105d56105c9565b6105e08184846105a4565b505050565b5b81811015610603576105f85f826105cd565b6001810190506105e6565b5050565b601f82111561064857610619816104ea565b610622846104fc565b81016020851015610631578190505b61064561063d856104fc565b8301826105e5565b50505b505050565b5f82821c905092915050565b5f6106685f198460080261064d565b1980831691505092915050565b5f6106808383610659565b9150826002028217905092915050565b61069982610483565b67ffffffffffffffff8111156106b2576106b1610233565b5b6106bc82546104ba565b6106c7828285610607565b5f60209050601f8311600181146106f8575f84156106e6578287015190505b6106f08582610675565b865550610757565b601f198416610706866104ea565b5f5b8281101561072d57848901518255600182019150602085019450602081019050610708565b8683101561074a5784890151610746601f891682610659565b8355505b6001600288020188555050505b505050505050565b6117818061076c5f395ff3fe608060405234801561000f575f80fd5b506004361061012a575f3560e01c806342966c68116100ab578063a217fddf1161006f578063a217fddf14610352578063a9059cbb14610370578063d5391393146103a0578063d547741f146103be578063dd62ed3e146103da5761012a565b806342966c681461029c57806370a08231146102b857806379cc6790146102e857806391d148541461030457806395d89b41146103345761012a565b8063248a9ca3116100f2578063248a9ca3146101fa5780632f2ff15d1461022a578063313ce5671461024657806336568abe1461026457806340c10f19146102805761012a565b806301ffc9a71461012e57806306fdde031461015e578063095ea7b31461017c57806318160ddd146101ac57806323b872dd146101ca575b5f80fd5b6101486004803603810190610143919061124d565b61040a565b6040516101559190611292565b60405180910390f35b610166610483565b604051610173919061131b565b60405180910390f35b610196600480360381019061019191906113c8565b610513565b6040516101a39190611292565b60405180910390f35b6101b4610535565b6040516101c19190611415565b60405180910390f35b6101e460048036038101906101df919061142e565b61053e565b6040516101f19190611292565b60405180910390f35b610214600480360381019061020f91906114b1565b61056c565b60405161022191906114eb565b60405180910390f35b610244600480360381019061023f9190611504565b610589565b005b61024e6105ab565b60405161025b919061155d565b60405180910390f35b61027e60048036038101906102799190611504565b6105c0565b005b61029a600480360381019061029591906113c8565b61063b565b005b6102b660048036038101906102b19190611576565b610674565b005b6102d260048036038101906102cd91906115a1565b610688565b6040516102df9190611415565b60405180910390f35b61030260048036038101906102fd91906113c8565b6106cd565b005b61031e60048036038101906103199190611504565b6106ed565b60405161032b9190611292565b60405180910390f35b61033c610751565b604051610349919061131b565b60405180910390f35b61035a6107e1565b60405161036791906114eb565b60405180910390f35b61038a600480360381019061038591906113c8565b6107e7565b6040516103979190611292565b60405180910390f35b6103a8610809565b6040516103b591906114eb565b60405180910390f35b6103d860048036038101906103d39190611504565b61082d565b005b6103f460048036038101906103ef91906115cc565b61084f565b6040516104019190611415565b60405180910390f35b5f7f7965db0b000000000000000000000000000000000000000000000000000000007bffffffffffffffffffffffffffffffffffffffffffffffffffffffff1916827bffffffffffffffffffffffffffffffffffffffffffffffffffffffff1916148061047c575061047b826108d1565b5b9050919050565b60606003805461049290611637565b80601f01602080910402602001604051908101604052809291908181526020018280546104be90611637565b80156105095780601f106104e057610100808354040283529160200191610509565b820191905f5260205f20905b8154815290600101906020018083116104ec57829003601f168201915b5050505050905090565b5f8061051d61093a565b905061052a818585610941565b600191505092915050565b5f600254905090565b5f8061054861093a565b9050610555858285610953565b6105608585856109e5565b60019150509392505050565b5f60055f8381526020019081526020015f20600101549050919050565b6105928261056c565b61059b81610ad5565b6105a58383610ae9565b50505050565b5f60065f9054906101000a900460ff16905090565b6105c861093a565b73ffffffffffffffffffffffffffffffffffffffff168173ffffffffffffffffffffffffffffffffffffffff161461062c576040517f6697b23200000000000000000000000000000000000000000000000000000000815260040160405180910390fd5b6106368282610bd3565b505050565b7f9f2df0fed2c77648de5860a4cc508cd0818c85b8b8a1ab4ceeef8d981c8956a661066581610ad5565b61066f8383610cbd565b505050565b61068561067f61093a565b82610d3c565b50565b5f805f8373ffffffffffffffffffffffffffffffffffffffff1673ffffffffffffffffffffffffffffffffffffffff1681526020019081526020015f20549050919050565b6106df826106d961093a565b83610953565b6106e98282610d3c565b5050565b5f60055f8481526020019081526020015f205f015f8373ffffffffffffffffffffffffffffffffffffffff1673ffffffffffffffffffffffffffffffffffffffff1681526020019081526020015f205f9054906101000a900460ff16905092915050565b60606004805461076090611637565b80601f016020809104026020016040519081016040528092919081815260200182805461078c90611637565b80156107d75780601f106107ae576101008083540402835291602001916107d7565b820191905f5260205f20905b8154815290600101906020018083116107ba57829003601f168201915b5050505050905090565b5f801b81565b5f806107f161093a565b90506107fe8185856109e5565b600191505092915050565b7f9f2df0fed2c77648de5860a4cc508cd0818c85b8b8a1ab4ceeef8d981c8956a681565b6108368261056c565b61083f81610ad5565b6108498383610bd3565b50505050565b5f60015f8473ffffffffffffffffffffffffffffffffffffffff1673ffffffffffffffffffffffffffffffffffffffff1681526020019081526020015f205f8373ffffffffffffffffffffffffffffffffffffffff1673ffffffffffffffffffffffffffffffffffffffff1681526020019081526020015f2054905092915050565b5f7f01ffc9a7000000000000000000000000000000000000000000000000000000007bffffffffffffffffffffffffffffffffffffffffffffffffffffffff1916827bffffffffffffffffffffffffffffffffffffffffffffffffffffffff1916149050919050565b5f33905090565b61094e8383836001610dbb565b505050565b5f61095e848461084f565b90507fffffffffffffffffffffffffffffffffffffffffffffffffffffffffffffffff81146109df57818110156109d0578281836040517ffb8f41b20000000000000000000000000000000000000000000000000000000081526004016109c793929190611676565b60405180910390fd5b6109de84848484035f610dbb565b5b50505050565b5f73ffffffffffffffffffffffffffffffffffffffff168373ffffffffffffffffffffffffffffffffffffffff1603610a55575f6040517f96c6fd1e000000000000000000000000000000000000000000000000000000008152600401610a4c91906116ab565b60405180910390fd5b5f73ffffffffffffffffffffffffffffffffffffffff168273ffffffffffffffffffffffffffffffffffffffff1603610ac5575f6040517fec442f05000000000000000000000000000000000000000000000000000000008152600401610abc91906116ab565b60405180910390fd5b610ad0838383610f8a565b505050565b610ae681610ae161093a565b6111a3565b50565b5f610af483836106ed565b610bc957600160055f8581526020019081526020015f205f015f8473ffffffffffffffffffffffffffffffffffffffff1673ffffffffffffffffffffffffffffffffffffffff1681526020019081526020015f205f6101000a81548160ff021916908315150217905550610b6661093a565b73ffffffffffffffffffffffffffffffffffffffff168273ffffffffffffffffffffffffffffffffffffffff16847f2f8788117e7eff1d82e926ec794901d17c78024a50270940304540a733656f0d60405160405180910390a460019050610bcd565b5f90505b92915050565b5f610bde83836106ed565b15610cb3575f60055f8581526020019081526020015f205f015f8473ffffffffffffffffffffffffffffffffffffffff1673ffffffffffffffffffffffffffffffffffffffff1681526020019081526020015f205f6101000a81548160ff021916908315150217905550610c5061093a565b73ffffffffffffffffffffffffffffffffffffffff168273ffffffffffffffffffffffffffffffffffffffff16847ff6391f5c32d9c69d2a47ea670b442974b53935d1edc7fd64eb21e047a839171b60405160405180910390a460019050610cb7565b5f90505b92915050565b5f73ffffffffffffffffffffffffffffffffffffffff168273ffffffffffffffffffffffffffffffffffffffff1603610d2d575f6040517fec442f05000000000000000000000000000000000000000000000000000000008152600401610d2491906116ab565b60405180910390fd5b610d385f8383610f8a565b5050565b5f73ffffffffffffffffffffffffffffffffffffffff168273ffffffffffffffffffffffffffffffffffffffff1603610dac575f6040517f96c6fd1e000000000000000000000000000000000000000000000000000000008152600401610da391906116ab565b60405180910390fd5b610db7825f83610f8a565b5050565b5f73ffffffffffffffffffffffffffffffffffffffff168473ffffffffffffffffffffffffffffffffffffffff1603610e2b575f6040517fe602df05000000000000000000000000000000000000000000000000000000008152600401610e2291906116ab565b60405180910390fd5b5f73ffffffffffffffffffffffffffffffffffffffff168373ffffffffffffffffffffffffffffffffffffffff1603610e9b575f6040517f94280d62000000000000000000000000000000000000000000000000000000008152600401610e9291906116ab565b60405180910390fd5b8160015f8673ffffffffffffffffffffffffffffffffffffffff1673ffffffffffffffffffffffffffffffffffffffff1681526020019081526020015f205f8573ffffffffffffffffffffffffffffffffffffffff1673ffffffffffffffffffffffffffffffffffffffff1681526020019081526020015f20819055508015610f84578273ffffffffffffffffffffffffffffffffffffffff168473ffffffffffffffffffffffffffffffffffffffff167f8c5be1e5ebec7d5bd14f71427d1e84f3dd0314c0f7b2291e5b200ac8c7c3b92584604051610f7b9190611415565b60405180910390a35b50505050565b5f73ffffffffffffffffffffffffffffffffffffffff168373ffffffffffffffffffffffffffffffffffffffff1603610fda578060025f828254610fce91906116f1565b925050819055506110a8565b5f805f8573ffffffffffffffffffffffffffffffffffffffff1673ffffffffffffffffffffffffffffffffffffffff1681526020019081526020015f2054905081811015611063578381836040517fe450d38c00000000000000000000000000000000000000000000000000000000815260040161105a93929190611676565b60405180910390fd5b8181035f808673ffffffffffffffffffffffffffffffffffffffff1673ffffffffffffffffffffffffffffffffffffffff1681526020019081526020015f2081905550505b5f73ffffffffffffffffffffffffffffffffffffffff168273ffffffffffffffffffffffffffffffffffffffff16036110ef578060025f8282540392505081905550611139565b805f808473ffffffffffffffffffffffffffffffffffffffff1673ffffffffffffffffffffffffffffffffffffffff1681526020019081526020015f205f82825401925050819055505b8173ffffffffffffffffffffffffffffffffffffffff168373ffffffffffffffffffffffffffffffffffffffff167fddf252ad1be2c89b69c2b068fc378daa952ba7f163c4a11628f55a4df523b3ef836040516111969190611415565b60405180910390a3505050565b6111ad82826106ed565b6111f05780826040517fe2517d3f0000000000000000000000000000000000000000000000000000000081526004016111e7929190611724565b60405180910390fd5b5050565b5f80fd5b5f7fffffffff0000000000000000000000000000000000000000000000000000000082169050919050565b61122c816111f8565b8114611236575f80fd5b50565b5f8135905061124781611223565b92915050565b5f60208284031215611262576112616111f4565b5b5f61126f84828501611239565b91505092915050565b5f8115159050919050565b61128c81611278565b82525050565b5f6020820190506112a55f830184611283565b92915050565b5f81519050919050565b5f82825260208201905092915050565b8281835e5f83830152505050565b5f601f19601f8301169050919050565b5f6112ed826112ab565b6112f781856112b5565b93506113078185602086016112c5565b611310816112d3565b840191505092915050565b5f6020820190508181035f83015261133381846112e3565b905092915050565b5f73ffffffffffffffffffffffffffffffffffffffff82169050919050565b5f6113648261133b565b9050919050565b6113748161135a565b811461137e575f80fd5b50565b5f8135905061138f8161136b565b92915050565b5f819050919050565b6113a781611395565b81146113b1575f80fd5b50565b5f813590506113c28161139e565b92915050565b5f80604083850312156113de576113dd6111f4565b5b5f6113eb85828601611381565b92505060206113fc858286016113b4565b9150509250929050565b61140f81611395565b82525050565b5f6020820190506114285f830184611406565b92915050565b5f805f60608486031215611445576114446111f4565b5b5f61145286828701611381565b935050602061146386828701611381565b9250506040611474868287016113b4565b9150509250925092565b5f819050919050565b6114908161147e565b811461149a575f80fd5b50565b5f813590506114ab81611487565b92915050565b5f602082840312156114c6576114c56111f4565b5b5f6114d38482850161149d565b91505092915050565b6114e58161147e565b82525050565b5f6020820190506114fe5f8301846114dc565b92915050565b5f806040838503121561151a576115196111f4565b5b5f6115278582860161149d565b925050602061153885828601611381565b9150509250929050565b5f60ff82169050919050565b61155781611542565b82525050565b5f6020820190506115705f83018461154e565b92915050565b5f6020828403121561158b5761158a6111f4565b5b5f611598848285016113b4565b91505092915050565b5f602082840312156115b6576115b56111f4565b5b5f6115c384828501611381565b91505092915050565b5f80604083850312156115e2576115e16111f4565b5b5f6115ef85828601611381565b925050602061160085828601611381565b9150509250929050565b7f4e487b71000000000000000000000000000000000000000000000000000000005f52602260045260245ffd5b5f600282049050600182168061164e57607f821691505b6020821081036116615761166061160a565b5b50919050565b6116708161135a565b82525050565b5f6060820190506116895f830186611667565b6116966020830185611406565b6116a36040830184611406565b949350505050565b5f6020820190506116be5f830184611667565b92915050565b7f4e487b71000000000000000000000000000000000000000000000000000000005f52601160045260245ffd5b5f6116fb82611395565b915061170683611395565b925082820190508082111561171e5761171d6116c4565b5b92915050565b5f6040820190506117375f830185611667565b61174460208301846114dc565b939250505056fea26469706673582212203f62540d84cc30f56caa1c8c563f33ec76ff26484db6fca16568473f5b48fbd664736f6c63430008190033",
		"opcodes": "PUSH1 0x80 PUSH1 0x40 MSTORE CALLVALUE DUP1 ISZERO PUSH2 0xF JUMPI PUSH0 DUP1 REVERT JUMPDEST POP PUSH1 0x40 MLOAD PUSH2 0x1EED CODESIZE SUB DUP1 PUSH2 0x1EED DUP4 CODECOPY DUP2 DUP2 ADD PUSH1 0x40 MSTORE DUP2 ADD SWAP1 PUSH2 0x31 SWAP2 SWAP1 PUSH2 0x3E7 JUMP JUMPDEST DUP4 DUP4 DUP2 PUSH1 0x3 SWAP1 DUP2 PUSH2 0x42 SWAP2 SWAP1 PUSH2 0x690 JUMP JUMPDEST POP DUP1 PUSH1 0x4 SWAP1 DUP2 PUSH2 0x52 SWAP2 SWAP1 PUSH2 0x690 JUMP JUMPDEST POP POP POP PUSH2 0x85 PUSH32 0x9F2DF0FED2C77648DE5860A4CC508CD0818C85B8B8A1AB4CEEEF8D981C8956A6 DUP4 PUSH2 0xA9 PUSH1 0x20 SHL PUSH1 0x20 SHR JUMP JUMPDEST POP DUP1 PUSH1 0x6 PUSH0 PUSH2 0x100 EXP DUP2 SLOAD DUP2 PUSH1 0xFF MUL NOT AND SWAP1 DUP4 PUSH1 0xFF AND MUL OR SWAP1 SSTORE POP POP POP POP POP PUSH2 0x75F JUMP JUMPDEST PUSH0 PUSH2 0xBA DUP4 DUP4 PUSH2 0x19F PUSH1 0x20 SHL PUSH1 0x20 SHR JUMP JUMPDEST PUSH2 0x195 JUMPI PUSH1 0x1 PUSH1 0x5 PUSH0 DUP6 DUP2 MSTORE PUSH1 0x20 ADD SWAP1 DUP2 MSTORE PUSH1 0x20 ADD PUSH0 KECCAK256 PUSH0 ADD PUSH0 DUP5 PUSH20 0xFFFFFFFFFFFFFFFFFFFFFFFFFFFFFFFFFFFFFFFF AND PUSH20 0xFFFFFFFFFFFFFFFFFFFFFFFFFFFFFFFFFFFFFFFF AND DUP2 MSTORE PUSH1 0x20 ADD SWAP1 DUP2 MSTORE PUSH1 0x20 ADD PUSH0 KECCAK256 PUSH0 PUSH2 0x100 EXP DUP2 SLOAD DUP2 PUSH1 0xFF MUL NOT AND SWAP1 DUP4 ISZERO ISZERO MUL OR SWAP1 SSTORE POP PUSH2 0x132 PUSH2 0x203 PUSH1 0x20 SHL PUSH1 0x20 SHR JUMP JUMPDEST PUSH20 0xFFFFFFFFFFFFFFFFFFFFFFFFFFFFFFFFFFFFFFFF AND DUP3 PUSH20 0xFFFFFFFFFFFFFFFFFFFFFFFFFFFFFFFFFFFFFFFF AND DUP5 PUSH32 0x2F8788117E7EFF1D82E926EC794901D17C78024A50270940304540A733656F0D PUSH1 0x40 MLOAD PUSH1 0x40 MLOAD DUP1 SWAP2 SUB SWAP1 LOG4 PUSH1 0x1 SWAP1 POP PUSH2 0x199 JUMP JUMPDEST PUSH0 SWAP1 POP JUMPDEST SWAP3 SWAP2 POP POP JUMP JUMPDEST PUSH0 PUSH1 0x5 PUSH0 DUP5 DUP2 MSTORE PUSH1 0x20 ADD SWAP1 DUP2 MSTORE PUSH1 0x20 ADD PUSH0 KECCAK256 PUSH0 ADD PUSH0 DUP4 PUSH20 0xFFFFFFFFFFFFFFFFFFFFFFFFFFFFFFFFFFFFFFFF AND PUSH20 0xFFFFFFFFFFFFFFFFFFFFFFFFFFFFFFFFFFFFFFFF AND DUP2 MSTORE PUSH1 0x20 ADD SWAP1 DUP2 MSTORE PUSH1 0x20 ADD PUSH0 KECCAK256 PUSH0 SWAP1 SLOAD SWAP1 PUSH2 0x100 EXP SWAP1 DIV PUSH1 0xFF AND SWAP1 POP SWAP3 SWAP2 POP POP JUMP JUMPDEST PUSH0 CALLER SWAP1 POP SWAP1 JUMP JUMPDEST PUSH0 PUSH1 0x40 MLOAD SWAP1 POP SWAP1 JUMP JUMPDEST PUSH0 DUP1 REVERT JUMPDEST PUSH0 DUP1 REVERT JUMPDEST PUSH0 DUP1 REVERT JUMPDEST PUSH0 DUP1 REVERT JUMPDEST PUSH0 PUSH1 0x1F NOT PUSH1 0x1F DUP4 ADD AND SWAP1 POP SWAP2 SWAP1 POP JUMP JUMPDEST PUSH32 0x4E487B7100000000000000000000000000000000000000000000000000000000 PUSH0 MSTORE PUSH1 0x41 PUSH1 0x4 MSTORE PUSH1 0x24 PUSH0 REVERT JUMPDEST PUSH2 0x269 DUP3 PUSH2 0x223 JUMP JUMPDEST DUP2 ADD DUP2 DUP2 LT PUSH8 0xFFFFFFFFFFFFFFFF DUP3 GT OR ISZERO PUSH2 0x288 JUMPI PUSH2 0x287 PUSH2 0x233 JUMP JUMPDEST JUMPDEST DUP1 PUSH1 0x40 MSTORE POP POP POP JUMP JUMPDEST PUSH0 PUSH2 0x29A PUSH2 0x20A JUMP JUMPDEST SWAP1 POP PUSH2 0x2A6 DUP3 DUP3 PUSH2 0x260 JUMP JUMPDEST SWAP2 SWAP1 POP JUMP JUMPDEST PUSH0 PUSH8 0xFFFFFFFFFFFFFFFF DUP3 GT ISZERO PUSH2 0x2C5 JUMPI PUSH2 0x2C4 PUSH2 0x233 JUMP JUMPDEST JUMPDEST PUSH2 0x2CE DUP3 PUSH2 0x223 JUMP JUMPDEST SWAP1 POP PUSH1 0x20 DUP2 ADD SWAP1 POP SWAP2 SWAP1 POP JUMP JUMPDEST DUP3 DUP2 DUP4 MCOPY PUSH0 DUP4 DUP4 ADD MSTORE POP POP POP JUMP JUMPDEST PUSH0 PUSH2 0x2FB PUSH2 0x2F6 DUP5 PUSH2 0x2AB JUMP JUMPDEST PUSH2 0x291 JUMP JUMPDEST SWAP1 POP DUP3 DUP2 MSTORE PUSH1 0x20 DUP2 ADD DUP5 DUP5 DUP5 ADD GT ISZERO PUSH2 0x317 JUMPI PUSH2 0x316 PUSH2 0x21F JUMP JUMPDEST JUMPDEST PUSH2 0x322 DUP5 DUP3 DUP6 PUSH2 0x2DB JUMP JUMPDEST POP SWAP4 SWAP3 POP POP POP JUMP JUMPDEST PUSH0 DUP3 PUSH1 0x1F DUP4 ADD SLT PUSH2 0x33E JUMPI PUSH2 0x33D PUSH2 0x21B JUMP JUMPDEST JUMPDEST DUP2 MLOAD PUSH2 0x34E DUP5 DUP3 PUSH1 0x20 DUP7 ADD PUSH2 0x2E9 JUMP JUMPDEST SWAP2 POP POP SWAP3 SWAP2 POP POP JUMP JUMPDEST PUSH0 PUSH20 0xFFFFFFFFFFFFFFFFFFFFFFFFFFFFFFFFFFFFFFFF DUP3 AND SWAP1 POP SWAP2 SWAP1 POP JUMP JUMPDEST PUSH0 PUSH2 0x380 DUP3 PUSH2 0x357 JUMP JUMPDEST SWAP1 POP SWAP2 SWAP1 POP JUMP JUMPDEST PUSH2 0x390 DUP2 PUSH2 0x376 JUMP JUMPDEST DUP2 EQ PUSH2 0x39A JUMPI PUSH0 DUP1 REVERT JUMPDEST POP JUMP JUMPDEST PUSH0 DUP2 MLOAD SWAP1 POP PUSH2 0x3AB DUP2 PUSH2 0x387 JUMP JUMPDEST SWAP3 SWAP2 POP POP JUMP JUMPDEST PUSH0 PUSH1 0xFF DUP3 AND SWAP1 POP SWAP2 SWAP1 POP JUMP JUMPDEST PUSH2 0x3C6 DUP2 PUSH2 0x3B1 JUMP JUMPDEST DUP2 EQ PUSH2 0x3D0 JUMPI PUSH0 DUP1 REVERT JUMPDEST POP JUMP JUMPDEST PUSH0 DUP2 MLOAD SWAP1 POP PUSH2 0x3E1 DUP2 PUSH2 0x3BD JUMP JUMPDEST SWAP3 SWAP2 POP POP JUMP JUMPDEST PUSH0 DUP1 PUSH0 DUP1 PUSH1 0x80 DUP6 DUP8 SUB SLT ISZERO PUSH2 0x3FF JUMPI PUSH2 0x3FE PUSH2 0x213 JUMP JUMPDEST JUMPDEST PUSH0 DUP6 ADD MLOAD PUSH8 0xFFFFFFFFFFFFFFFF DUP2 GT ISZERO PUSH2 0x41C JUMPI PUSH2 0x41B PUSH2 0x217 JUMP JUMPDEST JUMPDEST PUSH2 0x428 DUP8 DUP3 DUP9 ADD PUSH2 0x32A JUMP JUMPDEST SWAP5 POP POP PUSH1 0x20 DUP6 ADD MLOAD PUSH8 0xFFFFFFFFFFFFFFFF DUP2 GT ISZERO PUSH2 0x449 JUMPI PUSH2 0x448 PUSH2 0x217 JUMP JUMPDEST JUMPDEST PUSH2 0x455 DUP8 DUP3 DUP9 ADD PUSH2 0x32A JUMP JUMPDEST SWAP4 POP POP PUSH1 0x40 PUSH2 0x466 DUP8 DUP3 DUP9 ADD PUSH2 0x39D JUMP JUMPDEST SWAP3 POP POP PUSH1 0x60 PUSH2 0x477 DUP8 DUP3 DUP9 ADD PUSH2 0x3D3 JUMP JUMPDEST SWAP2 POP POP SWAP3 SWAP6 SWAP2 SWAP5 POP SWAP3 POP JUMP JUMPDEST PUSH0 DUP2 MLOAD SWAP1 POP SWAP2 SWAP1 POP JUMP JUMPDEST PUSH32 0x4E487B7100000000000000000000000000000000000000000000000000000000 PUSH0 MSTORE PUSH1 0x22 PUSH1 0x4 MSTORE PUSH1 0x24 PUSH0 REVERT JUMPDEST PUSH0 PUSH1 0x2 DUP3 DIV SWAP1 POP PUSH1 0x1 DUP3 AND DUP1 PUSH2 0x4D1 JUMPI PUSH1 0x7F DUP3 AND SWAP2 POP JUMPDEST PUSH1 0x20 DUP3 LT DUP2 SUB PUSH2 0x4E4 JUMPI PUSH2 0x4E3 PUSH2 0x48D JUMP JUMPDEST JUMPDEST POP SWAP2 SWAP1 POP JUMP JUMPDEST PUSH0 DUP2 SWAP1 POP DUP2 PUSH0 MSTORE PUSH1 0x20 PUSH0 KECCAK256 SWAP1 POP SWAP2 SWAP1 POP JUMP JUMPDEST PUSH0 PUSH1 0x20 PUSH1 0x1F DUP4 ADD DIV SWAP1 POP SWAP2 SWAP1 POP JUMP JUMPDEST PUSH0 DUP3 DUP3 SHL SWAP1 POP SWAP3 SWAP2 POP POP JUMP JUMPDEST PUSH0 PUSH1 0x8 DUP4 MUL PUSH2 0x546 PUSH32 0xFFFFFFFFFFFFFFFFFFFFFFFFFFFFFFFFFFFFFFFFFFFFFFFFFFFFFFFFFFFFFFFF DUP3 PUSH2 0x50B JUMP JUMPDEST PUSH2 0x550 DUP7 DUP4 PUSH2 0x50B JUMP JUMPDEST SWAP6 POP DUP1 NOT DUP5 AND SWAP4 POP DUP1 DUP7 AND DUP5 OR SWAP3 POP POP POP SWAP4 SWAP3 POP POP POP JUMP JUMPDEST PUSH0 DUP2 SWAP1 POP SWAP2 SWAP1 POP JUMP JUMPDEST PUSH0 DUP2 SWAP1 POP SWAP2 SWAP1 POP JUMP JUMPDEST PUSH0 PUSH2 0x594 PUSH2 0x58F PUSH2 0x58A DUP5 PUSH2 0x568 JUMP JUMPDEST PUSH2 0x571 JUMP JUMPDEST PUSH2 0x568 JUMP JUMPDEST SWAP1 POP SWAP2 SWAP1 POP JUMP JUMPDEST PUSH0 DUP2 SWAP1 POP SWAP2 SWAP1 POP JUMP JUMPDEST PUSH2 0x5AD DUP4 PUSH2 0x57A JUMP JUMPDEST PUSH2 0x5C1 PUSH2 0x5B9 DUP3 PUSH2 0x59B JUMP JUMPDEST DUP5 DUP5 SLOAD PUSH2 0x517 JUMP JUMPDEST DUP3 SSTORE POP POP POP POP JUMP JUMPDEST PUSH0 SWAP1 JUMP JUMPDEST PUSH2 0x5D5 PUSH2 0x5C9 JUMP JUMPDEST PUSH2 0x5E0 DUP2 DUP5 DUP5 PUSH2 0x5A4 JUMP JUMPDEST POP POP POP JUMP JUMPDEST JUMPDEST DUP2 DUP2 LT ISZERO PUSH2 0x603 JUMPI PUSH2 0x5F8 PUSH0 DUP3 PUSH2 0x5CD JUMP JUMPDEST PUSH1 0x1 DUP2 ADD SWAP1 POP PUSH2 0x5E6 JUMP JUMPDEST POP POP JUMP JUMPDEST PUSH1 0x1F DUP3 GT ISZERO PUSH2 0x648 JUMPI PUSH2 0x619 DUP2 PUSH2 0x4EA JUMP JUMPDEST PUSH2 0x622 DUP5 PUSH2 0x4FC JUMP JUMPDEST DUP2 ADD PUSH1 0x20 DUP6 LT ISZERO PUSH2 0x631 JUMPI DUP2 SWAP1 POP JUMPDEST PUSH2 0x645 PUSH2 0x63D DUP6 PUSH2 0x4FC JUMP JUMPDEST DUP4 ADD DUP3 PUSH2 0x5E5 JUMP JUMPDEST POP POP JUMPDEST POP POP POP JUMP JUMPDEST PUSH0 DUP3 DUP3 SHR SWAP1 POP SWAP3 SWAP2 POP POP JUMP JUMPDEST PUSH0 PUSH2 0x668 PUSH0 NOT DUP5 PUSH1 0x8 MUL PUSH2 0x64D JUMP JUMPDEST NOT DUP1 DUP4 AND SWAP2 POP POP SWAP3 SWAP2 POP POP JUMP JUMPDEST PUSH0 PUSH2 0x680 DUP4 DUP4 PUSH2 0x659 JUMP JUMPDEST SWAP2 POP DUP3 PUSH1 0x2 MUL DUP3 OR SWAP1 POP SWAP3 SWAP2 POP POP JUMP JUMPDEST PUSH2 0x699 DUP3 PUSH2 0x483 JUMP JUMPDEST PUSH8 0xFFFFFFFFFFFFFFFF DUP2 GT ISZERO PUSH2 0x6B2 JUMPI PUSH2 0x6B1 PUSH2 0x233 JUMP JUMPDEST JUMPDEST PUSH2 0x6BC DUP3 SLOAD PUSH2 0x4BA JUMP JUMPDEST PUSH2 0x6C7 DUP3 DUP3 DUP6 PUSH2 0x607 JUMP JUMPDEST PUSH0 PUSH1 0x20 SWAP1 POP PUSH1 0x1F DUP4 GT PUSH1 0x1 DUP2 EQ PUSH2 0x6F8 JUMPI PUSH0 DUP5 ISZERO PUSH2 0x6E6 JUMPI DUP3 DUP8 ADD MLOAD SWAP1 POP JUMPDEST PUSH2 0x6F0 DUP6 DUP3 PUSH2 0x675 JUMP JUMPDEST DUP7 SSTORE POP PUSH2 0x757 JUMP JUMPDEST PUSH1 0x1F NOT DUP5 AND PUSH2 0x706 DUP7 PUSH2 0x4EA JUMP JUMPDEST PUSH0 JUMPDEST DUP3 DUP2 LT ISZERO PUSH2 0x72D JUMPI DUP5 DUP10 ADD MLOAD DUP3 SSTORE PUSH1 0x1 DUP3 ADD SWAP2 POP PUSH1 0x20 DUP6 ADD SWAP5 POP PUSH1 0x20 DUP2 ADD SWAP1 POP PUSH2 0x708 JUMP JUMPDEST DUP7 DUP4 LT ISZERO PUSH2 0x74A JUMPI DUP5 DUP10 ADD MLOAD PUSH2 0x746 PUSH1 0x1F DUP10 AND DUP3 PUSH2 0x659 JUMP JUMPDEST DUP4 SSTORE POP JUMPDEST PUSH1 0x1 PUSH1 0x2 DUP9 MUL ADD DUP9 SSTORE POP POP POP JUMPDEST POP POP POP POP POP POP JUMP JUMPDEST PUSH2 0x1781 DUP1 PUSH2 0x76C PUSH0 CODECOPY PUSH0 RETURN INVALID PUSH1 0x80 PUSH1 0x40 MSTORE CALLVALUE DUP1 ISZERO PUSH2 0xF JUMPI PUSH0 DUP1 REVERT JUMPDEST POP PUSH1 0x4 CALLDATASIZE LT PUSH2 0x12A JUMPI PUSH0 CALLDATALOAD PUSH1 0xE0 SHR DUP1 PUSH4 0x42966C68 GT PUSH2 0xAB JUMPI DUP1 PUSH4 0xA217FDDF GT PUSH2 0x6F JUMPI DUP1 PUSH4 0xA217FDDF EQ PUSH2 0x352 JUMPI DUP1 PUSH4 0xA9059CBB EQ PUSH2 0x370 JUMPI DUP1 PUSH4 0xD5391393 EQ PUSH2 0x3A0 JUMPI DUP1 PUSH4 0xD547741F EQ PUSH2 0x3BE JUMPI DUP1 PUSH4 0xDD62ED3E EQ PUSH2 0x3DA JUMPI PUSH2 0x12A JUMP JUMPDEST DUP1 PUSH4 0x42966C68 EQ PUSH2 0x29C JUMPI DUP1 PUSH4 0x70A08231 EQ PUSH2 0x2B8 JUMPI DUP1 PUSH4 0x79CC6790 EQ PUSH2 0x2E8 JUMPI DUP1 PUSH4 0x91D14854 EQ PUSH2 0x304 JUMPI DUP1 PUSH4 0x95D89B41 EQ PUSH2 0x334 JUMPI PUSH2 0x12A JUMP JUMPDEST DUP1 PUSH4 0x248A9CA3 GT PUSH2 0xF2 JUMPI DUP1 PUSH4 0x248A9CA3 EQ PUSH2 0x1FA JUMPI DUP1 PUSH4 0x2F2FF15D EQ PUSH2 0x22A JUMPI DUP1 PUSH4 0x313CE567 EQ PUSH2 0x246 JUMPI DUP1 PUSH4 0x36568ABE EQ PUSH2 0x264 JUMPI DUP1 PUSH4 0x40C10F19 EQ PUSH2 0x280 JUMPI PUSH2 0x12A JUMP JUMPDEST DUP1 PUSH4 0x1FFC9A7 EQ PUSH2 0x12E JUMPI DUP1 PUSH4 0x6FDDE03 EQ PUSH2 0x15E JUMPI DUP1 PUSH4 0x95EA7B3 EQ PUSH2 0x17C JUMPI DUP1 PUSH4 0x18160DDD EQ PUSH2 0x1AC JUMPI DUP1 PUSH4 0x23B872DD EQ PUSH2 0x1CA JUMPI JUMPDEST PUSH0 DUP1 REVERT JUMPDEST PUSH2 0x148 PUSH1 0x4 DUP1 CALLDATASIZE SUB DUP2 ADD SWAP1 PUSH2 0x143 SWAP2 SWAP1 PUSH2 0x124D JUMP JUMPDEST PUSH2 0x40A JUMP JUMPDEST PUSH1 0x40 MLOAD PUSH2 0x155 SWAP2 SWAP1 PUSH2 0x1292 JUMP JUMPDEST PUSH1 0x40 MLOAD DUP1 SWAP2 SUB SWAP1 RETURN JUMPDEST PUSH2 0x166 PUSH2 0x483 JUMP JUMPDEST PUSH1 0x40 MLOAD PUSH2 0x173 SWAP2 SWAP1 PUSH2 0x131B JUMP JUMPDEST PUSH1 0x40 MLOAD DUP1 SWAP2 SUB SWAP1 RETURN JUMPDEST PUSH2 0x196 PUSH1 0x4 DUP1 CALLDATASIZE SUB DUP2 ADD SWAP1 PUSH2 0x191 SWAP2 SWAP1 PUSH2 0x13C8 JUMP JUMPDEST PUSH2 0x513 JUMP JUMPDEST PUSH1 0x40 MLOAD PUSH2 0x1A3 SWAP2 SWAP1 PUSH2 0x1292 JUMP JUMPDEST PUSH1 0x40 MLOAD DUP1 SWAP2 SUB SWAP1 RETURN JUMPDEST PUSH2 0x1B4 PUSH2 0x535 JUMP JUMPDEST PUSH1 0x40 MLOAD PUSH2 0x1C1 SWAP2 SWAP1 PUSH2 0x1415 JUMP JUMPDEST PUSH1 0x40 MLOAD DUP1 SWAP2 SUB SWAP1 RETURN JUMPDEST PUSH2 0x1E4 PUSH1 0x4 DUP1 CALLDATASIZE SUB DUP2 ADD SWAP1 PUSH2 0x1DF SWAP2 SWAP1 PUSH2 0x142E JUMP JUMPDEST PUSH2 0x53E JUMP JUMPDEST PUSH1 0x40 MLOAD PUSH2 0x1F1 SWAP2 SWAP1 PUSH2 0x1292 JUMP JUMPDEST PUSH1 0x40 MLOAD DUP1 SWAP2 SUB SWAP1 RETURN JUMPDEST PUSH2 0x214 PUSH1 0x4 DUP1 CALLDATASIZE SUB DUP2 ADD SWAP1 PUSH2 0x20F SWAP2 SWAP1 PUSH2 0x14B1 JUMP JUMPDEST PUSH2 0x56C JUMP JUMPDEST PUSH1 0x40 MLOAD PUSH2 0x221 SWAP2 SWAP1 PUSH2 0x14EB JUMP JUMPDEST PUSH1 0x40 MLOAD DUP1 SWAP2 SUB SWAP1 RETURN JUMPDEST PUSH2 0x244 PUSH1 0x4 DUP1 CALLDATASIZE SUB DUP2 ADD SWAP1 PUSH2 0x23F SWAP2 SWAP1 PUSH2 0x1504 JUMP JUMPDEST PUSH2 0x589 JUMP JUMPDEST STOP JUMPDEST PUSH2 0x24E PUSH2 0x5AB JUMP JUMPDEST PUSH1 0x40 MLOAD PUSH2 0x25B SWAP2 SWAP1 PUSH2 0x155D JUMP JUMPDEST PUSH1 0x40 MLOAD DUP1 SWAP2 SUB SWAP1 RETURN JUMPDEST PUSH2 0x27E PUSH1 0x4 DUP1 CALLDATASIZE SUB DUP2 ADD SWAP1 PUSH2 0x279 SWAP2 SWAP1 PUSH2 0x1504 JUMP JUMPDEST PUSH2 0x5C0 JUMP JUMPDEST STOP JUMPDEST PUSH2 0x29A PUSH1 0x4 DUP1 CALLDATASIZE SUB DUP2 ADD SWAP1 PUSH2 0x295 SWAP2 SWAP1 PUSH2 0x13C8 JUMP JUMPDEST PUSH2 0x63B JUMP JUMPDEST STOP JUMPDEST PUSH2 0x2B6 PUSH1 0x4 DUP1 CALLDATASIZE SUB DUP2 ADD SWAP1 PUSH2 0x2B1 SWAP2 SWAP1 PUSH2 0x1576 JUMP JUMPDEST PUSH2 0x674 JUMP JUMPDEST STOP JUMPDEST PUSH2 0x2D2 PUSH1 0x4 DUP1 CALLDATASIZE SUB DUP2 ADD SWAP1 PUSH2 0x2CD SWAP2 SWAP1 PUSH2 0x15A1 JUMP JUMPDEST PUSH2 0x688 JUMP JUMPDEST PUSH1 0x40 MLOAD PUSH2 0x2DF SWAP2 SWAP1 PUSH2 0x1415 JUMP JUMPDEST PUSH1 0x40 MLOAD DUP1 SWAP2 SUB SWAP1 RETURN JUMPDEST PUSH2 0x302 PUSH1 0x4 DUP1 CALLDATASIZE SUB DUP2 ADD SWAP1 PUSH2 0x2FD SWAP2 SWAP1 PUSH2 0x13C8 JUMP JUMPDEST PUSH2 0x6CD JUMP JUMPDEST STOP JUMPDEST PUSH2 0x31E PUSH1 0x4 DUP1 CALLDATASIZE SUB DUP2 ADD SWAP1 PUSH2 0x319 SWAP2 SWAP1 PUSH2 0x1504 JUMP JUMPDEST PUSH2 0x6ED JUMP JUMPDEST PUSH1 0x40 MLOAD PUSH2 0x32B SWAP2 SWAP1 PUSH2 0x1292 JUMP JUMPDEST PUSH1 0x40 MLOAD DUP1 SWAP2 SUB SWAP1 RETURN JUMPDEST PUSH2 0x33C PUSH2 0x751 JUMP JUMPDEST PUSH1 0x40 MLOAD PUSH2 0x349 SWAP2 SWAP1 PUSH2 0x131B JUMP JUMPDEST PUSH1 0x40 MLOAD DUP1 SWAP2 SUB SWAP1 RETURN JUMPDEST PUSH2 0x35A PUSH2 0x7E1 JUMP JUMPDEST PUSH1 0x40 MLOAD PUSH2 0x367 SWAP2 SWAP1 PUSH2 0x14EB JUMP JUMPDEST PUSH1 0x40 MLOAD DUP1 SWAP2 SUB SWAP1 RETURN JUMPDEST PUSH2 0x38A PUSH1 0x4 DUP1 CALLDATASIZE SUB DUP2 ADD SWAP1 PUSH2 0x385 SWAP2 SWAP1 PUSH2 0x13C8 JUMP JUMPDEST PUSH2 0x7E7 JUMP JUMPDEST PUSH1 0x40 MLOAD PUSH2 0x397 SWAP2 SWAP1 PUSH2 0x1292 JUMP JUMPDEST PUSH1 0x40 MLOAD DUP1 SWAP2 SUB SWAP1 RETURN JUMPDEST PUSH2 0x3A8 PUSH2 0x809 JUMP JUMPDEST PUSH1 0x40 MLOAD PUSH2 0x3B5 SWAP2 SWAP1 PUSH2 0x14EB JUMP JUMPDEST PUSH1 0x40 MLOAD DUP1 SWAP2 SUB SWAP1 RETURN JUMPDEST PUSH2 0x3D8 PUSH1 0x4 DUP1 CALLDATASIZE SUB DUP2 ADD SWAP1 PUSH2 0x3D3 SWAP2 SWAP1 PUSH2 0x1504 JUMP JUMPDEST PUSH2 0x82D JUMP JUMPDEST STOP JUMPDEST PUSH2 0x3F4 PUSH1 0x4 DUP1 CALLDATASIZE SUB DUP2 ADD SWAP1 PUSH2 0x3EF SWAP2 SWAP1 PUSH2 0x15CC JUMP JUMPDEST PUSH2 0x84F JUMP JUMPDEST PUSH1 0x40 MLOAD PUSH2 0x401 SWAP2 SWAP1 PUSH2 0x1415 JUMP JUMPDEST PUSH1 0x40 MLOAD DUP1 SWAP2 SUB SWAP1 RETURN JUMPDEST PUSH0 PUSH32 0x7965DB0B00000000000000000000000000000000000000000000000000000000 PUSH28 0xFFFFFFFFFFFFFFFFFFFFFFFFFFFFFFFFFFFFFFFFFFFFFFFFFFFFFFFF NOT AND DUP3 PUSH28 0xFFFFFFFFFFFFFFFFFFFFFFFFFFFFFFFFFFFFFFFFFFFFFFFFFFFFFFFF NOT AND EQ DUP1 PUSH2 0x47C JUMPI POP PUSH2 0x47B DUP3 PUSH2 0x8D1 JUMP JUMPDEST JUMPDEST SWAP1 POP SWAP2 SWAP1 POP JUMP JUMPDEST PUSH1 0x60 PUSH1 0x3 DUP1 SLOAD PUSH2 0x492 SWAP1 PUSH2 0x1637 JUMP JUMPDEST DUP1 PUSH1 0x1F ADD PUSH1 0x20 DUP1 SWAP2 DIV MUL PUSH1 0x20 ADD PUSH1 0x40 MLOAD SWAP1 DUP2 ADD PUSH1 0x40 MSTORE DUP1 SWAP3 SWAP2 SWAP1 DUP2 DUP2 MSTORE PUSH1 0x20 ADD DUP3 DUP1 SLOAD PUSH2 0x4BE SWAP1 PUSH2 0x1637 JUMP JUMPDEST DUP1 ISZERO PUSH2 0x509 JUMPI DUP1 PUSH1 0x1F LT PUSH2 0x4E0 JUMPI PUSH2 0x100 DUP1 DUP4 SLOAD DIV MUL DUP4 MSTORE SWAP2 PUSH1 0x20 ADD SWAP2 PUSH2 0x509 JUMP JUMPDEST DUP3 ADD SWAP2 SWAP1 PUSH0 MSTORE PUSH1 0x20 PUSH0 KECCAK256 SWAP1 JUMPDEST DUP2 SLOAD DUP2 MSTORE SWAP1 PUSH1 0x1 ADD SWAP1 PUSH1 0x20 ADD DUP1 DUP4 GT PUSH2 0x4EC JUMPI DUP3 SWAP1 SUB PUSH1 0x1F AND DUP3 ADD SWAP2 JUMPDEST POP POP POP POP POP SWAP1 POP SWAP1 JUMP JUMPDEST PUSH0 DUP1 PUSH2 0x51D PUSH2 0x93A JUMP JUMPDEST SWAP1 POP PUSH2 0x52A DUP2 DUP6 DUP6 PUSH2 0x941 JUMP JUMPDEST PUSH1 0x1 SWAP2 POP POP SWAP3 SWAP2 POP POP JUMP JUMPDEST PUSH0 PUSH1 0x2 SLOAD SWAP1 POP SWAP1 JUMP JUMPDEST PUSH0 DUP1 PUSH2 0x548 PUSH2 0x93A JUMP JUMPDEST SWAP1 POP PUSH2 0x555 DUP6 DUP3 DUP6 PUSH2 0x953 JUMP JUMPDEST PUSH2 0x560 DUP6 DUP6 DUP6 PUSH2 0x9E5 JUMP JUMPDEST PUSH1 0x1 SWAP2 POP POP SWAP4 SWAP3 POP POP POP JUMP JUMPDEST PUSH0 PUSH1 0x5 PUSH0 DUP4 DUP2 MSTORE PUSH1 0x20 ADD SWAP1 DUP2 MSTORE PUSH1 0x20 ADD PUSH0 KECCAK256 PUSH1 0x1 ADD SLOAD SWAP1 POP SWAP2 SWAP1 POP JUMP JUMPDEST PUSH2 0x592 DUP3 PUSH2 0x56C JUMP JUMPDEST PUSH2 0x59B DUP2 PUSH2 0xAD5 JUMP JUMPDEST PUSH2 0x5A5 DUP4 DUP4 PUSH2 0xAE9 JUMP JUMPDEST POP POP POP POP JUMP JUMPDEST PUSH0 PUSH1 0x6 PUSH0 SWAP1 SLOAD SWAP1 PUSH2 0x100 EXP SWAP1 DIV PUSH1 0xFF AND SWAP1 POP SWAP1 JUMP JUMPDEST PUSH2 0x5C8 PUSH2 0x93A JUMP JUMPDEST PUSH20 0xFFFFFFFFFFFFFFFFFFFFFFFFFFFFFFFFFFFFFFFF AND DUP2 PUSH20 0xFFFFFFFFFFFFFFFFFFFFFFFFFFFFFFFFFFFFFFFF AND EQ PUSH2 0x62C JUMPI PUSH1 0x40 MLOAD PUSH32 0x6697B23200000000000000000000000000000000000000000000000000000000 DUP2 MSTORE PUSH1 0x4 ADD PUSH1 0x40 MLOAD DUP1 SWAP2 SUB SWAP1 REVERT JUMPDEST PUSH2 0x636 DUP3 DUP3 PUSH2 0xBD3 JUMP JUMPDEST POP POP POP JUMP JUMPDEST PUSH32 0x9F2DF0FED2C77648DE5860A4CC508CD0818C85B8B8A1AB4CEEEF8D981C8956A6 PUSH2 0x665 DUP2 PUSH2 0xAD5 JUMP JUMPDEST PUSH2 0x66F DUP4 DUP4 PUSH2 0xCBD JUMP JUMPDEST POP POP POP JUMP JUMPDEST PUSH2 0x685 PUSH2 0x67F PUSH2 0x93A JUMP JUMPDEST DUP3 PUSH2 0xD3C JUMP JUMPDEST POP JUMP JUMPDEST PUSH0 DUP1 PUSH0 DUP4 PUSH20 0xFFFFFFFFFFFFFFFFFFFFFFFFFFFFFFFFFFFFFFFF AND PUSH20 0xFFFFFFFFFFFFFFFFFFFFFFFFFFFFFFFFFFFFFFFF AND DUP2 MSTORE PUSH1 0x20 ADD SWAP1 DUP2 MSTORE PUSH1 0x20 ADD PUSH0 KECCAK256 SLOAD SWAP1 POP SWAP2 SWAP1 POP JUMP JUMPDEST PUSH2 0x6DF DUP3 PUSH2 0x6D9 PUSH2 0x93A JUMP JUMPDEST DUP4 PUSH2 0x953 JUMP JUMPDEST PUSH2 0x6E9 DUP3 DUP3 PUSH2 0xD3C JUMP JUMPDEST POP POP JUMP JUMPDEST PUSH0 PUSH1 0x5 PUSH0 DUP5 DUP2 MSTORE PUSH1 0x20 ADD SWAP1 DUP2 MSTORE PUSH1 0x20 ADD PUSH0 KECCAK256 PUSH0 ADD PUSH0 DUP4 PUSH20 0xFFFFFFFFFFFFFFFFFFFFFFFFFFFFFFFFFFFFFFFF AND PUSH20 0xFFFFFFFFFFFFFFFFFFFFFFFFFFFFFFFFFFFFFFFF AND DUP2 MSTORE PUSH1 0x20 ADD SWAP1 DUP2 MSTORE PUSH1 0x20 ADD PUSH0 KECCAK256 PUSH0 SWAP1 SLOAD SWAP1 PUSH2 0x100 EXP SWAP1 DIV PUSH1 0xFF AND SWAP1 POP SWAP3 SWAP2 POP POP JUMP JUMPDEST PUSH1 0x60 PUSH1 0x4 DUP1 SLOAD PUSH2 0x760 SWAP1 PUSH2 0x1637 JUMP JUMPDEST DUP1 PUSH1 0x1F ADD PUSH1 0x20 DUP1 SWAP2 DIV MUL PUSH1 0x20 ADD PUSH1 0x40 MLOAD SWAP1 DUP2 ADD PUSH1 0x40 MSTORE DUP1 SWAP3 SWAP2 SWAP1 DUP2 DUP2 MSTORE PUSH1 0x20 ADD DUP3 DUP1 SLOAD PUSH2 0x78C SWAP1 PUSH2 0x1637 JUMP JUMPDEST DUP1 ISZERO PUSH2 0x7D7 JUMPI DUP1 PUSH1 0x1F LT PUSH2 0x7AE JUMPI PUSH2 0x100 DUP1 DUP4 SLOAD DIV MUL DUP4 MSTORE SWAP2 PUSH1 0x20 ADD SWAP2 PUSH2 0x7D7 JUMP JUMPDEST DUP3 ADD SWAP2 SWAP1 PUSH0 MSTORE PUSH1 0x20 PUSH0 KECCAK256 SWAP1 JUMPDEST DUP2 SLOAD DUP2 MSTORE SWAP1 PUSH1 0x1 ADD SWAP1 PUSH1 0x20 ADD DUP1 DUP4 GT PUSH2 0x7BA JUMPI DUP3 SWAP1 SUB PUSH1 0x1F AND DUP3 ADD SWAP2 JUMPDEST POP POP POP POP POP SWAP1 POP SWAP1 JUMP JUMPDEST PUSH0 DUP1 SHL DUP2 JUMP JUMPDEST PUSH0 DUP1 PUSH2 0x7F1 PUSH2 0x93A JUMP JUMPDEST SWAP1 POP PUSH2 0x7FE DUP2 DUP6 DUP6 PUSH2 0x9E5 JUMP JUMPDEST PUSH1 0x1 SWAP2 POP POP SWAP3 SWAP2 POP POP JUMP JUMPDEST PUSH32 0x9F2DF0FED2C77648DE5860A4CC508CD0818C85B8B8A1AB4CEEEF8D981C8956A6 DUP2 JUMP JUMPDEST PUSH2 0x836 DUP3 PUSH2 0x56C JUMP JUMPDEST PUSH2 0x83F DUP2 PUSH2 0xAD5 JUMP JUMPDEST PUSH2 0x849 DUP4 DUP4 PUSH2 0xBD3 JUMP JUMPDEST POP POP POP POP JUMP JUMPDEST PUSH0 PUSH1 0x1 PUSH0 DUP5 PUSH20 0xFFFFFFFFFFFFFFFFFFFFFFFFFFFFFFFFFFFFFFFF AND PUSH20 0xFFFFFFFFFFFFFFFFFFFFFFFFFFFFFFFFFFFFFFFF AND DUP2 MSTORE PUSH1 0x20 ADD SWAP1 DUP2 MSTORE PUSH1 0x20 ADD PUSH0 KECCAK256 PUSH0 DUP4 PUSH20 0xFFFFFFFFFFFFFFFFFFFFFFFFFFFFFFFFFFFFFFFF AND PUSH20 0xFFFFFFFFFFFFFFFFFFFFFFFFFFFFFFFFFFFFFFFF AND DUP2 MSTORE PUSH1 0x20 ADD SWAP1 DUP2 MSTORE PUSH1 0x20 ADD PUSH0 KECCAK256 SLOAD SWAP1 POP SWAP3 SWAP2 POP POP JUMP JUMPDEST PUSH0 PUSH32 0x1FFC9A700000000000000000000000000000000000000000000000000000000 PUSH28 0xFFFFFFFFFFFFFFFFFFFFFFFFFFFFFFFFFFFFFFFFFFFFFFFFFFFFFFFF NOT AND DUP3 PUSH28 0xFFFFFFFFFFFFFFFFFFFFFFFFFFFFFFFFFFFFFFFFFFFFFFFFFFFFFFFF NOT AND EQ SWAP1 POP SWAP2 SWAP1 POP JUMP JUMPDEST PUSH0 CALLER SWAP1 POP SWAP1 JUMP JUMPDEST PUSH2 0x94E DUP4 DUP4 DUP4 PUSH1 0x1 PUSH2 0xDBB JUMP JUMPDEST POP POP POP JUMP JUMPDEST PUSH0 PUSH2 0x95E DUP5 DUP5 PUSH2 0x84F JUMP JUMPDEST SWAP1 POP PUSH32 0xFFFFFFFFFFFFFFFFFFFFFFFFFFFFFFFFFFFFFFFFFFFFFFFFFFFFFFFFFFFFFFFF DUP2 EQ PUSH2 0x9DF JUMPI DUP2 DUP2 LT ISZERO PUSH2 0x9D0 JUMPI DUP3 DUP2 DUP4 PUSH1 0x40 MLOAD PUSH32 0xFB8F41B200000000000000000000000000000000000000000000000000000000 DUP2 MSTORE PUSH1 0x4 ADD PUSH2 0x9C7 SWAP4 SWAP3 SWAP2 SWAP1 PUSH2 0x1676 JUMP JUMPDEST PUSH1 0x40 MLOAD DUP1 SWAP2 SUB SWAP1 REVERT JUMPDEST PUSH2 0x9DE DUP5 DUP5 DUP5 DUP5 SUB PUSH0 PUSH2 0xDBB JUMP JUMPDEST JUMPDEST POP POP POP POP JUMP JUMPDEST PUSH0 PUSH20 0xFFFFFFFFFFFFFFFFFFFFFFFFFFFFFFFFFFFFFFFF AND DUP4 PUSH20 0xFFFFFFFFFFFFFFFFFFFFFFFFFFFFFFFFFFFFFFFF AND SUB PUSH2 0xA55 JUMPI PUSH0 PUSH1 0x40 MLOAD PUSH32 0x96C6FD1E00000000000000000000000000000000000000000000000000000000 DUP2 MSTORE PUSH1 0x4 ADD PUSH2 0xA4C SWAP2 SWAP1 PUSH2 0x16AB JUMP JUMPDEST PUSH1 0x40 MLOAD DUP1 SWAP2 SUB SWAP1 REVERT JUMPDEST PUSH0 PUSH20 0xFFFFFFFFFFFFFFFFFFFFFFFFFFFFFFFFFFFFFFFF AND DUP3 PUSH20 0xFFFFFFFFFFFFFFFFFFFFFFFFFFFFFFFFFFFFFFFF AND SUB PUSH2 0xAC5 JUMPI PUSH0 PUSH1 0x40 MLOAD PUSH32 0xEC442F0500000000000000000000000000000000000000000000000000000000 DUP2 MSTORE PUSH1 0x4 ADD PUSH2 0xABC SWAP2 SWAP1 PUSH2 0x16AB JUMP JUMPDEST PUSH1 0x40 MLOAD DUP1 SWAP2 SUB SWAP1 REVERT JUMPDEST PUSH2 0xAD0 DUP4 DUP4 DUP4 PUSH2 0xF8A JUMP JUMPDEST POP POP POP JUMP JUMPDEST PUSH2 0xAE6 DUP2 PUSH2 0xAE1 PUSH2 0x93A JUMP JUMPDEST PUSH2 0x11A3 JUMP JUMPDEST POP JUMP JUMPDEST PUSH0 PUSH2 0xAF4 DUP4 DUP4 PUSH2 0x6ED JUMP JUMPDEST PUSH2 0xBC9 JUMPI PUSH1 0x1 PUSH1 0x5 PUSH0 DUP6 DUP2 MSTORE PUSH1 0x20 ADD SWAP1 DUP2 MSTORE PUSH1 0x20 ADD PUSH0 KECCAK256 PUSH0 ADD PUSH0 DUP5 PUSH20 0xFFFFFFFFFFFFFFFFFFFFFFFFFFFFFFFFFFFFFFFF AND PUSH20 0xFFFFFFFFFFFFFFFFFFFFFFFFFFFFFFFFFFFFFFFF AND DUP2 MSTORE PUSH1 0x20 ADD SWAP1 DUP2 MSTORE PUSH1 0x20 ADD PUSH0 KECCAK256 PUSH0 PUSH2 0x100 EXP DUP2 SLOAD DUP2 PUSH1 0xFF MUL NOT AND SWAP1 DUP4 ISZERO ISZERO MUL OR SWAP1 SSTORE POP PUSH2 0xB66 PUSH2 0x93A JUMP JUMPDEST PUSH20 0xFFFFFFFFFFFFFFFFFFFFFFFFFFFFFFFFFFFFFFFF AND DUP3 PUSH20 0xFFFFFFFFFFFFFFFFFFFFFFFFFFFFFFFFFFFFFFFF AND DUP5 PUSH32 0x2F8788117E7EFF1D82E926EC794901D17C78024A50270940304540A733656F0D PUSH1 0x40 MLOAD PUSH1 0x40 MLOAD DUP1 SWAP2 SUB SWAP1 LOG4 PUSH1 0x1 SWAP1 POP PUSH2 0xBCD JUMP JUMPDEST PUSH0 SWAP1 POP JUMPDEST SWAP3 SWAP2 POP POP JUMP JUMPDEST PUSH0 PUSH2 0xBDE DUP4 DUP4 PUSH2 0x6ED JUMP JUMPDEST ISZERO PUSH2 0xCB3 JUMPI PUSH0 PUSH1 0x5 PUSH0 DUP6 DUP2 MSTORE PUSH1 0x20 ADD SWAP1 DUP2 MSTORE PUSH1 0x20 ADD PUSH0 KECCAK256 PUSH0 ADD PUSH0 DUP5 PUSH20 0xFFFFFFFFFFFFFFFFFFFFFFFFFFFFFFFFFFFFFFFF AND PUSH20 0xFFFFFFFFFFFFFFFFFFFFFFFFFFFFFFFFFFFFFFFF AND DUP2 MSTORE PUSH1 0x20 ADD SWAP1 DUP2 MSTORE PUSH1 0x20 ADD PUSH0 KECCAK256 PUSH0 PUSH2 0x100 EXP DUP2 SLOAD DUP2 PUSH1 0xFF MUL NOT AND SWAP1 DUP4 ISZERO ISZERO MUL OR SWAP1 SSTORE POP PUSH2 0xC50 PUSH2 0x93A JUMP JUMPDEST PUSH20 0xFFFFFFFFFFFFFFFFFFFFFFFFFFFFFFFFFFFFFFFF AND DUP3 PUSH20 0xFFFFFFFFFFFFFFFFFFFFFFFFFFFFFFFFFFFFFFFF AND DUP5 PUSH32 0xF6391F5C32D9C69D2A47EA670B442974B53935D1EDC7FD64EB21E047A839171B PUSH1 0x40 MLOAD PUSH1 0x40 MLOAD DUP1 SWAP2 SUB SWAP1 LOG4 PUSH1 0x1 SWAP1 POP PUSH2 0xCB7 JUMP JUMPDEST PUSH0 SWAP1 POP JUMPDEST SWAP3 SWAP2 POP POP JUMP JUMPDEST PUSH0 PUSH20 0xFFFFFFFFFFFFFFFFFFFFFFFFFFFFFFFFFFFFFFFF AND DUP3 PUSH20 0xFFFFFFFFFFFFFFFFFFFFFFFFFFFFFFFFFFFFFFFF AND SUB PUSH2 0xD2D JUMPI PUSH0 PUSH1 0x40 MLOAD PUSH32 0xEC442F0500000000000000000000000000000000000000000000000000000000 DUP2 MSTORE PUSH1 0x4 ADD PUSH2 0xD24 SWAP2 SWAP1 PUSH2 0x16AB JUMP JUMPDEST PUSH1 0x40 MLOAD DUP1 SWAP2 SUB SWAP1 REVERT JUMPDEST PUSH2 0xD38 PUSH0 DUP4 DUP4 PUSH2 0xF8A JUMP JUMPDEST POP POP JUMP JUMPDEST PUSH0 PUSH20 0xFFFFFFFFFFFFFFFFFFFFFFFFFFFFFFFFFFFFFFFF AND DUP3 PUSH20 0xFFFFFFFFFFFFFFFFFFFFFFFFFFFFFFFFFFFFFFFF AND SUB PUSH2 0xDAC JUMPI PUSH0 PUSH1 0x40 MLOAD PUSH32 0x96C6FD1E00000000000000000000000000000000000000000000000000000000 DUP2 MSTORE PUSH1 0x4 ADD PUSH2 0xDA3 SWAP2 SWAP1 PUSH2 0x16AB JUMP JUMPDEST PUSH1 0x40 MLOAD DUP1 SWAP2 SUB SWAP1 REVERT JUMPDEST PUSH2 0xDB7 DUP3 PUSH0 DUP4 PUSH2 0xF8A JUMP JUMPDEST POP POP JUMP JUMPDEST PUSH0 PUSH20 0xFFFFFFFFFFFFFFFFFFFFFFFFFFFFFFFFFFFFFFFF AND DUP5 PUSH20 0xFFFFFFFFFFFFFFFFFFFFFFFFFFFFFFFFFFFFFFFF AND SUB PUSH2 0xE2B JUMPI PUSH0 PUSH1 0x40 MLOAD PUSH32 0xE602DF0500000000000000000000000000000000000000000000000000000000 DUP2 MSTORE PUSH1 0x4 ADD PUSH2 0xE22 SWAP2 SWAP1 PUSH2 0x16AB JUMP JUMPDEST PUSH1 0x40 MLOAD DUP1 SWAP2 SUB SWAP1 REVERT JUMPDEST PUSH0 PUSH20 0xFFFFFFFFFFFFFFFFFFFFFFFFFFFFFFFFFFFFFFFF AND DUP4 PUSH20 0xFFFFFFFFFFFFFFFFFFFFFFFFFFFFFFFFFFFFFFFF AND SUB PUSH2 0xE9B JUMPI PUSH0 PUSH1 0x40 MLOAD PUSH32 0x94280D6200000000000000000000000000000000000000000000000000000000 DUP2 MSTORE PUSH1 0x4 ADD PUSH2 0xE92 SWAP2 SWAP1 PUSH2 0x16AB JUMP JUMPDEST PUSH1 0x40 MLOAD DUP1 SWAP2 SUB SWAP1 REVERT JUMPDEST DUP2 PUSH1 0x1 PUSH0 DUP7 PUSH20 0xFFFFFFFFFFFFFFFFFFFFFFFFFFFFFFFFFFFFFFFF AND PUSH20 0xFFFFFFFFFFFFFFFFFFFFFFFFFFFFFFFFFFFFFFFF AND DUP2 MSTORE PUSH1 0x20 ADD SWAP1 DUP2 MSTORE PUSH1 0x20 ADD PUSH0 KECCAK256 PUSH0 DUP6 PUSH20 0xFFFFFFFFFFFFFFFFFFFFFFFFFFFFFFFFFFFFFFFF AND PUSH20 0xFFFFFFFFFFFFFFFFFFFFFFFFFFFFFFFFFFFFFFFF AND DUP2 MSTORE PUSH1 0x20 ADD SWAP1 DUP2 MSTORE PUSH1 0x20 ADD PUSH0 KECCAK256 DUP2 SWAP1 SSTORE POP DUP1 ISZERO PUSH2 0xF84 JUMPI DUP3 PUSH20 0xFFFFFFFFFFFFFFFFFFFFFFFFFFFFFFFFFFFFFFFF AND DUP5 PUSH20 0xFFFFFFFFFFFFFFFFFFFFFFFFFFFFFFFFFFFFFFFF AND PUSH32 0x8C5BE1E5EBEC7D5BD14F71427D1E84F3DD0314C0F7B2291E5B200AC8C7C3B925 DUP5 PUSH1 0x40 MLOAD PUSH2 0xF7B SWAP2 SWAP1 PUSH2 0x1415 JUMP JUMPDEST PUSH1 0x40 MLOAD DUP1 SWAP2 SUB SWAP1 LOG3 JUMPDEST POP POP POP POP JUMP JUMPDEST PUSH0 PUSH20 0xFFFFFFFFFFFFFFFFFFFFFFFFFFFFFFFFFFFFFFFF AND DUP4 PUSH20 0xFFFFFFFFFFFFFFFFFFFFFFFFFFFFFFFFFFFFFFFF AND SUB PUSH2 0xFDA JUMPI DUP1 PUSH1 0x2 PUSH0 DUP3 DUP3 SLOAD PUSH2 0xFCE SWAP2 SWAP1 PUSH2 0x16F1 JUMP JUMPDEST SWAP3 POP POP DUP2 SWAP1 SSTORE POP PUSH2 0x10A8 JUMP JUMPDEST PUSH0 DUP1 PUSH0 DUP6 PUSH20 0xFFFFFFFFFFFFFFFFFFFFFFFFFFFFFFFFFFFFFFFF AND PUSH20 0xFFFFFFFFFFFFFFFFFFFFFFFFFFFFFFFFFFFFFFFF AND DUP2 MSTORE PUSH1 0x20 ADD SWAP1 DUP2 MSTORE PUSH1 0x20 ADD PUSH0 KECCAK256 SLOAD SWAP1 POP DUP2 DUP2 LT ISZERO PUSH2 0x1063 JUMPI DUP4 DUP2 DUP4 PUSH1 0x40 MLOAD PUSH32 0xE450D38C00000000000000000000000000000000000000000000000000000000 DUP2 MSTORE PUSH1 0x4 ADD PUSH2 0x105A SWAP4 SWAP3 SWAP2 SWAP1 PUSH2 0x1676 JUMP JUMPDEST PUSH1 0x40 MLOAD DUP1 SWAP2 SUB SWAP1 REVERT JUMPDEST DUP2 DUP2 SUB PUSH0 DUP1 DUP7 PUSH20 0xFFFFFFFFFFFFFFFFFFFFFFFFFFFFFFFFFFFFFFFF AND PUSH20 0xFFFFFFFFFFFFFFFFFFFFFFFFFFFFFFFFFFFFFFFF AND DUP2 MSTORE PUSH1 0x20 ADD SWAP1 DUP2 MSTORE PUSH1 0x20 ADD PUSH0 KECCAK256 DUP2 SWAP1 SSTORE POP POP JUMPDEST PUSH0 PUSH20 0xFFFFFFFFFFFFFFFFFFFFFFFFFFFFFFFFFFFFFFFF AND DUP3 PUSH20 0xFFFFFFFFFFFFFFFFFFFFFFFFFFFFFFFFFFFFFFFF AND SUB PUSH2 0x10EF JUMPI DUP1 PUSH1 0x2 PUSH0 DUP3 DUP3 SLOAD SUB SWAP3 POP POP DUP2 SWAP1 SSTORE POP PUSH2 0x1139 JUMP JUMPDEST DUP1 PUSH0 DUP1 DUP5 PUSH20 0xFFFFFFFFFFFFFFFFFFFFFFFFFFFFFFFFFFFFFFFF AND PUSH20 0xFFFFFFFFFFFFFFFFFFFFFFFFFFFFFFFFFFFFFFFF AND DUP2 MSTORE PUSH1 0x20 ADD SWAP1 DUP2 MSTORE PUSH1 0x20 ADD PUSH0 KECCAK256 PUSH0 DUP3 DUP3 SLOAD ADD SWAP3 POP POP DUP2 SWAP1 SSTORE POP JUMPDEST DUP2 PUSH20 0xFFFFFFFFFFFFFFFFFFFFFFFFFFFFFFFFFFFFFFFF AND DUP4 PUSH20 0xFFFFFFFFFFFFFFFFFFFFFFFFFFFFFFFFFFFFFFFF AND PUSH32 0xDDF252AD1BE2C89B69C2B068FC378DAA952BA7F163C4A11628F55A4DF523B3EF DUP4 PUSH1 0x40 MLOAD PUSH2 0x1196 SWAP2 SWAP1 PUSH2 0x1415 JUMP JUMPDEST PUSH1 0x40 MLOAD DUP1 SWAP2 SUB SWAP1 LOG3 POP POP POP JUMP JUMPDEST PUSH2 0x11AD DUP3 DUP3 PUSH2 0x6ED JUMP JUMPDEST PUSH2 0x11F0 JUMPI DUP1 DUP3 PUSH1 0x40 MLOAD PUSH32 0xE2517D3F00000000000000000000000000000000000000000000000000000000 DUP2 MSTORE PUSH1 0x4 ADD PUSH2 0x11E7 SWAP3 SWAP2 SWAP1 PUSH2 0x1724 JUMP JUMPDEST PUSH1 0x40 MLOAD DUP1 SWAP2 SUB SWAP1 REVERT JUMPDEST POP POP JUMP JUMPDEST PUSH0 DUP1 REVERT JUMPDEST PUSH0 PUSH32 0xFFFFFFFF00000000000000000000000000000000000000000000000000000000 DUP3 AND SWAP1 POP SWAP2 SWAP1 POP JUMP JUMPDEST PUSH2 0x122C DUP2 PUSH2 0x11F8 JUMP JUMPDEST DUP2 EQ PUSH2 0x1236 JUMPI PUSH0 DUP1 REVERT JUMPDEST POP JUMP JUMPDEST PUSH0 DUP2 CALLDATALOAD SWAP1 POP PUSH2 0x1247 DUP2 PUSH2 0x1223 JUMP JUMPDEST SWAP3 SWAP2 POP POP JUMP JUMPDEST PUSH0 PUSH1 0x20 DUP3 DUP5 SUB SLT ISZERO PUSH2 0x1262 JUMPI PUSH2 0x1261 PUSH2 0x11F4 JUMP JUMPDEST JUMPDEST PUSH0 PUSH2 0x126F DUP5 DUP3 DUP6 ADD PUSH2 0x1239 JUMP JUMPDEST SWAP2 POP POP SWAP3 SWAP2 POP POP JUMP JUMPDEST PUSH0 DUP2 ISZERO ISZERO SWAP1 POP SWAP2 SWAP1 POP JUMP JUMPDEST PUSH2 0x128C DUP2 PUSH2 0x1278 JUMP JUMPDEST DUP3 MSTORE POP POP JUMP JUMPDEST PUSH0 PUSH1 0x20 DUP3 ADD SWAP1 POP PUSH2 0x12A5 PUSH0 DUP4 ADD DUP5 PUSH2 0x1283 JUMP JUMPDEST SWAP3 SWAP2 POP POP JUMP JUMPDEST PUSH0 DUP2 MLOAD SWAP1 POP SWAP2 SWAP1 POP JUMP JUMPDEST PUSH0 DUP3 DUP3 MSTORE PUSH1 0x20 DUP3 ADD SWAP1 POP SWAP3 SWAP2 POP POP JUMP JUMPDEST DUP3 DUP2 DUP4 MCOPY PUSH0 DUP4 DUP4 ADD MSTORE POP POP POP JUMP JUMPDEST PUSH0 PUSH1 0x1F NOT PUSH1 0x1F DUP4 ADD AND SWAP1 POP SWAP2 SWAP1 POP JUMP JUMPDEST PUSH0 PUSH2 0x12ED DUP3 PUSH2 0x12AB JUMP JUMPDEST PUSH2 0x12F7 DUP2 DUP6 PUSH2 0x12B5 JUMP JUMPDEST SWAP4 POP PUSH2 0x1307 DUP2 DUP6 PUSH1 0x20 DUP7 ADD PUSH2 0x12C5 JUMP JUMPDEST PUSH2 0x1310 DUP2 PUSH2 0x12D3 JUMP JUMPDEST DUP5 ADD SWAP2 POP POP SWAP3 SWAP2 POP POP JUMP JUMPDEST PUSH0 PUSH1 0x20 DUP3 ADD SWAP1 POP DUP2 DUP2 SUB PUSH0 DUP4 ADD MSTORE PUSH2 0x1333 DUP2 DUP5 PUSH2 0x12E3 JUMP JUMPDEST SWAP1 POP SWAP3 SWAP2 POP POP JUMP JUMPDEST PUSH0 PUSH20 0xFFFFFFFFFFFFFFFFFFFFFFFFFFFFFFFFFFFFFFFF DUP3 AND SWAP1 POP SWAP2 SWAP1 POP JUMP JUMPDEST PUSH0 PUSH2 0x1364 DUP3 PUSH2 0x133B JUMP JUMPDEST SWAP1 POP SWAP2 SWAP1 POP JUMP JUMPDEST PUSH2 0x1374 DUP2 PUSH2 0x135A JUMP JUMPDEST DUP2 EQ PUSH2 0x137E JUMPI PUSH0 DUP1 REVERT JUMPDEST POP JUMP JUMPDEST PUSH0 DUP2 CALLDATALOAD SWAP1 POP PUSH2 0x138F DUP2 PUSH2 0x136B JUMP JUMPDEST SWAP3 SWAP2 POP POP JUMP JUMPDEST PUSH0 DUP2 SWAP1 POP SWAP2 SWAP1 POP JUMP JUMPDEST PUSH2 0x13A7 DUP2 PUSH2 0x1395 JUMP JUMPDEST DUP2 EQ PUSH2 0x13B1 JUMPI PUSH0 DUP1 REVERT JUMPDEST POP JUMP JUMPDEST PUSH0 DUP2 CALLDATALOAD SWAP1 POP PUSH2 0x13C2 DUP2 PUSH2 0x139E JUMP JUMPDEST SWAP3 SWAP2 POP POP JUMP JUMPDEST PUSH0 DUP1 PUSH1 0x40 DUP4 DUP6 SUB SLT ISZERO PUSH2 0x13DE JUMPI PUSH2 0x13DD PUSH2 0x11F4 JUMP JUMPDEST JUMPDEST PUSH0 PUSH2 0x13EB DUP6 DUP3 DUP7 ADD PUSH2 0x1381 JUMP JUMPDEST SWAP3 POP POP PUSH1 0x20 PUSH2 0x13FC DUP6 DUP3 DUP7 ADD PUSH2 0x13B4 JUMP JUMPDEST SWAP2 POP POP SWAP3 POP SWAP3 SWAP1 POP JUMP JUMPDEST PUSH2 0x140F DUP2 PUSH2 0x1395 JUMP JUMPDEST DUP3 MSTORE POP POP JUMP JUMPDEST PUSH0 PUSH1 0x20 DUP3 ADD SWAP1 POP PUSH2 0x1428 PUSH0 DUP4 ADD DUP5 PUSH2 0x1406 JUMP JUMPDEST SWAP3 SWAP2 POP POP JUMP JUMPDEST PUSH0 DUP1 PUSH0 PUSH1 0x60 DUP5 DUP7 SUB SLT ISZERO PUSH2 0x1445 JUMPI PUSH2 0x1444 PUSH2 0x11F4 JUMP JUMPDEST JUMPDEST PUSH0 PUSH2 0x1452 DUP7 DUP3 DUP8 ADD PUSH2 0x1381 JUMP JUMPDEST SWAP4 POP POP PUSH1 0x20 PUSH2 0x1463 DUP7 DUP3 DUP8 ADD PUSH2 0x1381 JUMP JUMPDEST SWAP3 POP POP PUSH1 0x40 PUSH2 0x1474 DUP7 DUP3 DUP8 ADD PUSH2 0x13B4 JUMP JUMPDEST SWAP2 POP POP SWAP3 POP SWAP3 POP SWAP3 JUMP JUMPDEST PUSH0 DUP2 SWAP1 POP SWAP2 SWAP1 POP JUMP JUMPDEST PUSH2 0x1490 DUP2 PUSH2 0x147E JUMP JUMPDEST DUP2 EQ PUSH2 0x149A JUMPI PUSH0 DUP1 REVERT JUMPDEST POP JUMP JUMPDEST PUSH0 DUP2 CALLDATALOAD SWAP1 POP PUSH2 0x14AB DUP2 PUSH2 0x1487 JUMP JUMPDEST SWAP3 SWAP2 POP POP JUMP JUMPDEST PUSH0 PUSH1 0x20 DUP3 DUP5 SUB SLT ISZERO PUSH2 0x14C6 JUMPI PUSH2 0x14C5 PUSH2 0x11F4 JUMP JUMPDEST JUMPDEST PUSH0 PUSH2 0x14D3 DUP5 DUP3 DUP6 ADD PUSH2 0x149D JUMP JUMPDEST SWAP2 POP POP SWAP3 SWAP2 POP POP JUMP JUMPDEST PUSH2 0x14E5 DUP2 PUSH2 0x147E JUMP JUMPDEST DUP3 MSTORE POP POP JUMP JUMPDEST PUSH0 PUSH1 0x20 DUP3 ADD SWAP1 POP PUSH2 0x14FE PUSH0 DUP4 ADD DUP5 PUSH2 0x14DC JUMP JUMPDEST SWAP3 SWAP2 POP POP JUMP JUMPDEST PUSH0 DUP1 PUSH1 0x40 DUP4 DUP6 SUB SLT ISZERO PUSH2 0x151A JUMPI PUSH2 0x1519 PUSH2 0x11F4 JUMP JUMPDEST JUMPDEST PUSH0 PUSH2 0x1527 DUP6 DUP3 DUP7 ADD PUSH2 0x149D JUMP JUMPDEST SWAP3 POP POP PUSH1 0x20 PUSH2 0x1538 DUP6 DUP3 DUP7 ADD PUSH2 0x1381 JUMP JUMPDEST SWAP2 POP POP SWAP3 POP SWAP3 SWAP1 POP JUMP JUMPDEST PUSH0 PUSH1 0xFF DUP3 AND SWAP1 POP SWAP2 SWAP1 POP JUMP JUMPDEST PUSH2 0x1557 DUP2 PUSH2 0x1542 JUMP JUMPDEST DUP3 MSTORE POP POP JUMP JUMPDEST PUSH0 PUSH1 0x20 DUP3 ADD SWAP1 POP PUSH2 0x1570 PUSH0 DUP4 ADD DUP5 PUSH2 0x154E JUMP JUMPDEST SWAP3 SWAP2 POP POP JUMP JUMPDEST PUSH0 PUSH1 0x20 DUP3 DUP5 SUB SLT ISZERO PUSH2 0x158B JUMPI PUSH2 0x158A PUSH2 0x11F4 JUMP JUMPDEST JUMPDEST PUSH0 PUSH2 0x1598 DUP5 DUP3 DUP6 ADD PUSH2 0x13B4 JUMP JUMPDEST SWAP2 POP POP SWAP3 SWAP2 POP POP JUMP JUMPDEST PUSH0 PUSH1 0x20 DUP3 DUP5 SUB SLT ISZERO PUSH2 0x15B6 JUMPI PUSH2 0x15B5 PUSH2 0x11F4 JUMP JUMPDEST JUMPDEST PUSH0 PUSH2 0x15C3 DUP5 DUP3 DUP6 ADD PUSH2 0x1381 JUMP JUMPDEST SWAP2 POP POP SWAP3 SWAP2 POP POP JUMP JUMPDEST PUSH0 DUP1 PUSH1 0x40 DUP4 DUP6 SUB SLT ISZERO PUSH2 0x15E2 JUMPI PUSH2 0x15E1 PUSH2 0x11F4 JUMP JUMPDEST JUMPDEST PUSH0 PUSH2 0x15EF DUP6 DUP3 DUP7 ADD PUSH2 0x1381 JUMP JUMPDEST SWAP3 POP POP PUSH1 0x20 PUSH2 0x1600 DUP6 DUP3 DUP7 ADD PUSH2 0x1381 JUMP JUMPDEST SWAP2 POP POP SWAP3 POP SWAP3 SWAP1 POP JUMP JUMPDEST PUSH32 0x4E487B7100000000000000000000000000000000000000000000000000000000 PUSH0 MSTORE PUSH1 0x22 PUSH1 0x4 MSTORE PUSH1 0x24 PUSH0 REVERT JUMPDEST PUSH0 PUSH1 0x2 DUP3 DIV SWAP1 POP PUSH1 0x1 DUP3 AND DUP1 PUSH2 0x164E JUMPI PUSH1 0x7F DUP3 AND SWAP2 POP JUMPDEST PUSH1 0x20 DUP3 LT DUP2 SUB PUSH2 0x1661 JUMPI PUSH2 0x1660 PUSH2 0x160A JUMP JUMPDEST JUMPDEST POP SWAP2 SWAP1 POP JUMP JUMPDEST PUSH2 0x1670 DUP2 PUSH2 0x135A JUMP JUMPDEST DUP3 MSTORE POP POP JUMP JUMPDEST PUSH0 PUSH1 0x60 DUP3 ADD SWAP1 POP PUSH2 0x1689 PUSH0 DUP4 ADD DUP7 PUSH2 0x1667 JUMP JUMPDEST PUSH2 0x1696 PUSH1 0x20 DUP4 ADD DUP6 PUSH2 0x1406 JUMP JUMPDEST PUSH2 0x16A3 PUSH1 0x40 DUP4 ADD DUP5 PUSH2 0x1406 JUMP JUMPDEST SWAP5 SWAP4 POP POP POP POP JUMP JUMPDEST PUSH0 PUSH1 0x20 DUP3 ADD SWAP1 POP PUSH2 0x16BE PUSH0 DUP4 ADD DUP5 PUSH2 0x1667 JUMP JUMPDEST SWAP3 SWAP2 POP POP JUMP JUMPDEST PUSH32 0x4E487B7100000000000000000000000000000000000000000000000000000000 PUSH0 MSTORE PUSH1 0x11 PUSH1 0x4 MSTORE PUSH1 0x24 PUSH0 REVERT JUMPDEST PUSH0 PUSH2 0x16FB DUP3 PUSH2 0x1395 JUMP JUMPDEST SWAP2 POP PUSH2 0x1706 DUP4 PUSH2 0x1395 JUMP JUMPDEST SWAP3 POP DUP3 DUP3 ADD SWAP1 POP DUP1 DUP3 GT ISZERO PUSH2 0x171E JUMPI PUSH2 0x171D PUSH2 0x16C4 JUMP JUMPDEST JUMPDEST SWAP3 SWAP2 POP POP JUMP JUMPDEST PUSH0 PUSH1 0x40 DUP3 ADD SWAP1 POP PUSH2 0x1737 PUSH0 DUP4 ADD DUP6 PUSH2 0x1667 JUMP JUMPDEST PUSH2 0x1744 PUSH1 0x20 DUP4 ADD DUP5 PUSH2 0x14DC JUMP JUMPDEST SWAP4 SWAP3 POP POP POP JUMP INVALID LOG2 PUSH5 0x6970667358 0x22 SLT KECCAK256 EXTCODEHASH PUSH3 0x540D84 0xCC ADDRESS CREATE2 PUSH13 0xAA1C8C563F33EC76FF26484DB6 0xFC LOG1 PUSH6 0x68473F5B48FB 0xD6 PUSH5 0x736F6C6343 STOP ADDMOD NOT STOP CALLER "
	},
	"abi": [
		{
			"inputs": [
				{
					"internalType": "string",
					"name": "_tokenName",
					"type": "string"
				},
				{
					"internalType": "string",
					"name": "_tokenSymbol",
					"type": "string"
				},
				{
					"internalType": "address",
					"name": "_minter",
					"type": "address"
				},
				{
					"internalType": "uint8",
					"name": "_decimals",
					"type": "uint8"
				}
			],
			"stateMutability": "nonpayable",
			"type": "constructor"
		},
		{
			"inputs": [],
			"name": "AccessControlBadConfirmation",
			"type": "error"
		},
		{
			"inputs": [
				{
					"internalType": "address",
					"name": "account",
					"type": "address"
				},
				{
					"internalType": "bytes32",
					"name": "neededRole",
					"type": "bytes32"
				}
			],
			"name": "AccessControlUnauthorizedAccount",
			"type": "error"
		},
		{
			"inputs": [
				{
					"internalType": "address",
					"name": "spender",
					"type": "address"
				},
				{
					"internalType": "uint256",
					"name": "allowance",
					"type": "uint256"
				},
				{
					"internalType": "uint256",
					"name": "needed",
					"type": "uint256"
				}
			],
			"name": "ERC20InsufficientAllowance",
			"type": "error"
		},
		{
			"inputs": [
				{
					"internalType": "address",
					"name": "sender",
					"type": "address"
				},
				{
					"internalType": "uint256",
					"name": "balance",
					"type": "uint256"
				},
				{
					"internalType": "uint256",
					"name": "needed",
					"type": "uint256"
				}
			],
			"name": "ERC20InsufficientBalance",
			"type": "error"
		},
		{
			"inputs": [
				{
					"internalType": "address",
					"name": "approver",
					"type": "address"
				}
			],
			"name": "ERC20InvalidApprover",
			"type": "error"
		},
		{
			"inputs": [
				{
					"internalType": "address",
					"name": "receiver",
					"type": "address"
				}
			],
			"name": "ERC20InvalidReceiver",
			"type": "error"
		},
		{
			"inputs": [
				{
					"internalType": "address",
					"name": "sender",
					"type": "address"
				}
			],
			"name": "ERC20InvalidSender",
			"type": "error"
		},
		{
			"inputs": [
				{
					"internalType": "address",
					"name": "spender",
					"type": "address"
				}
			],
			"name": "ERC20InvalidSpender",
			"type": "error"
		},
		{
			"anonymous": false,
			"inputs": [
				{
					"indexed": true,
					"internalType": "address",
					"name": "owner",
					"type": "address"
				},
				{
					"indexed": true,
					"internalType": "address",
					"name": "spender",
					"type": "address"
				},
				{
					"indexed": false,
					"internalType": "uint256",
					"name": "value",
					"type": "uint256"
				}
			],
			"name": "Approval",
			"type": "event"
		},
		{
			"anonymous": false,
			"inputs": [
				{
					"indexed": true,
					"internalType": "bytes32",
					"name": "role",
					"type": "bytes32"
				},
				{
					"indexed": true,
					"internalType": "bytes32",
					"name": "previousAdminRole",
					"type": "bytes32"
				},
				{
					"indexed": true,
					"internalType": "bytes32",
					"name": "newAdminRole",
					"type": "bytes32"
				}
			],
			"name": "RoleAdminChanged",
			"type": "event"
		},
		{
			"anonymous": false,
			"inputs": [
				{
					"indexed": true,
					"internalType": "bytes32",
					"name": "role",
					"type": "bytes32"
				},
				{
					"indexed": true,
					"internalType": "address",
					"name": "account",
					"type": "address"
				},
				{
					"indexed": true,
					"internalType": "address",
					"name": "sender",
					"type": "address"
				}
			],
			"name": "RoleGranted",
			"type": "event"
		},
		{
			"anonymous": false,
			"inputs": [
				{
					"indexed": true,
					"internalType": "bytes32",
					"name": "role",
					"type": "bytes32"
				},
				{
					"indexed": true,
					"internalType": "address",
					"name": "account",
					"type": "address"
				},
				{
					"indexed": true,
					"internalType": "address",
					"name": "sender",
					"type": "address"
				}
			],
			"name": "RoleRevoked",
			"type": "event"
		},
		{
			"anonymous": false,
			"inputs": [
				{
					"indexed": true,
					"internalType": "address",
					"name": "from",
					"type": "address"
				},
				{
					"indexed": true,
					"internalType": "address",
					"name": "to",
					"type": "address"
				},
				{
					"indexed": false,
					"internalType": "uint256",
					"name": "value",
					"type": "uint256"
				}
			],
			"name": "Transfer",
			"type": "event"
		},
		{
			"inputs": [],
			"name": "DEFAULT_ADMIN_ROLE",
			"outputs": [
				{
					"internalType": "bytes32",
					"name": "",
					"type": "bytes32"
				}
			],
			"stateMutability": "view",
			"type": "function"
		},
		{
			"inputs": [],
			"name": "MINTER_ROLE",
			"outputs": [
				{
					"internalType": "bytes32",
					"name": "",
					"type": "bytes32"
				}
			],
			"stateMutability": "view",
			"type": "function"
		},
		{
			"inputs": [
				{
					"internalType": "address",
					"name": "owner",
					"type": "address"
				},
				{
					"internalType": "address",
					"name": "spender",
					"type": "address"
				}
			],
			"name": "allowance",
			"outputs": [
				{
					"internalType": "uint256",
					"name": "",
					"type": "uint256"
				}
			],
			"stateMutability": "view",
			"type": "function"
		},
		{
			"inputs": [
				{
					"internalType": "address",
					"name": "spender",
					"type": "address"
				},
				{
					"internalType": "uint256",
					"name": "value",
					"type": "uint256"
				}
			],
			"name": "approve",
			"outputs": [
				{
					"internalType": "bool",
					"name": "",
					"type": "bool"
				}
			],
			"stateMutability": "nonpayable",
			"type": "function"
		},
		{
			"inputs": [
				{
					"internalType": "address",
					"name": "account",
					"type": "address"
				}
			],
			"name": "balanceOf",
			"outputs": [
				{
					"internalType": "uint256",
					"name": "",
					"type": "uint256"
				}
			],
			"stateMutability": "view",
			"type": "function"
		},
		{
			"inputs": [
				{
					"internalType": "uint256",
					"name": "value",
					"type": "uint256"
				}
			],
			"name": "burn",
			"outputs": [],
			"stateMutability": "nonpayable",
			"type": "function"
		},
		{
			"inputs": [
				{
					"internalType": "address",
					"name": "account",
					"type": "address"
				},
				{
					"internalType": "uint256",
					"name": "value",
					"type": "uint256"
				}
			],
			"name": "burnFrom",
			"outputs": [],
			"stateMutability": "nonpayable",
			"type": "function"
		},
		{
			"inputs": [],
			"name": "decimals",
			"outputs": [
				{
					"internalType": "uint8",
					"name": "",
					"type": "uint8"
				}
			],
			"stateMutability": "view",
			"type": "function"
		},
		{
			"inputs": [
				{
					"internalType": "bytes32",
					"name": "role",
					"type": "bytes32"
				}
			],
			"name": "getRoleAdmin",
			"outputs": [
				{
					"internalType": "bytes32",
					"name": "",
					"type": "bytes32"
				}
			],
			"stateMutability": "view",
			"type": "function"
		},
		{
			"inputs": [
				{
					"internalType": "bytes32",
					"name": "role",
					"type": "bytes32"
				},
				{
					"internalType": "address",
					"name": "account",
					"type": "address"
				}
			],
			"name": "grantRole",
			"outputs": [],
			"stateMutability": "nonpayable",
			"type": "function"
		},
		{
			"inputs": [
				{
					"internalType": "bytes32",
					"name": "role",
					"type": "bytes32"
				},
				{
					"internalType": "address",
					"name": "account",
					"type": "address"
				}
			],
			"name": "hasRole",
			"outputs": [
				{
					"internalType": "bool",
					"name": "",
					"type": "bool"
				}
			],
			"stateMutability": "view",
			"type": "function"
		},
		{
			"inputs": [
				{
					"internalType": "address",
					"name": "to",
					"type": "address"
				},
				{
					"internalType": "uint256",
					"name": "amount",
					"type": "uint256"
				}
			],
			"name": "mint",
			"outputs": [],
			"stateMutability": "nonpayable",
			"type": "function"
		},
		{
			"inputs": [],
			"name": "name",
			"outputs": [
				{
					"internalType": "string",
					"name": "",
					"type": "string"
				}
			],
			"stateMutability": "view",
			"type": "function"
		},
		{
			"inputs": [
				{
					"internalType": "bytes32",
					"name": "role",
					"type": "bytes32"
				},
				{
					"internalType": "address",
					"name": "callerConfirmation",
					"type": "address"
				}
			],
			"name": "renounceRole",
			"outputs": [],
			"stateMutability": "nonpayable",
			"type": "function"
		},
		{
			"inputs": [
				{
					"internalType": "bytes32",
					"name": "role",
					"type": "bytes32"
				},
				{
					"internalType": "address",
					"name": "account",
					"type": "address"
				}
			],
			"name": "revokeRole",
			"outputs": [],
			"stateMutability": "nonpayable",
			"type": "function"
		},
		{
			"inputs": [
				{
					"internalType": "bytes4",
					"name": "interfaceId",
					"type": "bytes4"
				}
			],
			"name": "supportsInterface",
			"outputs": [
				{
					"internalType": "bool",
					"name": "",
					"type": "bool"
				}
			],
			"stateMutability": "view",
			"type": "function"
		},
		{
			"inputs": [],
			"name": "symbol",
			"outputs": [
				{
					"internalType": "string",
					"name": "",
					"type": "string"
				}
			],
			"stateMutability": "view",
			"type": "function"
		},
		{
			"inputs": [],
			"name": "totalSupply",
			"outputs": [
				{
					"internalType": "uint256",
					"name": "",
					"type": "uint256"
				}
			],
			"stateMutability": "view",
			"type": "function"
		},
		{
			"inputs": [
				{
					"internalType": "address",
					"name": "to",
					"type": "address"
				},
				{
					"internalType": "uint256",
					"name": "value",
					"type": "uint256"
				}
			],
			"name": "transfer",
			"outputs": [
				{
					"internalType": "bool",
					"name": "",
					"type": "bool"
				}
			],
			"stateMutability": "nonpayable",
			"type": "function"
		},
		{
			"inputs": [
				{
					"internalType": "address",
					"name": "from",
					"type": "address"
				},
				{
					"internalType": "address",
					"name": "to",
					"type": "address"
				},
				{
					"internalType": "uint256",
					"name": "value",
					"type": "uint256"
				}
			],
			"name": "transferFrom",
			"outputs": [
				{
					"internalType": "bool",
					"name": "",
					"type": "bool"
				}
			],
			"stateMutability": "nonpayable",
			"type": "function"
		}
	],
	"storageLayout": {
		"storage": [
			{
				"astId": 538,
				"contract": "src/ERC6909.sol:FluxERC20",
				"label": "_balances",
				"offset": 0,
				"slot": "0",
				"type": "t_mapping(t_address,t_uint256)"
			},
			{
				"astId": 544,
				"contract": "src/ERC6909.sol:FluxERC20",
				"label": "_allowances",
				"offset": 0,
				"slot": "1",
				"type": "t_mapping(t_address,t_mapping(t_address,t_uint256))"
			},
			{
				"astId": 546,
				"contract": "src/ERC6909.sol:FluxERC20",
				"label": "_totalSupply",
				"offset": 0,
				"slot": "2",
				"type": "t_uint256"
			},
			{
				"astId": 548,
				"contract": "src/ERC6909.sol:FluxERC20",
				"label": "_name",
				"offset": 0,
				"slot": "3",
				"type": "t_string_storage"
			},
			{
				"astId": 550,
				"contract": "src/ERC6909.sol:FluxERC20",
				"label": "_symbol",
				"offset": 0,
				"slot": "4",
				"type": "t_string_storage"
			},
			{
				"astId": 26,
				"contract": "src/ERC6909.sol:FluxERC20",
				"label": "_roles",
				"offset": 0,
				"slot": "5",
				"type": "t_mapping(t_bytes32,t_struct(RoleData)21_storage)"
			},
			{
				"astId": 1264,
				"contract": "src/ERC6909.sol:FluxERC20",
				"label": "decimals_value",
				"offset": 0,
				"slot": "6",
				"type": "t_uint8"
			}
		],
		"types": {
			"t_address": {
				"encoding": "inplace",
				"label": "address",
				"numberOfBytes": "20"
			},
			"t_bool": {
				"encoding": "inplace",
				"label": "bool",
				"numberOfBytes": "1"
			},
			"t_bytes32": {
				"encoding": "inplace",
				"label": "bytes32",
				"numberOfBytes": "32"
			},
			"t_mapping(t_address,t_bool)": {
				"encoding": "mapping",
				"key": "t_address",
				"label": "mapping(address => bool)",
				"numberOfBytes": "32",
				"value": "t_bool"
			},
			"t_mapping(t_address,t_mapping(t_address,t_uint256))": {
				"encoding": "mapping",
				"key": "t_address",
				"label": "mapping(address => mapping(address => uint256))",
				"numberOfBytes": "32",
				"value": "t_mapping(t_address,t_uint256)"
			},
			"t_mapping(t_address,t_uint256)": {
				"encoding": "mapping",
				"key": "t_address",
				"label": "mapping(address => uint256)",
				"numberOfBytes": "32",
				"value": "t_uint256"
			},
			"t_mapping(t_bytes32,t_struct(RoleData)21_storage)": {
				"encoding": "mapping",
				"key": "t_bytes32",
				"label": "mapping(bytes32 => struct AccessControl.RoleData)",
				"numberOfBytes": "32",
				"value": "t_struct(RoleData)21_storage"
			},
			"t_string_storage": {
				"encoding": "bytes",
				"label": "string",
				"numberOfBytes": "32"
			},
			"t_struct(RoleData)21_storage": {
				"encoding": "inplace",
				"label": "struct AccessControl.RoleData",
				"members": [
					{
						"astId": 18,
						"contract": "src/ERC6909.sol:FluxERC20",
						"label": "hasRole",
						"offset": 0,
						"slot": "0",
						"type": "t_mapping(t_address,t_bool)"
					},
					{
						"astId": 20,
						"contract": "src/ERC6909.sol:FluxERC20",
						"label": "adminRole",
						"offset": 0,
						"slot": "1",
						"type": "t_bytes32"
					}
				],
				"numberOfBytes": "64"
			},
			"t_uint256": {
				"encoding": "inplace",
				"label": "uint256",
				"numberOfBytes": "32"
			},
			"t_uint8": {
				"encoding": "inplace",
				"label": "uint8",
				"numberOfBytes": "1"
			}
		}
	},
	"web3Deploy": "var _tokenName = /* var of type string here */ ;\nvar _tokenSymbol = /* var of type string here */ ;\nvar _minter = /* var of type address here */ ;\nvar _decimals = /* var of type uint8 here */ ;\nvar fluxerc20Contract = new web3.eth.Contract([{\"inputs\":[{\"internalType\":\"string\",\"name\":\"_tokenName\",\"type\":\"string\"},{\"internalType\":\"string\",\"name\":\"_tokenSymbol\",\"type\":\"string\"},{\"internalType\":\"address\",\"name\":\"_minter\",\"type\":\"address\"},{\"internalType\":\"uint8\",\"name\":\"_decimals\",\"type\":\"uint8\"}],\"stateMutability\":\"nonpayable\",\"type\":\"constructor\"},{\"inputs\":[],\"name\":\"AccessControlBadConfirmation\",\"type\":\"error\"},{\"inputs\":[{\"internalType\":\"address\",\"name\":\"account\",\"type\":\"address\"},{\"internalType\":\"bytes32\",\"name\":\"neededRole\",\"type\":\"bytes32\"}],\"name\":\"AccessControlUnauthorizedAccount\",\"type\":\"error\"},{\"inputs\":[{\"internalType\":\"address\",\"name\":\"spender\",\"type\":\"address\"},{\"internalType\":\"uint256\",\"name\":\"allowance\",\"type\":\"uint256\"},{\"internalType\":\"uint256\",\"name\":\"needed\",\"type\":\"uint256\"}],\"name\":\"ERC20InsufficientAllowance\",\"type\":\"error\"},{\"inputs\":[{\"internalType\":\"address\",\"name\":\"sender\",\"type\":\"address\"},{\"internalType\":\"uint256\",\"name\":\"balance\",\"type\":\"uint256\"},{\"internalType\":\"uint256\",\"name\":\"needed\",\"type\":\"uint256\"}],\"name\":\"ERC20InsufficientBalance\",\"type\":\"error\"},{\"inputs\":[{\"internalType\":\"address\",\"name\":\"approver\",\"type\":\"address\"}],\"name\":\"ERC20InvalidApprover\",\"type\":\"error\"},{\"inputs\":[{\"internalType\":\"address\",\"name\":\"receiver\",\"type\":\"address\"}],\"name\":\"ERC20InvalidReceiver\",\"type\":\"error\"},{\"inputs\":[{\"internalType\":\"address\",\"name\":\"sender\",\"type\":\"address\"}],\"name\":\"ERC20InvalidSender\",\"type\":\"error\"},{\"inputs\":[{\"internalType\":\"address\",\"name\":\"spender\",\"type\":\"address\"}],\"name\":\"ERC20InvalidSpender\",\"type\":\"error\"},{\"anonymous\":false,\"inputs\":[{\"indexed\":true,\"internalType\":\"address\",\"name\":\"owner\",\"type\":\"address\"},{\"indexed\":true,\"internalType\":\"address\",\"name\":\"spender\",\"type\":\"address\"},{\"indexed\":false,\"internalType\":\"uint256\",\"name\":\"value\",\"type\":\"uint256\"}],\"name\":\"Approval\",\"type\":\"event\"},{\"anonymous\":false,\"inputs\":[{\"indexed\":true,\"internalType\":\"bytes32\",\"name\":\"role\",\"type\":\"bytes32\"},{\"indexed\":true,\"internalType\":\"bytes32\",\"name\":\"previousAdminRole\",\"type\":\"bytes32\"},{\"indexed\":true,\"internalType\":\"bytes32\",\"name\":\"newAdminRole\",\"type\":\"bytes32\"}],\"name\":\"RoleAdminChanged\",\"type\":\"event\"},{\"anonymous\":false,\"inputs\":[{\"indexed\":true,\"internalType\":\"bytes32\",\"name\":\"role\",\"type\":\"bytes32\"},{\"indexed\":true,\"internalType\":\"address\",\"name\":\"account\",\"type\":\"address\"},{\"indexed\":true,\"internalType\":\"address\",\"name\":\"sender\",\"type\":\"address\"}],\"name\":\"RoleGranted\",\"type\":\"event\"},{\"anonymous\":false,\"inputs\":[{\"indexed\":true,\"internalType\":\"bytes32\",\"name\":\"role\",\"type\":\"bytes32\"},{\"indexed\":true,\"internalType\":\"address\",\"name\":\"account\",\"type\":\"address\"},{\"indexed\":true,\"internalType\":\"address\",\"name\":\"sender\",\"type\":\"address\"}],\"name\":\"RoleRevoked\",\"type\":\"event\"},{\"anonymous\":false,\"inputs\":[{\"indexed\":true,\"internalType\":\"address\",\"name\":\"from\",\"type\":\"address\"},{\"indexed\":true,\"internalType\":\"address\",\"name\":\"to\",\"type\":\"address\"},{\"indexed\":false,\"internalType\":\"uint256\",\"name\":\"value\",\"type\":\"uint256\"}],\"name\":\"Transfer\",\"type\":\"event\"},{\"inputs\":[],\"name\":\"DEFAULT_ADMIN_ROLE\",\"outputs\":[{\"internalType\":\"bytes32\",\"name\":\"\",\"type\":\"bytes32\"}],\"stateMutability\":\"view\",\"type\":\"function\"},{\"inputs\":[],\"name\":\"MINTER_ROLE\",\"outputs\":[{\"internalType\":\"bytes32\",\"name\":\"\",\"type\":\"bytes32\"}],\"stateMutability\":\"view\",\"type\":\"function\"},{\"inputs\":[{\"internalType\":\"address\",\"name\":\"owner\",\"type\":\"address\"},{\"internalType\":\"address\",\"name\":\"spender\",\"type\":\"address\"}],\"name\":\"allowance\",\"outputs\":[{\"internalType\":\"uint256\",\"name\":\"\",\"type\":\"uint256\"}],\"stateMutability\":\"view\",\"type\":\"function\"},{\"inputs\":[{\"internalType\":\"address\",\"name\":\"spender\",\"type\":\"address\"},{\"internalType\":\"uint256\",\"name\":\"value\",\"type\":\"uint256\"}],\"name\":\"approve\",\"outputs\":[{\"internalType\":\"bool\",\"name\":\"\",\"type\":\"bool\"}],\"stateMutability\":\"nonpayable\",\"type\":\"function\"},{\"inputs\":[{\"internalType\":\"address\",\"name\":\"account\",\"type\":\"address\"}],\"name\":\"balanceOf\",\"outputs\":[{\"internalType\":\"uint256\",\"name\":\"\",\"type\":\"uint256\"}],\"stateMutability\":\"view\",\"type\":\"function\"},{\"inputs\":[{\"internalType\":\"uint256\",\"name\":\"value\",\"type\":\"uint256\"}],\"name\":\"burn\",\"outputs\":[],\"stateMutability\":\"nonpayable\",\"type\":\"function\"},{\"inputs\":[{\"internalType\":\"address\",\"name\":\"account\",\"type\":\"address\"},{\"internalType\":\"uint256\",\"name\":\"value\",\"type\":\"uint256\"}],\"name\":\"burnFrom\",\"outputs\":[],\"stateMutability\":\"nonpayable\",\"type\":\"function\"},{\"inputs\":[],\"name\":\"decimals\",\"outputs\":[{\"internalType\":\"uint8\",\"name\":\"\",\"type\":\"uint8\"}],\"stateMutability\":\"view\",\"type\":\"function\"},{\"inputs\":[{\"internalType\":\"bytes32\",\"name\":\"role\",\"type\":\"bytes32\"}],\"name\":\"getRoleAdmin\",\"outputs\":[{\"internalType\":\"bytes32\",\"name\":\"\",\"type\":\"bytes32\"}],\"stateMutability\":\"view\",\"type\":\"function\"},{\"inputs\":[{\"internalType\":\"bytes32\",\"name\":\"role\",\"type\":\"bytes32\"},{\"internalType\":\"address\",\"name\":\"account\",\"type\":\"address\"}],\"name\":\"grantRole\",\"outputs\":[],\"stateMutability\":\"nonpayable\",\"type\":\"function\"},{\"inputs\":[{\"internalType\":\"bytes32\",\"name\":\"role\",\"type\":\"bytes32\"},{\"internalType\":\"address\",\"name\":\"account\",\"type\":\"address\"}],\"name\":\"hasRole\",\"outputs\":[{\"internalType\":\"bool\",\"name\":\"\",\"type\":\"bool\"}],\"stateMutability\":\"view\",\"type\":\"function\"},{\"inputs\":[{\"internalType\":\"address\",\"name\":\"to\",\"type\":\"address\"},{\"internalType\":\"uint256\",\"name\":\"amount\",\"type\":\"uint256\"}],\"name\":\"mint\",\"outputs\":[],\"stateMutability\":\"nonpayable\",\"type\":\"function\"},{\"inputs\":[],\"name\":\"name\",\"outputs\":[{\"internalType\":\"string\",\"name\":\"\",\"type\":\"string\"}],\"stateMutability\":\"view\",\"type\":\"function\"},{\"inputs\":[{\"internalType\":\"bytes32\",\"name\":\"role\",\"type\":\"bytes32\"},{\"internalType\":\"address\",\"name\":\"callerConfirmation\",\"type\":\"address\"}],\"name\":\"renounceRole\",\"outputs\":[],\"stateMutability\":\"nonpayable\",\"type\":\"function\"},{\"inputs\":[{\"internalType\":\"bytes32\",\"name\":\"role\",\"type\":\"bytes32\"},{\"internalType\":\"address\",\"name\":\"account\",\"type\":\"address\"}],\"name\":\"revokeRole\",\"outputs\":[],\"stateMutability\":\"nonpayable\",\"type\":\"function\"},{\"inputs\":[{\"internalType\":\"bytes4\",\"name\":\"interfaceId\",\"type\":\"bytes4\"}],\"name\":\"supportsInterface\",\"outputs\":[{\"internalType\":\"bool\",\"name\":\"\",\"type\":\"bool\"}],\"stateMutability\":\"view\",\"type\":\"function\"},{\"inputs\":[],\"name\":\"symbol\",\"outputs\":[{\"internalType\":\"string\",\"name\":\"\",\"type\":\"string\"}],\"stateMutability\":\"view\",\"type\":\"function\"},{\"inputs\":[],\"name\":\"totalSupply\",\"outputs\":[{\"internalType\":\"uint256\",\"name\":\"\",\"type\":\"uint256\"}],\"stateMutability\":\"view\",\"type\":\"function\"},{\"inputs\":[{\"internalType\":\"address\",\"name\":\"to\",\"type\":\"address\"},{\"internalType\":\"uint256\",\"name\":\"value\",\"type\":\"uint256\"}],\"name\":\"transfer\",\"outputs\":[{\"internalType\":\"bool\",\"name\":\"\",\"type\":\"bool\"}],\"stateMutability\":\"nonpayable\",\"type\":\"function\"},{\"inputs\":[{\"internalType\":\"address\",\"name\":\"from\",\"type\":\"address\"},{\"internalType\":\"address\",\"name\":\"to\",\"type\":\"address\"},{\"internalType\":\"uint256\",\"name\":\"value\",\"type\":\"uint256\"}],\"name\":\"transferFrom\",\"outputs\":[{\"internalType\":\"bool\",\"name\":\"\",\"type\":\"bool\"}],\"stateMutability\":\"nonpayable\",\"type\":\"function\"}]);\nvar fluxerc20 = fluxerc20Contract.deploy({\n     data: '0x608060405234801561000f575f80fd5b50604051611eed380380611eed833981810160405281019061003191906103e7565b838381600390816100429190610690565b5080600490816100529190610690565b5050506100857f9f2df0fed2c77648de5860a4cc508cd0818c85b8b8a1ab4ceeef8d981c8956a6836100a960201b60201c565b508060065f6101000a81548160ff021916908360ff1602179055505050505061075f565b5f6100ba838361019f60201b60201c565b61019557600160055f8581526020019081526020015f205f015f8473ffffffffffffffffffffffffffffffffffffffff1673ffffffffffffffffffffffffffffffffffffffff1681526020019081526020015f205f6101000a81548160ff02191690831515021790555061013261020360201b60201c565b73ffffffffffffffffffffffffffffffffffffffff168273ffffffffffffffffffffffffffffffffffffffff16847f2f8788117e7eff1d82e926ec794901d17c78024a50270940304540a733656f0d60405160405180910390a460019050610199565b5f90505b92915050565b5f60055f8481526020019081526020015f205f015f8373ffffffffffffffffffffffffffffffffffffffff1673ffffffffffffffffffffffffffffffffffffffff1681526020019081526020015f205f9054906101000a900460ff16905092915050565b5f33905090565b5f604051905090565b5f80fd5b5f80fd5b5f80fd5b5f80fd5b5f601f19601f8301169050919050565b7f4e487b71000000000000000000000000000000000000000000000000000000005f52604160045260245ffd5b61026982610223565b810181811067ffffffffffffffff8211171561028857610287610233565b5b80604052505050565b5f61029a61020a565b90506102a68282610260565b919050565b5f67ffffffffffffffff8211156102c5576102c4610233565b5b6102ce82610223565b9050602081019050919050565b8281835e5f83830152505050565b5f6102fb6102f6846102ab565b610291565b9050828152602081018484840111156103175761031661021f565b5b6103228482856102db565b509392505050565b5f82601f83011261033e5761033d61021b565b5b815161034e8482602086016102e9565b91505092915050565b5f73ffffffffffffffffffffffffffffffffffffffff82169050919050565b5f61038082610357565b9050919050565b61039081610376565b811461039a575f80fd5b50565b5f815190506103ab81610387565b92915050565b5f60ff82169050919050565b6103c6816103b1565b81146103d0575f80fd5b50565b5f815190506103e1816103bd565b92915050565b5f805f80608085870312156103ff576103fe610213565b5b5f85015167ffffffffffffffff81111561041c5761041b610217565b5b6104288782880161032a565b945050602085015167ffffffffffffffff81111561044957610448610217565b5b6104558782880161032a565b93505060406104668782880161039d565b9250506060610477878288016103d3565b91505092959194509250565b5f81519050919050565b7f4e487b71000000000000000000000000000000000000000000000000000000005f52602260045260245ffd5b5f60028204905060018216806104d157607f821691505b6020821081036104e4576104e361048d565b5b50919050565b5f819050815f5260205f209050919050565b5f6020601f8301049050919050565b5f82821b905092915050565b5f600883026105467fffffffffffffffffffffffffffffffffffffffffffffffffffffffffffffffff8261050b565b610550868361050b565b95508019841693508086168417925050509392505050565b5f819050919050565b5f819050919050565b5f61059461058f61058a84610568565b610571565b610568565b9050919050565b5f819050919050565b6105ad8361057a565b6105c16105b98261059b565b848454610517565b825550505050565b5f90565b6105d56105c9565b6105e08184846105a4565b505050565b5b81811015610603576105f85f826105cd565b6001810190506105e6565b5050565b601f82111561064857610619816104ea565b610622846104fc565b81016020851015610631578190505b61064561063d856104fc565b8301826105e5565b50505b505050565b5f82821c905092915050565b5f6106685f198460080261064d565b1980831691505092915050565b5f6106808383610659565b9150826002028217905092915050565b61069982610483565b67ffffffffffffffff8111156106b2576106b1610233565b5b6106bc82546104ba565b6106c7828285610607565b5f60209050601f8311600181146106f8575f84156106e6578287015190505b6106f08582610675565b865550610757565b601f198416610706866104ea565b5f5b8281101561072d57848901518255600182019150602085019450602081019050610708565b8683101561074a5784890151610746601f891682610659565b8355505b6001600288020188555050505b505050505050565b6117818061076c5f395ff3fe608060405234801561000f575f80fd5b506004361061012a575f3560e01c806342966c68116100ab578063a217fddf1161006f578063a217fddf14610352578063a9059cbb14610370578063d5391393146103a0578063d547741f146103be578063dd62ed3e146103da5761012a565b806342966c681461029c57806370a08231146102b857806379cc6790146102e857806391d148541461030457806395d89b41146103345761012a565b8063248a9ca3116100f2578063248a9ca3146101fa5780632f2ff15d1461022a578063313ce5671461024657806336568abe1461026457806340c10f19146102805761012a565b806301ffc9a71461012e57806306fdde031461015e578063095ea7b31461017c57806318160ddd146101ac57806323b872dd146101ca575b5f80fd5b6101486004803603810190610143919061124d565b61040a565b6040516101559190611292565b60405180910390f35b610166610483565b604051610173919061131b565b60405180910390f35b610196600480360381019061019191906113c8565b610513565b6040516101a39190611292565b60405180910390f35b6101b4610535565b6040516101c19190611415565b60405180910390f35b6101e460048036038101906101df919061142e565b61053e565b6040516101f19190611292565b60405180910390f35b610214600480360381019061020f91906114b1565b61056c565b60405161022191906114eb565b60405180910390f35b610244600480360381019061023f9190611504565b610589565b005b61024e6105ab565b60405161025b919061155d565b60405180910390f35b61027e60048036038101906102799190611504565b6105c0565b005b61029a600480360381019061029591906113c8565b61063b565b005b6102b660048036038101906102b19190611576565b610674565b005b6102d260048036038101906102cd91906115a1565b610688565b6040516102df9190611415565b60405180910390f35b61030260048036038101906102fd91906113c8565b6106cd565b005b61031e60048036038101906103199190611504565b6106ed565b60405161032b9190611292565b60405180910390f35b61033c610751565b604051610349919061131b565b60405180910390f35b61035a6107e1565b60405161036791906114eb565b60405180910390f35b61038a600480360381019061038591906113c8565b6107e7565b6040516103979190611292565b60405180910390f35b6103a8610809565b6040516103b591906114eb565b60405180910390f35b6103d860048036038101906103d39190611504565b61082d565b005b6103f460048036038101906103ef91906115cc565b61084f565b6040516104019190611415565b60405180910390f35b5f7f7965db0b000000000000000000000000000000000000000000000000000000007bffffffffffffffffffffffffffffffffffffffffffffffffffffffff1916827bffffffffffffffffffffffffffffffffffffffffffffffffffffffff1916148061047c575061047b826108d1565b5b9050919050565b60606003805461049290611637565b80601f01602080910402602001604051908101604052809291908181526020018280546104be90611637565b80156105095780601f106104e057610100808354040283529160200191610509565b820191905f5260205f20905b8154815290600101906020018083116104ec57829003601f168201915b5050505050905090565b5f8061051d61093a565b905061052a818585610941565b600191505092915050565b5f600254905090565b5f8061054861093a565b9050610555858285610953565b6105608585856109e5565b60019150509392505050565b5f60055f8381526020019081526020015f20600101549050919050565b6105928261056c565b61059b81610ad5565b6105a58383610ae9565b50505050565b5f60065f9054906101000a900460ff16905090565b6105c861093a565b73ffffffffffffffffffffffffffffffffffffffff168173ffffffffffffffffffffffffffffffffffffffff161461062c576040517f6697b23200000000000000000000000000000000000000000000000000000000815260040160405180910390fd5b6106368282610bd3565b505050565b7f9f2df0fed2c77648de5860a4cc508cd0818c85b8b8a1ab4ceeef8d981c8956a661066581610ad5565b61066f8383610cbd565b505050565b61068561067f61093a565b82610d3c565b50565b5f805f8373ffffffffffffffffffffffffffffffffffffffff1673ffffffffffffffffffffffffffffffffffffffff1681526020019081526020015f20549050919050565b6106df826106d961093a565b83610953565b6106e98282610d3c565b5050565b5f60055f8481526020019081526020015f205f015f8373ffffffffffffffffffffffffffffffffffffffff1673ffffffffffffffffffffffffffffffffffffffff1681526020019081526020015f205f9054906101000a900460ff16905092915050565b60606004805461076090611637565b80601f016020809104026020016040519081016040528092919081815260200182805461078c90611637565b80156107d75780601f106107ae576101008083540402835291602001916107d7565b820191905f5260205f20905b8154815290600101906020018083116107ba57829003601f168201915b5050505050905090565b5f801b81565b5f806107f161093a565b90506107fe8185856109e5565b600191505092915050565b7f9f2df0fed2c77648de5860a4cc508cd0818c85b8b8a1ab4ceeef8d981c8956a681565b6108368261056c565b61083f81610ad5565b6108498383610bd3565b50505050565b5f60015f8473ffffffffffffffffffffffffffffffffffffffff1673ffffffffffffffffffffffffffffffffffffffff1681526020019081526020015f205f8373ffffffffffffffffffffffffffffffffffffffff1673ffffffffffffffffffffffffffffffffffffffff1681526020019081526020015f2054905092915050565b5f7f01ffc9a7000000000000000000000000000000000000000000000000000000007bffffffffffffffffffffffffffffffffffffffffffffffffffffffff1916827bffffffffffffffffffffffffffffffffffffffffffffffffffffffff1916149050919050565b5f33905090565b61094e8383836001610dbb565b505050565b5f61095e848461084f565b90507fffffffffffffffffffffffffffffffffffffffffffffffffffffffffffffffff81146109df57818110156109d0578281836040517ffb8f41b20000000000000000000000000000000000000000000000000000000081526004016109c793929190611676565b60405180910390fd5b6109de84848484035f610dbb565b5b50505050565b5f73ffffffffffffffffffffffffffffffffffffffff168373ffffffffffffffffffffffffffffffffffffffff1603610a55575f6040517f96c6fd1e000000000000000000000000000000000000000000000000000000008152600401610a4c91906116ab565b60405180910390fd5b5f73ffffffffffffffffffffffffffffffffffffffff168273ffffffffffffffffffffffffffffffffffffffff1603610ac5575f6040517fec442f05000000000000000000000000000000000000000000000000000000008152600401610abc91906116ab565b60405180910390fd5b610ad0838383610f8a565b505050565b610ae681610ae161093a565b6111a3565b50565b5f610af483836106ed565b610bc957600160055f8581526020019081526020015f205f015f8473ffffffffffffffffffffffffffffffffffffffff1673ffffffffffffffffffffffffffffffffffffffff1681526020019081526020015f205f6101000a81548160ff021916908315150217905550610b6661093a565b73ffffffffffffffffffffffffffffffffffffffff168273ffffffffffffffffffffffffffffffffffffffff16847f2f8788117e7eff1d82e926ec794901d17c78024a50270940304540a733656f0d60405160405180910390a460019050610bcd565b5f90505b92915050565b5f610bde83836106ed565b15610cb3575f60055f8581526020019081526020015f205f015f8473ffffffffffffffffffffffffffffffffffffffff1673ffffffffffffffffffffffffffffffffffffffff1681526020019081526020015f205f6101000a81548160ff021916908315150217905550610c5061093a565b73ffffffffffffffffffffffffffffffffffffffff168273ffffffffffffffffffffffffffffffffffffffff16847ff6391f5c32d9c69d2a47ea670b442974b53935d1edc7fd64eb21e047a839171b60405160405180910390a460019050610cb7565b5f90505b92915050565b5f73ffffffffffffffffffffffffffffffffffffffff168273ffffffffffffffffffffffffffffffffffffffff1603610d2d575f6040517fec442f05000000000000000000000000000000000000000000000000000000008152600401610d2491906116ab565b60405180910390fd5b610d385f8383610f8a565b5050565b5f73ffffffffffffffffffffffffffffffffffffffff168273ffffffffffffffffffffffffffffffffffffffff1603610dac575f6040517f96c6fd1e000000000000000000000000000000000000000000000000000000008152600401610da391906116ab565b60405180910390fd5b610db7825f83610f8a565b5050565b5f73ffffffffffffffffffffffffffffffffffffffff168473ffffffffffffffffffffffffffffffffffffffff1603610e2b575f6040517fe602df05000000000000000000000000000000000000000000000000000000008152600401610e2291906116ab565b60405180910390fd5b5f73ffffffffffffffffffffffffffffffffffffffff168373ffffffffffffffffffffffffffffffffffffffff1603610e9b575f6040517f94280d62000000000000000000000000000000000000000000000000000000008152600401610e9291906116ab565b60405180910390fd5b8160015f8673ffffffffffffffffffffffffffffffffffffffff1673ffffffffffffffffffffffffffffffffffffffff1681526020019081526020015f205f8573ffffffffffffffffffffffffffffffffffffffff1673ffffffffffffffffffffffffffffffffffffffff1681526020019081526020015f20819055508015610f84578273ffffffffffffffffffffffffffffffffffffffff168473ffffffffffffffffffffffffffffffffffffffff167f8c5be1e5ebec7d5bd14f71427d1e84f3dd0314c0f7b2291e5b200ac8c7c3b92584604051610f7b9190611415565b60405180910390a35b50505050565b5f73ffffffffffffffffffffffffffffffffffffffff168373ffffffffffffffffffffffffffffffffffffffff1603610fda578060025f828254610fce91906116f1565b925050819055506110a8565b5f805f8573ffffffffffffffffffffffffffffffffffffffff1673ffffffffffffffffffffffffffffffffffffffff1681526020019081526020015f2054905081811015611063578381836040517fe450d38c00000000000000000000000000000000000000000000000000000000815260040161105a93929190611676565b60405180910390fd5b8181035f808673ffffffffffffffffffffffffffffffffffffffff1673ffffffffffffffffffffffffffffffffffffffff1681526020019081526020015f2081905550505b5f73ffffffffffffffffffffffffffffffffffffffff168273ffffffffffffffffffffffffffffffffffffffff16036110ef578060025f8282540392505081905550611139565b805f808473ffffffffffffffffffffffffffffffffffffffff1673ffffffffffffffffffffffffffffffffffffffff1681526020019081526020015f205f82825401925050819055505b8173ffffffffffffffffffffffffffffffffffffffff168373ffffffffffffffffffffffffffffffffffffffff167fddf252ad1be2c89b69c2b068fc378daa952ba7f163c4a11628f55a4df523b3ef836040516111969190611415565b60405180910390a3505050565b6111ad82826106ed565b6111f05780826040517fe2517d3f0000000000000000000000000000000000000000000000000000000081526004016111e7929190611724565b60405180910390fd5b5050565b5f80fd5b5f7fffffffff0000000000000000000000000000000000000000000000000000000082169050919050565b61122c816111f8565b8114611236575f80fd5b50565b5f8135905061124781611223565b92915050565b5f60208284031215611262576112616111f4565b5b5f61126f84828501611239565b91505092915050565b5f8115159050919050565b61128c81611278565b82525050565b5f6020820190506112a55f830184611283565b92915050565b5f81519050919050565b5f82825260208201905092915050565b8281835e5f83830152505050565b5f601f19601f8301169050919050565b5f6112ed826112ab565b6112f781856112b5565b93506113078185602086016112c5565b611310816112d3565b840191505092915050565b5f6020820190508181035f83015261133381846112e3565b905092915050565b5f73ffffffffffffffffffffffffffffffffffffffff82169050919050565b5f6113648261133b565b9050919050565b6113748161135a565b811461137e575f80fd5b50565b5f8135905061138f8161136b565b92915050565b5f819050919050565b6113a781611395565b81146113b1575f80fd5b50565b5f813590506113c28161139e565b92915050565b5f80604083850312156113de576113dd6111f4565b5b5f6113eb85828601611381565b92505060206113fc858286016113b4565b9150509250929050565b61140f81611395565b82525050565b5f6020820190506114285f830184611406565b92915050565b5f805f60608486031215611445576114446111f4565b5b5f61145286828701611381565b935050602061146386828701611381565b9250506040611474868287016113b4565b9150509250925092565b5f819050919050565b6114908161147e565b811461149a575f80fd5b50565b5f813590506114ab81611487565b92915050565b5f602082840312156114c6576114c56111f4565b5b5f6114d38482850161149d565b91505092915050565b6114e58161147e565b82525050565b5f6020820190506114fe5f8301846114dc565b92915050565b5f806040838503121561151a576115196111f4565b5b5f6115278582860161149d565b925050602061153885828601611381565b9150509250929050565b5f60ff82169050919050565b61155781611542565b82525050565b5f6020820190506115705f83018461154e565b92915050565b5f6020828403121561158b5761158a6111f4565b5b5f611598848285016113b4565b91505092915050565b5f602082840312156115b6576115b56111f4565b5b5f6115c384828501611381565b91505092915050565b5f80604083850312156115e2576115e16111f4565b5b5f6115ef85828601611381565b925050602061160085828601611381565b9150509250929050565b7f4e487b71000000000000000000000000000000000000000000000000000000005f52602260045260245ffd5b5f600282049050600182168061164e57607f821691505b6020821081036116615761166061160a565b5b50919050565b6116708161135a565b82525050565b5f6060820190506116895f830186611667565b6116966020830185611406565b6116a36040830184611406565b949350505050565b5f6020820190506116be5f830184611667565b92915050565b7f4e487b71000000000000000000000000000000000000000000000000000000005f52601160045260245ffd5b5f6116fb82611395565b915061170683611395565b925082820190508082111561171e5761171d6116c4565b5b92915050565b5f6040820190506117375f830185611667565b61174460208301846114dc565b939250505056fea26469706673582212203f62540d84cc30f56caa1c8c563f33ec76ff26484db6fca16568473f5b48fbd664736f6c63430008190033', \n     arguments: [\n          _tokenName,\n          _tokenSymbol,\n          _minter,\n          _decimals,\n     ]\n}).send({\n     from: web3.eth.accounts[0], \n     gas: '4700000'\n   }, function (e, contract){\n    console.log(e, contract);\n    if (typeof contract.address !== 'undefined') {\n         console.log('Contract mined! address: ' + contract.address + ' transactionHash: ' + contract.transactionHash);\n    }\n })",
	"functionHashes": {
		"a217fddf": "DEFAULT_ADMIN_ROLE()",
		"d5391393": "MINTER_ROLE()",
		"dd62ed3e": "allowance(address,address)",
		"095ea7b3": "approve(address,uint256)",
		"70a08231": "balanceOf(address)",
		"42966c68": "burn(uint256)",
		"79cc6790": "burnFrom(address,uint256)",
		"313ce567": "decimals()",
		"248a9ca3": "getRoleAdmin(bytes32)",
		"2f2ff15d": "grantRole(bytes32,address)",
		"91d14854": "hasRole(bytes32,address)",
		"40c10f19": "mint(address,uint256)",
		"06fdde03": "name()",
		"36568abe": "renounceRole(bytes32,address)",
		"d547741f": "revokeRole(bytes32,address)",
		"01ffc9a7": "supportsInterface(bytes4)",
		"95d89b41": "symbol()",
		"18160ddd": "totalSupply()",
		"a9059cbb": "transfer(address,uint256)",
		"23b872dd": "transferFrom(address,address,uint256)"
	},
	"gasEstimates": {
		"Creation": {
			"codeDepositCost": "1203400",
			"executionCost": "infinite",
			"totalCost": "infinite"
		},
		"External": {
			"DEFAULT_ADMIN_ROLE()": "352",
			"MINTER_ROLE()": "391",
			"allowance(address,address)": "infinite",
			"approve(address,uint256)": "infinite",
			"balanceOf(address)": "2874",
			"burn(uint256)": "infinite",
			"burnFrom(address,uint256)": "infinite",
			"decimals()": "2540",
			"getRoleAdmin(bytes32)": "infinite",
			"grantRole(bytes32,address)": "infinite",
			"hasRole(bytes32,address)": "3211",
			"mint(address,uint256)": "infinite",
			"name()": "infinite",
			"renounceRole(bytes32,address)": "infinite",
			"revokeRole(bytes32,address)": "infinite",
			"supportsInterface(bytes4)": "741",
			"symbol()": "infinite",
			"totalSupply()": "2522",
			"transfer(address,uint256)": "infinite",
			"transferFrom(address,address,uint256)": "infinite"
		}
	},
	"devdoc": {
		"errors": {
			"AccessControlBadConfirmation()": [
				{
					"details": "The caller of a function is not the expected one. NOTE: Don't confuse with {AccessControlUnauthorizedAccount}."
				}
			],
			"AccessControlUnauthorizedAccount(address,bytes32)": [
				{
					"details": "The `account` is missing a role."
				}
			],
			"ERC20InsufficientAllowance(address,uint256,uint256)": [
				{
					"details": "Indicates a failure with the `spender`’s `allowance`. Used in transfers.",
					"params": {
						"allowance": "Amount of tokens a `spender` is allowed to operate with.",
						"needed": "Minimum amount required to perform a transfer.",
						"spender": "Address that may be allowed to operate on tokens without being their owner."
					}
				}
			],
			"ERC20InsufficientBalance(address,uint256,uint256)": [
				{
					"details": "Indicates an error related to the current `balance` of a `sender`. Used in transfers.",
					"params": {
						"balance": "Current balance for the interacting account.",
						"needed": "Minimum amount required to perform a transfer.",
						"sender": "Address whose tokens are being transferred."
					}
				}
			],
			"ERC20InvalidApprover(address)": [
				{
					"details": "Indicates a failure with the `approver` of a token to be approved. Used in approvals.",
					"params": {
						"approver": "Address initiating an approval operation."
					}
				}
			],
			"ERC20InvalidReceiver(address)": [
				{
					"details": "Indicates a failure with the token `receiver`. Used in transfers.",
					"params": {
						"receiver": "Address to which tokens are being transferred."
					}
				}
			],
			"ERC20InvalidSender(address)": [
				{
					"details": "Indicates a failure with the token `sender`. Used in transfers.",
					"params": {
						"sender": "Address whose tokens are being transferred."
					}
				}
			],
			"ERC20InvalidSpender(address)": [
				{
					"details": "Indicates a failure with the `spender` to be approved. Used in approvals.",
					"params": {
						"spender": "Address that may be allowed to operate on tokens without being their owner."
					}
				}
			]
		},
		"events": {
			"Approval(address,address,uint256)": {
				"details": "Emitted when the allowance of a `spender` for an `owner` is set by a call to {approve}. `value` is the new allowance."
			},
			"RoleAdminChanged(bytes32,bytes32,bytes32)": {
				"details": "Emitted when `newAdminRole` is set as ``role``'s admin role, replacing `previousAdminRole` `DEFAULT_ADMIN_ROLE` is the starting admin for all roles, despite {RoleAdminChanged} not being emitted signaling this."
			},
			"RoleGranted(bytes32,address,address)": {
				"details": "Emitted when `account` is granted `role`. `sender` is the account that originated the contract call, an admin role bearer except when using {AccessControl-_setupRole}."
			},
			"RoleRevoked(bytes32,address,address)": {
				"details": "Emitted when `account` is revoked `role`. `sender` is the account that originated the contract call:   - if using `revokeRole`, it is the admin role bearer   - if using `renounceRole`, it is the role bearer (i.e. `account`)"
			},
			"Transfer(address,address,uint256)": {
				"details": "Emitted when `value` tokens are moved from one account (`from`) to another (`to`). Note that `value` may be zero."
			}
		},
		"kind": "dev",
		"methods": {
			"allowance(address,address)": {
				"details": "See {IERC20-allowance}."
			},
			"approve(address,uint256)": {
				"details": "See {IERC20-approve}. NOTE: If `value` is the maximum `uint256`, the allowance is not updated on `transferFrom`. This is semantically equivalent to an infinite approval. Requirements: - `spender` cannot be the zero address."
			},
			"balanceOf(address)": {
				"details": "See {IERC20-balanceOf}."
			},
			"burn(uint256)": {
				"details": "Destroys a `value` amount of tokens from the caller. See {ERC20-_burn}."
			},
			"burnFrom(address,uint256)": {
				"details": "Destroys a `value` amount of tokens from `account`, deducting from the caller's allowance. See {ERC20-_burn} and {ERC20-allowance}. Requirements: - the caller must have allowance for ``accounts``'s tokens of at least `value`."
			},
			"decimals()": {
				"details": "Returns the number of decimals used to get its user representation. For example, if `decimals` equals `2`, a balance of `505` tokens should be displayed to a user as `5.05` (`505 / 10 ** 2`). Tokens usually opt for a value of 18, imitating the relationship between Ether and Wei. This is the default value returned by this function, unless it's overridden. NOTE: This information is only used for _display_ purposes: it in no way affects any of the arithmetic of the contract, including {IERC20-balanceOf} and {IERC20-transfer}."
			},
			"getRoleAdmin(bytes32)": {
				"details": "Returns the admin role that controls `role`. See {grantRole} and {revokeRole}. To change a role's admin, use {_setRoleAdmin}."
			},
			"grantRole(bytes32,address)": {
				"details": "Grants `role` to `account`. If `account` had not been already granted `role`, emits a {RoleGranted} event. Requirements: - the caller must have ``role``'s admin role. May emit a {RoleGranted} event."
			},
			"hasRole(bytes32,address)": {
				"details": "Returns `true` if `account` has been granted `role`."
			},
			"name()": {
				"details": "Returns the name of the token."
			},
			"renounceRole(bytes32,address)": {
				"details": "Revokes `role` from the calling account. Roles are often managed via {grantRole} and {revokeRole}: this function's purpose is to provide a mechanism for accounts to lose their privileges if they are compromised (such as when a trusted device is misplaced). If the calling account had been revoked `role`, emits a {RoleRevoked} event. Requirements: - the caller must be `callerConfirmation`. May emit a {RoleRevoked} event."
			},
			"revokeRole(bytes32,address)": {
				"details": "Revokes `role` from `account`. If `account` had been granted `role`, emits a {RoleRevoked} event. Requirements: - the caller must have ``role``'s admin role. May emit a {RoleRevoked} event."
			},
			"supportsInterface(bytes4)": {
				"details": "See {IERC165-supportsInterface}."
			},
			"symbol()": {
				"details": "Returns the symbol of the token, usually a shorter version of the name."
			},
			"totalSupply()": {
				"details": "See {IERC20-totalSupply}."
			},
			"transfer(address,uint256)": {
				"details": "See {IERC20-transfer}. Requirements: - `to` cannot be the zero address. - the caller must have a balance of at least `value`."
			},
			"transferFrom(address,address,uint256)": {
				"details": "See {IERC20-transferFrom}. Emits an {Approval} event indicating the updated allowance. This is not required by the EIP. See the note at the beginning of {ERC20}. NOTE: Does not update the allowance if the current allowance is the maximum `uint256`. Requirements: - `from` and `to` cannot be the zero address. - `from` must have a balance of at least `value`. - the caller must have allowance for ``from``'s tokens of at least `value`."
			}
		},
		"version": 1
	},
	"userdoc": {
		"kind": "user",
		"methods": {},
		"version": 1
	},
	"Runtime Bytecode": {
		"immutableReferences": {},
		"linkReferences": {},
		"object": "608060405234801561000f575f80fd5b506004361061012a575f3560e01c806342966c68116100ab578063a217fddf1161006f578063a217fddf14610352578063a9059cbb14610370578063d5391393146103a0578063d547741f146103be578063dd62ed3e146103da5761012a565b806342966c681461029c57806370a08231146102b857806379cc6790146102e857806391d148541461030457806395d89b41146103345761012a565b8063248a9ca3116100f2578063248a9ca3146101fa5780632f2ff15d1461022a578063313ce5671461024657806336568abe1461026457806340c10f19146102805761012a565b806301ffc9a71461012e57806306fdde031461015e578063095ea7b31461017c57806318160ddd146101ac57806323b872dd146101ca575b5f80fd5b6101486004803603810190610143919061124d565b61040a565b6040516101559190611292565b60405180910390f35b610166610483565b604051610173919061131b565b60405180910390f35b610196600480360381019061019191906113c8565b610513565b6040516101a39190611292565b60405180910390f35b6101b4610535565b6040516101c19190611415565b60405180910390f35b6101e460048036038101906101df919061142e565b61053e565b6040516101f19190611292565b60405180910390f35b610214600480360381019061020f91906114b1565b61056c565b60405161022191906114eb565b60405180910390f35b610244600480360381019061023f9190611504565b610589565b005b61024e6105ab565b60405161025b919061155d565b60405180910390f35b61027e60048036038101906102799190611504565b6105c0565b005b61029a600480360381019061029591906113c8565b61063b565b005b6102b660048036038101906102b19190611576565b610674565b005b6102d260048036038101906102cd91906115a1565b610688565b6040516102df9190611415565b60405180910390f35b61030260048036038101906102fd91906113c8565b6106cd565b005b61031e60048036038101906103199190611504565b6106ed565b60405161032b9190611292565b60405180910390f35b61033c610751565b604051610349919061131b565b60405180910390f35b61035a6107e1565b60405161036791906114eb565b60405180910390f35b61038a600480360381019061038591906113c8565b6107e7565b6040516103979190611292565b60405180910390f35b6103a8610809565b6040516103b591906114eb565b60405180910390f35b6103d860048036038101906103d39190611504565b61082d565b005b6103f460048036038101906103ef91906115cc565b61084f565b6040516104019190611415565b60405180910390f35b5f7f7965db0b000000000000000000000000000000000000000000000000000000007bffffffffffffffffffffffffffffffffffffffffffffffffffffffff1916827bffffffffffffffffffffffffffffffffffffffffffffffffffffffff1916148061047c575061047b826108d1565b5b9050919050565b60606003805461049290611637565b80601f01602080910402602001604051908101604052809291908181526020018280546104be90611637565b80156105095780601f106104e057610100808354040283529160200191610509565b820191905f5260205f20905b8154815290600101906020018083116104ec57829003601f168201915b5050505050905090565b5f8061051d61093a565b905061052a818585610941565b600191505092915050565b5f600254905090565b5f8061054861093a565b9050610555858285610953565b6105608585856109e5565b60019150509392505050565b5f60055f8381526020019081526020015f20600101549050919050565b6105928261056c565b61059b81610ad5565b6105a58383610ae9565b50505050565b5f60065f9054906101000a900460ff16905090565b6105c861093a565b73ffffffffffffffffffffffffffffffffffffffff168173ffffffffffffffffffffffffffffffffffffffff161461062c576040517f6697b23200000000000000000000000000000000000000000000000000000000815260040160405180910390fd5b6106368282610bd3565b505050565b7f9f2df0fed2c77648de5860a4cc508cd0818c85b8b8a1ab4ceeef8d981c8956a661066581610ad5565b61066f8383610cbd565b505050565b61068561067f61093a565b82610d3c565b50565b5f805f8373ffffffffffffffffffffffffffffffffffffffff1673ffffffffffffffffffffffffffffffffffffffff1681526020019081526020015f20549050919050565b6106df826106d961093a565b83610953565b6106e98282610d3c565b5050565b5f60055f8481526020019081526020015f205f015f8373ffffffffffffffffffffffffffffffffffffffff1673ffffffffffffffffffffffffffffffffffffffff1681526020019081526020015f205f9054906101000a900460ff16905092915050565b60606004805461076090611637565b80601f016020809104026020016040519081016040528092919081815260200182805461078c90611637565b80156107d75780601f106107ae576101008083540402835291602001916107d7565b820191905f5260205f20905b8154815290600101906020018083116107ba57829003601f168201915b5050505050905090565b5f801b81565b5f806107f161093a565b90506107fe8185856109e5565b600191505092915050565b7f9f2df0fed2c77648de5860a4cc508cd0818c85b8b8a1ab4ceeef8d981c8956a681565b6108368261056c565b61083f81610ad5565b6108498383610bd3565b50505050565b5f60015f8473ffffffffffffffffffffffffffffffffffffffff1673ffffffffffffffffffffffffffffffffffffffff1681526020019081526020015f205f8373ffffffffffffffffffffffffffffffffffffffff1673ffffffffffffffffffffffffffffffffffffffff1681526020019081526020015f2054905092915050565b5f7f01ffc9a7000000000000000000000000000000000000000000000000000000007bffffffffffffffffffffffffffffffffffffffffffffffffffffffff1916827bffffffffffffffffffffffffffffffffffffffffffffffffffffffff1916149050919050565b5f33905090565b61094e8383836001610dbb565b505050565b5f61095e848461084f565b90507fffffffffffffffffffffffffffffffffffffffffffffffffffffffffffffffff81146109df57818110156109d0578281836040517ffb8f41b20000000000000000000000000000000000000000000000000000000081526004016109c793929190611676565b60405180910390fd5b6109de84848484035f610dbb565b5b50505050565b5f73ffffffffffffffffffffffffffffffffffffffff168373ffffffffffffffffffffffffffffffffffffffff1603610a55575f6040517f96c6fd1e000000000000000000000000000000000000000000000000000000008152600401610a4c91906116ab565b60405180910390fd5b5f73ffffffffffffffffffffffffffffffffffffffff168273ffffffffffffffffffffffffffffffffffffffff1603610ac5575f6040517fec442f05000000000000000000000000000000000000000000000000000000008152600401610abc91906116ab565b60405180910390fd5b610ad0838383610f8a565b505050565b610ae681610ae161093a565b6111a3565b50565b5f610af483836106ed565b610bc957600160055f8581526020019081526020015f205f015f8473ffffffffffffffffffffffffffffffffffffffff1673ffffffffffffffffffffffffffffffffffffffff1681526020019081526020015f205f6101000a81548160ff021916908315150217905550610b6661093a565b73ffffffffffffffffffffffffffffffffffffffff168273ffffffffffffffffffffffffffffffffffffffff16847f2f8788117e7eff1d82e926ec794901d17c78024a50270940304540a733656f0d60405160405180910390a460019050610bcd565b5f90505b92915050565b5f610bde83836106ed565b15610cb3575f60055f8581526020019081526020015f205f015f8473ffffffffffffffffffffffffffffffffffffffff1673ffffffffffffffffffffffffffffffffffffffff1681526020019081526020015f205f6101000a81548160ff021916908315150217905550610c5061093a565b73ffffffffffffffffffffffffffffffffffffffff168273ffffffffffffffffffffffffffffffffffffffff16847ff6391f5c32d9c69d2a47ea670b442974b53935d1edc7fd64eb21e047a839171b60405160405180910390a460019050610cb7565b5f90505b92915050565b5f73ffffffffffffffffffffffffffffffffffffffff168273ffffffffffffffffffffffffffffffffffffffff1603610d2d575f6040517fec442f05000000000000000000000000000000000000000000000000000000008152600401610d2491906116ab565b60405180910390fd5b610d385f8383610f8a565b5050565b5f73ffffffffffffffffffffffffffffffffffffffff168273ffffffffffffffffffffffffffffffffffffffff1603610dac575f6040517f96c6fd1e000000000000000000000000000000000000000000000000000000008152600401610da391906116ab565b60405180910390fd5b610db7825f83610f8a565b5050565b5f73ffffffffffffffffffffffffffffffffffffffff168473ffffffffffffffffffffffffffffffffffffffff1603610e2b575f6040517fe602df05000000000000000000000000000000000000000000000000000000008152600401610e2291906116ab565b60405180910390fd5b5f73ffffffffffffffffffffffffffffffffffffffff168373ffffffffffffffffffffffffffffffffffffffff1603610e9b575f6040517f94280d62000000000000000000000000000000000000000000000000000000008152600401610e9291906116ab565b60405180910390fd5b8160015f8673ffffffffffffffffffffffffffffffffffffffff1673ffffffffffffffffffffffffffffffffffffffff1681526020019081526020015f205f8573ffffffffffffffffffffffffffffffffffffffff1673ffffffffffffffffffffffffffffffffffffffff1681526020019081526020015f20819055508015610f84578273ffffffffffffffffffffffffffffffffffffffff168473ffffffffffffffffffffffffffffffffffffffff167f8c5be1e5ebec7d5bd14f71427d1e84f3dd0314c0f7b2291e5b200ac8c7c3b92584604051610f7b9190611415565b60405180910390a35b50505050565b5f73ffffffffffffffffffffffffffffffffffffffff168373ffffffffffffffffffffffffffffffffffffffff1603610fda578060025f828254610fce91906116f1565b925050819055506110a8565b5f805f8573ffffffffffffffffffffffffffffffffffffffff1673ffffffffffffffffffffffffffffffffffffffff1681526020019081526020015f2054905081811015611063578381836040517fe450d38c00000000000000000000000000000000000000000000000000000000815260040161105a93929190611676565b60405180910390fd5b8181035f808673ffffffffffffffffffffffffffffffffffffffff1673ffffffffffffffffffffffffffffffffffffffff1681526020019081526020015f2081905550505b5f73ffffffffffffffffffffffffffffffffffffffff168273ffffffffffffffffffffffffffffffffffffffff16036110ef578060025f8282540392505081905550611139565b805f808473ffffffffffffffffffffffffffffffffffffffff1673ffffffffffffffffffffffffffffffffffffffff1681526020019081526020015f205f82825401925050819055505b8173ffffffffffffffffffffffffffffffffffffffff168373ffffffffffffffffffffffffffffffffffffffff167fddf252ad1be2c89b69c2b068fc378daa952ba7f163c4a11628f55a4df523b3ef836040516111969190611415565b60405180910390a3505050565b6111ad82826106ed565b6111f05780826040517fe2517d3f0000000000000000000000000000000000000000000000000000000081526004016111e7929190611724565b60405180910390fd5b5050565b5f80fd5b5f7fffffffff0000000000000000000000000000000000000000000000000000000082169050919050565b61122c816111f8565b8114611236575f80fd5b50565b5f8135905061124781611223565b92915050565b5f60208284031215611262576112616111f4565b5b5f61126f84828501611239565b91505092915050565b5f8115159050919050565b61128c81611278565b82525050565b5f6020820190506112a55f830184611283565b92915050565b5f81519050919050565b5f82825260208201905092915050565b8281835e5f83830152505050565b5f601f19601f8301169050919050565b5f6112ed826112ab565b6112f781856112b5565b93506113078185602086016112c5565b611310816112d3565b840191505092915050565b5f6020820190508181035f83015261133381846112e3565b905092915050565b5f73ffffffffffffffffffffffffffffffffffffffff82169050919050565b5f6113648261133b565b9050919050565b6113748161135a565b811461137e575f80fd5b50565b5f8135905061138f8161136b565b92915050565b5f819050919050565b6113a781611395565b81146113b1575f80fd5b50565b5f813590506113c28161139e565b92915050565b5f80604083850312156113de576113dd6111f4565b5b5f6113eb85828601611381565b92505060206113fc858286016113b4565b9150509250929050565b61140f81611395565b82525050565b5f6020820190506114285f830184611406565b92915050565b5f805f60608486031215611445576114446111f4565b5b5f61145286828701611381565b935050602061146386828701611381565b9250506040611474868287016113b4565b9150509250925092565b5f819050919050565b6114908161147e565b811461149a575f80fd5b50565b5f813590506114ab81611487565b92915050565b5f602082840312156114c6576114c56111f4565b5b5f6114d38482850161149d565b91505092915050565b6114e58161147e565b82525050565b5f6020820190506114fe5f8301846114dc565b92915050565b5f806040838503121561151a576115196111f4565b5b5f6115278582860161149d565b925050602061153885828601611381565b9150509250929050565b5f60ff82169050919050565b61155781611542565b82525050565b5f6020820190506115705f83018461154e565b92915050565b5f6020828403121561158b5761158a6111f4565b5b5f611598848285016113b4565b91505092915050565b5f602082840312156115b6576115b56111f4565b5b5f6115c384828501611381565b91505092915050565b5f80604083850312156115e2576115e16111f4565b5b5f6115ef85828601611381565b925050602061160085828601611381565b9150509250929050565b7f4e487b71000000000000000000000000000000000000000000000000000000005f52602260045260245ffd5b5f600282049050600182168061164e57607f821691505b6020821081036116615761166061160a565b5b50919050565b6116708161135a565b82525050565b5f6060820190506116895f830186611667565b6116966020830185611406565b6116a36040830184611406565b949350505050565b5f6020820190506116be5f830184611667565b92915050565b7f4e487b71000000000000000000000000000000000000000000000000000000005f52601160045260245ffd5b5f6116fb82611395565b915061170683611395565b925082820190508082111561171e5761171d6116c4565b5b92915050565b5f6040820190506117375f830185611667565b61174460208301846114dc565b939250505056fea26469706673582212203f62540d84cc30f56caa1c8c563f33ec76ff26484db6fca16568473f5b48fbd664736f6c63430008190033",
		"opcodes": "PUSH1 0x80 PUSH1 0x40 MSTORE CALLVALUE DUP1 ISZERO PUSH2 0xF JUMPI PUSH0 DUP1 REVERT JUMPDEST POP PUSH1 0x4 CALLDATASIZE LT PUSH2 0x12A JUMPI PUSH0 CALLDATALOAD PUSH1 0xE0 SHR DUP1 PUSH4 0x42966C68 GT PUSH2 0xAB JUMPI DUP1 PUSH4 0xA217FDDF GT PUSH2 0x6F JUMPI DUP1 PUSH4 0xA217FDDF EQ PUSH2 0x352 JUMPI DUP1 PUSH4 0xA9059CBB EQ PUSH2 0x370 JUMPI DUP1 PUSH4 0xD5391393 EQ PUSH2 0x3A0 JUMPI DUP1 PUSH4 0xD547741F EQ PUSH2 0x3BE JUMPI DUP1 PUSH4 0xDD62ED3E EQ PUSH2 0x3DA JUMPI PUSH2 0x12A JUMP JUMPDEST DUP1 PUSH4 0x42966C68 EQ PUSH2 0x29C JUMPI DUP1 PUSH4 0x70A08231 EQ PUSH2 0x2B8 JUMPI DUP1 PUSH4 0x79CC6790 EQ PUSH2 0x2E8 JUMPI DUP1 PUSH4 0x91D14854 EQ PUSH2 0x304 JUMPI DUP1 PUSH4 0x95D89B41 EQ PUSH2 0x334 JUMPI PUSH2 0x12A JUMP JUMPDEST DUP1 PUSH4 0x248A9CA3 GT PUSH2 0xF2 JUMPI DUP1 PUSH4 0x248A9CA3 EQ PUSH2 0x1FA JUMPI DUP1 PUSH4 0x2F2FF15D EQ PUSH2 0x22A JUMPI DUP1 PUSH4 0x313CE567 EQ PUSH2 0x246 JUMPI DUP1 PUSH4 0x36568ABE EQ PUSH2 0x264 JUMPI DUP1 PUSH4 0x40C10F19 EQ PUSH2 0x280 JUMPI PUSH2 0x12A JUMP JUMPDEST DUP1 PUSH4 0x1FFC9A7 EQ PUSH2 0x12E JUMPI DUP1 PUSH4 0x6FDDE03 EQ PUSH2 0x15E JUMPI DUP1 PUSH4 0x95EA7B3 EQ PUSH2 0x17C JUMPI DUP1 PUSH4 0x18160DDD EQ PUSH2 0x1AC JUMPI DUP1 PUSH4 0x23B872DD EQ PUSH2 0x1CA JUMPI JUMPDEST PUSH0 DUP1 REVERT JUMPDEST PUSH2 0x148 PUSH1 0x4 DUP1 CALLDATASIZE SUB DUP2 ADD SWAP1 PUSH2 0x143 SWAP2 SWAP1 PUSH2 0x124D JUMP JUMPDEST PUSH2 0x40A JUMP JUMPDEST PUSH1 0x40 MLOAD PUSH2 0x155 SWAP2 SWAP1 PUSH2 0x1292 JUMP JUMPDEST PUSH1 0x40 MLOAD DUP1 SWAP2 SUB SWAP1 RETURN JUMPDEST PUSH2 0x166 PUSH2 0x483 JUMP JUMPDEST PUSH1 0x40 MLOAD PUSH2 0x173 SWAP2 SWAP1 PUSH2 0x131B JUMP JUMPDEST PUSH1 0x40 MLOAD DUP1 SWAP2 SUB SWAP1 RETURN JUMPDEST PUSH2 0x196 PUSH1 0x4 DUP1 CALLDATASIZE SUB DUP2 ADD SWAP1 PUSH2 0x191 SWAP2 SWAP1 PUSH2 0x13C8 JUMP JUMPDEST PUSH2 0x513 JUMP JUMPDEST PUSH1 0x40 MLOAD PUSH2 0x1A3 SWAP2 SWAP1 PUSH2 0x1292 JUMP JUMPDEST PUSH1 0x40 MLOAD DUP1 SWAP2 SUB SWAP1 RETURN JUMPDEST PUSH2 0x1B4 PUSH2 0x535 JUMP JUMPDEST PUSH1 0x40 MLOAD PUSH2 0x1C1 SWAP2 SWAP1 PUSH2 0x1415 JUMP JUMPDEST PUSH1 0x40 MLOAD DUP1 SWAP2 SUB SWAP1 RETURN JUMPDEST PUSH2 0x1E4 PUSH1 0x4 DUP1 CALLDATASIZE SUB DUP2 ADD SWAP1 PUSH2 0x1DF SWAP2 SWAP1 PUSH2 0x142E JUMP JUMPDEST PUSH2 0x53E JUMP JUMPDEST PUSH1 0x40 MLOAD PUSH2 0x1F1 SWAP2 SWAP1 PUSH2 0x1292 JUMP JUMPDEST PUSH1 0x40 MLOAD DUP1 SWAP2 SUB SWAP1 RETURN JUMPDEST PUSH2 0x214 PUSH1 0x4 DUP1 CALLDATASIZE SUB DUP2 ADD SWAP1 PUSH2 0x20F SWAP2 SWAP1 PUSH2 0x14B1 JUMP JUMPDEST PUSH2 0x56C JUMP JUMPDEST PUSH1 0x40 MLOAD PUSH2 0x221 SWAP2 SWAP1 PUSH2 0x14EB JUMP JUMPDEST PUSH1 0x40 MLOAD DUP1 SWAP2 SUB SWAP1 RETURN JUMPDEST PUSH2 0x244 PUSH1 0x4 DUP1 CALLDATASIZE SUB DUP2 ADD SWAP1 PUSH2 0x23F SWAP2 SWAP1 PUSH2 0x1504 JUMP JUMPDEST PUSH2 0x589 JUMP JUMPDEST STOP JUMPDEST PUSH2 0x24E PUSH2 0x5AB JUMP JUMPDEST PUSH1 0x40 MLOAD PUSH2 0x25B SWAP2 SWAP1 PUSH2 0x155D JUMP JUMPDEST PUSH1 0x40 MLOAD DUP1 SWAP2 SUB SWAP1 RETURN JUMPDEST PUSH2 0x27E PUSH1 0x4 DUP1 CALLDATASIZE SUB DUP2 ADD SWAP1 PUSH2 0x279 SWAP2 SWAP1 PUSH2 0x1504 JUMP JUMPDEST PUSH2 0x5C0 JUMP JUMPDEST STOP JUMPDEST PUSH2 0x29A PUSH1 0x4 DUP1 CALLDATASIZE SUB DUP2 ADD SWAP1 PUSH2 0x295 SWAP2 SWAP1 PUSH2 0x13C8 JUMP JUMPDEST PUSH2 0x63B JUMP JUMPDEST STOP JUMPDEST PUSH2 0x2B6 PUSH1 0x4 DUP1 CALLDATASIZE SUB DUP2 ADD SWAP1 PUSH2 0x2B1 SWAP2 SWAP1 PUSH2 0x1576 JUMP JUMPDEST PUSH2 0x674 JUMP JUMPDEST STOP JUMPDEST PUSH2 0x2D2 PUSH1 0x4 DUP1 CALLDATASIZE SUB DUP2 ADD SWAP1 PUSH2 0x2CD SWAP2 SWAP1 PUSH2 0x15A1 JUMP JUMPDEST PUSH2 0x688 JUMP JUMPDEST PUSH1 0x40 MLOAD PUSH2 0x2DF SWAP2 SWAP1 PUSH2 0x1415 JUMP JUMPDEST PUSH1 0x40 MLOAD DUP1 SWAP2 SUB SWAP1 RETURN JUMPDEST PUSH2 0x302 PUSH1 0x4 DUP1 CALLDATASIZE SUB DUP2 ADD SWAP1 PUSH2 0x2FD SWAP2 SWAP1 PUSH2 0x13C8 JUMP JUMPDEST PUSH2 0x6CD JUMP JUMPDEST STOP JUMPDEST PUSH2 0x31E PUSH1 0x4 DUP1 CALLDATASIZE SUB DUP2 ADD SWAP1 PUSH2 0x319 SWAP2 SWAP1 PUSH2 0x1504 JUMP JUMPDEST PUSH2 0x6ED JUMP JUMPDEST PUSH1 0x40 MLOAD PUSH2 0x32B SWAP2 SWAP1 PUSH2 0x1292 JUMP JUMPDEST PUSH1 0x40 MLOAD DUP1 SWAP2 SUB SWAP1 RETURN JUMPDEST PUSH2 0x33C PUSH2 0x751 JUMP JUMPDEST PUSH1 0x40 MLOAD PUSH2 0x349 SWAP2 SWAP1 PUSH2 0x131B JUMP JUMPDEST PUSH1 0x40 MLOAD DUP1 SWAP2 SUB SWAP1 RETURN JUMPDEST PUSH2 0x35A PUSH2 0x7E1 JUMP JUMPDEST PUSH1 0x40 MLOAD PUSH2 0x367 SWAP2 SWAP1 PUSH2 0x14EB JUMP JUMPDEST PUSH1 0x40 MLOAD DUP1 SWAP2 SUB SWAP1 RETURN JUMPDEST PUSH2 0x38A PUSH1 0x4 DUP1 CALLDATASIZE SUB DUP2 ADD SWAP1 PUSH2 0x385 SWAP2 SWAP1 PUSH2 0x13C8 JUMP JUMPDEST PUSH2 0x7E7 JUMP JUMPDEST PUSH1 0x40 MLOAD PUSH2 0x397 SWAP2 SWAP1 PUSH2 0x1292 JUMP JUMPDEST PUSH1 0x40 MLOAD DUP1 SWAP2 SUB SWAP1 RETURN JUMPDEST PUSH2 0x3A8 PUSH2 0x809 JUMP JUMPDEST PUSH1 0x40 MLOAD PUSH2 0x3B5 SWAP2 SWAP1 PUSH2 0x14EB JUMP JUMPDEST PUSH1 0x40 MLOAD DUP1 SWAP2 SUB SWAP1 RETURN JUMPDEST PUSH2 0x3D8 PUSH1 0x4 DUP1 CALLDATASIZE SUB DUP2 ADD SWAP1 PUSH2 0x3D3 SWAP2 SWAP1 PUSH2 0x1504 JUMP JUMPDEST PUSH2 0x82D JUMP JUMPDEST STOP JUMPDEST PUSH2 0x3F4 PUSH1 0x4 DUP1 CALLDATASIZE SUB DUP2 ADD SWAP1 PUSH2 0x3EF SWAP2 SWAP1 PUSH2 0x15CC JUMP JUMPDEST PUSH2 0x84F JUMP JUMPDEST PUSH1 0x40 MLOAD PUSH2 0x401 SWAP2 SWAP1 PUSH2 0x1415 JUMP JUMPDEST PUSH1 0x40 MLOAD DUP1 SWAP2 SUB SWAP1 RETURN JUMPDEST PUSH0 PUSH32 0x7965DB0B00000000000000000000000000000000000000000000000000000000 PUSH28 0xFFFFFFFFFFFFFFFFFFFFFFFFFFFFFFFFFFFFFFFFFFFFFFFFFFFFFFFF NOT AND DUP3 PUSH28 0xFFFFFFFFFFFFFFFFFFFFFFFFFFFFFFFFFFFFFFFFFFFFFFFFFFFFFFFF NOT AND EQ DUP1 PUSH2 0x47C JUMPI POP PUSH2 0x47B DUP3 PUSH2 0x8D1 JUMP JUMPDEST JUMPDEST SWAP1 POP SWAP2 SWAP1 POP JUMP JUMPDEST PUSH1 0x60 PUSH1 0x3 DUP1 SLOAD PUSH2 0x492 SWAP1 PUSH2 0x1637 JUMP JUMPDEST DUP1 PUSH1 0x1F ADD PUSH1 0x20 DUP1 SWAP2 DIV MUL PUSH1 0x20 ADD PUSH1 0x40 MLOAD SWAP1 DUP2 ADD PUSH1 0x40 MSTORE DUP1 SWAP3 SWAP2 SWAP1 DUP2 DUP2 MSTORE PUSH1 0x20 ADD DUP3 DUP1 SLOAD PUSH2 0x4BE SWAP1 PUSH2 0x1637 JUMP JUMPDEST DUP1 ISZERO PUSH2 0x509 JUMPI DUP1 PUSH1 0x1F LT PUSH2 0x4E0 JUMPI PUSH2 0x100 DUP1 DUP4 SLOAD DIV MUL DUP4 MSTORE SWAP2 PUSH1 0x20 ADD SWAP2 PUSH2 0x509 JUMP JUMPDEST DUP3 ADD SWAP2 SWAP1 PUSH0 MSTORE PUSH1 0x20 PUSH0 KECCAK256 SWAP1 JUMPDEST DUP2 SLOAD DUP2 MSTORE SWAP1 PUSH1 0x1 ADD SWAP1 PUSH1 0x20 ADD DUP1 DUP4 GT PUSH2 0x4EC JUMPI DUP3 SWAP1 SUB PUSH1 0x1F AND DUP3 ADD SWAP2 JUMPDEST POP POP POP POP POP SWAP1 POP SWAP1 JUMP JUMPDEST PUSH0 DUP1 PUSH2 0x51D PUSH2 0x93A JUMP JUMPDEST SWAP1 POP PUSH2 0x52A DUP2 DUP6 DUP6 PUSH2 0x941 JUMP JUMPDEST PUSH1 0x1 SWAP2 POP POP SWAP3 SWAP2 POP POP JUMP JUMPDEST PUSH0 PUSH1 0x2 SLOAD SWAP1 POP SWAP1 JUMP JUMPDEST PUSH0 DUP1 PUSH2 0x548 PUSH2 0x93A JUMP JUMPDEST SWAP1 POP PUSH2 0x555 DUP6 DUP3 DUP6 PUSH2 0x953 JUMP JUMPDEST PUSH2 0x560 DUP6 DUP6 DUP6 PUSH2 0x9E5 JUMP JUMPDEST PUSH1 0x1 SWAP2 POP POP SWAP4 SWAP3 POP POP POP JUMP JUMPDEST PUSH0 PUSH1 0x5 PUSH0 DUP4 DUP2 MSTORE PUSH1 0x20 ADD SWAP1 DUP2 MSTORE PUSH1 0x20 ADD PUSH0 KECCAK256 PUSH1 0x1 ADD SLOAD SWAP1 POP SWAP2 SWAP1 POP JUMP JUMPDEST PUSH2 0x592 DUP3 PUSH2 0x56C JUMP JUMPDEST PUSH2 0x59B DUP2 PUSH2 0xAD5 JUMP JUMPDEST PUSH2 0x5A5 DUP4 DUP4 PUSH2 0xAE9 JUMP JUMPDEST POP POP POP POP JUMP JUMPDEST PUSH0 PUSH1 0x6 PUSH0 SWAP1 SLOAD SWAP1 PUSH2 0x100 EXP SWAP1 DIV PUSH1 0xFF AND SWAP1 POP SWAP1 JUMP JUMPDEST PUSH2 0x5C8 PUSH2 0x93A JUMP JUMPDEST PUSH20 0xFFFFFFFFFFFFFFFFFFFFFFFFFFFFFFFFFFFFFFFF AND DUP2 PUSH20 0xFFFFFFFFFFFFFFFFFFFFFFFFFFFFFFFFFFFFFFFF AND EQ PUSH2 0x62C JUMPI PUSH1 0x40 MLOAD PUSH32 0x6697B23200000000000000000000000000000000000000000000000000000000 DUP2 MSTORE PUSH1 0x4 ADD PUSH1 0x40 MLOAD DUP1 SWAP2 SUB SWAP1 REVERT JUMPDEST PUSH2 0x636 DUP3 DUP3 PUSH2 0xBD3 JUMP JUMPDEST POP POP POP JUMP JUMPDEST PUSH32 0x9F2DF0FED2C77648DE5860A4CC508CD0818C85B8B8A1AB4CEEEF8D981C8956A6 PUSH2 0x665 DUP2 PUSH2 0xAD5 JUMP JUMPDEST PUSH2 0x66F DUP4 DUP4 PUSH2 0xCBD JUMP JUMPDEST POP POP POP JUMP JUMPDEST PUSH2 0x685 PUSH2 0x67F PUSH2 0x93A JUMP JUMPDEST DUP3 PUSH2 0xD3C JUMP JUMPDEST POP JUMP JUMPDEST PUSH0 DUP1 PUSH0 DUP4 PUSH20 0xFFFFFFFFFFFFFFFFFFFFFFFFFFFFFFFFFFFFFFFF AND PUSH20 0xFFFFFFFFFFFFFFFFFFFFFFFFFFFFFFFFFFFFFFFF AND DUP2 MSTORE PUSH1 0x20 ADD SWAP1 DUP2 MSTORE PUSH1 0x20 ADD PUSH0 KECCAK256 SLOAD SWAP1 POP SWAP2 SWAP1 POP JUMP JUMPDEST PUSH2 0x6DF DUP3 PUSH2 0x6D9 PUSH2 0x93A JUMP JUMPDEST DUP4 PUSH2 0x953 JUMP JUMPDEST PUSH2 0x6E9 DUP3 DUP3 PUSH2 0xD3C JUMP JUMPDEST POP POP JUMP JUMPDEST PUSH0 PUSH1 0x5 PUSH0 DUP5 DUP2 MSTORE PUSH1 0x20 ADD SWAP1 DUP2 MSTORE PUSH1 0x20 ADD PUSH0 KECCAK256 PUSH0 ADD PUSH0 DUP4 PUSH20 0xFFFFFFFFFFFFFFFFFFFFFFFFFFFFFFFFFFFFFFFF AND PUSH20 0xFFFFFFFFFFFFFFFFFFFFFFFFFFFFFFFFFFFFFFFF AND DUP2 MSTORE PUSH1 0x20 ADD SWAP1 DUP2 MSTORE PUSH1 0x20 ADD PUSH0 KECCAK256 PUSH0 SWAP1 SLOAD SWAP1 PUSH2 0x100 EXP SWAP1 DIV PUSH1 0xFF AND SWAP1 POP SWAP3 SWAP2 POP POP JUMP JUMPDEST PUSH1 0x60 PUSH1 0x4 DUP1 SLOAD PUSH2 0x760 SWAP1 PUSH2 0x1637 JUMP JUMPDEST DUP1 PUSH1 0x1F ADD PUSH1 0x20 DUP1 SWAP2 DIV MUL PUSH1 0x20 ADD PUSH1 0x40 MLOAD SWAP1 DUP2 ADD PUSH1 0x40 MSTORE DUP1 SWAP3 SWAP2 SWAP1 DUP2 DUP2 MSTORE PUSH1 0x20 ADD DUP3 DUP1 SLOAD PUSH2 0x78C SWAP1 PUSH2 0x1637 JUMP JUMPDEST DUP1 ISZERO PUSH2 0x7D7 JUMPI DUP1 PUSH1 0x1F LT PUSH2 0x7AE JUMPI PUSH2 0x100 DUP1 DUP4 SLOAD DIV MUL DUP4 MSTORE SWAP2 PUSH1 0x20 ADD SWAP2 PUSH2 0x7D7 JUMP JUMPDEST DUP3 ADD SWAP2 SWAP1 PUSH0 MSTORE PUSH1 0x20 PUSH0 KECCAK256 SWAP1 JUMPDEST DUP2 SLOAD DUP2 MSTORE SWAP1 PUSH1 0x1 ADD SWAP1 PUSH1 0x20 ADD DUP1 DUP4 GT PUSH2 0x7BA JUMPI DUP3 SWAP1 SUB PUSH1 0x1F AND DUP3 ADD SWAP2 JUMPDEST POP POP POP POP POP SWAP1 POP SWAP1 JUMP JUMPDEST PUSH0 DUP1 SHL DUP2 JUMP JUMPDEST PUSH0 DUP1 PUSH2 0x7F1 PUSH2 0x93A JUMP JUMPDEST SWAP1 POP PUSH2 0x7FE DUP2 DUP6 DUP6 PUSH2 0x9E5 JUMP JUMPDEST PUSH1 0x1 SWAP2 POP POP SWAP3 SWAP2 POP POP JUMP JUMPDEST PUSH32 0x9F2DF0FED2C77648DE5860A4CC508CD0818C85B8B8A1AB4CEEEF8D981C8956A6 DUP2 JUMP JUMPDEST PUSH2 0x836 DUP3 PUSH2 0x56C JUMP JUMPDEST PUSH2 0x83F DUP2 PUSH2 0xAD5 JUMP JUMPDEST PUSH2 0x849 DUP4 DUP4 PUSH2 0xBD3 JUMP JUMPDEST POP POP POP POP JUMP JUMPDEST PUSH0 PUSH1 0x1 PUSH0 DUP5 PUSH20 0xFFFFFFFFFFFFFFFFFFFFFFFFFFFFFFFFFFFFFFFF AND PUSH20 0xFFFFFFFFFFFFFFFFFFFFFFFFFFFFFFFFFFFFFFFF AND DUP2 MSTORE PUSH1 0x20 ADD SWAP1 DUP2 MSTORE PUSH1 0x20 ADD PUSH0 KECCAK256 PUSH0 DUP4 PUSH20 0xFFFFFFFFFFFFFFFFFFFFFFFFFFFFFFFFFFFFFFFF AND PUSH20 0xFFFFFFFFFFFFFFFFFFFFFFFFFFFFFFFFFFFFFFFF AND DUP2 MSTORE PUSH1 0x20 ADD SWAP1 DUP2 MSTORE PUSH1 0x20 ADD PUSH0 KECCAK256 SLOAD SWAP1 POP SWAP3 SWAP2 POP POP JUMP JUMPDEST PUSH0 PUSH32 0x1FFC9A700000000000000000000000000000000000000000000000000000000 PUSH28 0xFFFFFFFFFFFFFFFFFFFFFFFFFFFFFFFFFFFFFFFFFFFFFFFFFFFFFFFF NOT AND DUP3 PUSH28 0xFFFFFFFFFFFFFFFFFFFFFFFFFFFFFFFFFFFFFFFFFFFFFFFFFFFFFFFF NOT AND EQ SWAP1 POP SWAP2 SWAP1 POP JUMP JUMPDEST PUSH0 CALLER SWAP1 POP SWAP1 JUMP JUMPDEST PUSH2 0x94E DUP4 DUP4 DUP4 PUSH1 0x1 PUSH2 0xDBB JUMP JUMPDEST POP POP POP JUMP JUMPDEST PUSH0 PUSH2 0x95E DUP5 DUP5 PUSH2 0x84F JUMP JUMPDEST SWAP1 POP PUSH32 0xFFFFFFFFFFFFFFFFFFFFFFFFFFFFFFFFFFFFFFFFFFFFFFFFFFFFFFFFFFFFFFFF DUP2 EQ PUSH2 0x9DF JUMPI DUP2 DUP2 LT ISZERO PUSH2 0x9D0 JUMPI DUP3 DUP2 DUP4 PUSH1 0x40 MLOAD PUSH32 0xFB8F41B200000000000000000000000000000000000000000000000000000000 DUP2 MSTORE PUSH1 0x4 ADD PUSH2 0x9C7 SWAP4 SWAP3 SWAP2 SWAP1 PUSH2 0x1676 JUMP JUMPDEST PUSH1 0x40 MLOAD DUP1 SWAP2 SUB SWAP1 REVERT JUMPDEST PUSH2 0x9DE DUP5 DUP5 DUP5 DUP5 SUB PUSH0 PUSH2 0xDBB JUMP JUMPDEST JUMPDEST POP POP POP POP JUMP JUMPDEST PUSH0 PUSH20 0xFFFFFFFFFFFFFFFFFFFFFFFFFFFFFFFFFFFFFFFF AND DUP4 PUSH20 0xFFFFFFFFFFFFFFFFFFFFFFFFFFFFFFFFFFFFFFFF AND SUB PUSH2 0xA55 JUMPI PUSH0 PUSH1 0x40 MLOAD PUSH32 0x96C6FD1E00000000000000000000000000000000000000000000000000000000 DUP2 MSTORE PUSH1 0x4 ADD PUSH2 0xA4C SWAP2 SWAP1 PUSH2 0x16AB JUMP JUMPDEST PUSH1 0x40 MLOAD DUP1 SWAP2 SUB SWAP1 REVERT JUMPDEST PUSH0 PUSH20 0xFFFFFFFFFFFFFFFFFFFFFFFFFFFFFFFFFFFFFFFF AND DUP3 PUSH20 0xFFFFFFFFFFFFFFFFFFFFFFFFFFFFFFFFFFFFFFFF AND SUB PUSH2 0xAC5 JUMPI PUSH0 PUSH1 0x40 MLOAD PUSH32 0xEC442F0500000000000000000000000000000000000000000000000000000000 DUP2 MSTORE PUSH1 0x4 ADD PUSH2 0xABC SWAP2 SWAP1 PUSH2 0x16AB JUMP JUMPDEST PUSH1 0x40 MLOAD DUP1 SWAP2 SUB SWAP1 REVERT JUMPDEST PUSH2 0xAD0 DUP4 DUP4 DUP4 PUSH2 0xF8A JUMP JUMPDEST POP POP POP JUMP JUMPDEST PUSH2 0xAE6 DUP2 PUSH2 0xAE1 PUSH2 0x93A JUMP JUMPDEST PUSH2 0x11A3 JUMP JUMPDEST POP JUMP JUMPDEST PUSH0 PUSH2 0xAF4 DUP4 DUP4 PUSH2 0x6ED JUMP JUMPDEST PUSH2 0xBC9 JUMPI PUSH1 0x1 PUSH1 0x5 PUSH0 DUP6 DUP2 MSTORE PUSH1 0x20 ADD SWAP1 DUP2 MSTORE PUSH1 0x20 ADD PUSH0 KECCAK256 PUSH0 ADD PUSH0 DUP5 PUSH20 0xFFFFFFFFFFFFFFFFFFFFFFFFFFFFFFFFFFFFFFFF AND PUSH20 0xFFFFFFFFFFFFFFFFFFFFFFFFFFFFFFFFFFFFFFFF AND DUP2 MSTORE PUSH1 0x20 ADD SWAP1 DUP2 MSTORE PUSH1 0x20 ADD PUSH0 KECCAK256 PUSH0 PUSH2 0x100 EXP DUP2 SLOAD DUP2 PUSH1 0xFF MUL NOT AND SWAP1 DUP4 ISZERO ISZERO MUL OR SWAP1 SSTORE POP PUSH2 0xB66 PUSH2 0x93A JUMP JUMPDEST PUSH20 0xFFFFFFFFFFFFFFFFFFFFFFFFFFFFFFFFFFFFFFFF AND DUP3 PUSH20 0xFFFFFFFFFFFFFFFFFFFFFFFFFFFFFFFFFFFFFFFF AND DUP5 PUSH32 0x2F8788117E7EFF1D82E926EC794901D17C78024A50270940304540A733656F0D PUSH1 0x40 MLOAD PUSH1 0x40 MLOAD DUP1 SWAP2 SUB SWAP1 LOG4 PUSH1 0x1 SWAP1 POP PUSH2 0xBCD JUMP JUMPDEST PUSH0 SWAP1 POP JUMPDEST SWAP3 SWAP2 POP POP JUMP JUMPDEST PUSH0 PUSH2 0xBDE DUP4 DUP4 PUSH2 0x6ED JUMP JUMPDEST ISZERO PUSH2 0xCB3 JUMPI PUSH0 PUSH1 0x5 PUSH0 DUP6 DUP2 MSTORE PUSH1 0x20 ADD SWAP1 DUP2 MSTORE PUSH1 0x20 ADD PUSH0 KECCAK256 PUSH0 ADD PUSH0 DUP5 PUSH20 0xFFFFFFFFFFFFFFFFFFFFFFFFFFFFFFFFFFFFFFFF AND PUSH20 0xFFFFFFFFFFFFFFFFFFFFFFFFFFFFFFFFFFFFFFFF AND DUP2 MSTORE PUSH1 0x20 ADD SWAP1 DUP2 MSTORE PUSH1 0x20 ADD PUSH0 KECCAK256 PUSH0 PUSH2 0x100 EXP DUP2 SLOAD DUP2 PUSH1 0xFF MUL NOT AND SWAP1 DUP4 ISZERO ISZERO MUL OR SWAP1 SSTORE POP PUSH2 0xC50 PUSH2 0x93A JUMP JUMPDEST PUSH20 0xFFFFFFFFFFFFFFFFFFFFFFFFFFFFFFFFFFFFFFFF AND DUP3 PUSH20 0xFFFFFFFFFFFFFFFFFFFFFFFFFFFFFFFFFFFFFFFF AND DUP5 PUSH32 0xF6391F5C32D9C69D2A47EA670B442974B53935D1EDC7FD64EB21E047A839171B PUSH1 0x40 MLOAD PUSH1 0x40 MLOAD DUP1 SWAP2 SUB SWAP1 LOG4 PUSH1 0x1 SWAP1 POP PUSH2 0xCB7 JUMP JUMPDEST PUSH0 SWAP1 POP JUMPDEST SWAP3 SWAP2 POP POP JUMP JUMPDEST PUSH0 PUSH20 0xFFFFFFFFFFFFFFFFFFFFFFFFFFFFFFFFFFFFFFFF AND DUP3 PUSH20 0xFFFFFFFFFFFFFFFFFFFFFFFFFFFFFFFFFFFFFFFF AND SUB PUSH2 0xD2D JUMPI PUSH0 PUSH1 0x40 MLOAD PUSH32 0xEC442F0500000000000000000000000000000000000000000000000000000000 DUP2 MSTORE PUSH1 0x4 ADD PUSH2 0xD24 SWAP2 SWAP1 PUSH2 0x16AB JUMP JUMPDEST PUSH1 0x40 MLOAD DUP1 SWAP2 SUB SWAP1 REVERT JUMPDEST PUSH2 0xD38 PUSH0 DUP4 DUP4 PUSH2 0xF8A JUMP JUMPDEST POP POP JUMP JUMPDEST PUSH0 PUSH20 0xFFFFFFFFFFFFFFFFFFFFFFFFFFFFFFFFFFFFFFFF AND DUP3 PUSH20 0xFFFFFFFFFFFFFFFFFFFFFFFFFFFFFFFFFFFFFFFF AND SUB PUSH2 0xDAC JUMPI PUSH0 PUSH1 0x40 MLOAD PUSH32 0x96C6FD1E00000000000000000000000000000000000000000000000000000000 DUP2 MSTORE PUSH1 0x4 ADD PUSH2 0xDA3 SWAP2 SWAP1 PUSH2 0x16AB JUMP JUMPDEST PUSH1 0x40 MLOAD DUP1 SWAP2 SUB SWAP1 REVERT JUMPDEST PUSH2 0xDB7 DUP3 PUSH0 DUP4 PUSH2 0xF8A JUMP JUMPDEST POP POP JUMP JUMPDEST PUSH0 PUSH20 0xFFFFFFFFFFFFFFFFFFFFFFFFFFFFFFFFFFFFFFFF AND DUP5 PUSH20 0xFFFFFFFFFFFFFFFFFFFFFFFFFFFFFFFFFFFFFFFF AND SUB PUSH2 0xE2B JUMPI PUSH0 PUSH1 0x40 MLOAD PUSH32 0xE602DF0500000000000000000000000000000000000000000000000000000000 DUP2 MSTORE PUSH1 0x4 ADD PUSH2 0xE22 SWAP2 SWAP1 PUSH2 0x16AB JUMP JUMPDEST PUSH1 0x40 MLOAD DUP1 SWAP2 SUB SWAP1 REVERT JUMPDEST PUSH0 PUSH20 0xFFFFFFFFFFFFFFFFFFFFFFFFFFFFFFFFFFFFFFFF AND DUP4 PUSH20 0xFFFFFFFFFFFFFFFFFFFFFFFFFFFFFFFFFFFFFFFF AND SUB PUSH2 0xE9B JUMPI PUSH0 PUSH1 0x40 MLOAD PUSH32 0x94280D6200000000000000000000000000000000000000000000000000000000 DUP2 MSTORE PUSH1 0x4 ADD PUSH2 0xE92 SWAP2 SWAP1 PUSH2 0x16AB JUMP JUMPDEST PUSH1 0x40 MLOAD DUP1 SWAP2 SUB SWAP1 REVERT JUMPDEST DUP2 PUSH1 0x1 PUSH0 DUP7 PUSH20 0xFFFFFFFFFFFFFFFFFFFFFFFFFFFFFFFFFFFFFFFF AND PUSH20 0xFFFFFFFFFFFFFFFFFFFFFFFFFFFFFFFFFFFFFFFF AND DUP2 MSTORE PUSH1 0x20 ADD SWAP1 DUP2 MSTORE PUSH1 0x20 ADD PUSH0 KECCAK256 PUSH0 DUP6 PUSH20 0xFFFFFFFFFFFFFFFFFFFFFFFFFFFFFFFFFFFFFFFF AND PUSH20 0xFFFFFFFFFFFFFFFFFFFFFFFFFFFFFFFFFFFFFFFF AND DUP2 MSTORE PUSH1 0x20 ADD SWAP1 DUP2 MSTORE PUSH1 0x20 ADD PUSH0 KECCAK256 DUP2 SWAP1 SSTORE POP DUP1 ISZERO PUSH2 0xF84 JUMPI DUP3 PUSH20 0xFFFFFFFFFFFFFFFFFFFFFFFFFFFFFFFFFFFFFFFF AND DUP5 PUSH20 0xFFFFFFFFFFFFFFFFFFFFFFFFFFFFFFFFFFFFFFFF AND PUSH32 0x8C5BE1E5EBEC7D5BD14F71427D1E84F3DD0314C0F7B2291E5B200AC8C7C3B925 DUP5 PUSH1 0x40 MLOAD PUSH2 0xF7B SWAP2 SWAP1 PUSH2 0x1415 JUMP JUMPDEST PUSH1 0x40 MLOAD DUP1 SWAP2 SUB SWAP1 LOG3 JUMPDEST POP POP POP POP JUMP JUMPDEST PUSH0 PUSH20 0xFFFFFFFFFFFFFFFFFFFFFFFFFFFFFFFFFFFFFFFF AND DUP4 PUSH20 0xFFFFFFFFFFFFFFFFFFFFFFFFFFFFFFFFFFFFFFFF AND SUB PUSH2 0xFDA JUMPI DUP1 PUSH1 0x2 PUSH0 DUP3 DUP3 SLOAD PUSH2 0xFCE SWAP2 SWAP1 PUSH2 0x16F1 JUMP JUMPDEST SWAP3 POP POP DUP2 SWAP1 SSTORE POP PUSH2 0x10A8 JUMP JUMPDEST PUSH0 DUP1 PUSH0 DUP6 PUSH20 0xFFFFFFFFFFFFFFFFFFFFFFFFFFFFFFFFFFFFFFFF AND PUSH20 0xFFFFFFFFFFFFFFFFFFFFFFFFFFFFFFFFFFFFFFFF AND DUP2 MSTORE PUSH1 0x20 ADD SWAP1 DUP2 MSTORE PUSH1 0x20 ADD PUSH0 KECCAK256 SLOAD SWAP1 POP DUP2 DUP2 LT ISZERO PUSH2 0x1063 JUMPI DUP4 DUP2 DUP4 PUSH1 0x40 MLOAD PUSH32 0xE450D38C00000000000000000000000000000000000000000000000000000000 DUP2 MSTORE PUSH1 0x4 ADD PUSH2 0x105A SWAP4 SWAP3 SWAP2 SWAP1 PUSH2 0x1676 JUMP JUMPDEST PUSH1 0x40 MLOAD DUP1 SWAP2 SUB SWAP1 REVERT JUMPDEST DUP2 DUP2 SUB PUSH0 DUP1 DUP7 PUSH20 0xFFFFFFFFFFFFFFFFFFFFFFFFFFFFFFFFFFFFFFFF AND PUSH20 0xFFFFFFFFFFFFFFFFFFFFFFFFFFFFFFFFFFFFFFFF AND DUP2 MSTORE PUSH1 0x20 ADD SWAP1 DUP2 MSTORE PUSH1 0x20 ADD PUSH0 KECCAK256 DUP2 SWAP1 SSTORE POP POP JUMPDEST PUSH0 PUSH20 0xFFFFFFFFFFFFFFFFFFFFFFFFFFFFFFFFFFFFFFFF AND DUP3 PUSH20 0xFFFFFFFFFFFFFFFFFFFFFFFFFFFFFFFFFFFFFFFF AND SUB PUSH2 0x10EF JUMPI DUP1 PUSH1 0x2 PUSH0 DUP3 DUP3 SLOAD SUB SWAP3 POP POP DUP2 SWAP1 SSTORE POP PUSH2 0x1139 JUMP JUMPDEST DUP1 PUSH0 DUP1 DUP5 PUSH20 0xFFFFFFFFFFFFFFFFFFFFFFFFFFFFFFFFFFFFFFFF AND PUSH20 0xFFFFFFFFFFFFFFFFFFFFFFFFFFFFFFFFFFFFFFFF AND DUP2 MSTORE PUSH1 0x20 ADD SWAP1 DUP2 MSTORE PUSH1 0x20 ADD PUSH0 KECCAK256 PUSH0 DUP3 DUP3 SLOAD ADD SWAP3 POP POP DUP2 SWAP1 SSTORE POP JUMPDEST DUP2 PUSH20 0xFFFFFFFFFFFFFFFFFFFFFFFFFFFFFFFFFFFFFFFF AND DUP4 PUSH20 0xFFFFFFFFFFFFFFFFFFFFFFFFFFFFFFFFFFFFFFFF AND PUSH32 0xDDF252AD1BE2C89B69C2B068FC378DAA952BA7F163C4A11628F55A4DF523B3EF DUP4 PUSH1 0x40 MLOAD PUSH2 0x1196 SWAP2 SWAP1 PUSH2 0x1415 JUMP JUMPDEST PUSH1 0x40 MLOAD DUP1 SWAP2 SUB SWAP1 LOG3 POP POP POP JUMP JUMPDEST PUSH2 0x11AD DUP3 DUP3 PUSH2 0x6ED JUMP JUMPDEST PUSH2 0x11F0 JUMPI DUP1 DUP3 PUSH1 0x40 MLOAD PUSH32 0xE2517D3F00000000000000000000000000000000000000000000000000000000 DUP2 MSTORE PUSH1 0x4 ADD PUSH2 0x11E7 SWAP3 SWAP2 SWAP1 PUSH2 0x1724 JUMP JUMPDEST PUSH1 0x40 MLOAD DUP1 SWAP2 SUB SWAP1 REVERT JUMPDEST POP POP JUMP JUMPDEST PUSH0 DUP1 REVERT JUMPDEST PUSH0 PUSH32 0xFFFFFFFF00000000000000000000000000000000000000000000000000000000 DUP3 AND SWAP1 POP SWAP2 SWAP1 POP JUMP JUMPDEST PUSH2 0x122C DUP2 PUSH2 0x11F8 JUMP JUMPDEST DUP2 EQ PUSH2 0x1236 JUMPI PUSH0 DUP1 REVERT JUMPDEST POP JUMP JUMPDEST PUSH0 DUP2 CALLDATALOAD SWAP1 POP PUSH2 0x1247 DUP2 PUSH2 0x1223 JUMP JUMPDEST SWAP3 SWAP2 POP POP JUMP JUMPDEST PUSH0 PUSH1 0x20 DUP3 DUP5 SUB SLT ISZERO PUSH2 0x1262 JUMPI PUSH2 0x1261 PUSH2 0x11F4 JUMP JUMPDEST JUMPDEST PUSH0 PUSH2 0x126F DUP5 DUP3 DUP6 ADD PUSH2 0x1239 JUMP JUMPDEST SWAP2 POP POP SWAP3 SWAP2 POP POP JUMP JUMPDEST PUSH0 DUP2 ISZERO ISZERO SWAP1 POP SWAP2 SWAP1 POP JUMP JUMPDEST PUSH2 0x128C DUP2 PUSH2 0x1278 JUMP JUMPDEST DUP3 MSTORE POP POP JUMP JUMPDEST PUSH0 PUSH1 0x20 DUP3 ADD SWAP1 POP PUSH2 0x12A5 PUSH0 DUP4 ADD DUP5 PUSH2 0x1283 JUMP JUMPDEST SWAP3 SWAP2 POP POP JUMP JUMPDEST PUSH0 DUP2 MLOAD SWAP1 POP SWAP2 SWAP1 POP JUMP JUMPDEST PUSH0 DUP3 DUP3 MSTORE PUSH1 0x20 DUP3 ADD SWAP1 POP SWAP3 SWAP2 POP POP JUMP JUMPDEST DUP3 DUP2 DUP4 MCOPY PUSH0 DUP4 DUP4 ADD MSTORE POP POP POP JUMP JUMPDEST PUSH0 PUSH1 0x1F NOT PUSH1 0x1F DUP4 ADD AND SWAP1 POP SWAP2 SWAP1 POP JUMP JUMPDEST PUSH0 PUSH2 0x12ED DUP3 PUSH2 0x12AB JUMP JUMPDEST PUSH2 0x12F7 DUP2 DUP6 PUSH2 0x12B5 JUMP JUMPDEST SWAP4 POP PUSH2 0x1307 DUP2 DUP6 PUSH1 0x20 DUP7 ADD PUSH2 0x12C5 JUMP JUMPDEST PUSH2 0x1310 DUP2 PUSH2 0x12D3 JUMP JUMPDEST DUP5 ADD SWAP2 POP POP SWAP3 SWAP2 POP POP JUMP JUMPDEST PUSH0 PUSH1 0x20 DUP3 ADD SWAP1 POP DUP2 DUP2 SUB PUSH0 DUP4 ADD MSTORE PUSH2 0x1333 DUP2 DUP5 PUSH2 0x12E3 JUMP JUMPDEST SWAP1 POP SWAP3 SWAP2 POP POP JUMP JUMPDEST PUSH0 PUSH20 0xFFFFFFFFFFFFFFFFFFFFFFFFFFFFFFFFFFFFFFFF DUP3 AND SWAP1 POP SWAP2 SWAP1 POP JUMP JUMPDEST PUSH0 PUSH2 0x1364 DUP3 PUSH2 0x133B JUMP JUMPDEST SWAP1 POP SWAP2 SWAP1 POP JUMP JUMPDEST PUSH2 0x1374 DUP2 PUSH2 0x135A JUMP JUMPDEST DUP2 EQ PUSH2 0x137E JUMPI PUSH0 DUP1 REVERT JUMPDEST POP JUMP JUMPDEST PUSH0 DUP2 CALLDATALOAD SWAP1 POP PUSH2 0x138F DUP2 PUSH2 0x136B JUMP JUMPDEST SWAP3 SWAP2 POP POP JUMP JUMPDEST PUSH0 DUP2 SWAP1 POP SWAP2 SWAP1 POP JUMP JUMPDEST PUSH2 0x13A7 DUP2 PUSH2 0x1395 JUMP JUMPDEST DUP2 EQ PUSH2 0x13B1 JUMPI PUSH0 DUP1 REVERT JUMPDEST POP JUMP JUMPDEST PUSH0 DUP2 CALLDATALOAD SWAP1 POP PUSH2 0x13C2 DUP2 PUSH2 0x139E JUMP JUMPDEST SWAP3 SWAP2 POP POP JUMP JUMPDEST PUSH0 DUP1 PUSH1 0x40 DUP4 DUP6 SUB SLT ISZERO PUSH2 0x13DE JUMPI PUSH2 0x13DD PUSH2 0x11F4 JUMP JUMPDEST JUMPDEST PUSH0 PUSH2 0x13EB DUP6 DUP3 DUP7 ADD PUSH2 0x1381 JUMP JUMPDEST SWAP3 POP POP PUSH1 0x20 PUSH2 0x13FC DUP6 DUP3 DUP7 ADD PUSH2 0x13B4 JUMP JUMPDEST SWAP2 POP POP SWAP3 POP SWAP3 SWAP1 POP JUMP JUMPDEST PUSH2 0x140F DUP2 PUSH2 0x1395 JUMP JUMPDEST DUP3 MSTORE POP POP JUMP JUMPDEST PUSH0 PUSH1 0x20 DUP3 ADD SWAP1 POP PUSH2 0x1428 PUSH0 DUP4 ADD DUP5 PUSH2 0x1406 JUMP JUMPDEST SWAP3 SWAP2 POP POP JUMP JUMPDEST PUSH0 DUP1 PUSH0 PUSH1 0x60 DUP5 DUP7 SUB SLT ISZERO PUSH2 0x1445 JUMPI PUSH2 0x1444 PUSH2 0x11F4 JUMP JUMPDEST JUMPDEST PUSH0 PUSH2 0x1452 DUP7 DUP3 DUP8 ADD PUSH2 0x1381 JUMP JUMPDEST SWAP4 POP POP PUSH1 0x20 PUSH2 0x1463 DUP7 DUP3 DUP8 ADD PUSH2 0x1381 JUMP JUMPDEST SWAP3 POP POP PUSH1 0x40 PUSH2 0x1474 DUP7 DUP3 DUP8 ADD PUSH2 0x13B4 JUMP JUMPDEST SWAP2 POP POP SWAP3 POP SWAP3 POP SWAP3 JUMP JUMPDEST PUSH0 DUP2 SWAP1 POP SWAP2 SWAP1 POP JUMP JUMPDEST PUSH2 0x1490 DUP2 PUSH2 0x147E JUMP JUMPDEST DUP2 EQ PUSH2 0x149A JUMPI PUSH0 DUP1 REVERT JUMPDEST POP JUMP JUMPDEST PUSH0 DUP2 CALLDATALOAD SWAP1 POP PUSH2 0x14AB DUP2 PUSH2 0x1487 JUMP JUMPDEST SWAP3 SWAP2 POP POP JUMP JUMPDEST PUSH0 PUSH1 0x20 DUP3 DUP5 SUB SLT ISZERO PUSH2 0x14C6 JUMPI PUSH2 0x14C5 PUSH2 0x11F4 JUMP JUMPDEST JUMPDEST PUSH0 PUSH2 0x14D3 DUP5 DUP3 DUP6 ADD PUSH2 0x149D JUMP JUMPDEST SWAP2 POP POP SWAP3 SWAP2 POP POP JUMP JUMPDEST PUSH2 0x14E5 DUP2 PUSH2 0x147E JUMP JUMPDEST DUP3 MSTORE POP POP JUMP JUMPDEST PUSH0 PUSH1 0x20 DUP3 ADD SWAP1 POP PUSH2 0x14FE PUSH0 DUP4 ADD DUP5 PUSH2 0x14DC JUMP JUMPDEST SWAP3 SWAP2 POP POP JUMP JUMPDEST PUSH0 DUP1 PUSH1 0x40 DUP4 DUP6 SUB SLT ISZERO PUSH2 0x151A JUMPI PUSH2 0x1519 PUSH2 0x11F4 JUMP JUMPDEST JUMPDEST PUSH0 PUSH2 0x1527 DUP6 DUP3 DUP7 ADD PUSH2 0x149D JUMP JUMPDEST SWAP3 POP POP PUSH1 0x20 PUSH2 0x1538 DUP6 DUP3 DUP7 ADD PUSH2 0x1381 JUMP JUMPDEST SWAP2 POP POP SWAP3 POP SWAP3 SWAP1 POP JUMP JUMPDEST PUSH0 PUSH1 0xFF DUP3 AND SWAP1 POP SWAP2 SWAP1 POP JUMP JUMPDEST PUSH2 0x1557 DUP2 PUSH2 0x1542 JUMP JUMPDEST DUP3 MSTORE POP POP JUMP JUMPDEST PUSH0 PUSH1 0x20 DUP3 ADD SWAP1 POP PUSH2 0x1570 PUSH0 DUP4 ADD DUP5 PUSH2 0x154E JUMP JUMPDEST SWAP3 SWAP2 POP POP JUMP JUMPDEST PUSH0 PUSH1 0x20 DUP3 DUP5 SUB SLT ISZERO PUSH2 0x158B JUMPI PUSH2 0x158A PUSH2 0x11F4 JUMP JUMPDEST JUMPDEST PUSH0 PUSH2 0x1598 DUP5 DUP3 DUP6 ADD PUSH2 0x13B4 JUMP JUMPDEST SWAP2 POP POP SWAP3 SWAP2 POP POP JUMP JUMPDEST PUSH0 PUSH1 0x20 DUP3 DUP5 SUB SLT ISZERO PUSH2 0x15B6 JUMPI PUSH2 0x15B5 PUSH2 0x11F4 JUMP JUMPDEST JUMPDEST PUSH0 PUSH2 0x15C3 DUP5 DUP3 DUP6 ADD PUSH2 0x1381 JUMP JUMPDEST SWAP2 POP POP SWAP3 SWAP2 POP POP JUMP JUMPDEST PUSH0 DUP1 PUSH1 0x40 DUP4 DUP6 SUB SLT ISZERO PUSH2 0x15E2 JUMPI PUSH2 0x15E1 PUSH2 0x11F4 JUMP JUMPDEST JUMPDEST PUSH0 PUSH2 0x15EF DUP6 DUP3 DUP7 ADD PUSH2 0x1381 JUMP JUMPDEST SWAP3 POP POP PUSH1 0x20 PUSH2 0x1600 DUP6 DUP3 DUP7 ADD PUSH2 0x1381 JUMP JUMPDEST SWAP2 POP POP SWAP3 POP SWAP3 SWAP1 POP JUMP JUMPDEST PUSH32 0x4E487B7100000000000000000000000000000000000000000000000000000000 PUSH0 MSTORE PUSH1 0x22 PUSH1 0x4 MSTORE PUSH1 0x24 PUSH0 REVERT JUMPDEST PUSH0 PUSH1 0x2 DUP3 DIV SWAP1 POP PUSH1 0x1 DUP3 AND DUP1 PUSH2 0x164E JUMPI PUSH1 0x7F DUP3 AND SWAP2 POP JUMPDEST PUSH1 0x20 DUP3 LT DUP2 SUB PUSH2 0x1661 JUMPI PUSH2 0x1660 PUSH2 0x160A JUMP JUMPDEST JUMPDEST POP SWAP2 SWAP1 POP JUMP JUMPDEST PUSH2 0x1670 DUP2 PUSH2 0x135A JUMP JUMPDEST DUP3 MSTORE POP POP JUMP JUMPDEST PUSH0 PUSH1 0x60 DUP3 ADD SWAP1 POP PUSH2 0x1689 PUSH0 DUP4 ADD DUP7 PUSH2 0x1667 JUMP JUMPDEST PUSH2 0x1696 PUSH1 0x20 DUP4 ADD DUP6 PUSH2 0x1406 JUMP JUMPDEST PUSH2 0x16A3 PUSH1 0x40 DUP4 ADD DUP5 PUSH2 0x1406 JUMP JUMPDEST SWAP5 SWAP4 POP POP POP POP JUMP JUMPDEST PUSH0 PUSH1 0x20 DUP3 ADD SWAP1 POP PUSH2 0x16BE PUSH0 DUP4 ADD DUP5 PUSH2 0x1667 JUMP JUMPDEST SWAP3 SWAP2 POP POP JUMP JUMPDEST PUSH32 0x4E487B7100000000000000000000000000000000000000000000000000000000 PUSH0 MSTORE PUSH1 0x11 PUSH1 0x4 MSTORE PUSH1 0x24 PUSH0 REVERT JUMPDEST PUSH0 PUSH2 0x16FB DUP3 PUSH2 0x1395 JUMP JUMPDEST SWAP2 POP PUSH2 0x1706 DUP4 PUSH2 0x1395 JUMP JUMPDEST SWAP3 POP DUP3 DUP3 ADD SWAP1 POP DUP1 DUP3 GT ISZERO PUSH2 0x171E JUMPI PUSH2 0x171D PUSH2 0x16C4 JUMP JUMPDEST JUMPDEST SWAP3 SWAP2 POP POP JUMP JUMPDEST PUSH0 PUSH1 0x40 DUP3 ADD SWAP1 POP PUSH2 0x1737 PUSH0 DUP4 ADD DUP6 PUSH2 0x1667 JUMP JUMPDEST PUSH2 0x1744 PUSH1 0x20 DUP4 ADD DUP5 PUSH2 0x14DC JUMP JUMPDEST SWAP4 SWAP3 POP POP POP JUMP INVALID LOG2 PUSH5 0x6970667358 0x22 SLT KECCAK256 EXTCODEHASH PUSH3 0x540D84 0xCC ADDRESS CREATE2 PUSH13 0xAA1C8C563F33EC76FF26484DB6 0xFC LOG1 PUSH6 0x68473F5B48FB 0xD6 PUSH5 0x736F6C6343 STOP ADDMOD NOT STOP CALLER "
	},
	"Assembly": ".code\n  PUSH 80\t\t\tcontract FluxERC20 is ERC20, E...\n  PUSH 40\t\t\tcontract FluxERC20 is ERC20, E...\n  MSTORE \t\t\tcontract FluxERC20 is ERC20, E...\n  CALLVALUE \t\t\tconstructor(\\n        string m...\n  DUP1 \t\t\tconstructor(\\n        string m...\n  ISZERO \t\t\tconstructor(\\n        string m...\n  PUSH [tag] 1\t\t\tconstructor(\\n        string m...\n  JUMPI \t\t\tconstructor(\\n        string m...\n  PUSH 0\t\t\tconstructor(\\n        string m...\n  DUP1 \t\t\tconstructor(\\n        string m...\n  REVERT \t\t\tconstructor(\\n        string m...\ntag 1\t\t\tconstructor(\\n        string m...\n  JUMPDEST \t\t\tconstructor(\\n        string m...\n  POP \t\t\tconstructor(\\n        string m...\n  PUSH 40\t\t\tconstructor(\\n        string m...\n  MLOAD \t\t\tconstructor(\\n        string m...\n  PUSHSIZE \t\t\tconstructor(\\n        string m...\n  CODESIZE \t\t\tconstructor(\\n        string m...\n  SUB \t\t\tconstructor(\\n        string m...\n  DUP1 \t\t\tconstructor(\\n        string m...\n  PUSHSIZE \t\t\tconstructor(\\n        string m...\n  DUP4 \t\t\tconstructor(\\n        string m...\n  CODECOPY \t\t\tconstructor(\\n        string m...\n  DUP2 \t\t\tconstructor(\\n        string m...\n  DUP2 \t\t\tconstructor(\\n        string m...\n  ADD \t\t\tconstructor(\\n        string m...\n  PUSH 40\t\t\tconstructor(\\n        string m...\n  MSTORE \t\t\tconstructor(\\n        string m...\n  DUP2 \t\t\tconstructor(\\n        string m...\n  ADD \t\t\tconstructor(\\n        string m...\n  SWAP1 \t\t\tconstructor(\\n        string m...\n  PUSH [tag] 2\t\t\tconstructor(\\n        string m...\n  SWAP2 \t\t\tconstructor(\\n        string m...\n  SWAP1 \t\t\tconstructor(\\n        string m...\n  PUSH [tag] 3\t\t\tconstructor(\\n        string m...\n  JUMP \t\t\tconstructor(\\n        string m...\ntag 2\t\t\tconstructor(\\n        string m...\n  JUMPDEST \t\t\tconstructor(\\n        string m...\n  DUP4 \t\t\t_tokenName\n  DUP4 \t\t\t_tokenSymbol\n  DUP2 \t\t\t\n  PUSH 3\t\t\t\n  SWAP1 \t\t\t\n  DUP2 \t\t\t\n  PUSH [tag] 7\t\t\t\n  SWAP2 \t\t\t\n  SWAP1 \t\t\t\n  PUSH [tag] 8\t\t\t\n  JUMP \t\t\t\ntag 7\t\t\t\n  JUMPDEST \t\t\t\n  POP \t\t\t\n  DUP1 \t\t\t\n  PUSH 4\t\t\t\n  SWAP1 \t\t\t\n  DUP2 \t\t\t\n  PUSH [tag] 9\t\t\t\n  SWAP2 \t\t\t\n  SWAP1 \t\t\t\n  PUSH [tag] 8\t\t\t\n  JUMP \t\t\t\ntag 9\t\t\t\n  JUMPDEST \t\t\t\n  POP \t\t\t\n  POP \t\t\t\n  POP \t\t\t\n  PUSH [tag] 11\t\t\t_grantRole(MINTER_ROLE, _minte...\n  PUSH 9F2DF0FED2C77648DE5860A4CC508CD0818C85B8B8A1AB4CEEEF8D981C8956A6\t\t\tkeccak256(\"MINTER_ROLE\")\n  DUP4 \t\t\t_minter\n  PUSH [tag] 12\t\t\t_grantRole\n  PUSH 20\t\t\t_grantRole\n  SHL \t\t\t_grantRole\n  PUSH 20\t\t\t_grantRole(MINTER_ROLE, _minte...\n  SHR \t\t\t_grantRole(MINTER_ROLE, _minte...\n  JUMP \t\t\t_grantRole(MINTER_ROLE, _minte...\ntag 11\t\t\t_grantRole(MINTER_ROLE, _minte...\n  JUMPDEST \t\t\t_grantRole(MINTER_ROLE, _minte...\n  POP \t\t\t_grantRole(MINTER_ROLE, _minte...\n  DUP1 \t\t\t_decimals\n  PUSH 6\t\t\tdecimals_value\n  PUSH 0\t\t\tdecimals_value\n  PUSH 100\t\t\tdecimals_value = _decimals\n  EXP \t\t\tdecimals_value = _decimals\n  DUP2 \t\t\tdecimals_value = _decimals\n  SLOAD \t\t\tdecimals_value = _decimals\n  DUP2 \t\t\tdecimals_value = _decimals\n  PUSH FF\t\t\tdecimals_value = _decimals\n  MUL \t\t\tdecimals_value = _decimals\n  NOT \t\t\tdecimals_value = _decimals\n  AND \t\t\tdecimals_value = _decimals\n  SWAP1 \t\t\tdecimals_value = _decimals\n  DUP4 \t\t\tdecimals_value = _decimals\n  PUSH FF\t\t\tdecimals_value = _decimals\n  AND \t\t\tdecimals_value = _decimals\n  MUL \t\t\tdecimals_value = _decimals\n  OR \t\t\tdecimals_value = _decimals\n  SWAP1 \t\t\tdecimals_value = _decimals\n  SSTORE \t\t\tdecimals_value = _decimals\n  POP \t\t\tdecimals_value = _decimals\n  POP \t\t\tconstructor(\\n        string m...\n  POP \t\t\tconstructor(\\n        string m...\n  POP \t\t\tconstructor(\\n        string m...\n  POP \t\t\tconstructor(\\n        string m...\n  PUSH [tag] 13\t\t\tcontract FluxERC20 is ERC20, E...\n  JUMP \t\t\tcontract FluxERC20 is ERC20, E...\ntag 12\t\t\t\n  JUMPDEST \t\t\t\n  PUSH 0\t\t\t\n  PUSH [tag] 15\t\t\t\n  DUP4 \t\t\t\n  DUP4 \t\t\t\n  PUSH [tag] 16\t\t\t\n  PUSH 20\t\t\t\n  SHL \t\t\t\n  PUSH 20\t\t\t\n  SHR \t\t\t\n  JUMP \t\t\t\ntag 15\t\t\t\n  JUMPDEST \t\t\t\n  PUSH [tag] 17\t\t\t\n  JUMPI \t\t\t\n  PUSH 1\t\t\t\n  PUSH 5\t\t\t\n  PUSH 0\t\t\t\n  DUP6 \t\t\t\n  DUP2 \t\t\t\n  MSTORE \t\t\t\n  PUSH 20\t\t\t\n  ADD \t\t\t\n  SWAP1 \t\t\t\n  DUP2 \t\t\t\n  MSTORE \t\t\t\n  PUSH 20\t\t\t\n  ADD \t\t\t\n  PUSH 0\t\t\t\n  KECCAK256 \t\t\t\n  PUSH 0\t\t\t\n  ADD \t\t\t\n  PUSH 0\t\t\t\n  DUP5 \t\t\t\n  PUSH FFFFFFFFFFFFFFFFFFFFFFFFFFFFFFFFFFFFFFFF\t\t\t\n  AND \t\t\t\n  PUSH FFFFFFFFFFFFFFFFFFFFFFFFFFFFFFFFFFFFFFFF\t\t\t\n  AND \t\t\t\n  DUP2 \t\t\t\n  MSTORE \t\t\t\n  PUSH 20\t\t\t\n  ADD \t\t\t\n  SWAP1 \t\t\t\n  DUP2 \t\t\t\n  MSTORE \t\t\t\n  PUSH 20\t\t\t\n  ADD \t\t\t\n  PUSH 0\t\t\t\n  KECCAK256 \t\t\t\n  PUSH 0\t\t\t\n  PUSH 100\t\t\t\n  EXP \t\t\t\n  DUP2 \t\t\t\n  SLOAD \t\t\t\n  DUP2 \t\t\t\n  PUSH FF\t\t\t\n  MUL \t\t\t\n  NOT \t\t\t\n  AND \t\t\t\n  SWAP1 \t\t\t\n  DUP4 \t\t\t\n  ISZERO \t\t\t\n  ISZERO \t\t\t\n  MUL \t\t\t\n  OR \t\t\t\n  SWAP1 \t\t\t\n  SSTORE \t\t\t\n  POP \t\t\t\n  PUSH [tag] 18\t\t\t\n  PUSH [tag] 19\t\t\t\n  PUSH 20\t\t\t\n  SHL \t\t\t\n  PUSH 20\t\t\t\n  SHR \t\t\t\n  JUMP \t\t\t\ntag 18\t\t\t\n  JUMPDEST \t\t\t\n  PUSH FFFFFFFFFFFFFFFFFFFFFFFFFFFFFFFFFFFFFFFF\t\t\t\n  AND \t\t\t\n  DUP3 \t\t\t\n  PUSH FFFFFFFFFFFFFFFFFFFFFFFFFFFFFFFFFFFFFFFF\t\t\t\n  AND \t\t\t\n  DUP5 \t\t\t\n  PUSH 2F8788117E7EFF1D82E926EC794901D17C78024A50270940304540A733656F0D\t\t\t\n  PUSH 40\t\t\t\n  MLOAD \t\t\t\n  PUSH 40\t\t\t\n  MLOAD \t\t\t\n  DUP1 \t\t\t\n  SWAP2 \t\t\t\n  SUB \t\t\t\n  SWAP1 \t\t\t\n  LOG4 \t\t\t\n  PUSH 1\t\t\t\n  SWAP1 \t\t\t\n  POP \t\t\t\n  PUSH [tag] 14\t\t\t\n  JUMP \t\t\t\ntag 17\t\t\t\n  JUMPDEST \t\t\t\n  PUSH 0\t\t\t\n  SWAP1 \t\t\t\n  POP \t\t\t\ntag 14\t\t\t\n  JUMPDEST \t\t\t\n  SWAP3 \t\t\t\n  SWAP2 \t\t\t\n  POP \t\t\t\n  POP \t\t\t\n  JUMP \t\t\t\ntag 16\t\t\t\n  JUMPDEST \t\t\t\n  PUSH 0\t\t\t\n  PUSH 5\t\t\t\n  PUSH 0\t\t\t\n  DUP5 \t\t\t\n  DUP2 \t\t\t\n  MSTORE \t\t\t\n  PUSH 20\t\t\t\n  ADD \t\t\t\n  SWAP1 \t\t\t\n  DUP2 \t\t\t\n  MSTORE \t\t\t\n  PUSH 20\t\t\t\n  ADD \t\t\t\n  PUSH 0\t\t\t\n  KECCAK256 \t\t\t\n  PUSH 0\t\t\t\n  ADD \t\t\t\n  PUSH 0\t\t\t\n  DUP4 \t\t\t\n  PUSH FFFFFFFFFFFFFFFFFFFFFFFFFFFFFFFFFFFFFFFF\t\t\t\n  AND \t\t\t\n  PUSH FFFFFFFFFFFFFFFFFFFFFFFFFFFFFFFFFFFFFFFF\t\t\t\n  AND \t\t\t\n  DUP2 \t\t\t\n  MSTORE \t\t\t\n  PUSH 20\t\t\t\n  ADD \t\t\t\n  SWAP1 \t\t\t\n  DUP2 \t\t\t\n  MSTORE \t\t\t\n  PUSH 20\t\t\t\n  ADD \t\t\t\n  PUSH 0\t\t\t\n  KECCAK256 \t\t\t\n  PUSH 0\t\t\t\n  SWAP1 \t\t\t\n  SLOAD \t\t\t\n  SWAP1 \t\t\t\n  PUSH 100\t\t\t\n  EXP \t\t\t\n  SWAP1 \t\t\t\n  DIV \t\t\t\n  PUSH FF\t\t\t\n  AND \t\t\t\n  SWAP1 \t\t\t\n  POP \t\t\t\n  SWAP3 \t\t\t\n  SWAP2 \t\t\t\n  POP \t\t\t\n  POP \t\t\t\n  JUMP \t\t\t\ntag 19\t\t\tLE, _minter);\\n        decimal...\n  JUMPDEST \t\t\tLE, _minter);\\n        decimal...\n  PUSH 0\t\t\t }\\n\\n   \n  CALLER \t\t\tlity so th\n  SWAP1 \t\t\tint ability so th\n  POP \t\t\tint ability so th\n  SWAP1 \t\t\tLE, _minter);\\n        decimal...\n  JUMP \t\t\tLE, _minter);\\n        decimal...\ntag 23\t\t\t-License-Identifier: GPL-3.0\\n...\n  JUMPDEST \t\t\t-License-Identifier: GPL-3.0\\n...\n  PUSH 0\t\t\tma sol\n  PUSH 40\t\t\trt\n  MLOAD \t\t\t\\n\\nimport \n  SWAP1 \t\t\t.0 <0.9.0;\\n\\nimport \n  POP \t\t\t.0 <0.9.0;\\n\\nimport \n  SWAP1 \t\t\t-License-Identifier: GPL-3.0\\n...\n  JUMP \t\t\t-License-Identifier: GPL-3.0\\n...\ntag 24\t\t\tin/contracts/token/ERC20/ERC20...\n  JUMPDEST \t\t\tin/contracts/token/ERC20/ERC20...\n  PUSH 0\t\t\t\"\n  DUP1 \t\t\ts\n  REVERT \t\t\trnable.sol\";\ntag 25\t\t\tenzeppelin/contracts/access/Ac...\n  JUMPDEST \t\t\tenzeppelin/contracts/access/Ac...\n  PUSH 0\t\t\t0\n  DUP1 \t\t\tR\n  REVERT \t\t\t20 is ERC20,\ntag 26\t\t\tle, AccessControl {\\n    bytes...\n  JUMPDEST \t\t\tle, AccessControl {\\n    bytes...\n  PUSH 0\t\t\ta\n  DUP1 \t\t\ts\n  REVERT \t\t\tdecimals_val\ntag 27\t\t\ttructor(\\n        string memor...\n  JUMPDEST \t\t\ttructor(\\n        string memor...\n  PUSH 0\t\t\t \n  DUP1 \t\t\t \n  REVERT \t\t\tinter,\\n     \ntag 28\t\t\tcimals\\n    ) ERC20 (_tokenNam...\n  JUMPDEST \t\t\tcimals\\n    ) ERC20 (_tokenNam...\n  PUSH 0\t\t\tbol) {\n  PUSH 1F\t\t\t  \n  NOT \t\t\t;\\n     \n  PUSH 1F\t\t\tnt\n  DUP4 \t\t\tLE, _\n  ADD \t\t\tR_ROLE, _minte\n  AND \t\t\tINTER_ROLE, _minter);\\n      \n  SWAP1 \t\t\trantRole(MINTER_ROLE, _minter)...\n  POP \t\t\trantRole(MINTER_ROLE, _minter)...\n  SWAP2 \t\t\tcimals\\n    ) ERC20 (_tokenNam...\n  SWAP1 \t\t\tcimals\\n    ) ERC20 (_tokenNam...\n  POP \t\t\tcimals\\n    ) ERC20 (_tokenNam...\n  JUMP \t\t\tcimals\\n    ) ERC20 (_tokenNam...\ntag 29\t\t\talue = _decimals;\\n    }\\n\\n  ...\n  JUMPDEST \t\t\talue = _decimals;\\n    }\\n\\n  ...\n  PUSH 4E487B7100000000000000000000000000000000000000000000000000000000\t\t\tity so that we can transfer co...\n  PUSH 0\t\t\tb\n  MSTORE \t\t\t mint ability so that we can t...\n  PUSH 41\t\t\tyRol\n  PUSH 4\t\t\to\n  MSTORE \t\t\tpublic onlyRole\n  PUSH 24\t\t\t    \n  PUSH 0\t\t\t \n  REVERT \t\t\tOLE) {\\n        \ntag 30\t\t\tount);\\n    }\\n\\n    function ...\n  JUMPDEST \t\t\tount);\\n    }\\n\\n    function ...\n  PUSH [tag] 71\t\t\t  return decimals_value;\\n  \n  DUP3 \t\t\te;\\n \n  PUSH [tag] 28\t\t\t  return decimals_value;\\n  \n  JUMP \t\t\t  return decimals_value;\\n  \ntag 71\t\t\t  return decimals_value;\\n  \n  JUMPDEST \t\t\t  return decimals_value;\\n  \n  DUP2 \t\t\t{\\n    \n  ADD \t\t\tt8) {\\n        return decimals...\n  DUP2 \t\t\t\n  DUP2 \t\t\t\n  LT \t\t\t\n  PUSH FFFFFFFFFFFFFFFF\t\t\t\n  DUP3 \t\t\t\n  GT \t\t\t\n  OR \t\t\t\n  ISZERO \t\t\t\n  PUSH [tag] 72\t\t\t\n  JUMPI \t\t\t\n  PUSH [tag] 73\t\t\t\n  PUSH [tag] 29\t\t\t\n  JUMP \t\t\t\ntag 73\t\t\t\n  JUMPDEST \t\t\t\ntag 72\t\t\t\n  JUMPDEST \t\t\t\n  DUP1 \t\t\t\n  PUSH 40\t\t\t\n  MSTORE \t\t\t\n  POP \t\t\tide public view returns (uint8...\n  POP \t\t\tount);\\n    }\\n\\n    function ...\n  POP \t\t\tount);\\n    }\\n\\n    function ...\n  JUMP \t\t\tount);\\n    }\\n\\n    function ...\ntag 31\t\t\t\n  JUMPDEST \t\t\t\n  PUSH 0\t\t\t\n  PUSH [tag] 75\t\t\t\n  PUSH [tag] 23\t\t\t\n  JUMP \t\t\t\ntag 75\t\t\t\n  JUMPDEST \t\t\t\n  SWAP1 \t\t\t\n  POP \t\t\t\n  PUSH [tag] 76\t\t\t\n  DUP3 \t\t\t\n  DUP3 \t\t\t\n  PUSH [tag] 30\t\t\t\n  JUMP \t\t\t\ntag 76\t\t\t\n  JUMPDEST \t\t\t\n  SWAP2 \t\t\t\n  SWAP1 \t\t\t\n  POP \t\t\t\n  JUMP \t\t\t\ntag 32\t\t\t\n  JUMPDEST \t\t\t\n  PUSH 0\t\t\t\n  PUSH FFFFFFFFFFFFFFFF\t\t\t\n  DUP3 \t\t\t\n  GT \t\t\t\n  ISZERO \t\t\t\n  PUSH [tag] 78\t\t\t\n  JUMPI \t\t\t\n  PUSH [tag] 79\t\t\t\n  PUSH [tag] 29\t\t\t\n  JUMP \t\t\t\ntag 79\t\t\t\n  JUMPDEST \t\t\t\ntag 78\t\t\t\n  JUMPDEST \t\t\t\n  PUSH [tag] 80\t\t\t\n  DUP3 \t\t\t\n  PUSH [tag] 28\t\t\t\n  JUMP \t\t\t\ntag 80\t\t\t\n  JUMPDEST \t\t\t\n  SWAP1 \t\t\t\n  POP \t\t\t\n  PUSH 20\t\t\t\n  DUP2 \t\t\t\n  ADD \t\t\t\n  SWAP1 \t\t\t\n  POP \t\t\t\n  SWAP2 \t\t\t\n  SWAP1 \t\t\t\n  POP \t\t\t\n  JUMP \t\t\t\ntag 33\t\t\t\n  JUMPDEST \t\t\t\n  DUP3 \t\t\t\n  DUP2 \t\t\t\n  DUP4 \t\t\t\n  MCOPY \t\t\t\n  PUSH 0\t\t\t\n  DUP4 \t\t\t\n  DUP4 \t\t\t\n  ADD \t\t\t\n  MSTORE \t\t\t\n  POP \t\t\t\n  POP \t\t\t\n  POP \t\t\t\n  JUMP \t\t\t\ntag 34\t\t\t\n  JUMPDEST \t\t\t\n  PUSH 0\t\t\t\n  PUSH [tag] 83\t\t\t\n  PUSH [tag] 84\t\t\t\n  DUP5 \t\t\t\n  PUSH [tag] 32\t\t\t\n  JUMP \t\t\t\ntag 84\t\t\t\n  JUMPDEST \t\t\t\n  PUSH [tag] 31\t\t\t\n  JUMP \t\t\t\ntag 83\t\t\t\n  JUMPDEST \t\t\t\n  SWAP1 \t\t\t\n  POP \t\t\t\n  DUP3 \t\t\t\n  DUP2 \t\t\t\n  MSTORE \t\t\t\n  PUSH 20\t\t\t\n  DUP2 \t\t\t\n  ADD \t\t\t\n  DUP5 \t\t\t\n  DUP5 \t\t\t\n  DUP5 \t\t\t\n  ADD \t\t\t\n  GT \t\t\t\n  ISZERO \t\t\t\n  PUSH [tag] 85\t\t\t\n  JUMPI \t\t\t\n  PUSH [tag] 86\t\t\t\n  PUSH [tag] 27\t\t\t\n  JUMP \t\t\t\ntag 86\t\t\t\n  JUMPDEST \t\t\t\ntag 85\t\t\t\n  JUMPDEST \t\t\t\n  PUSH [tag] 87\t\t\t\n  DUP5 \t\t\t\n  DUP3 \t\t\t\n  DUP6 \t\t\t\n  PUSH [tag] 33\t\t\t\n  JUMP \t\t\t\ntag 87\t\t\t\n  JUMPDEST \t\t\t\n  POP \t\t\t\n  SWAP4 \t\t\t\n  SWAP3 \t\t\t\n  POP \t\t\t\n  POP \t\t\t\n  POP \t\t\t\n  JUMP \t\t\t\ntag 35\t\t\t\n  JUMPDEST \t\t\t\n  PUSH 0\t\t\t\n  DUP3 \t\t\t\n  PUSH 1F\t\t\t\n  DUP4 \t\t\t\n  ADD \t\t\t\n  SLT \t\t\t\n  PUSH [tag] 89\t\t\t\n  JUMPI \t\t\t\n  PUSH [tag] 90\t\t\t\n  PUSH [tag] 26\t\t\t\n  JUMP \t\t\t\ntag 90\t\t\t\n  JUMPDEST \t\t\t\ntag 89\t\t\t\n  JUMPDEST \t\t\t\n  DUP2 \t\t\t\n  MLOAD \t\t\t\n  PUSH [tag] 91\t\t\t\n  DUP5 \t\t\t\n  DUP3 \t\t\t\n  PUSH 20\t\t\t\n  DUP7 \t\t\t\n  ADD \t\t\t\n  PUSH [tag] 34\t\t\t\n  JUMP \t\t\t\ntag 91\t\t\t\n  JUMPDEST \t\t\t\n  SWAP2 \t\t\t\n  POP \t\t\t\n  POP \t\t\t\n  SWAP3 \t\t\t\n  SWAP2 \t\t\t\n  POP \t\t\t\n  POP \t\t\t\n  JUMP \t\t\t\ntag 36\t\t\t\n  JUMPDEST \t\t\t\n  PUSH 0\t\t\t\n  PUSH FFFFFFFFFFFFFFFFFFFFFFFFFFFFFFFFFFFFFFFF\t\t\t\n  DUP3 \t\t\t\n  AND \t\t\t\n  SWAP1 \t\t\t\n  POP \t\t\t\n  SWAP2 \t\t\t\n  SWAP1 \t\t\t\n  POP \t\t\t\n  JUMP \t\t\t\ntag 37\t\t\t\n  JUMPDEST \t\t\t\n  PUSH 0\t\t\t\n  PUSH [tag] 94\t\t\t\n  DUP3 \t\t\t\n  PUSH [tag] 36\t\t\t\n  JUMP \t\t\t\ntag 94\t\t\t\n  JUMPDEST \t\t\t\n  SWAP1 \t\t\t\n  POP \t\t\t\n  SWAP2 \t\t\t\n  SWAP1 \t\t\t\n  POP \t\t\t\n  JUMP \t\t\t\ntag 38\t\t\t\n  JUMPDEST \t\t\t\n  PUSH [tag] 96\t\t\t\n  DUP2 \t\t\t\n  PUSH [tag] 37\t\t\t\n  JUMP \t\t\t\ntag 96\t\t\t\n  JUMPDEST \t\t\t\n  DUP2 \t\t\t\n  EQ \t\t\t\n  PUSH [tag] 97\t\t\t\n  JUMPI \t\t\t\n  PUSH 0\t\t\t\n  DUP1 \t\t\t\n  REVERT \t\t\t\ntag 97\t\t\t\n  JUMPDEST \t\t\t\n  POP \t\t\t\n  JUMP \t\t\t\ntag 39\t\t\t\n  JUMPDEST \t\t\t\n  PUSH 0\t\t\t\n  DUP2 \t\t\t\n  MLOAD \t\t\t\n  SWAP1 \t\t\t\n  POP \t\t\t\n  PUSH [tag] 99\t\t\t\n  DUP2 \t\t\t\n  PUSH [tag] 38\t\t\t\n  JUMP \t\t\t\ntag 99\t\t\t\n  JUMPDEST \t\t\t\n  SWAP3 \t\t\t\n  SWAP2 \t\t\t\n  POP \t\t\t\n  POP \t\t\t\n  JUMP \t\t\t\ntag 40\t\t\t\n  JUMPDEST \t\t\t\n  PUSH 0\t\t\t\n  PUSH FF\t\t\t\n  DUP3 \t\t\t\n  AND \t\t\t\n  SWAP1 \t\t\t\n  POP \t\t\t\n  SWAP2 \t\t\t\n  SWAP1 \t\t\t\n  POP \t\t\t\n  JUMP \t\t\t\ntag 41\t\t\t\n  JUMPDEST \t\t\t\n  PUSH [tag] 102\t\t\t\n  DUP2 \t\t\t\n  PUSH [tag] 40\t\t\t\n  JUMP \t\t\t\ntag 102\t\t\t\n  JUMPDEST \t\t\t\n  DUP2 \t\t\t\n  EQ \t\t\t\n  PUSH [tag] 103\t\t\t\n  JUMPI \t\t\t\n  PUSH 0\t\t\t\n  DUP1 \t\t\t\n  REVERT \t\t\t\ntag 103\t\t\t\n  JUMPDEST \t\t\t\n  POP \t\t\t\n  JUMP \t\t\t\ntag 42\t\t\t\n  JUMPDEST \t\t\t\n  PUSH 0\t\t\t\n  DUP2 \t\t\t\n  MLOAD \t\t\t\n  SWAP1 \t\t\t\n  POP \t\t\t\n  PUSH [tag] 105\t\t\t\n  DUP2 \t\t\t\n  PUSH [tag] 41\t\t\t\n  JUMP \t\t\t\ntag 105\t\t\t\n  JUMPDEST \t\t\t\n  SWAP3 \t\t\t\n  SWAP2 \t\t\t\n  POP \t\t\t\n  POP \t\t\t\n  JUMP \t\t\t\ntag 3\t\t\t\n  JUMPDEST \t\t\t\n  PUSH 0\t\t\t\n  DUP1 \t\t\t\n  PUSH 0\t\t\t\n  DUP1 \t\t\t\n  PUSH 80\t\t\t\n  DUP6 \t\t\t\n  DUP8 \t\t\t\n  SUB \t\t\t\n  SLT \t\t\t\n  ISZERO \t\t\t\n  PUSH [tag] 107\t\t\t\n  JUMPI \t\t\t\n  PUSH [tag] 108\t\t\t\n  PUSH [tag] 24\t\t\t\n  JUMP \t\t\t\ntag 108\t\t\t\n  JUMPDEST \t\t\t\ntag 107\t\t\t\n  JUMPDEST \t\t\t\n  PUSH 0\t\t\t\n  DUP6 \t\t\t\n  ADD \t\t\t\n  MLOAD \t\t\t\n  PUSH FFFFFFFFFFFFFFFF\t\t\t\n  DUP2 \t\t\t\n  GT \t\t\t\n  ISZERO \t\t\t\n  PUSH [tag] 109\t\t\t\n  JUMPI \t\t\t\n  PUSH [tag] 110\t\t\t\n  PUSH [tag] 25\t\t\t\n  JUMP \t\t\t\ntag 110\t\t\t\n  JUMPDEST \t\t\t\ntag 109\t\t\t\n  JUMPDEST \t\t\t\n  PUSH [tag] 111\t\t\t\n  DUP8 \t\t\t\n  DUP3 \t\t\t\n  DUP9 \t\t\t\n  ADD \t\t\t\n  PUSH [tag] 35\t\t\t\n  JUMP \t\t\t\ntag 111\t\t\t\n  JUMPDEST \t\t\t\n  SWAP5 \t\t\t\n  POP \t\t\t\n  POP \t\t\t\n  PUSH 20\t\t\t\n  DUP6 \t\t\t\n  ADD \t\t\t\n  MLOAD \t\t\t\n  PUSH FFFFFFFFFFFFFFFF\t\t\t\n  DUP2 \t\t\t\n  GT \t\t\t\n  ISZERO \t\t\t\n  PUSH [tag] 112\t\t\t\n  JUMPI \t\t\t\n  PUSH [tag] 113\t\t\t\n  PUSH [tag] 25\t\t\t\n  JUMP \t\t\t\ntag 113\t\t\t\n  JUMPDEST \t\t\t\ntag 112\t\t\t\n  JUMPDEST \t\t\t\n  PUSH [tag] 114\t\t\t\n  DUP8 \t\t\t\n  DUP3 \t\t\t\n  DUP9 \t\t\t\n  ADD \t\t\t\n  PUSH [tag] 35\t\t\t\n  JUMP \t\t\t\ntag 114\t\t\t\n  JUMPDEST \t\t\t\n  SWAP4 \t\t\t\n  POP \t\t\t\n  POP \t\t\t\n  PUSH 40\t\t\t\n  PUSH [tag] 115\t\t\t\n  DUP8 \t\t\t\n  DUP3 \t\t\t\n  DUP9 \t\t\t\n  ADD \t\t\t\n  PUSH [tag] 39\t\t\t\n  JUMP \t\t\t\ntag 115\t\t\t\n  JUMPDEST \t\t\t\n  SWAP3 \t\t\t\n  POP \t\t\t\n  POP \t\t\t\n  PUSH 60\t\t\t\n  PUSH [tag] 116\t\t\t\n  DUP8 \t\t\t\n  DUP3 \t\t\t\n  DUP9 \t\t\t\n  ADD \t\t\t\n  PUSH [tag] 42\t\t\t\n  JUMP \t\t\t\ntag 116\t\t\t\n  JUMPDEST \t\t\t\n  SWAP2 \t\t\t\n  POP \t\t\t\n  POP \t\t\t\n  SWAP3 \t\t\t\n  SWAP6 \t\t\t\n  SWAP2 \t\t\t\n  SWAP5 \t\t\t\n  POP \t\t\t\n  SWAP3 \t\t\t\n  POP \t\t\t\n  JUMP \t\t\t\ntag 43\t\t\t\n  JUMPDEST \t\t\t\n  PUSH 0\t\t\t\n  DUP2 \t\t\t\n  MLOAD \t\t\t\n  SWAP1 \t\t\t\n  POP \t\t\t\n  SWAP2 \t\t\t\n  SWAP1 \t\t\t\n  POP \t\t\t\n  JUMP \t\t\t\ntag 44\t\t\t\n  JUMPDEST \t\t\t\n  PUSH 4E487B7100000000000000000000000000000000000000000000000000000000\t\t\t\n  PUSH 0\t\t\t\n  MSTORE \t\t\t\n  PUSH 22\t\t\t\n  PUSH 4\t\t\t\n  MSTORE \t\t\t\n  PUSH 24\t\t\t\n  PUSH 0\t\t\t\n  REVERT \t\t\t\ntag 45\t\t\t\n  JUMPDEST \t\t\t\n  PUSH 0\t\t\t\n  PUSH 2\t\t\t\n  DUP3 \t\t\t\n  DIV \t\t\t\n  SWAP1 \t\t\t\n  POP \t\t\t\n  PUSH 1\t\t\t\n  DUP3 \t\t\t\n  AND \t\t\t\n  DUP1 \t\t\t\n  PUSH [tag] 120\t\t\t\n  JUMPI \t\t\t\n  PUSH 7F\t\t\t\n  DUP3 \t\t\t\n  AND \t\t\t\n  SWAP2 \t\t\t\n  POP \t\t\t\ntag 120\t\t\t\n  JUMPDEST \t\t\t\n  PUSH 20\t\t\t\n  DUP3 \t\t\t\n  LT \t\t\t\n  DUP2 \t\t\t\n  SUB \t\t\t\n  PUSH [tag] 121\t\t\t\n  JUMPI \t\t\t\n  PUSH [tag] 122\t\t\t\n  PUSH [tag] 44\t\t\t\n  JUMP \t\t\t\ntag 122\t\t\t\n  JUMPDEST \t\t\t\ntag 121\t\t\t\n  JUMPDEST \t\t\t\n  POP \t\t\t\n  SWAP2 \t\t\t\n  SWAP1 \t\t\t\n  POP \t\t\t\n  JUMP \t\t\t\ntag 46\t\t\t\n  JUMPDEST \t\t\t\n  PUSH 0\t\t\t\n  DUP2 \t\t\t\n  SWAP1 \t\t\t\n  POP \t\t\t\n  DUP2 \t\t\t\n  PUSH 0\t\t\t\n  MSTORE \t\t\t\n  PUSH 20\t\t\t\n  PUSH 0\t\t\t\n  KECCAK256 \t\t\t\n  SWAP1 \t\t\t\n  POP \t\t\t\n  SWAP2 \t\t\t\n  SWAP1 \t\t\t\n  POP \t\t\t\n  JUMP \t\t\t\ntag 47\t\t\t\n  JUMPDEST \t\t\t\n  PUSH 0\t\t\t\n  PUSH 20\t\t\t\n  PUSH 1F\t\t\t\n  DUP4 \t\t\t\n  ADD \t\t\t\n  DIV \t\t\t\n  SWAP1 \t\t\t\n  POP \t\t\t\n  SWAP2 \t\t\t\n  SWAP1 \t\t\t\n  POP \t\t\t\n  JUMP \t\t\t\ntag 48\t\t\t\n  JUMPDEST \t\t\t\n  PUSH 0\t\t\t\n  DUP3 \t\t\t\n  DUP3 \t\t\t\n  SHL \t\t\t\n  SWAP1 \t\t\t\n  POP \t\t\t\n  SWAP3 \t\t\t\n  SWAP2 \t\t\t\n  POP \t\t\t\n  POP \t\t\t\n  JUMP \t\t\t\ntag 49\t\t\t\n  JUMPDEST \t\t\t\n  PUSH 0\t\t\t\n  PUSH 8\t\t\t\n  DUP4 \t\t\t\n  MUL \t\t\t\n  PUSH [tag] 127\t\t\t\n  PUSH FFFFFFFFFFFFFFFFFFFFFFFFFFFFFFFFFFFFFFFFFFFFFFFFFFFFFFFFFFFFFFFF\t\t\t\n  DUP3 \t\t\t\n  PUSH [tag] 48\t\t\t\n  JUMP \t\t\t\ntag 127\t\t\t\n  JUMPDEST \t\t\t\n  PUSH [tag] 128\t\t\t\n  DUP7 \t\t\t\n  DUP4 \t\t\t\n  PUSH [tag] 48\t\t\t\n  JUMP \t\t\t\ntag 128\t\t\t\n  JUMPDEST \t\t\t\n  SWAP6 \t\t\t\n  POP \t\t\t\n  DUP1 \t\t\t\n  NOT \t\t\t\n  DUP5 \t\t\t\n  AND \t\t\t\n  SWAP4 \t\t\t\n  POP \t\t\t\n  DUP1 \t\t\t\n  DUP7 \t\t\t\n  AND \t\t\t\n  DUP5 \t\t\t\n  OR \t\t\t\n  SWAP3 \t\t\t\n  POP \t\t\t\n  POP \t\t\t\n  POP \t\t\t\n  SWAP4 \t\t\t\n  SWAP3 \t\t\t\n  POP \t\t\t\n  POP \t\t\t\n  POP \t\t\t\n  JUMP \t\t\t\ntag 50\t\t\t\n  JUMPDEST \t\t\t\n  PUSH 0\t\t\t\n  DUP2 \t\t\t\n  SWAP1 \t\t\t\n  POP \t\t\t\n  SWAP2 \t\t\t\n  SWAP1 \t\t\t\n  POP \t\t\t\n  JUMP \t\t\t\ntag 51\t\t\t\n  JUMPDEST \t\t\t\n  PUSH 0\t\t\t\n  DUP2 \t\t\t\n  SWAP1 \t\t\t\n  POP \t\t\t\n  SWAP2 \t\t\t\n  SWAP1 \t\t\t\n  POP \t\t\t\n  JUMP \t\t\t\ntag 52\t\t\t\n  JUMPDEST \t\t\t\n  PUSH 0\t\t\t\n  PUSH [tag] 132\t\t\t\n  PUSH [tag] 133\t\t\t\n  PUSH [tag] 134\t\t\t\n  DUP5 \t\t\t\n  PUSH [tag] 50\t\t\t\n  JUMP \t\t\t\ntag 134\t\t\t\n  JUMPDEST \t\t\t\n  PUSH [tag] 51\t\t\t\n  JUMP \t\t\t\ntag 133\t\t\t\n  JUMPDEST \t\t\t\n  PUSH [tag] 50\t\t\t\n  JUMP \t\t\t\ntag 132\t\t\t\n  JUMPDEST \t\t\t\n  SWAP1 \t\t\t\n  POP \t\t\t\n  SWAP2 \t\t\t\n  SWAP1 \t\t\t\n  POP \t\t\t\n  JUMP \t\t\t\ntag 53\t\t\t\n  JUMPDEST \t\t\t\n  PUSH 0\t\t\t\n  DUP2 \t\t\t\n  SWAP1 \t\t\t\n  POP \t\t\t\n  SWAP2 \t\t\t\n  SWAP1 \t\t\t\n  POP \t\t\t\n  JUMP \t\t\t\ntag 54\t\t\t\n  JUMPDEST \t\t\t\n  PUSH [tag] 137\t\t\t\n  DUP4 \t\t\t\n  PUSH [tag] 52\t\t\t\n  JUMP \t\t\t\ntag 137\t\t\t\n  JUMPDEST \t\t\t\n  PUSH [tag] 138\t\t\t\n  PUSH [tag] 139\t\t\t\n  DUP3 \t\t\t\n  PUSH [tag] 53\t\t\t\n  JUMP \t\t\t\ntag 139\t\t\t\n  JUMPDEST \t\t\t\n  DUP5 \t\t\t\n  DUP5 \t\t\t\n  SLOAD \t\t\t\n  PUSH [tag] 49\t\t\t\n  JUMP \t\t\t\ntag 138\t\t\t\n  JUMPDEST \t\t\t\n  DUP3 \t\t\t\n  SSTORE \t\t\t\n  POP \t\t\t\n  POP \t\t\t\n  POP \t\t\t\n  POP \t\t\t\n  JUMP \t\t\t\ntag 55\t\t\t\n  JUMPDEST \t\t\t\n  PUSH 0\t\t\t\n  SWAP1 \t\t\t\n  JUMP \t\t\t\ntag 56\t\t\t\n  JUMPDEST \t\t\t\n  PUSH [tag] 142\t\t\t\n  PUSH [tag] 55\t\t\t\n  JUMP \t\t\t\ntag 142\t\t\t\n  JUMPDEST \t\t\t\n  PUSH [tag] 143\t\t\t\n  DUP2 \t\t\t\n  DUP5 \t\t\t\n  DUP5 \t\t\t\n  PUSH [tag] 54\t\t\t\n  JUMP \t\t\t\ntag 143\t\t\t\n  JUMPDEST \t\t\t\n  POP \t\t\t\n  POP \t\t\t\n  POP \t\t\t\n  JUMP \t\t\t\ntag 57\t\t\t\n  JUMPDEST \t\t\t\ntag 145\t\t\t\n  JUMPDEST \t\t\t\n  DUP2 \t\t\t\n  DUP2 \t\t\t\n  LT \t\t\t\n  ISZERO \t\t\t\n  PUSH [tag] 147\t\t\t\n  JUMPI \t\t\t\n  PUSH [tag] 148\t\t\t\n  PUSH 0\t\t\t\n  DUP3 \t\t\t\n  PUSH [tag] 56\t\t\t\n  JUMP \t\t\t\ntag 148\t\t\t\n  JUMPDEST \t\t\t\n  PUSH 1\t\t\t\n  DUP2 \t\t\t\n  ADD \t\t\t\n  SWAP1 \t\t\t\n  POP \t\t\t\n  PUSH [tag] 145\t\t\t\n  JUMP \t\t\t\ntag 147\t\t\t\n  JUMPDEST \t\t\t\n  POP \t\t\t\n  POP \t\t\t\n  JUMP \t\t\t\ntag 58\t\t\t\n  JUMPDEST \t\t\t\n  PUSH 1F\t\t\t\n  DUP3 \t\t\t\n  GT \t\t\t\n  ISZERO \t\t\t\n  PUSH [tag] 150\t\t\t\n  JUMPI \t\t\t\n  PUSH [tag] 151\t\t\t\n  DUP2 \t\t\t\n  PUSH [tag] 46\t\t\t\n  JUMP \t\t\t\ntag 151\t\t\t\n  JUMPDEST \t\t\t\n  PUSH [tag] 152\t\t\t\n  DUP5 \t\t\t\n  PUSH [tag] 47\t\t\t\n  JUMP \t\t\t\ntag 152\t\t\t\n  JUMPDEST \t\t\t\n  DUP2 \t\t\t\n  ADD \t\t\t\n  PUSH 20\t\t\t\n  DUP6 \t\t\t\n  LT \t\t\t\n  ISZERO \t\t\t\n  PUSH [tag] 153\t\t\t\n  JUMPI \t\t\t\n  DUP2 \t\t\t\n  SWAP1 \t\t\t\n  POP \t\t\t\ntag 153\t\t\t\n  JUMPDEST \t\t\t\n  PUSH [tag] 154\t\t\t\n  PUSH [tag] 155\t\t\t\n  DUP6 \t\t\t\n  PUSH [tag] 47\t\t\t\n  JUMP \t\t\t\ntag 155\t\t\t\n  JUMPDEST \t\t\t\n  DUP4 \t\t\t\n  ADD \t\t\t\n  DUP3 \t\t\t\n  PUSH [tag] 57\t\t\t\n  JUMP \t\t\t\ntag 154\t\t\t\n  JUMPDEST \t\t\t\n  POP \t\t\t\n  POP \t\t\t\ntag 150\t\t\t\n  JUMPDEST \t\t\t\n  POP \t\t\t\n  POP \t\t\t\n  POP \t\t\t\n  JUMP \t\t\t\ntag 59\t\t\t\n  JUMPDEST \t\t\t\n  PUSH 0\t\t\t\n  DUP3 \t\t\t\n  DUP3 \t\t\t\n  SHR \t\t\t\n  SWAP1 \t\t\t\n  POP \t\t\t\n  SWAP3 \t\t\t\n  SWAP2 \t\t\t\n  POP \t\t\t\n  POP \t\t\t\n  JUMP \t\t\t\ntag 60\t\t\t\n  JUMPDEST \t\t\t\n  PUSH 0\t\t\t\n  PUSH [tag] 158\t\t\t\n  PUSH 0\t\t\t\n  NOT \t\t\t\n  DUP5 \t\t\t\n  PUSH 8\t\t\t\n  MUL \t\t\t\n  PUSH [tag] 59\t\t\t\n  JUMP \t\t\t\ntag 158\t\t\t\n  JUMPDEST \t\t\t\n  NOT \t\t\t\n  DUP1 \t\t\t\n  DUP4 \t\t\t\n  AND \t\t\t\n  SWAP2 \t\t\t\n  POP \t\t\t\n  POP \t\t\t\n  SWAP3 \t\t\t\n  SWAP2 \t\t\t\n  POP \t\t\t\n  POP \t\t\t\n  JUMP \t\t\t\ntag 61\t\t\t\n  JUMPDEST \t\t\t\n  PUSH 0\t\t\t\n  PUSH [tag] 160\t\t\t\n  DUP4 \t\t\t\n  DUP4 \t\t\t\n  PUSH [tag] 60\t\t\t\n  JUMP \t\t\t\ntag 160\t\t\t\n  JUMPDEST \t\t\t\n  SWAP2 \t\t\t\n  POP \t\t\t\n  DUP3 \t\t\t\n  PUSH 2\t\t\t\n  MUL \t\t\t\n  DUP3 \t\t\t\n  OR \t\t\t\n  SWAP1 \t\t\t\n  POP \t\t\t\n  SWAP3 \t\t\t\n  SWAP2 \t\t\t\n  POP \t\t\t\n  POP \t\t\t\n  JUMP \t\t\t\ntag 8\t\t\t\n  JUMPDEST \t\t\t\n  PUSH [tag] 162\t\t\t\n  DUP3 \t\t\t\n  PUSH [tag] 43\t\t\t\n  JUMP \t\t\t\ntag 162\t\t\t\n  JUMPDEST \t\t\t\n  PUSH FFFFFFFFFFFFFFFF\t\t\t\n  DUP2 \t\t\t\n  GT \t\t\t\n  ISZERO \t\t\t\n  PUSH [tag] 163\t\t\t\n  JUMPI \t\t\t\n  PUSH [tag] 164\t\t\t\n  PUSH [tag] 29\t\t\t\n  JUMP \t\t\t\ntag 164\t\t\t\n  JUMPDEST \t\t\t\ntag 163\t\t\t\n  JUMPDEST \t\t\t\n  PUSH [tag] 165\t\t\t\n  DUP3 \t\t\t\n  SLOAD \t\t\t\n  PUSH [tag] 45\t\t\t\n  JUMP \t\t\t\ntag 165\t\t\t\n  JUMPDEST \t\t\t\n  PUSH [tag] 166\t\t\t\n  DUP3 \t\t\t\n  DUP3 \t\t\t\n  DUP6 \t\t\t\n  PUSH [tag] 58\t\t\t\n  JUMP \t\t\t\ntag 166\t\t\t\n  JUMPDEST \t\t\t\n  PUSH 0\t\t\t\n  PUSH 20\t\t\t\n  SWAP1 \t\t\t\n  POP \t\t\t\n  PUSH 1F\t\t\t\n  DUP4 \t\t\t\n  GT \t\t\t\n  PUSH 1\t\t\t\n  DUP2 \t\t\t\n  EQ \t\t\t\n  PUSH [tag] 168\t\t\t\n  JUMPI \t\t\t\n  PUSH 0\t\t\t\n  DUP5 \t\t\t\n  ISZERO \t\t\t\n  PUSH [tag] 169\t\t\t\n  JUMPI \t\t\t\n  DUP3 \t\t\t\n  DUP8 \t\t\t\n  ADD \t\t\t\n  MLOAD \t\t\t\n  SWAP1 \t\t\t\n  POP \t\t\t\ntag 169\t\t\t\n  JUMPDEST \t\t\t\n  PUSH [tag] 170\t\t\t\n  DUP6 \t\t\t\n  DUP3 \t\t\t\n  PUSH [tag] 61\t\t\t\n  JUMP \t\t\t\ntag 170\t\t\t\n  JUMPDEST \t\t\t\n  DUP7 \t\t\t\n  SSTORE \t\t\t\n  POP \t\t\t\n  PUSH [tag] 167\t\t\t\n  JUMP \t\t\t\ntag 168\t\t\t\n  JUMPDEST \t\t\t\n  PUSH 1F\t\t\t\n  NOT \t\t\t\n  DUP5 \t\t\t\n  AND \t\t\t\n  PUSH [tag] 171\t\t\t\n  DUP7 \t\t\t\n  PUSH [tag] 46\t\t\t\n  JUMP \t\t\t\ntag 171\t\t\t\n  JUMPDEST \t\t\t\n  PUSH 0\t\t\t\ntag 172\t\t\t\n  JUMPDEST \t\t\t\n  DUP3 \t\t\t\n  DUP2 \t\t\t\n  LT \t\t\t\n  ISZERO \t\t\t\n  PUSH [tag] 174\t\t\t\n  JUMPI \t\t\t\n  DUP5 \t\t\t\n  DUP10 \t\t\t\n  ADD \t\t\t\n  MLOAD \t\t\t\n  DUP3 \t\t\t\n  SSTORE \t\t\t\n  PUSH 1\t\t\t\n  DUP3 \t\t\t\n  ADD \t\t\t\n  SWAP2 \t\t\t\n  POP \t\t\t\n  PUSH 20\t\t\t\n  DUP6 \t\t\t\n  ADD \t\t\t\n  SWAP5 \t\t\t\n  POP \t\t\t\n  PUSH 20\t\t\t\n  DUP2 \t\t\t\n  ADD \t\t\t\n  SWAP1 \t\t\t\n  POP \t\t\t\n  PUSH [tag] 172\t\t\t\n  JUMP \t\t\t\ntag 174\t\t\t\n  JUMPDEST \t\t\t\n  DUP7 \t\t\t\n  DUP4 \t\t\t\n  LT \t\t\t\n  ISZERO \t\t\t\n  PUSH [tag] 175\t\t\t\n  JUMPI \t\t\t\n  DUP5 \t\t\t\n  DUP10 \t\t\t\n  ADD \t\t\t\n  MLOAD \t\t\t\n  PUSH [tag] 176\t\t\t\n  PUSH 1F\t\t\t\n  DUP10 \t\t\t\n  AND \t\t\t\n  DUP3 \t\t\t\n  PUSH [tag] 60\t\t\t\n  JUMP \t\t\t\ntag 176\t\t\t\n  JUMPDEST \t\t\t\n  DUP4 \t\t\t\n  SSTORE \t\t\t\n  POP \t\t\t\ntag 175\t\t\t\n  JUMPDEST \t\t\t\n  PUSH 1\t\t\t\n  PUSH 2\t\t\t\n  DUP9 \t\t\t\n  MUL \t\t\t\n  ADD \t\t\t\n  DUP9 \t\t\t\n  SSTORE \t\t\t\n  POP \t\t\t\n  POP \t\t\t\n  POP \t\t\t\ntag 167\t\t\t\n  JUMPDEST \t\t\t\n  POP \t\t\t\n  POP \t\t\t\n  POP \t\t\t\n  POP \t\t\t\n  POP \t\t\t\n  POP \t\t\t\n  JUMP \t\t\t\ntag 13\t\t\tcontract FluxERC20 is ERC20, E...\n  JUMPDEST \t\t\tcontract FluxERC20 is ERC20, E...\n  PUSH #[$] 0000000000000000000000000000000000000000000000000000000000000000\t\t\tcontract FluxERC20 is ERC20, E...\n  DUP1 \t\t\tcontract FluxERC20 is ERC20, E...\n  PUSH [$] 0000000000000000000000000000000000000000000000000000000000000000\t\t\tcontract FluxERC20 is ERC20, E...\n  PUSH 0\t\t\tcontract FluxERC20 is ERC20, E...\n  CODECOPY \t\t\tcontract FluxERC20 is ERC20, E...\n  PUSH 0\t\t\tcontract FluxERC20 is ERC20, E...\n  RETURN \t\t\tcontract FluxERC20 is ERC20, E...\n.data\n  0:\n    .code\n      PUSH 80\t\t\tcontract FluxERC20 is ERC20, E...\n      PUSH 40\t\t\tcontract FluxERC20 is ERC20, E...\n      MSTORE \t\t\tcontract FluxERC20 is ERC20, E...\n      CALLVALUE \t\t\tcontract FluxERC20 is ERC20, E...\n      DUP1 \t\t\tcontract FluxERC20 is ERC20, E...\n      ISZERO \t\t\tcontract FluxERC20 is ERC20, E...\n      PUSH [tag] 1\t\t\tcontract FluxERC20 is ERC20, E...\n      JUMPI \t\t\tcontract FluxERC20 is ERC20, E...\n      PUSH 0\t\t\tcontract FluxERC20 is ERC20, E...\n      DUP1 \t\t\tcontract FluxERC20 is ERC20, E...\n      REVERT \t\t\tcontract FluxERC20 is ERC20, E...\n    tag 1\t\t\tcontract FluxERC20 is ERC20, E...\n      JUMPDEST \t\t\tcontract FluxERC20 is ERC20, E...\n      POP \t\t\tcontract FluxERC20 is ERC20, E...\n      PUSH 4\t\t\tcontract FluxERC20 is ERC20, E...\n      CALLDATASIZE \t\t\tcontract FluxERC20 is ERC20, E...\n      LT \t\t\tcontract FluxERC20 is ERC20, E...\n      PUSH [tag] 2\t\t\tcontract FluxERC20 is ERC20, E...\n      JUMPI \t\t\tcontract FluxERC20 is ERC20, E...\n      PUSH 0\t\t\tcontract FluxERC20 is ERC20, E...\n      CALLDATALOAD \t\t\tcontract FluxERC20 is ERC20, E...\n      PUSH E0\t\t\tcontract FluxERC20 is ERC20, E...\n      SHR \t\t\tcontract FluxERC20 is ERC20, E...\n      DUP1 \t\t\tcontract FluxERC20 is ERC20, E...\n      PUSH 42966C68\t\t\tcontract FluxERC20 is ERC20, E...\n      GT \t\t\tcontract FluxERC20 is ERC20, E...\n      PUSH [tag] 23\t\t\tcontract FluxERC20 is ERC20, E...\n      JUMPI \t\t\tcontract FluxERC20 is ERC20, E...\n      DUP1 \t\t\tcontract FluxERC20 is ERC20, E...\n      PUSH A217FDDF\t\t\tcontract FluxERC20 is ERC20, E...\n      GT \t\t\tcontract FluxERC20 is ERC20, E...\n      PUSH [tag] 24\t\t\tcontract FluxERC20 is ERC20, E...\n      JUMPI \t\t\tcontract FluxERC20 is ERC20, E...\n      DUP1 \t\t\tcontract FluxERC20 is ERC20, E...\n      PUSH A217FDDF\t\t\tcontract FluxERC20 is ERC20, E...\n      EQ \t\t\tcontract FluxERC20 is ERC20, E...\n      PUSH [tag] 18\t\t\tcontract FluxERC20 is ERC20, E...\n      JUMPI \t\t\tcontract FluxERC20 is ERC20, E...\n      DUP1 \t\t\tcontract FluxERC20 is ERC20, E...\n      PUSH A9059CBB\t\t\tcontract FluxERC20 is ERC20, E...\n      EQ \t\t\tcontract FluxERC20 is ERC20, E...\n      PUSH [tag] 19\t\t\tcontract FluxERC20 is ERC20, E...\n      JUMPI \t\t\tcontract FluxERC20 is ERC20, E...\n      DUP1 \t\t\tcontract FluxERC20 is ERC20, E...\n      PUSH D5391393\t\t\tcontract FluxERC20 is ERC20, E...\n      EQ \t\t\tcontract FluxERC20 is ERC20, E...\n      PUSH [tag] 20\t\t\tcontract FluxERC20 is ERC20, E...\n      JUMPI \t\t\tcontract FluxERC20 is ERC20, E...\n      DUP1 \t\t\tcontract FluxERC20 is ERC20, E...\n      PUSH D547741F\t\t\tcontract FluxERC20 is ERC20, E...\n      EQ \t\t\tcontract FluxERC20 is ERC20, E...\n      PUSH [tag] 21\t\t\tcontract FluxERC20 is ERC20, E...\n      JUMPI \t\t\tcontract FluxERC20 is ERC20, E...\n      DUP1 \t\t\tcontract FluxERC20 is ERC20, E...\n      PUSH DD62ED3E\t\t\tcontract FluxERC20 is ERC20, E...\n      EQ \t\t\tcontract FluxERC20 is ERC20, E...\n      PUSH [tag] 22\t\t\tcontract FluxERC20 is ERC20, E...\n      JUMPI \t\t\tcontract FluxERC20 is ERC20, E...\n      PUSH [tag] 2\t\t\tcontract FluxERC20 is ERC20, E...\n      JUMP \t\t\tcontract FluxERC20 is ERC20, E...\n    tag 24\t\t\tcontract FluxERC20 is ERC20, E...\n      JUMPDEST \t\t\tcontract FluxERC20 is ERC20, E...\n      DUP1 \t\t\tcontract FluxERC20 is ERC20, E...\n      PUSH 42966C68\t\t\tcontract FluxERC20 is ERC20, E...\n      EQ \t\t\tcontract FluxERC20 is ERC20, E...\n      PUSH [tag] 13\t\t\tcontract FluxERC20 is ERC20, E...\n      JUMPI \t\t\tcontract FluxERC20 is ERC20, E...\n      DUP1 \t\t\tcontract FluxERC20 is ERC20, E...\n      PUSH 70A08231\t\t\tcontract FluxERC20 is ERC20, E...\n      EQ \t\t\tcontract FluxERC20 is ERC20, E...\n      PUSH [tag] 14\t\t\tcontract FluxERC20 is ERC20, E...\n      JUMPI \t\t\tcontract FluxERC20 is ERC20, E...\n      DUP1 \t\t\tcontract FluxERC20 is ERC20, E...\n      PUSH 79CC6790\t\t\tcontract FluxERC20 is ERC20, E...\n      EQ \t\t\tcontract FluxERC20 is ERC20, E...\n      PUSH [tag] 15\t\t\tcontract FluxERC20 is ERC20, E...\n      JUMPI \t\t\tcontract FluxERC20 is ERC20, E...\n      DUP1 \t\t\tcontract FluxERC20 is ERC20, E...\n      PUSH 91D14854\t\t\tcontract FluxERC20 is ERC20, E...\n      EQ \t\t\tcontract FluxERC20 is ERC20, E...\n      PUSH [tag] 16\t\t\tcontract FluxERC20 is ERC20, E...\n      JUMPI \t\t\tcontract FluxERC20 is ERC20, E...\n      DUP1 \t\t\tcontract FluxERC20 is ERC20, E...\n      PUSH 95D89B41\t\t\tcontract FluxERC20 is ERC20, E...\n      EQ \t\t\tcontract FluxERC20 is ERC20, E...\n      PUSH [tag] 17\t\t\tcontract FluxERC20 is ERC20, E...\n      JUMPI \t\t\tcontract FluxERC20 is ERC20, E...\n      PUSH [tag] 2\t\t\tcontract FluxERC20 is ERC20, E...\n      JUMP \t\t\tcontract FluxERC20 is ERC20, E...\n    tag 23\t\t\tcontract FluxERC20 is ERC20, E...\n      JUMPDEST \t\t\tcontract FluxERC20 is ERC20, E...\n      DUP1 \t\t\tcontract FluxERC20 is ERC20, E...\n      PUSH 248A9CA3\t\t\tcontract FluxERC20 is ERC20, E...\n      GT \t\t\tcontract FluxERC20 is ERC20, E...\n      PUSH [tag] 25\t\t\tcontract FluxERC20 is ERC20, E...\n      JUMPI \t\t\tcontract FluxERC20 is ERC20, E...\n      DUP1 \t\t\tcontract FluxERC20 is ERC20, E...\n      PUSH 248A9CA3\t\t\tcontract FluxERC20 is ERC20, E...\n      EQ \t\t\tcontract FluxERC20 is ERC20, E...\n      PUSH [tag] 8\t\t\tcontract FluxERC20 is ERC20, E...\n      JUMPI \t\t\tcontract FluxERC20 is ERC20, E...\n      DUP1 \t\t\tcontract FluxERC20 is ERC20, E...\n      PUSH 2F2FF15D\t\t\tcontract FluxERC20 is ERC20, E...\n      EQ \t\t\tcontract FluxERC20 is ERC20, E...\n      PUSH [tag] 9\t\t\tcontract FluxERC20 is ERC20, E...\n      JUMPI \t\t\tcontract FluxERC20 is ERC20, E...\n      DUP1 \t\t\tcontract FluxERC20 is ERC20, E...\n      PUSH 313CE567\t\t\tcontract FluxERC20 is ERC20, E...\n      EQ \t\t\tcontract FluxERC20 is ERC20, E...\n      PUSH [tag] 10\t\t\tcontract FluxERC20 is ERC20, E...\n      JUMPI \t\t\tcontract FluxERC20 is ERC20, E...\n      DUP1 \t\t\tcontract FluxERC20 is ERC20, E...\n      PUSH 36568ABE\t\t\tcontract FluxERC20 is ERC20, E...\n      EQ \t\t\tcontract FluxERC20 is ERC20, E...\n      PUSH [tag] 11\t\t\tcontract FluxERC20 is ERC20, E...\n      JUMPI \t\t\tcontract FluxERC20 is ERC20, E...\n      DUP1 \t\t\tcontract FluxERC20 is ERC20, E...\n      PUSH 40C10F19\t\t\tcontract FluxERC20 is ERC20, E...\n      EQ \t\t\tcontract FluxERC20 is ERC20, E...\n      PUSH [tag] 12\t\t\tcontract FluxERC20 is ERC20, E...\n      JUMPI \t\t\tcontract FluxERC20 is ERC20, E...\n      PUSH [tag] 2\t\t\tcontract FluxERC20 is ERC20, E...\n      JUMP \t\t\tcontract FluxERC20 is ERC20, E...\n    tag 25\t\t\tcontract FluxERC20 is ERC20, E...\n      JUMPDEST \t\t\tcontract FluxERC20 is ERC20, E...\n      DUP1 \t\t\tcontract FluxERC20 is ERC20, E...\n      PUSH 1FFC9A7\t\t\tcontract FluxERC20 is ERC20, E...\n      EQ \t\t\tcontract FluxERC20 is ERC20, E...\n      PUSH [tag] 3\t\t\tcontract FluxERC20 is ERC20, E...\n      JUMPI \t\t\tcontract FluxERC20 is ERC20, E...\n      DUP1 \t\t\tcontract FluxERC20 is ERC20, E...\n      PUSH 6FDDE03\t\t\tcontract FluxERC20 is ERC20, E...\n      EQ \t\t\tcontract FluxERC20 is ERC20, E...\n      PUSH [tag] 4\t\t\tcontract FluxERC20 is ERC20, E...\n      JUMPI \t\t\tcontract FluxERC20 is ERC20, E...\n      DUP1 \t\t\tcontract FluxERC20 is ERC20, E...\n      PUSH 95EA7B3\t\t\tcontract FluxERC20 is ERC20, E...\n      EQ \t\t\tcontract FluxERC20 is ERC20, E...\n      PUSH [tag] 5\t\t\tcontract FluxERC20 is ERC20, E...\n      JUMPI \t\t\tcontract FluxERC20 is ERC20, E...\n      DUP1 \t\t\tcontract FluxERC20 is ERC20, E...\n      PUSH 18160DDD\t\t\tcontract FluxERC20 is ERC20, E...\n      EQ \t\t\tcontract FluxERC20 is ERC20, E...\n      PUSH [tag] 6\t\t\tcontract FluxERC20 is ERC20, E...\n      JUMPI \t\t\tcontract FluxERC20 is ERC20, E...\n      DUP1 \t\t\tcontract FluxERC20 is ERC20, E...\n      PUSH 23B872DD\t\t\tcontract FluxERC20 is ERC20, E...\n      EQ \t\t\tcontract FluxERC20 is ERC20, E...\n      PUSH [tag] 7\t\t\tcontract FluxERC20 is ERC20, E...\n      JUMPI \t\t\tcontract FluxERC20 is ERC20, E...\n    tag 2\t\t\tcontract FluxERC20 is ERC20, E...\n      JUMPDEST \t\t\tcontract FluxERC20 is ERC20, E...\n      PUSH 0\t\t\tcontract FluxERC20 is ERC20, E...\n      DUP1 \t\t\tcontract FluxERC20 is ERC20, E...\n      REVERT \t\t\tcontract FluxERC20 is ERC20, E...\n    tag 3\t\t\t\n      JUMPDEST \t\t\t\n      PUSH [tag] 26\t\t\t\n      PUSH 4\t\t\t\n      DUP1 \t\t\t\n      CALLDATASIZE \t\t\t\n      SUB \t\t\t\n      DUP2 \t\t\t\n      ADD \t\t\t\n      SWAP1 \t\t\t\n      PUSH [tag] 27\t\t\t\n      SWAP2 \t\t\t\n      SWAP1 \t\t\t\n      PUSH [tag] 28\t\t\t\n      JUMP \t\t\t\n    tag 27\t\t\t\n      JUMPDEST \t\t\t\n      PUSH [tag] 29\t\t\t\n      JUMP \t\t\t\n    tag 26\t\t\t\n      JUMPDEST \t\t\t\n      PUSH 40\t\t\t\n      MLOAD \t\t\t\n      PUSH [tag] 30\t\t\t\n      SWAP2 \t\t\t\n      SWAP1 \t\t\t\n      PUSH [tag] 31\t\t\t\n      JUMP \t\t\t\n    tag 30\t\t\t\n      JUMPDEST \t\t\t\n      PUSH 40\t\t\t\n      MLOAD \t\t\t\n      DUP1 \t\t\t\n      SWAP2 \t\t\t\n      SUB \t\t\t\n      SWAP1 \t\t\t\n      RETURN \t\t\t\n    tag 4\t\t\t\n      JUMPDEST \t\t\t\n      PUSH [tag] 32\t\t\t\n      PUSH [tag] 33\t\t\t\n      JUMP \t\t\t\n    tag 32\t\t\t\n      JUMPDEST \t\t\t\n      PUSH 40\t\t\t\n      MLOAD \t\t\t\n      PUSH [tag] 34\t\t\t\n      SWAP2 \t\t\t\n      SWAP1 \t\t\t\n      PUSH [tag] 35\t\t\t\n      JUMP \t\t\t\n    tag 34\t\t\t\n      JUMPDEST \t\t\t\n      PUSH 40\t\t\t\n      MLOAD \t\t\t\n      DUP1 \t\t\t\n      SWAP2 \t\t\t\n      SUB \t\t\t\n      SWAP1 \t\t\t\n      RETURN \t\t\t\n    tag 5\t\t\t\n      JUMPDEST \t\t\t\n      PUSH [tag] 36\t\t\t\n      PUSH 4\t\t\t\n      DUP1 \t\t\t\n      CALLDATASIZE \t\t\t\n      SUB \t\t\t\n      DUP2 \t\t\t\n      ADD \t\t\t\n      SWAP1 \t\t\t\n      PUSH [tag] 37\t\t\t\n      SWAP2 \t\t\t\n      SWAP1 \t\t\t\n      PUSH [tag] 38\t\t\t\n      JUMP \t\t\t\n    tag 37\t\t\t\n      JUMPDEST \t\t\t\n      PUSH [tag] 39\t\t\t\n      JUMP \t\t\t\n    tag 36\t\t\t\n      JUMPDEST \t\t\t\n      PUSH 40\t\t\t\n      MLOAD \t\t\t\n      PUSH [tag] 40\t\t\t\n      SWAP2 \t\t\t\n      SWAP1 \t\t\t\n      PUSH [tag] 31\t\t\t\n      JUMP \t\t\t\n    tag 40\t\t\t\n      JUMPDEST \t\t\t\n      PUSH 40\t\t\t\n      MLOAD \t\t\t\n      DUP1 \t\t\t\n      SWAP2 \t\t\t\n      SUB \t\t\t\n      SWAP1 \t\t\t\n      RETURN \t\t\t\n    tag 6\t\t\t\n      JUMPDEST \t\t\t\n      PUSH [tag] 41\t\t\t\n      PUSH [tag] 42\t\t\t\n      JUMP \t\t\t\n    tag 41\t\t\t\n      JUMPDEST \t\t\t\n      PUSH 40\t\t\t\n      MLOAD \t\t\t\n      PUSH [tag] 43\t\t\t\n      SWAP2 \t\t\t\n      SWAP1 \t\t\t\n      PUSH [tag] 44\t\t\t\n      JUMP \t\t\t\n    tag 43\t\t\t\n      JUMPDEST \t\t\t\n      PUSH 40\t\t\t\n      MLOAD \t\t\t\n      DUP1 \t\t\t\n      SWAP2 \t\t\t\n      SUB \t\t\t\n      SWAP1 \t\t\t\n      RETURN \t\t\t\n    tag 7\t\t\t\n      JUMPDEST \t\t\t\n      PUSH [tag] 45\t\t\t\n      PUSH 4\t\t\t\n      DUP1 \t\t\t\n      CALLDATASIZE \t\t\t\n      SUB \t\t\t\n      DUP2 \t\t\t\n      ADD \t\t\t\n      SWAP1 \t\t\t\n      PUSH [tag] 46\t\t\t\n      SWAP2 \t\t\t\n      SWAP1 \t\t\t\n      PUSH [tag] 47\t\t\t\n      JUMP \t\t\t\n    tag 46\t\t\t\n      JUMPDEST \t\t\t\n      PUSH [tag] 48\t\t\t\n      JUMP \t\t\t\n    tag 45\t\t\t\n      JUMPDEST \t\t\t\n      PUSH 40\t\t\t\n      MLOAD \t\t\t\n      PUSH [tag] 49\t\t\t\n      SWAP2 \t\t\t\n      SWAP1 \t\t\t\n      PUSH [tag] 31\t\t\t\n      JUMP \t\t\t\n    tag 49\t\t\t\n      JUMPDEST \t\t\t\n      PUSH 40\t\t\t\n      MLOAD \t\t\t\n      DUP1 \t\t\t\n      SWAP2 \t\t\t\n      SUB \t\t\t\n      SWAP1 \t\t\t\n      RETURN \t\t\t\n    tag 8\t\t\t\n      JUMPDEST \t\t\t\n      PUSH [tag] 50\t\t\t\n      PUSH 4\t\t\t\n      DUP1 \t\t\t\n      CALLDATASIZE \t\t\t\n      SUB \t\t\t\n      DUP2 \t\t\t\n      ADD \t\t\t\n      SWAP1 \t\t\t\n      PUSH [tag] 51\t\t\t\n      SWAP2 \t\t\t\n      SWAP1 \t\t\t\n      PUSH [tag] 52\t\t\t\n      JUMP \t\t\t\n    tag 51\t\t\t\n      JUMPDEST \t\t\t\n      PUSH [tag] 53\t\t\t\n      JUMP \t\t\t\n    tag 50\t\t\t\n      JUMPDEST \t\t\t\n      PUSH 40\t\t\t\n      MLOAD \t\t\t\n      PUSH [tag] 54\t\t\t\n      SWAP2 \t\t\t\n      SWAP1 \t\t\t\n      PUSH [tag] 55\t\t\t\n      JUMP \t\t\t\n    tag 54\t\t\t\n      JUMPDEST \t\t\t\n      PUSH 40\t\t\t\n      MLOAD \t\t\t\n      DUP1 \t\t\t\n      SWAP2 \t\t\t\n      SUB \t\t\t\n      SWAP1 \t\t\t\n      RETURN \t\t\t\n    tag 9\t\t\t\n      JUMPDEST \t\t\t\n      PUSH [tag] 56\t\t\t\n      PUSH 4\t\t\t\n      DUP1 \t\t\t\n      CALLDATASIZE \t\t\t\n      SUB \t\t\t\n      DUP2 \t\t\t\n      ADD \t\t\t\n      SWAP1 \t\t\t\n      PUSH [tag] 57\t\t\t\n      SWAP2 \t\t\t\n      SWAP1 \t\t\t\n      PUSH [tag] 58\t\t\t\n      JUMP \t\t\t\n    tag 57\t\t\t\n      JUMPDEST \t\t\t\n      PUSH [tag] 59\t\t\t\n      JUMP \t\t\t\n    tag 56\t\t\t\n      JUMPDEST \t\t\t\n      STOP \t\t\t\n    tag 10\t\t\tfunction decimals() override p...\n      JUMPDEST \t\t\tfunction decimals() override p...\n      PUSH [tag] 60\t\t\tfunction decimals() override p...\n      PUSH [tag] 61\t\t\tfunction decimals() override p...\n      JUMP \t\t\tfunction decimals() override p...\n    tag 60\t\t\tfunction decimals() override p...\n      JUMPDEST \t\t\tfunction decimals() override p...\n      PUSH 40\t\t\tfunction decimals() override p...\n      MLOAD \t\t\tfunction decimals() override p...\n      PUSH [tag] 62\t\t\tfunction decimals() override p...\n      SWAP2 \t\t\tfunction decimals() override p...\n      SWAP1 \t\t\tfunction decimals() override p...\n      PUSH [tag] 63\t\t\tfunction decimals() override p...\n      JUMP \t\t\tfunction decimals() override p...\n    tag 62\t\t\tfunction decimals() override p...\n      JUMPDEST \t\t\tfunction decimals() override p...\n      PUSH 40\t\t\tfunction decimals() override p...\n      MLOAD \t\t\tfunction decimals() override p...\n      DUP1 \t\t\tfunction decimals() override p...\n      SWAP2 \t\t\tfunction decimals() override p...\n      SUB \t\t\tfunction decimals() override p...\n      SWAP1 \t\t\tfunction decimals() override p...\n      RETURN \t\t\tfunction decimals() override p...\n    tag 11\t\t\t\n      JUMPDEST \t\t\t\n      PUSH [tag] 64\t\t\t\n      PUSH 4\t\t\t\n      DUP1 \t\t\t\n      CALLDATASIZE \t\t\t\n      SUB \t\t\t\n      DUP2 \t\t\t\n      ADD \t\t\t\n      SWAP1 \t\t\t\n      PUSH [tag] 65\t\t\t\n      SWAP2 \t\t\t\n      SWAP1 \t\t\t\n      PUSH [tag] 58\t\t\t\n      JUMP \t\t\t\n    tag 65\t\t\t\n      JUMPDEST \t\t\t\n      PUSH [tag] 66\t\t\t\n      JUMP \t\t\t\n    tag 64\t\t\t\n      JUMPDEST \t\t\t\n      STOP \t\t\t\n    tag 12\t\t\tfunction mint(address to, uint...\n      JUMPDEST \t\t\tfunction mint(address to, uint...\n      PUSH [tag] 67\t\t\tfunction mint(address to, uint...\n      PUSH 4\t\t\tfunction mint(address to, uint...\n      DUP1 \t\t\tfunction mint(address to, uint...\n      CALLDATASIZE \t\t\tfunction mint(address to, uint...\n      SUB \t\t\tfunction mint(address to, uint...\n      DUP2 \t\t\tfunction mint(address to, uint...\n      ADD \t\t\tfunction mint(address to, uint...\n      SWAP1 \t\t\tfunction mint(address to, uint...\n      PUSH [tag] 68\t\t\tfunction mint(address to, uint...\n      SWAP2 \t\t\tfunction mint(address to, uint...\n      SWAP1 \t\t\tfunction mint(address to, uint...\n      PUSH [tag] 38\t\t\tfunction mint(address to, uint...\n      JUMP \t\t\tfunction mint(address to, uint...\n    tag 68\t\t\tfunction mint(address to, uint...\n      JUMPDEST \t\t\tfunction mint(address to, uint...\n      PUSH [tag] 69\t\t\tfunction mint(address to, uint...\n      JUMP \t\t\tfunction mint(address to, uint...\n    tag 67\t\t\tfunction mint(address to, uint...\n      JUMPDEST \t\t\tfunction mint(address to, uint...\n      STOP \t\t\tfunction mint(address to, uint...\n    tag 13\t\t\tSymbol) {\\n        _grantRole(...\n      JUMPDEST \t\t\tSymbol) {\\n        _grantRole(...\n      PUSH [tag] 70\t\t\tSymbol) {\\n        _grantRole(...\n      PUSH 4\t\t\tSymbol) {\\n        _grantRole(...\n      DUP1 \t\t\tSymbol) {\\n        _grantRole(...\n      CALLDATASIZE \t\t\tSymbol) {\\n        _grantRole(...\n      SUB \t\t\tSymbol) {\\n        _grantRole(...\n      DUP2 \t\t\tSymbol) {\\n        _grantRole(...\n      ADD \t\t\tSymbol) {\\n        _grantRole(...\n      SWAP1 \t\t\tSymbol) {\\n        _grantRole(...\n      PUSH [tag] 71\t\t\tSymbol) {\\n        _grantRole(...\n      SWAP2 \t\t\tSymbol) {\\n        _grantRole(...\n      SWAP1 \t\t\tSymbol) {\\n        _grantRole(...\n      PUSH [tag] 72\t\t\tSymbol) {\\n        _grantRole(...\n      JUMP \t\t\tSymbol) {\\n        _grantRole(...\n    tag 71\t\t\tSymbol) {\\n        _grantRole(...\n      JUMPDEST \t\t\tSymbol) {\\n        _grantRole(...\n      PUSH [tag] 73\t\t\tSymbol) {\\n        _grantRole(...\n      JUMP \t\t\tSymbol) {\\n        _grantRole(...\n    tag 70\t\t\tSymbol) {\\n        _grantRole(...\n      JUMPDEST \t\t\tSymbol) {\\n        _grantRole(...\n      STOP \t\t\tSymbol) {\\n        _grantRole(...\n    tag 14\t\t\t\n      JUMPDEST \t\t\t\n      PUSH [tag] 74\t\t\t\n      PUSH 4\t\t\t\n      DUP1 \t\t\t\n      CALLDATASIZE \t\t\t\n      SUB \t\t\t\n      DUP2 \t\t\t\n      ADD \t\t\t\n      SWAP1 \t\t\t\n      PUSH [tag] 75\t\t\t\n      SWAP2 \t\t\t\n      SWAP1 \t\t\t\n      PUSH [tag] 76\t\t\t\n      JUMP \t\t\t\n    tag 75\t\t\t\n      JUMPDEST \t\t\t\n      PUSH [tag] 77\t\t\t\n      JUMP \t\t\t\n    tag 74\t\t\t\n      JUMPDEST \t\t\t\n      PUSH 40\t\t\t\n      MLOAD \t\t\t\n      PUSH [tag] 78\t\t\t\n      SWAP2 \t\t\t\n      SWAP1 \t\t\t\n      PUSH [tag] 44\t\t\t\n      JUMP \t\t\t\n    tag 78\t\t\t\n      JUMPDEST \t\t\t\n      PUSH 40\t\t\t\n      MLOAD \t\t\t\n      DUP1 \t\t\t\n      SWAP2 \t\t\t\n      SUB \t\t\t\n      SWAP1 \t\t\t\n      RETURN \t\t\t\n    tag 15\t\t\t\n      JUMPDEST \t\t\t\n      PUSH [tag] 79\t\t\t\n      PUSH 4\t\t\t\n      DUP1 \t\t\t\n      CALLDATASIZE \t\t\t\n      SUB \t\t\t\n      DUP2 \t\t\t\n      ADD \t\t\t\n      SWAP1 \t\t\t\n      PUSH [tag] 80\t\t\t\n      SWAP2 \t\t\t\n      SWAP1 \t\t\t\n      PUSH [tag] 38\t\t\t\n      JUMP \t\t\t\n    tag 80\t\t\t\n      JUMPDEST \t\t\t\n      PUSH [tag] 81\t\t\t\n      JUMP \t\t\t\n    tag 79\t\t\t\n      JUMPDEST \t\t\t\n      STOP \t\t\t\n    tag 16\t\t\t\n      JUMPDEST \t\t\t\n      PUSH [tag] 82\t\t\t\n      PUSH 4\t\t\t\n      DUP1 \t\t\t\n      CALLDATASIZE \t\t\t\n      SUB \t\t\t\n      DUP2 \t\t\t\n      ADD \t\t\t\n      SWAP1 \t\t\t\n      PUSH [tag] 83\t\t\t\n      SWAP2 \t\t\t\n      SWAP1 \t\t\t\n      PUSH [tag] 58\t\t\t\n      JUMP \t\t\t\n    tag 83\t\t\t\n      JUMPDEST \t\t\t\n      PUSH [tag] 84\t\t\t\n      JUMP \t\t\t\n    tag 82\t\t\t\n      JUMPDEST \t\t\t\n      PUSH 40\t\t\t\n      MLOAD \t\t\t\n      PUSH [tag] 85\t\t\t\n      SWAP2 \t\t\t\n      SWAP1 \t\t\t\n      PUSH [tag] 31\t\t\t\n      JUMP \t\t\t\n    tag 85\t\t\t\n      JUMPDEST \t\t\t\n      PUSH 40\t\t\t\n      MLOAD \t\t\t\n      DUP1 \t\t\t\n      SWAP2 \t\t\t\n      SUB \t\t\t\n      SWAP1 \t\t\t\n      RETURN \t\t\t\n    tag 17\t\t\t\n      JUMPDEST \t\t\t\n      PUSH [tag] 86\t\t\t\n      PUSH [tag] 87\t\t\t\n      JUMP \t\t\t\n    tag 86\t\t\t\n      JUMPDEST \t\t\t\n      PUSH 40\t\t\t\n      MLOAD \t\t\t\n      PUSH [tag] 88\t\t\t\n      SWAP2 \t\t\t\n      SWAP1 \t\t\t\n      PUSH [tag] 35\t\t\t\n      JUMP \t\t\t\n    tag 88\t\t\t\n      JUMPDEST \t\t\t\n      PUSH 40\t\t\t\n      MLOAD \t\t\t\n      DUP1 \t\t\t\n      SWAP2 \t\t\t\n      SUB \t\t\t\n      SWAP1 \t\t\t\n      RETURN \t\t\t\n    tag 18\t\t\t\n      JUMPDEST \t\t\t\n      PUSH [tag] 89\t\t\t\n      PUSH [tag] 90\t\t\t\n      JUMP \t\t\t\n    tag 89\t\t\t\n      JUMPDEST \t\t\t\n      PUSH 40\t\t\t\n      MLOAD \t\t\t\n      PUSH [tag] 91\t\t\t\n      SWAP2 \t\t\t\n      SWAP1 \t\t\t\n      PUSH [tag] 55\t\t\t\n      JUMP \t\t\t\n    tag 91\t\t\t\n      JUMPDEST \t\t\t\n      PUSH 40\t\t\t\n      MLOAD \t\t\t\n      DUP1 \t\t\t\n      SWAP2 \t\t\t\n      SUB \t\t\t\n      SWAP1 \t\t\t\n      RETURN \t\t\t\n    tag 19\t\t\t\n      JUMPDEST \t\t\t\n      PUSH [tag] 92\t\t\t\n      PUSH 4\t\t\t\n      DUP1 \t\t\t\n      CALLDATASIZE \t\t\t\n      SUB \t\t\t\n      DUP2 \t\t\t\n      ADD \t\t\t\n      SWAP1 \t\t\t\n      PUSH [tag] 93\t\t\t\n      SWAP2 \t\t\t\n      SWAP1 \t\t\t\n      PUSH [tag] 38\t\t\t\n      JUMP \t\t\t\n    tag 93\t\t\t\n      JUMPDEST \t\t\t\n      PUSH [tag] 94\t\t\t\n      JUMP \t\t\t\n    tag 92\t\t\t\n      JUMPDEST \t\t\t\n      PUSH 40\t\t\t\n      MLOAD \t\t\t\n      PUSH [tag] 95\t\t\t\n      SWAP2 \t\t\t\n      SWAP1 \t\t\t\n      PUSH [tag] 31\t\t\t\n      JUMP \t\t\t\n    tag 95\t\t\t\n      JUMPDEST \t\t\t\n      PUSH 40\t\t\t\n      MLOAD \t\t\t\n      DUP1 \t\t\t\n      SWAP2 \t\t\t\n      SUB \t\t\t\n      SWAP1 \t\t\t\n      RETURN \t\t\t\n    tag 20\t\t\tbytes32 public constant MINTER...\n      JUMPDEST \t\t\tbytes32 public constant MINTER...\n      PUSH [tag] 96\t\t\tbytes32 public constant MINTER...\n      PUSH [tag] 97\t\t\tbytes32 public constant MINTER...\n      JUMP \t\t\tbytes32 public constant MINTER...\n    tag 96\t\t\tbytes32 public constant MINTER...\n      JUMPDEST \t\t\tbytes32 public constant MINTER...\n      PUSH 40\t\t\tbytes32 public constant MINTER...\n      MLOAD \t\t\tbytes32 public constant MINTER...\n      PUSH [tag] 98\t\t\tbytes32 public constant MINTER...\n      SWAP2 \t\t\tbytes32 public constant MINTER...\n      SWAP1 \t\t\tbytes32 public constant MINTER...\n      PUSH [tag] 55\t\t\tbytes32 public constant MINTER...\n      JUMP \t\t\tbytes32 public constant MINTER...\n    tag 98\t\t\tbytes32 public constant MINTER...\n      JUMPDEST \t\t\tbytes32 public constant MINTER...\n      PUSH 40\t\t\tbytes32 public constant MINTER...\n      MLOAD \t\t\tbytes32 public constant MINTER...\n      DUP1 \t\t\tbytes32 public constant MINTER...\n      SWAP2 \t\t\tbytes32 public constant MINTER...\n      SUB \t\t\tbytes32 public constant MINTER...\n      SWAP1 \t\t\tbytes32 public constant MINTER...\n      RETURN \t\t\tbytes32 public constant MINTER...\n    tag 21\t\t\t\n      JUMPDEST \t\t\t\n      PUSH [tag] 99\t\t\t\n      PUSH 4\t\t\t\n      DUP1 \t\t\t\n      CALLDATASIZE \t\t\t\n      SUB \t\t\t\n      DUP2 \t\t\t\n      ADD \t\t\t\n      SWAP1 \t\t\t\n      PUSH [tag] 100\t\t\t\n      SWAP2 \t\t\t\n      SWAP1 \t\t\t\n      PUSH [tag] 58\t\t\t\n      JUMP \t\t\t\n    tag 100\t\t\t\n      JUMPDEST \t\t\t\n      PUSH [tag] 101\t\t\t\n      JUMP \t\t\t\n    tag 99\t\t\t\n      JUMPDEST \t\t\t\n      STOP \t\t\t\n    tag 22\t\t\t\n      JUMPDEST \t\t\t\n      PUSH [tag] 102\t\t\t\n      PUSH 4\t\t\t\n      DUP1 \t\t\t\n      CALLDATASIZE \t\t\t\n      SUB \t\t\t\n      DUP2 \t\t\t\n      ADD \t\t\t\n      SWAP1 \t\t\t\n      PUSH [tag] 103\t\t\t\n      SWAP2 \t\t\t\n      SWAP1 \t\t\t\n      PUSH [tag] 104\t\t\t\n      JUMP \t\t\t\n    tag 103\t\t\t\n      JUMPDEST \t\t\t\n      PUSH [tag] 105\t\t\t\n      JUMP \t\t\t\n    tag 102\t\t\t\n      JUMPDEST \t\t\t\n      PUSH 40\t\t\t\n      MLOAD \t\t\t\n      PUSH [tag] 106\t\t\t\n      SWAP2 \t\t\t\n      SWAP1 \t\t\t\n      PUSH [tag] 44\t\t\t\n      JUMP \t\t\t\n    tag 106\t\t\t\n      JUMPDEST \t\t\t\n      PUSH 40\t\t\t\n      MLOAD \t\t\t\n      DUP1 \t\t\t\n      SWAP2 \t\t\t\n      SUB \t\t\t\n      SWAP1 \t\t\t\n      RETURN \t\t\t\n    tag 29\t\t\t\n      JUMPDEST \t\t\t\n      PUSH 0\t\t\t\n      PUSH 7965DB0B00000000000000000000000000000000000000000000000000000000\t\t\t\n      PUSH FFFFFFFFFFFFFFFFFFFFFFFFFFFFFFFFFFFFFFFFFFFFFFFFFFFFFFFF\t\t\t\n      NOT \t\t\t\n      AND \t\t\t\n      DUP3 \t\t\t\n      PUSH FFFFFFFFFFFFFFFFFFFFFFFFFFFFFFFFFFFFFFFFFFFFFFFFFFFFFFFF\t\t\t\n      NOT \t\t\t\n      AND \t\t\t\n      EQ \t\t\t\n      DUP1 \t\t\t\n      PUSH [tag] 108\t\t\t\n      JUMPI \t\t\t\n      POP \t\t\t\n      PUSH [tag] 109\t\t\t\n      DUP3 \t\t\t\n      PUSH [tag] 110\t\t\t\n      JUMP \t\t\t\n    tag 109\t\t\t\n      JUMPDEST \t\t\t\n    tag 108\t\t\t\n      JUMPDEST \t\t\t\n      SWAP1 \t\t\t\n      POP \t\t\t\n      SWAP2 \t\t\t\n      SWAP1 \t\t\t\n      POP \t\t\t\n      JUMP \t\t\t\n    tag 33\t\t\t\n      JUMPDEST \t\t\t\n      PUSH 60\t\t\t\n      PUSH 3\t\t\t\n      DUP1 \t\t\t\n      SLOAD \t\t\t\n      PUSH [tag] 112\t\t\t\n      SWAP1 \t\t\t\n      PUSH [tag] 113\t\t\t\n      JUMP \t\t\t\n    tag 112\t\t\t\n      JUMPDEST \t\t\t\n      DUP1 \t\t\t\n      PUSH 1F\t\t\t\n      ADD \t\t\t\n      PUSH 20\t\t\t\n      DUP1 \t\t\t\n      SWAP2 \t\t\t\n      DIV \t\t\t\n      MUL \t\t\t\n      PUSH 20\t\t\t\n      ADD \t\t\t\n      PUSH 40\t\t\t\n      MLOAD \t\t\t\n      SWAP1 \t\t\t\n      DUP2 \t\t\t\n      ADD \t\t\t\n      PUSH 40\t\t\t\n      MSTORE \t\t\t\n      DUP1 \t\t\t\n      SWAP3 \t\t\t\n      SWAP2 \t\t\t\n      SWAP1 \t\t\t\n      DUP2 \t\t\t\n      DUP2 \t\t\t\n      MSTORE \t\t\t\n      PUSH 20\t\t\t\n      ADD \t\t\t\n      DUP3 \t\t\t\n      DUP1 \t\t\t\n      SLOAD \t\t\t\n      PUSH [tag] 114\t\t\t\n      SWAP1 \t\t\t\n      PUSH [tag] 113\t\t\t\n      JUMP \t\t\t\n    tag 114\t\t\t\n      JUMPDEST \t\t\t\n      DUP1 \t\t\t\n      ISZERO \t\t\t\n      PUSH [tag] 115\t\t\t\n      JUMPI \t\t\t\n      DUP1 \t\t\t\n      PUSH 1F\t\t\t\n      LT \t\t\t\n      PUSH [tag] 116\t\t\t\n      JUMPI \t\t\t\n      PUSH 100\t\t\t\n      DUP1 \t\t\t\n      DUP4 \t\t\t\n      SLOAD \t\t\t\n      DIV \t\t\t\n      MUL \t\t\t\n      DUP4 \t\t\t\n      MSTORE \t\t\t\n      SWAP2 \t\t\t\n      PUSH 20\t\t\t\n      ADD \t\t\t\n      SWAP2 \t\t\t\n      PUSH [tag] 115\t\t\t\n      JUMP \t\t\t\n    tag 116\t\t\t\n      JUMPDEST \t\t\t\n      DUP3 \t\t\t\n      ADD \t\t\t\n      SWAP2 \t\t\t\n      SWAP1 \t\t\t\n      PUSH 0\t\t\t\n      MSTORE \t\t\t\n      PUSH 20\t\t\t\n      PUSH 0\t\t\t\n      KECCAK256 \t\t\t\n      SWAP1 \t\t\t\n    tag 117\t\t\t\n      JUMPDEST \t\t\t\n      DUP2 \t\t\t\n      SLOAD \t\t\t\n      DUP2 \t\t\t\n      MSTORE \t\t\t\n      SWAP1 \t\t\t\n      PUSH 1\t\t\t\n      ADD \t\t\t\n      SWAP1 \t\t\t\n      PUSH 20\t\t\t\n      ADD \t\t\t\n      DUP1 \t\t\t\n      DUP4 \t\t\t\n      GT \t\t\t\n      PUSH [tag] 117\t\t\t\n      JUMPI \t\t\t\n      DUP3 \t\t\t\n      SWAP1 \t\t\t\n      SUB \t\t\t\n      PUSH 1F\t\t\t\n      AND \t\t\t\n      DUP3 \t\t\t\n      ADD \t\t\t\n      SWAP2 \t\t\t\n    tag 115\t\t\t\n      JUMPDEST \t\t\t\n      POP \t\t\t\n      POP \t\t\t\n      POP \t\t\t\n      POP \t\t\t\n      POP \t\t\t\n      SWAP1 \t\t\t\n      POP \t\t\t\n      SWAP1 \t\t\t\n      JUMP \t\t\t\n    tag 39\t\t\t\n      JUMPDEST \t\t\t\n      PUSH 0\t\t\t\n      DUP1 \t\t\t\n      PUSH [tag] 119\t\t\t\n      PUSH [tag] 120\t\t\t\n      JUMP \t\t\t\n    tag 119\t\t\t\n      JUMPDEST \t\t\t\n      SWAP1 \t\t\t\n      POP \t\t\t\n      PUSH [tag] 121\t\t\t\n      DUP2 \t\t\t\n      DUP6 \t\t\t\n      DUP6 \t\t\t\n      PUSH [tag] 122\t\t\t\n      JUMP \t\t\t\n    tag 121\t\t\t\n      JUMPDEST \t\t\t\n      PUSH 1\t\t\t\n      SWAP2 \t\t\t\n      POP \t\t\t\n      POP \t\t\t\n      SWAP3 \t\t\t\n      SWAP2 \t\t\t\n      POP \t\t\t\n      POP \t\t\t\n      JUMP \t\t\t\n    tag 42\t\t\t\n      JUMPDEST \t\t\t\n      PUSH 0\t\t\t\n      PUSH 2\t\t\t\n      SLOAD \t\t\t\n      SWAP1 \t\t\t\n      POP \t\t\t\n      SWAP1 \t\t\t\n      JUMP \t\t\t\n    tag 48\t\t\t\n      JUMPDEST \t\t\t\n      PUSH 0\t\t\t\n      DUP1 \t\t\t\n      PUSH [tag] 125\t\t\t\n      PUSH [tag] 120\t\t\t\n      JUMP \t\t\t\n    tag 125\t\t\t\n      JUMPDEST \t\t\t\n      SWAP1 \t\t\t\n      POP \t\t\t\n      PUSH [tag] 126\t\t\t\n      DUP6 \t\t\t\n      DUP3 \t\t\t\n      DUP6 \t\t\t\n      PUSH [tag] 127\t\t\t\n      JUMP \t\t\t\n    tag 126\t\t\t\n      JUMPDEST \t\t\t\n      PUSH [tag] 128\t\t\t\n      DUP6 \t\t\t\n      DUP6 \t\t\t\n      DUP6 \t\t\t\n      PUSH [tag] 129\t\t\t\n      JUMP \t\t\t\n    tag 128\t\t\t\n      JUMPDEST \t\t\t\n      PUSH 1\t\t\t\n      SWAP2 \t\t\t\n      POP \t\t\t\n      POP \t\t\t\n      SWAP4 \t\t\t\n      SWAP3 \t\t\t\n      POP \t\t\t\n      POP \t\t\t\n      POP \t\t\t\n      JUMP \t\t\t\n    tag 53\t\t\t\n      JUMPDEST \t\t\t\n      PUSH 0\t\t\t\n      PUSH 5\t\t\t\n      PUSH 0\t\t\t\n      DUP4 \t\t\t\n      DUP2 \t\t\t\n      MSTORE \t\t\t\n      PUSH 20\t\t\t\n      ADD \t\t\t\n      SWAP1 \t\t\t\n      DUP2 \t\t\t\n      MSTORE \t\t\t\n      PUSH 20\t\t\t\n      ADD \t\t\t\n      PUSH 0\t\t\t\n      KECCAK256 \t\t\t\n      PUSH 1\t\t\t\n      ADD \t\t\t\n      SLOAD \t\t\t\n      SWAP1 \t\t\t\n      POP \t\t\t\n      SWAP2 \t\t\t\n      SWAP1 \t\t\t\n      POP \t\t\t\n      JUMP \t\t\t\n    tag 59\t\t\t\n      JUMPDEST \t\t\t\n      PUSH [tag] 131\t\t\t\n      DUP3 \t\t\t\n      PUSH [tag] 53\t\t\t\n      JUMP \t\t\t\n    tag 131\t\t\t\n      JUMPDEST \t\t\t\n      PUSH [tag] 133\t\t\t\n      DUP2 \t\t\t\n      PUSH [tag] 134\t\t\t\n      JUMP \t\t\t\n    tag 133\t\t\t\n      JUMPDEST \t\t\t\n      PUSH [tag] 136\t\t\t\n      DUP4 \t\t\t\n      DUP4 \t\t\t\n      PUSH [tag] 137\t\t\t\n      JUMP \t\t\t\n    tag 136\t\t\t\n      JUMPDEST \t\t\t\n      POP \t\t\t\n      POP \t\t\t\n      POP \t\t\t\n      POP \t\t\t\n      JUMP \t\t\t\n    tag 61\t\t\tfunction decimals() override p...\n      JUMPDEST \t\t\tfunction decimals() override p...\n      PUSH 0\t\t\tuint8\n      PUSH 6\t\t\tdecimals_value\n      PUSH 0\t\t\tdecimals_value\n      SWAP1 \t\t\tdecimals_value\n      SLOAD \t\t\tdecimals_value\n      SWAP1 \t\t\tdecimals_value\n      PUSH 100\t\t\tdecimals_value\n      EXP \t\t\tdecimals_value\n      SWAP1 \t\t\tdecimals_value\n      DIV \t\t\tdecimals_value\n      PUSH FF\t\t\tdecimals_value\n      AND \t\t\tdecimals_value\n      SWAP1 \t\t\treturn decimals_value\n      POP \t\t\treturn decimals_value\n      SWAP1 \t\t\tfunction decimals() override p...\n      JUMP \t\t\tfunction decimals() override p...\n    tag 66\t\t\t\n      JUMPDEST \t\t\t\n      PUSH [tag] 140\t\t\t\n      PUSH [tag] 120\t\t\t\n      JUMP \t\t\t\n    tag 140\t\t\t\n      JUMPDEST \t\t\t\n      PUSH FFFFFFFFFFFFFFFFFFFFFFFFFFFFFFFFFFFFFFFF\t\t\t\n      AND \t\t\t\n      DUP2 \t\t\t\n      PUSH FFFFFFFFFFFFFFFFFFFFFFFFFFFFFFFFFFFFFFFF\t\t\t\n      AND \t\t\t\n      EQ \t\t\t\n      PUSH [tag] 141\t\t\t\n      JUMPI \t\t\t\n      PUSH 40\t\t\t\n      MLOAD \t\t\t\n      PUSH 6697B23200000000000000000000000000000000000000000000000000000000\t\t\t\n      DUP2 \t\t\t\n      MSTORE \t\t\t\n      PUSH 4\t\t\t\n      ADD \t\t\t\n      PUSH 40\t\t\t\n      MLOAD \t\t\t\n      DUP1 \t\t\t\n      SWAP2 \t\t\t\n      SUB \t\t\t\n      SWAP1 \t\t\t\n      REVERT \t\t\t\n    tag 141\t\t\t\n      JUMPDEST \t\t\t\n      PUSH [tag] 142\t\t\t\n      DUP3 \t\t\t\n      DUP3 \t\t\t\n      PUSH [tag] 143\t\t\t\n      JUMP \t\t\t\n    tag 142\t\t\t\n      JUMPDEST \t\t\t\n      POP \t\t\t\n      POP \t\t\t\n      POP \t\t\t\n      JUMP \t\t\t\n    tag 69\t\t\tfunction mint(address to, uint...\n      JUMPDEST \t\t\tfunction mint(address to, uint...\n      PUSH 9F2DF0FED2C77648DE5860A4CC508CD0818C85B8B8A1AB4CEEEF8D981C8956A6\t\t\tkeccak256(\"MINTER_ROLE\")\n      PUSH [tag] 145\t\t\t\n      DUP2 \t\t\t\n      PUSH [tag] 134\t\t\t\n      JUMP \t\t\t\n    tag 145\t\t\t\n      JUMPDEST \t\t\t\n      PUSH [tag] 147\t\t\t_mint(to, amount)\n      DUP4 \t\t\tto\n      DUP4 \t\t\tamount\n      PUSH [tag] 148\t\t\t_mint\n      JUMP \t\t\t_mint(to, amount)\n    tag 147\t\t\t_mint(to, amount)\n      JUMPDEST \t\t\t_mint(to, amount)\n      POP \t\t\tfunction mint(address to, uint...\n      POP \t\t\tfunction mint(address to, uint...\n      POP \t\t\tfunction mint(address to, uint...\n      JUMP \t\t\tfunction mint(address to, uint...\n    tag 73\t\t\tSymbol) {\\n        _grantRole(...\n      JUMPDEST \t\t\tSymbol) {\\n        _grantRole(...\n      PUSH [tag] 150\t\t\t      decimals_value = _de\n      PUSH [tag] 151\t\t\tdecimals_val\n      PUSH [tag] 120\t\t\tdecimals_v\n      JUMP \t\t\tdecimals_val\n    tag 151\t\t\tdecimals_val\n      JUMPDEST \t\t\tdecimals_val\n      DUP3 \t\t\t = _d\n      PUSH [tag] 152\t\t\t     \n      JUMP \t\t\t      decimals_value = _de\n    tag 150\t\t\t      decimals_value = _de\n      JUMPDEST \t\t\t      decimals_value = _de\n      POP \t\t\tSymbol) {\\n        _grantRole(...\n      JUMP \t\t\tSymbol) {\\n        _grantRole(...\n    tag 77\t\t\t\n      JUMPDEST \t\t\t\n      PUSH 0\t\t\t\n      DUP1 \t\t\t\n      PUSH 0\t\t\t\n      DUP4 \t\t\t\n      PUSH FFFFFFFFFFFFFFFFFFFFFFFFFFFFFFFFFFFFFFFF\t\t\t\n      AND \t\t\t\n      PUSH FFFFFFFFFFFFFFFFFFFFFFFFFFFFFFFFFFFFFFFF\t\t\t\n      AND \t\t\t\n      DUP2 \t\t\t\n      MSTORE \t\t\t\n      PUSH 20\t\t\t\n      ADD \t\t\t\n      SWAP1 \t\t\t\n      DUP2 \t\t\t\n      MSTORE \t\t\t\n      PUSH 20\t\t\t\n      ADD \t\t\t\n      PUSH 0\t\t\t\n      KECCAK256 \t\t\t\n      SLOAD \t\t\t\n      SWAP1 \t\t\t\n      POP \t\t\t\n      SWAP2 \t\t\t\n      SWAP1 \t\t\t\n      POP \t\t\t\n      JUMP \t\t\t\n    tag 81\t\t\t\n      JUMPDEST \t\t\t\n      PUSH [tag] 155\t\t\t\n      DUP3 \t\t\t\n      PUSH [tag] 156\t\t\t\n      PUSH [tag] 120\t\t\t\n      JUMP \t\t\t\n    tag 156\t\t\t\n      JUMPDEST \t\t\t\n      DUP4 \t\t\t\n      PUSH [tag] 127\t\t\t\n      JUMP \t\t\t\n    tag 155\t\t\t\n      JUMPDEST \t\t\t\n      PUSH [tag] 157\t\t\t\n      DUP3 \t\t\t\n      DUP3 \t\t\t\n      PUSH [tag] 152\t\t\t\n      JUMP \t\t\t\n    tag 157\t\t\t\n      JUMPDEST \t\t\t\n      POP \t\t\t\n      POP \t\t\t\n      JUMP \t\t\t\n    tag 84\t\t\t\n      JUMPDEST \t\t\t\n      PUSH 0\t\t\t\n      PUSH 5\t\t\t\n      PUSH 0\t\t\t\n      DUP5 \t\t\t\n      DUP2 \t\t\t\n      MSTORE \t\t\t\n      PUSH 20\t\t\t\n      ADD \t\t\t\n      SWAP1 \t\t\t\n      DUP2 \t\t\t\n      MSTORE \t\t\t\n      PUSH 20\t\t\t\n      ADD \t\t\t\n      PUSH 0\t\t\t\n      KECCAK256 \t\t\t\n      PUSH 0\t\t\t\n      ADD \t\t\t\n      PUSH 0\t\t\t\n      DUP4 \t\t\t\n      PUSH FFFFFFFFFFFFFFFFFFFFFFFFFFFFFFFFFFFFFFFF\t\t\t\n      AND \t\t\t\n      PUSH FFFFFFFFFFFFFFFFFFFFFFFFFFFFFFFFFFFFFFFF\t\t\t\n      AND \t\t\t\n      DUP2 \t\t\t\n      MSTORE \t\t\t\n      PUSH 20\t\t\t\n      ADD \t\t\t\n      SWAP1 \t\t\t\n      DUP2 \t\t\t\n      MSTORE \t\t\t\n      PUSH 20\t\t\t\n      ADD \t\t\t\n      PUSH 0\t\t\t\n      KECCAK256 \t\t\t\n      PUSH 0\t\t\t\n      SWAP1 \t\t\t\n      SLOAD \t\t\t\n      SWAP1 \t\t\t\n      PUSH 100\t\t\t\n      EXP \t\t\t\n      SWAP1 \t\t\t\n      DIV \t\t\t\n      PUSH FF\t\t\t\n      AND \t\t\t\n      SWAP1 \t\t\t\n      POP \t\t\t\n      SWAP3 \t\t\t\n      SWAP2 \t\t\t\n      POP \t\t\t\n      POP \t\t\t\n      JUMP \t\t\t\n    tag 87\t\t\t\n      JUMPDEST \t\t\t\n      PUSH 60\t\t\t\n      PUSH 4\t\t\t\n      DUP1 \t\t\t\n      SLOAD \t\t\t\n      PUSH [tag] 160\t\t\t\n      SWAP1 \t\t\t\n      PUSH [tag] 113\t\t\t\n      JUMP \t\t\t\n    tag 160\t\t\t\n      JUMPDEST \t\t\t\n      DUP1 \t\t\t\n      PUSH 1F\t\t\t\n      ADD \t\t\t\n      PUSH 20\t\t\t\n      DUP1 \t\t\t\n      SWAP2 \t\t\t\n      DIV \t\t\t\n      MUL \t\t\t\n      PUSH 20\t\t\t\n      ADD \t\t\t\n      PUSH 40\t\t\t\n      MLOAD \t\t\t\n      SWAP1 \t\t\t\n      DUP2 \t\t\t\n      ADD \t\t\t\n      PUSH 40\t\t\t\n      MSTORE \t\t\t\n      DUP1 \t\t\t\n      SWAP3 \t\t\t\n      SWAP2 \t\t\t\n      SWAP1 \t\t\t\n      DUP2 \t\t\t\n      DUP2 \t\t\t\n      MSTORE \t\t\t\n      PUSH 20\t\t\t\n      ADD \t\t\t\n      DUP3 \t\t\t\n      DUP1 \t\t\t\n      SLOAD \t\t\t\n      PUSH [tag] 161\t\t\t\n      SWAP1 \t\t\t\n      PUSH [tag] 113\t\t\t\n      JUMP \t\t\t\n    tag 161\t\t\t\n      JUMPDEST \t\t\t\n      DUP1 \t\t\t\n      ISZERO \t\t\t\n      PUSH [tag] 162\t\t\t\n      JUMPI \t\t\t\n      DUP1 \t\t\t\n      PUSH 1F\t\t\t\n      LT \t\t\t\n      PUSH [tag] 163\t\t\t\n      JUMPI \t\t\t\n      PUSH 100\t\t\t\n      DUP1 \t\t\t\n      DUP4 \t\t\t\n      SLOAD \t\t\t\n      DIV \t\t\t\n      MUL \t\t\t\n      DUP4 \t\t\t\n      MSTORE \t\t\t\n      SWAP2 \t\t\t\n      PUSH 20\t\t\t\n      ADD \t\t\t\n      SWAP2 \t\t\t\n      PUSH [tag] 162\t\t\t\n      JUMP \t\t\t\n    tag 163\t\t\t\n      JUMPDEST \t\t\t\n      DUP3 \t\t\t\n      ADD \t\t\t\n      SWAP2 \t\t\t\n      SWAP1 \t\t\t\n      PUSH 0\t\t\t\n      MSTORE \t\t\t\n      PUSH 20\t\t\t\n      PUSH 0\t\t\t\n      KECCAK256 \t\t\t\n      SWAP1 \t\t\t\n    tag 164\t\t\t\n      JUMPDEST \t\t\t\n      DUP2 \t\t\t\n      SLOAD \t\t\t\n      DUP2 \t\t\t\n      MSTORE \t\t\t\n      SWAP1 \t\t\t\n      PUSH 1\t\t\t\n      ADD \t\t\t\n      SWAP1 \t\t\t\n      PUSH 20\t\t\t\n      ADD \t\t\t\n      DUP1 \t\t\t\n      DUP4 \t\t\t\n      GT \t\t\t\n      PUSH [tag] 164\t\t\t\n      JUMPI \t\t\t\n      DUP3 \t\t\t\n      SWAP1 \t\t\t\n      SUB \t\t\t\n      PUSH 1F\t\t\t\n      AND \t\t\t\n      DUP3 \t\t\t\n      ADD \t\t\t\n      SWAP2 \t\t\t\n    tag 162\t\t\t\n      JUMPDEST \t\t\t\n      POP \t\t\t\n      POP \t\t\t\n      POP \t\t\t\n      POP \t\t\t\n      POP \t\t\t\n      SWAP1 \t\t\t\n      POP \t\t\t\n      SWAP1 \t\t\t\n      JUMP \t\t\t\n    tag 90\t\t\t\n      JUMPDEST \t\t\t\n      PUSH 0\t\t\t\n      DUP1 \t\t\t\n      SHL \t\t\t\n      DUP2 \t\t\t\n      JUMP \t\t\t\n    tag 94\t\t\t\n      JUMPDEST \t\t\t\n      PUSH 0\t\t\t\n      DUP1 \t\t\t\n      PUSH [tag] 166\t\t\t\n      PUSH [tag] 120\t\t\t\n      JUMP \t\t\t\n    tag 166\t\t\t\n      JUMPDEST \t\t\t\n      SWAP1 \t\t\t\n      POP \t\t\t\n      PUSH [tag] 167\t\t\t\n      DUP2 \t\t\t\n      DUP6 \t\t\t\n      DUP6 \t\t\t\n      PUSH [tag] 129\t\t\t\n      JUMP \t\t\t\n    tag 167\t\t\t\n      JUMPDEST \t\t\t\n      PUSH 1\t\t\t\n      SWAP2 \t\t\t\n      POP \t\t\t\n      POP \t\t\t\n      SWAP3 \t\t\t\n      SWAP2 \t\t\t\n      POP \t\t\t\n      POP \t\t\t\n      JUMP \t\t\t\n    tag 97\t\t\tbytes32 public constant MINTER...\n      JUMPDEST \t\t\tbytes32 public constant MINTER...\n      PUSH 9F2DF0FED2C77648DE5860A4CC508CD0818C85B8B8A1AB4CEEEF8D981C8956A6\t\t\tkeccak256(\"MINTER_ROLE\")\n      DUP2 \t\t\tbytes32 public constant MINTER...\n      JUMP \t\t\tbytes32 public constant MINTER...\n    tag 101\t\t\t\n      JUMPDEST \t\t\t\n      PUSH [tag] 168\t\t\t\n      DUP3 \t\t\t\n      PUSH [tag] 53\t\t\t\n      JUMP \t\t\t\n    tag 168\t\t\t\n      JUMPDEST \t\t\t\n      PUSH [tag] 170\t\t\t\n      DUP2 \t\t\t\n      PUSH [tag] 134\t\t\t\n      JUMP \t\t\t\n    tag 170\t\t\t\n      JUMPDEST \t\t\t\n      PUSH [tag] 172\t\t\t\n      DUP4 \t\t\t\n      DUP4 \t\t\t\n      PUSH [tag] 143\t\t\t\n      JUMP \t\t\t\n    tag 172\t\t\t\n      JUMPDEST \t\t\t\n      POP \t\t\t\n      POP \t\t\t\n      POP \t\t\t\n      POP \t\t\t\n      JUMP \t\t\t\n    tag 105\t\t\t\n      JUMPDEST \t\t\t\n      PUSH 0\t\t\t\n      PUSH 1\t\t\t\n      PUSH 0\t\t\t\n      DUP5 \t\t\t\n      PUSH FFFFFFFFFFFFFFFFFFFFFFFFFFFFFFFFFFFFFFFF\t\t\t\n      AND \t\t\t\n      PUSH FFFFFFFFFFFFFFFFFFFFFFFFFFFFFFFFFFFFFFFF\t\t\t\n      AND \t\t\t\n      DUP2 \t\t\t\n      MSTORE \t\t\t\n      PUSH 20\t\t\t\n      ADD \t\t\t\n      SWAP1 \t\t\t\n      DUP2 \t\t\t\n      MSTORE \t\t\t\n      PUSH 20\t\t\t\n      ADD \t\t\t\n      PUSH 0\t\t\t\n      KECCAK256 \t\t\t\n      PUSH 0\t\t\t\n      DUP4 \t\t\t\n      PUSH FFFFFFFFFFFFFFFFFFFFFFFFFFFFFFFFFFFFFFFF\t\t\t\n      AND \t\t\t\n      PUSH FFFFFFFFFFFFFFFFFFFFFFFFFFFFFFFFFFFFFFFF\t\t\t\n      AND \t\t\t\n      DUP2 \t\t\t\n      MSTORE \t\t\t\n      PUSH 20\t\t\t\n      ADD \t\t\t\n      SWAP1 \t\t\t\n      DUP2 \t\t\t\n      MSTORE \t\t\t\n      PUSH 20\t\t\t\n      ADD \t\t\t\n      PUSH 0\t\t\t\n      KECCAK256 \t\t\t\n      SLOAD \t\t\t\n      SWAP1 \t\t\t\n      POP \t\t\t\n      SWAP3 \t\t\t\n      SWAP2 \t\t\t\n      POP \t\t\t\n      POP \t\t\t\n      JUMP \t\t\t\n    tag 110\t\t\tr cosmos > evm\\n    function m...\n      JUMPDEST \t\t\tr cosmos > evm\\n    function m...\n      PUSH 0\t\t\t(MIN\n      PUSH 1FFC9A700000000000000000000000000000000000000000000000000000000\t\t\tnt);\\n    }\\n\\n    function \n      PUSH FFFFFFFFFFFFFFFFFFFFFFFFFFFFFFFFFFFFFFFFFFFFFFFFFFFFFFFF\t\t\t _mint(to, amount);\\n    }\\n\\n...\n      NOT \t\t\t _mint(to, amount);\\n    }\\n\\n...\n      AND \t\t\t _mint(to, amount);\\n    }\\n\\n...\n      DUP3 \t\t\t _mint(to, \n      PUSH FFFFFFFFFFFFFFFFFFFFFFFFFFFFFFFFFFFFFFFFFFFFFFFFFFFFFFFF\t\t\t _mint(to, amount);\\n    }\\n\\n...\n      NOT \t\t\t _mint(to, amount);\\n    }\\n\\n...\n      AND \t\t\t _mint(to, amount);\\n    }\\n\\n...\n      EQ \t\t\t _mint(to, amount);\\n    }\\n\\n...\n      SWAP1 \t\t\t        _mint(to, amount);\\n  ...\n      POP \t\t\t        _mint(to, amount);\\n  ...\n      SWAP2 \t\t\tr cosmos > evm\\n    function m...\n      SWAP1 \t\t\tr cosmos > evm\\n    function m...\n      POP \t\t\tr cosmos > evm\\n    function m...\n      JUMP \t\t\tr cosmos > evm\\n    function m...\n    tag 120\t\t\tLE, _minter);\\n        decimal...\n      JUMPDEST \t\t\tLE, _minter);\\n        decimal...\n      PUSH 0\t\t\t }\\n\\n   \n      CALLER \t\t\tlity so th\n      SWAP1 \t\t\tint ability so th\n      POP \t\t\tint ability so th\n      SWAP1 \t\t\tLE, _minter);\\n        decimal...\n      JUMP \t\t\tLE, _minter);\\n        decimal...\n    tag 122\t\t\t\n      JUMPDEST \t\t\t\n      PUSH [tag] 177\t\t\t\n      DUP4 \t\t\t\n      DUP4 \t\t\t\n      DUP4 \t\t\t\n      PUSH 1\t\t\t\n      PUSH [tag] 178\t\t\t\n      JUMP \t\t\t\n    tag 177\t\t\t\n      JUMPDEST \t\t\t\n      POP \t\t\t\n      POP \t\t\t\n      POP \t\t\t\n      JUMP \t\t\t\n    tag 127\t\t\t\n      JUMPDEST \t\t\t\n      PUSH 0\t\t\t\n      PUSH [tag] 180\t\t\t\n      DUP5 \t\t\t\n      DUP5 \t\t\t\n      PUSH [tag] 105\t\t\t\n      JUMP \t\t\t\n    tag 180\t\t\t\n      JUMPDEST \t\t\t\n      SWAP1 \t\t\t\n      POP \t\t\t\n      PUSH FFFFFFFFFFFFFFFFFFFFFFFFFFFFFFFFFFFFFFFFFFFFFFFFFFFFFFFFFFFFFFFF\t\t\t\n      DUP2 \t\t\t\n      EQ \t\t\t\n      PUSH [tag] 181\t\t\t\n      JUMPI \t\t\t\n      DUP2 \t\t\t\n      DUP2 \t\t\t\n      LT \t\t\t\n      ISZERO \t\t\t\n      PUSH [tag] 182\t\t\t\n      JUMPI \t\t\t\n      DUP3 \t\t\t\n      DUP2 \t\t\t\n      DUP4 \t\t\t\n      PUSH 40\t\t\t\n      MLOAD \t\t\t\n      PUSH FB8F41B200000000000000000000000000000000000000000000000000000000\t\t\t\n      DUP2 \t\t\t\n      MSTORE \t\t\t\n      PUSH 4\t\t\t\n      ADD \t\t\t\n      PUSH [tag] 183\t\t\t\n      SWAP4 \t\t\t\n      SWAP3 \t\t\t\n      SWAP2 \t\t\t\n      SWAP1 \t\t\t\n      PUSH [tag] 184\t\t\t\n      JUMP \t\t\t\n    tag 183\t\t\t\n      JUMPDEST \t\t\t\n      PUSH 40\t\t\t\n      MLOAD \t\t\t\n      DUP1 \t\t\t\n      SWAP2 \t\t\t\n      SUB \t\t\t\n      SWAP1 \t\t\t\n      REVERT \t\t\t\n    tag 182\t\t\t\n      JUMPDEST \t\t\t\n      PUSH [tag] 185\t\t\t\n      DUP5 \t\t\t\n      DUP5 \t\t\t\n      DUP5 \t\t\t\n      DUP5 \t\t\t\n      SUB \t\t\t\n      PUSH 0\t\t\t\n      PUSH [tag] 178\t\t\t\n      JUMP \t\t\t\n    tag 185\t\t\t\n      JUMPDEST \t\t\t\n    tag 181\t\t\t\n      JUMPDEST \t\t\t\n      POP \t\t\t\n      POP \t\t\t\n      POP \t\t\t\n      POP \t\t\t\n      JUMP \t\t\t\n    tag 129\t\t\t\n      JUMPDEST \t\t\t\n      PUSH 0\t\t\t\n      PUSH FFFFFFFFFFFFFFFFFFFFFFFFFFFFFFFFFFFFFFFF\t\t\t\n      AND \t\t\t\n      DUP4 \t\t\t\n      PUSH FFFFFFFFFFFFFFFFFFFFFFFFFFFFFFFFFFFFFFFF\t\t\t\n      AND \t\t\t\n      SUB \t\t\t\n      PUSH [tag] 187\t\t\t\n      JUMPI \t\t\t\n      PUSH 0\t\t\t\n      PUSH 40\t\t\t\n      MLOAD \t\t\t\n      PUSH 96C6FD1E00000000000000000000000000000000000000000000000000000000\t\t\t\n      DUP2 \t\t\t\n      MSTORE \t\t\t\n      PUSH 4\t\t\t\n      ADD \t\t\t\n      PUSH [tag] 188\t\t\t\n      SWAP2 \t\t\t\n      SWAP1 \t\t\t\n      PUSH [tag] 189\t\t\t\n      JUMP \t\t\t\n    tag 188\t\t\t\n      JUMPDEST \t\t\t\n      PUSH 40\t\t\t\n      MLOAD \t\t\t\n      DUP1 \t\t\t\n      SWAP2 \t\t\t\n      SUB \t\t\t\n      SWAP1 \t\t\t\n      REVERT \t\t\t\n    tag 187\t\t\t\n      JUMPDEST \t\t\t\n      PUSH 0\t\t\t\n      PUSH FFFFFFFFFFFFFFFFFFFFFFFFFFFFFFFFFFFFFFFF\t\t\t\n      AND \t\t\t\n      DUP3 \t\t\t\n      PUSH FFFFFFFFFFFFFFFFFFFFFFFFFFFFFFFFFFFFFFFF\t\t\t\n      AND \t\t\t\n      SUB \t\t\t\n      PUSH [tag] 190\t\t\t\n      JUMPI \t\t\t\n      PUSH 0\t\t\t\n      PUSH 40\t\t\t\n      MLOAD \t\t\t\n      PUSH EC442F0500000000000000000000000000000000000000000000000000000000\t\t\t\n      DUP2 \t\t\t\n      MSTORE \t\t\t\n      PUSH 4\t\t\t\n      ADD \t\t\t\n      PUSH [tag] 191\t\t\t\n      SWAP2 \t\t\t\n      SWAP1 \t\t\t\n      PUSH [tag] 189\t\t\t\n      JUMP \t\t\t\n    tag 191\t\t\t\n      JUMPDEST \t\t\t\n      PUSH 40\t\t\t\n      MLOAD \t\t\t\n      DUP1 \t\t\t\n      SWAP2 \t\t\t\n      SUB \t\t\t\n      SWAP1 \t\t\t\n      REVERT \t\t\t\n    tag 190\t\t\t\n      JUMPDEST \t\t\t\n      PUSH [tag] 192\t\t\t\n      DUP4 \t\t\t\n      DUP4 \t\t\t\n      DUP4 \t\t\t\n      PUSH [tag] 193\t\t\t\n      JUMP \t\t\t\n    tag 192\t\t\t\n      JUMPDEST \t\t\t\n      POP \t\t\t\n      POP \t\t\t\n      POP \t\t\t\n      JUMP \t\t\t\n    tag 134\t\t\t\n      JUMPDEST \t\t\t\n      PUSH [tag] 195\t\t\t\n      DUP2 \t\t\t\n      PUSH [tag] 196\t\t\t\n      PUSH [tag] 120\t\t\t\n      JUMP \t\t\t\n    tag 196\t\t\t\n      JUMPDEST \t\t\t\n      PUSH [tag] 197\t\t\t\n      JUMP \t\t\t\n    tag 195\t\t\t\n      JUMPDEST \t\t\t\n      POP \t\t\t\n      JUMP \t\t\t\n    tag 137\t\t\t\n      JUMPDEST \t\t\t\n      PUSH 0\t\t\t\n      PUSH [tag] 199\t\t\t\n      DUP4 \t\t\t\n      DUP4 \t\t\t\n      PUSH [tag] 84\t\t\t\n      JUMP \t\t\t\n    tag 199\t\t\t\n      JUMPDEST \t\t\t\n      PUSH [tag] 200\t\t\t\n      JUMPI \t\t\t\n      PUSH 1\t\t\t\n      PUSH 5\t\t\t\n      PUSH 0\t\t\t\n      DUP6 \t\t\t\n      DUP2 \t\t\t\n      MSTORE \t\t\t\n      PUSH 20\t\t\t\n      ADD \t\t\t\n      SWAP1 \t\t\t\n      DUP2 \t\t\t\n      MSTORE \t\t\t\n      PUSH 20\t\t\t\n      ADD \t\t\t\n      PUSH 0\t\t\t\n      KECCAK256 \t\t\t\n      PUSH 0\t\t\t\n      ADD \t\t\t\n      PUSH 0\t\t\t\n      DUP5 \t\t\t\n      PUSH FFFFFFFFFFFFFFFFFFFFFFFFFFFFFFFFFFFFFFFF\t\t\t\n      AND \t\t\t\n      PUSH FFFFFFFFFFFFFFFFFFFFFFFFFFFFFFFFFFFFFFFF\t\t\t\n      AND \t\t\t\n      DUP2 \t\t\t\n      MSTORE \t\t\t\n      PUSH 20\t\t\t\n      ADD \t\t\t\n      SWAP1 \t\t\t\n      DUP2 \t\t\t\n      MSTORE \t\t\t\n      PUSH 20\t\t\t\n      ADD \t\t\t\n      PUSH 0\t\t\t\n      KECCAK256 \t\t\t\n      PUSH 0\t\t\t\n      PUSH 100\t\t\t\n      EXP \t\t\t\n      DUP2 \t\t\t\n      SLOAD \t\t\t\n      DUP2 \t\t\t\n      PUSH FF\t\t\t\n      MUL \t\t\t\n      NOT \t\t\t\n      AND \t\t\t\n      SWAP1 \t\t\t\n      DUP4 \t\t\t\n      ISZERO \t\t\t\n      ISZERO \t\t\t\n      MUL \t\t\t\n      OR \t\t\t\n      SWAP1 \t\t\t\n      SSTORE \t\t\t\n      POP \t\t\t\n      PUSH [tag] 201\t\t\t\n      PUSH [tag] 120\t\t\t\n      JUMP \t\t\t\n    tag 201\t\t\t\n      JUMPDEST \t\t\t\n      PUSH FFFFFFFFFFFFFFFFFFFFFFFFFFFFFFFFFFFFFFFF\t\t\t\n      AND \t\t\t\n      DUP3 \t\t\t\n      PUSH FFFFFFFFFFFFFFFFFFFFFFFFFFFFFFFFFFFFFFFF\t\t\t\n      AND \t\t\t\n      DUP5 \t\t\t\n      PUSH 2F8788117E7EFF1D82E926EC794901D17C78024A50270940304540A733656F0D\t\t\t\n      PUSH 40\t\t\t\n      MLOAD \t\t\t\n      PUSH 40\t\t\t\n      MLOAD \t\t\t\n      DUP1 \t\t\t\n      SWAP2 \t\t\t\n      SUB \t\t\t\n      SWAP1 \t\t\t\n      LOG4 \t\t\t\n      PUSH 1\t\t\t\n      SWAP1 \t\t\t\n      POP \t\t\t\n      PUSH [tag] 198\t\t\t\n      JUMP \t\t\t\n    tag 200\t\t\t\n      JUMPDEST \t\t\t\n      PUSH 0\t\t\t\n      SWAP1 \t\t\t\n      POP \t\t\t\n    tag 198\t\t\t\n      JUMPDEST \t\t\t\n      SWAP3 \t\t\t\n      SWAP2 \t\t\t\n      POP \t\t\t\n      POP \t\t\t\n      JUMP \t\t\t\n    tag 143\t\t\t\n      JUMPDEST \t\t\t\n      PUSH 0\t\t\t\n      PUSH [tag] 204\t\t\t\n      DUP4 \t\t\t\n      DUP4 \t\t\t\n      PUSH [tag] 84\t\t\t\n      JUMP \t\t\t\n    tag 204\t\t\t\n      JUMPDEST \t\t\t\n      ISZERO \t\t\t\n      PUSH [tag] 205\t\t\t\n      JUMPI \t\t\t\n      PUSH 0\t\t\t\n      PUSH 5\t\t\t\n      PUSH 0\t\t\t\n      DUP6 \t\t\t\n      DUP2 \t\t\t\n      MSTORE \t\t\t\n      PUSH 20\t\t\t\n      ADD \t\t\t\n      SWAP1 \t\t\t\n      DUP2 \t\t\t\n      MSTORE \t\t\t\n      PUSH 20\t\t\t\n      ADD \t\t\t\n      PUSH 0\t\t\t\n      KECCAK256 \t\t\t\n      PUSH 0\t\t\t\n      ADD \t\t\t\n      PUSH 0\t\t\t\n      DUP5 \t\t\t\n      PUSH FFFFFFFFFFFFFFFFFFFFFFFFFFFFFFFFFFFFFFFF\t\t\t\n      AND \t\t\t\n      PUSH FFFFFFFFFFFFFFFFFFFFFFFFFFFFFFFFFFFFFFFF\t\t\t\n      AND \t\t\t\n      DUP2 \t\t\t\n      MSTORE \t\t\t\n      PUSH 20\t\t\t\n      ADD \t\t\t\n      SWAP1 \t\t\t\n      DUP2 \t\t\t\n      MSTORE \t\t\t\n      PUSH 20\t\t\t\n      ADD \t\t\t\n      PUSH 0\t\t\t\n      KECCAK256 \t\t\t\n      PUSH 0\t\t\t\n      PUSH 100\t\t\t\n      EXP \t\t\t\n      DUP2 \t\t\t\n      SLOAD \t\t\t\n      DUP2 \t\t\t\n      PUSH FF\t\t\t\n      MUL \t\t\t\n      NOT \t\t\t\n      AND \t\t\t\n      SWAP1 \t\t\t\n      DUP4 \t\t\t\n      ISZERO \t\t\t\n      ISZERO \t\t\t\n      MUL \t\t\t\n      OR \t\t\t\n      SWAP1 \t\t\t\n      SSTORE \t\t\t\n      POP \t\t\t\n      PUSH [tag] 206\t\t\t\n      PUSH [tag] 120\t\t\t\n      JUMP \t\t\t\n    tag 206\t\t\t\n      JUMPDEST \t\t\t\n      PUSH FFFFFFFFFFFFFFFFFFFFFFFFFFFFFFFFFFFFFFFF\t\t\t\n      AND \t\t\t\n      DUP3 \t\t\t\n      PUSH FFFFFFFFFFFFFFFFFFFFFFFFFFFFFFFFFFFFFFFF\t\t\t\n      AND \t\t\t\n      DUP5 \t\t\t\n      PUSH F6391F5C32D9C69D2A47EA670B442974B53935D1EDC7FD64EB21E047A839171B\t\t\t\n      PUSH 40\t\t\t\n      MLOAD \t\t\t\n      PUSH 40\t\t\t\n      MLOAD \t\t\t\n      DUP1 \t\t\t\n      SWAP2 \t\t\t\n      SUB \t\t\t\n      SWAP1 \t\t\t\n      LOG4 \t\t\t\n      PUSH 1\t\t\t\n      SWAP1 \t\t\t\n      POP \t\t\t\n      PUSH [tag] 203\t\t\t\n      JUMP \t\t\t\n    tag 205\t\t\t\n      JUMPDEST \t\t\t\n      PUSH 0\t\t\t\n      SWAP1 \t\t\t\n      POP \t\t\t\n    tag 203\t\t\t\n      JUMPDEST \t\t\t\n      SWAP3 \t\t\t\n      SWAP2 \t\t\t\n      POP \t\t\t\n      POP \t\t\t\n      JUMP \t\t\t\n    tag 148\t\t\t\n      JUMPDEST \t\t\t\n      PUSH 0\t\t\t\n      PUSH FFFFFFFFFFFFFFFFFFFFFFFFFFFFFFFFFFFFFFFF\t\t\t\n      AND \t\t\t\n      DUP3 \t\t\t\n      PUSH FFFFFFFFFFFFFFFFFFFFFFFFFFFFFFFFFFFFFFFF\t\t\t\n      AND \t\t\t\n      SUB \t\t\t\n      PUSH [tag] 209\t\t\t\n      JUMPI \t\t\t\n      PUSH 0\t\t\t\n      PUSH 40\t\t\t\n      MLOAD \t\t\t\n      PUSH EC442F0500000000000000000000000000000000000000000000000000000000\t\t\t\n      DUP2 \t\t\t\n      MSTORE \t\t\t\n      PUSH 4\t\t\t\n      ADD \t\t\t\n      PUSH [tag] 210\t\t\t\n      SWAP2 \t\t\t\n      SWAP1 \t\t\t\n      PUSH [tag] 189\t\t\t\n      JUMP \t\t\t\n    tag 210\t\t\t\n      JUMPDEST \t\t\t\n      PUSH 40\t\t\t\n      MLOAD \t\t\t\n      DUP1 \t\t\t\n      SWAP2 \t\t\t\n      SUB \t\t\t\n      SWAP1 \t\t\t\n      REVERT \t\t\t\n    tag 209\t\t\t\n      JUMPDEST \t\t\t\n      PUSH [tag] 211\t\t\t\n      PUSH 0\t\t\t\n      DUP4 \t\t\t\n      DUP4 \t\t\t\n      PUSH [tag] 193\t\t\t\n      JUMP \t\t\t\n    tag 211\t\t\t\n      JUMPDEST \t\t\t\n      POP \t\t\t\n      POP \t\t\t\n      JUMP \t\t\t\n    tag 152\t\t\t\n      JUMPDEST \t\t\t\n      PUSH 0\t\t\t\n      PUSH FFFFFFFFFFFFFFFFFFFFFFFFFFFFFFFFFFFFFFFF\t\t\t\n      AND \t\t\t\n      DUP3 \t\t\t\n      PUSH FFFFFFFFFFFFFFFFFFFFFFFFFFFFFFFFFFFFFFFF\t\t\t\n      AND \t\t\t\n      SUB \t\t\t\n      PUSH [tag] 213\t\t\t\n      JUMPI \t\t\t\n      PUSH 0\t\t\t\n      PUSH 40\t\t\t\n      MLOAD \t\t\t\n      PUSH 96C6FD1E00000000000000000000000000000000000000000000000000000000\t\t\t\n      DUP2 \t\t\t\n      MSTORE \t\t\t\n      PUSH 4\t\t\t\n      ADD \t\t\t\n      PUSH [tag] 214\t\t\t\n      SWAP2 \t\t\t\n      SWAP1 \t\t\t\n      PUSH [tag] 189\t\t\t\n      JUMP \t\t\t\n    tag 214\t\t\t\n      JUMPDEST \t\t\t\n      PUSH 40\t\t\t\n      MLOAD \t\t\t\n      DUP1 \t\t\t\n      SWAP2 \t\t\t\n      SUB \t\t\t\n      SWAP1 \t\t\t\n      REVERT \t\t\t\n    tag 213\t\t\t\n      JUMPDEST \t\t\t\n      PUSH [tag] 215\t\t\t\n      DUP3 \t\t\t\n      PUSH 0\t\t\t\n      DUP4 \t\t\t\n      PUSH [tag] 193\t\t\t\n      JUMP \t\t\t\n    tag 215\t\t\t\n      JUMPDEST \t\t\t\n      POP \t\t\t\n      POP \t\t\t\n      JUMP \t\t\t\n    tag 178\t\t\t\n      JUMPDEST \t\t\t\n      PUSH 0\t\t\t\n      PUSH FFFFFFFFFFFFFFFFFFFFFFFFFFFFFFFFFFFFFFFF\t\t\t\n      AND \t\t\t\n      DUP5 \t\t\t\n      PUSH FFFFFFFFFFFFFFFFFFFFFFFFFFFFFFFFFFFFFFFF\t\t\t\n      AND \t\t\t\n      SUB \t\t\t\n      PUSH [tag] 217\t\t\t\n      JUMPI \t\t\t\n      PUSH 0\t\t\t\n      PUSH 40\t\t\t\n      MLOAD \t\t\t\n      PUSH E602DF0500000000000000000000000000000000000000000000000000000000\t\t\t\n      DUP2 \t\t\t\n      MSTORE \t\t\t\n      PUSH 4\t\t\t\n      ADD \t\t\t\n      PUSH [tag] 218\t\t\t\n      SWAP2 \t\t\t\n      SWAP1 \t\t\t\n      PUSH [tag] 189\t\t\t\n      JUMP \t\t\t\n    tag 218\t\t\t\n      JUMPDEST \t\t\t\n      PUSH 40\t\t\t\n      MLOAD \t\t\t\n      DUP1 \t\t\t\n      SWAP2 \t\t\t\n      SUB \t\t\t\n      SWAP1 \t\t\t\n      REVERT \t\t\t\n    tag 217\t\t\t\n      JUMPDEST \t\t\t\n      PUSH 0\t\t\t\n      PUSH FFFFFFFFFFFFFFFFFFFFFFFFFFFFFFFFFFFFFFFF\t\t\t\n      AND \t\t\t\n      DUP4 \t\t\t\n      PUSH FFFFFFFFFFFFFFFFFFFFFFFFFFFFFFFFFFFFFFFF\t\t\t\n      AND \t\t\t\n      SUB \t\t\t\n      PUSH [tag] 219\t\t\t\n      JUMPI \t\t\t\n      PUSH 0\t\t\t\n      PUSH 40\t\t\t\n      MLOAD \t\t\t\n      PUSH 94280D6200000000000000000000000000000000000000000000000000000000\t\t\t\n      DUP2 \t\t\t\n      MSTORE \t\t\t\n      PUSH 4\t\t\t\n      ADD \t\t\t\n      PUSH [tag] 220\t\t\t\n      SWAP2 \t\t\t\n      SWAP1 \t\t\t\n      PUSH [tag] 189\t\t\t\n      JUMP \t\t\t\n    tag 220\t\t\t\n      JUMPDEST \t\t\t\n      PUSH 40\t\t\t\n      MLOAD \t\t\t\n      DUP1 \t\t\t\n      SWAP2 \t\t\t\n      SUB \t\t\t\n      SWAP1 \t\t\t\n      REVERT \t\t\t\n    tag 219\t\t\t\n      JUMPDEST \t\t\t\n      DUP2 \t\t\t\n      PUSH 1\t\t\t\n      PUSH 0\t\t\t\n      DUP7 \t\t\t\n      PUSH FFFFFFFFFFFFFFFFFFFFFFFFFFFFFFFFFFFFFFFF\t\t\t\n      AND \t\t\t\n      PUSH FFFFFFFFFFFFFFFFFFFFFFFFFFFFFFFFFFFFFFFF\t\t\t\n      AND \t\t\t\n      DUP2 \t\t\t\n      MSTORE \t\t\t\n      PUSH 20\t\t\t\n      ADD \t\t\t\n      SWAP1 \t\t\t\n      DUP2 \t\t\t\n      MSTORE \t\t\t\n      PUSH 20\t\t\t\n      ADD \t\t\t\n      PUSH 0\t\t\t\n      KECCAK256 \t\t\t\n      PUSH 0\t\t\t\n      DUP6 \t\t\t\n      PUSH FFFFFFFFFFFFFFFFFFFFFFFFFFFFFFFFFFFFFFFF\t\t\t\n      AND \t\t\t\n      PUSH FFFFFFFFFFFFFFFFFFFFFFFFFFFFFFFFFFFFFFFF\t\t\t\n      AND \t\t\t\n      DUP2 \t\t\t\n      MSTORE \t\t\t\n      PUSH 20\t\t\t\n      ADD \t\t\t\n      SWAP1 \t\t\t\n      DUP2 \t\t\t\n      MSTORE \t\t\t\n      PUSH 20\t\t\t\n      ADD \t\t\t\n      PUSH 0\t\t\t\n      KECCAK256 \t\t\t\n      DUP2 \t\t\t\n      SWAP1 \t\t\t\n      SSTORE \t\t\t\n      POP \t\t\t\n      DUP1 \t\t\t\n      ISZERO \t\t\t\n      PUSH [tag] 221\t\t\t\n      JUMPI \t\t\t\n      DUP3 \t\t\t\n      PUSH FFFFFFFFFFFFFFFFFFFFFFFFFFFFFFFFFFFFFFFF\t\t\t\n      AND \t\t\t\n      DUP5 \t\t\t\n      PUSH FFFFFFFFFFFFFFFFFFFFFFFFFFFFFFFFFFFFFFFF\t\t\t\n      AND \t\t\t\n      PUSH 8C5BE1E5EBEC7D5BD14F71427D1E84F3DD0314C0F7B2291E5B200AC8C7C3B925\t\t\t\n      DUP5 \t\t\t\n      PUSH 40\t\t\t\n      MLOAD \t\t\t\n      PUSH [tag] 222\t\t\t\n      SWAP2 \t\t\t\n      SWAP1 \t\t\t\n      PUSH [tag] 44\t\t\t\n      JUMP \t\t\t\n    tag 222\t\t\t\n      JUMPDEST \t\t\t\n      PUSH 40\t\t\t\n      MLOAD \t\t\t\n      DUP1 \t\t\t\n      SWAP2 \t\t\t\n      SUB \t\t\t\n      SWAP1 \t\t\t\n      LOG3 \t\t\t\n    tag 221\t\t\t\n      JUMPDEST \t\t\t\n      POP \t\t\t\n      POP \t\t\t\n      POP \t\t\t\n      POP \t\t\t\n      JUMP \t\t\t\n    tag 193\t\t\t\n      JUMPDEST \t\t\t\n      PUSH 0\t\t\t\n      PUSH FFFFFFFFFFFFFFFFFFFFFFFFFFFFFFFFFFFFFFFF\t\t\t\n      AND \t\t\t\n      DUP4 \t\t\t\n      PUSH FFFFFFFFFFFFFFFFFFFFFFFFFFFFFFFFFFFFFFFF\t\t\t\n      AND \t\t\t\n      SUB \t\t\t\n      PUSH [tag] 224\t\t\t\n      JUMPI \t\t\t\n      DUP1 \t\t\t\n      PUSH 2\t\t\t\n      PUSH 0\t\t\t\n      DUP3 \t\t\t\n      DUP3 \t\t\t\n      SLOAD \t\t\t\n      PUSH [tag] 225\t\t\t\n      SWAP2 \t\t\t\n      SWAP1 \t\t\t\n      PUSH [tag] 226\t\t\t\n      JUMP \t\t\t\n    tag 225\t\t\t\n      JUMPDEST \t\t\t\n      SWAP3 \t\t\t\n      POP \t\t\t\n      POP \t\t\t\n      DUP2 \t\t\t\n      SWAP1 \t\t\t\n      SSTORE \t\t\t\n      POP \t\t\t\n      PUSH [tag] 227\t\t\t\n      JUMP \t\t\t\n    tag 224\t\t\t\n      JUMPDEST \t\t\t\n      PUSH 0\t\t\t\n      DUP1 \t\t\t\n      PUSH 0\t\t\t\n      DUP6 \t\t\t\n      PUSH FFFFFFFFFFFFFFFFFFFFFFFFFFFFFFFFFFFFFFFF\t\t\t\n      AND \t\t\t\n      PUSH FFFFFFFFFFFFFFFFFFFFFFFFFFFFFFFFFFFFFFFF\t\t\t\n      AND \t\t\t\n      DUP2 \t\t\t\n      MSTORE \t\t\t\n      PUSH 20\t\t\t\n      ADD \t\t\t\n      SWAP1 \t\t\t\n      DUP2 \t\t\t\n      MSTORE \t\t\t\n      PUSH 20\t\t\t\n      ADD \t\t\t\n      PUSH 0\t\t\t\n      KECCAK256 \t\t\t\n      SLOAD \t\t\t\n      SWAP1 \t\t\t\n      POP \t\t\t\n      DUP2 \t\t\t\n      DUP2 \t\t\t\n      LT \t\t\t\n      ISZERO \t\t\t\n      PUSH [tag] 228\t\t\t\n      JUMPI \t\t\t\n      DUP4 \t\t\t\n      DUP2 \t\t\t\n      DUP4 \t\t\t\n      PUSH 40\t\t\t\n      MLOAD \t\t\t\n      PUSH E450D38C00000000000000000000000000000000000000000000000000000000\t\t\t\n      DUP2 \t\t\t\n      MSTORE \t\t\t\n      PUSH 4\t\t\t\n      ADD \t\t\t\n      PUSH [tag] 229\t\t\t\n      SWAP4 \t\t\t\n      SWAP3 \t\t\t\n      SWAP2 \t\t\t\n      SWAP1 \t\t\t\n      PUSH [tag] 184\t\t\t\n      JUMP \t\t\t\n    tag 229\t\t\t\n      JUMPDEST \t\t\t\n      PUSH 40\t\t\t\n      MLOAD \t\t\t\n      DUP1 \t\t\t\n      SWAP2 \t\t\t\n      SUB \t\t\t\n      SWAP1 \t\t\t\n      REVERT \t\t\t\n    tag 228\t\t\t\n      JUMPDEST \t\t\t\n      DUP2 \t\t\t\n      DUP2 \t\t\t\n      SUB \t\t\t\n      PUSH 0\t\t\t\n      DUP1 \t\t\t\n      DUP7 \t\t\t\n      PUSH FFFFFFFFFFFFFFFFFFFFFFFFFFFFFFFFFFFFFFFF\t\t\t\n      AND \t\t\t\n      PUSH FFFFFFFFFFFFFFFFFFFFFFFFFFFFFFFFFFFFFFFF\t\t\t\n      AND \t\t\t\n      DUP2 \t\t\t\n      MSTORE \t\t\t\n      PUSH 20\t\t\t\n      ADD \t\t\t\n      SWAP1 \t\t\t\n      DUP2 \t\t\t\n      MSTORE \t\t\t\n      PUSH 20\t\t\t\n      ADD \t\t\t\n      PUSH 0\t\t\t\n      KECCAK256 \t\t\t\n      DUP2 \t\t\t\n      SWAP1 \t\t\t\n      SSTORE \t\t\t\n      POP \t\t\t\n      POP \t\t\t\n    tag 227\t\t\t\n      JUMPDEST \t\t\t\n      PUSH 0\t\t\t\n      PUSH FFFFFFFFFFFFFFFFFFFFFFFFFFFFFFFFFFFFFFFF\t\t\t\n      AND \t\t\t\n      DUP3 \t\t\t\n      PUSH FFFFFFFFFFFFFFFFFFFFFFFFFFFFFFFFFFFFFFFF\t\t\t\n      AND \t\t\t\n      SUB \t\t\t\n      PUSH [tag] 230\t\t\t\n      JUMPI \t\t\t\n      DUP1 \t\t\t\n      PUSH 2\t\t\t\n      PUSH 0\t\t\t\n      DUP3 \t\t\t\n      DUP3 \t\t\t\n      SLOAD \t\t\t\n      SUB \t\t\t\n      SWAP3 \t\t\t\n      POP \t\t\t\n      POP \t\t\t\n      DUP2 \t\t\t\n      SWAP1 \t\t\t\n      SSTORE \t\t\t\n      POP \t\t\t\n      PUSH [tag] 231\t\t\t\n      JUMP \t\t\t\n    tag 230\t\t\t\n      JUMPDEST \t\t\t\n      DUP1 \t\t\t\n      PUSH 0\t\t\t\n      DUP1 \t\t\t\n      DUP5 \t\t\t\n      PUSH FFFFFFFFFFFFFFFFFFFFFFFFFFFFFFFFFFFFFFFF\t\t\t\n      AND \t\t\t\n      PUSH FFFFFFFFFFFFFFFFFFFFFFFFFFFFFFFFFFFFFFFF\t\t\t\n      AND \t\t\t\n      DUP2 \t\t\t\n      MSTORE \t\t\t\n      PUSH 20\t\t\t\n      ADD \t\t\t\n      SWAP1 \t\t\t\n      DUP2 \t\t\t\n      MSTORE \t\t\t\n      PUSH 20\t\t\t\n      ADD \t\t\t\n      PUSH 0\t\t\t\n      KECCAK256 \t\t\t\n      PUSH 0\t\t\t\n      DUP3 \t\t\t\n      DUP3 \t\t\t\n      SLOAD \t\t\t\n      ADD \t\t\t\n      SWAP3 \t\t\t\n      POP \t\t\t\n      POP \t\t\t\n      DUP2 \t\t\t\n      SWAP1 \t\t\t\n      SSTORE \t\t\t\n      POP \t\t\t\n    tag 231\t\t\t\n      JUMPDEST \t\t\t\n      DUP2 \t\t\t\n      PUSH FFFFFFFFFFFFFFFFFFFFFFFFFFFFFFFFFFFFFFFF\t\t\t\n      AND \t\t\t\n      DUP4 \t\t\t\n      PUSH FFFFFFFFFFFFFFFFFFFFFFFFFFFFFFFFFFFFFFFF\t\t\t\n      AND \t\t\t\n      PUSH DDF252AD1BE2C89B69C2B068FC378DAA952BA7F163C4A11628F55A4DF523B3EF\t\t\t\n      DUP4 \t\t\t\n      PUSH 40\t\t\t\n      MLOAD \t\t\t\n      PUSH [tag] 232\t\t\t\n      SWAP2 \t\t\t\n      SWAP1 \t\t\t\n      PUSH [tag] 44\t\t\t\n      JUMP \t\t\t\n    tag 232\t\t\t\n      JUMPDEST \t\t\t\n      PUSH 40\t\t\t\n      MLOAD \t\t\t\n      DUP1 \t\t\t\n      SWAP2 \t\t\t\n      SUB \t\t\t\n      SWAP1 \t\t\t\n      LOG3 \t\t\t\n      POP \t\t\t\n      POP \t\t\t\n      POP \t\t\t\n      JUMP \t\t\t\n    tag 197\t\t\t\n      JUMPDEST \t\t\t\n      PUSH [tag] 234\t\t\t\n      DUP3 \t\t\t\n      DUP3 \t\t\t\n      PUSH [tag] 84\t\t\t\n      JUMP \t\t\t\n    tag 234\t\t\t\n      JUMPDEST \t\t\t\n      PUSH [tag] 235\t\t\t\n      JUMPI \t\t\t\n      DUP1 \t\t\t\n      DUP3 \t\t\t\n      PUSH 40\t\t\t\n      MLOAD \t\t\t\n      PUSH E2517D3F00000000000000000000000000000000000000000000000000000000\t\t\t\n      DUP2 \t\t\t\n      MSTORE \t\t\t\n      PUSH 4\t\t\t\n      ADD \t\t\t\n      PUSH [tag] 236\t\t\t\n      SWAP3 \t\t\t\n      SWAP2 \t\t\t\n      SWAP1 \t\t\t\n      PUSH [tag] 237\t\t\t\n      JUMP \t\t\t\n    tag 236\t\t\t\n      JUMPDEST \t\t\t\n      PUSH 40\t\t\t\n      MLOAD \t\t\t\n      DUP1 \t\t\t\n      SWAP2 \t\t\t\n      SUB \t\t\t\n      SWAP1 \t\t\t\n      REVERT \t\t\t\n    tag 235\t\t\t\n      JUMPDEST \t\t\t\n      POP \t\t\t\n      POP \t\t\t\n      JUMP \t\t\t\n    tag 239\t\t\tin/contracts/token/ERC20/ERC20...\n      JUMPDEST \t\t\tin/contracts/token/ERC20/ERC20...\n      PUSH 0\t\t\t\"\n      DUP1 \t\t\ts\n      REVERT \t\t\trnable.sol\";\n    tag 241\t\t\tle, AccessControl {\\n    bytes...\n      JUMPDEST \t\t\tle, AccessControl {\\n    bytes...\n      PUSH 0\t\t\tic cons\n      PUSH FFFFFFFF00000000000000000000000000000000000000000000000000000000\t\t\tTER_ROLE\");\\n\\n    uint8 decim...\n      DUP3 \t\t\t56(\"M\n      AND \t\t\tcak256(\"MINTER_ROLE\");\\n\\n    ...\n      SWAP1 \t\t\t_ROLE = keccak256(\"MINTER_ROLE...\n      POP \t\t\t_ROLE = keccak256(\"MINTER_ROLE...\n      SWAP2 \t\t\tle, AccessControl {\\n    bytes...\n      SWAP1 \t\t\tle, AccessControl {\\n    bytes...\n      POP \t\t\tle, AccessControl {\\n    bytes...\n      JUMP \t\t\tle, AccessControl {\\n    bytes...\n    tag 242\t\t\ttokenName, \\n        string me...\n      JUMPDEST \t\t\ttokenName, \\n        string me...\n      PUSH [tag] 274\t\t\t,\\n        uint8 _decima\n      DUP2 \t\t\tdecim\n      PUSH [tag] 241\t\t\t,\\n        uint8 _decima\n      JUMP \t\t\t,\\n        uint8 _decima\n    tag 274\t\t\t,\\n        uint8 _decima\n      JUMPDEST \t\t\t,\\n        uint8 _decima\n      DUP2 \t\t\t_mint\n      EQ \t\t\tss _minter,\\n        uint8 _de...\n      PUSH [tag] 275\t\t\t     address _minter,\\n       ...\n      JUMPI \t\t\t     address _minter,\\n       ...\n      PUSH 0\t\t\t(\n      DUP1 \t\t\t2\n      REVERT \t\t\t  ) ERC20 (_\n    tag 275\t\t\t     address _minter,\\n       ...\n      JUMPDEST \t\t\t     address _minter,\\n       ...\n      POP \t\t\ttokenName, \\n        string me...\n      JUMP \t\t\ttokenName, \\n        string me...\n    tag 243\t\t\tkenSymbol) {\\n        _grantRo...\n      JUMPDEST \t\t\tkenSymbol) {\\n        _grantRo...\n      PUSH 0\t\t\t_mint\n      DUP2 \t\t\tcimals\n      CALLDATALOAD \t\t\ts_value = _decimals;\n      SWAP1 \t\t\t  decimals_value = _decimals;\n      POP \t\t\t  decimals_value = _decimals;\n      PUSH [tag] 277\t\t\t   // we add mint ability so t...\n      DUP2 \t\t\tso th\n      PUSH [tag] 242\t\t\t   // we add mint ability so t...\n      JUMP \t\t\t   // we add mint ability so t...\n    tag 277\t\t\t   // we add mint ability so t...\n      JUMPDEST \t\t\t   // we add mint ability so t...\n      SWAP3 \t\t\tkenSymbol) {\\n        _grantRo...\n      SWAP2 \t\t\tkenSymbol) {\\n        _grantRo...\n      POP \t\t\tkenSymbol) {\\n        _grantRo...\n      POP \t\t\tkenSymbol) {\\n        _grantRo...\n      JUMP \t\t\tkenSymbol) {\\n        _grantRo...\n    tag 28\t\t\tnsfer cosmos > evm\\n    functi...\n      JUMPDEST \t\t\tnsfer cosmos > evm\\n    functi...\n      PUSH 0\t\t\tmount)\n      PUSH 20\t\t\tnt\n      DUP3 \t\t\t\\n        \n      DUP5 \t\t\tR_ROLE)\n      SUB \t\t\tINTER_ROLE) {\\n        _\n      SLT \t\t\tle(MINTER_ROLE) {\\n        _mi...\n      ISZERO \t\t\tyRole(MINTER_ROLE) {\\n        ...\n      PUSH [tag] 279\t\t\tyRole(MINTER_ROLE) {\\n        ...\n      JUMPI \t\t\tyRole(MINTER_ROLE) {\\n        ...\n      PUSH [tag] 280\t\t\t amount);\\n    }\\n\\n    functi...\n      PUSH [tag] 239\t\t\t amount);\\n    }\\n\\n    functi...\n      JUMP \t\t\t amount);\\n    }\\n\\n    functi...\n    tag 280\t\t\t amount);\\n    }\\n\\n    functi...\n      JUMPDEST \t\t\t amount);\\n    }\\n\\n    functi...\n    tag 279\t\t\tyRole(MINTER_ROLE) {\\n        ...\n      JUMPDEST \t\t\tyRole(MINTER_ROLE) {\\n        ...\n      PUSH 0\t\t\t\n      PUSH [tag] 281\t\t\t\n      DUP5 \t\t\t\n      DUP3 \t\t\t\n      DUP6 \t\t\t\n      ADD \t\t\t\n      PUSH [tag] 243\t\t\t\n      JUMP \t\t\t\n    tag 281\t\t\t\n      JUMPDEST \t\t\t\n      SWAP2 \t\t\t\n      POP \t\t\t\n      POP \t\t\turn decimals_value;\\n    }\\n}\\...\n      SWAP3 \t\t\tnsfer cosmos > evm\\n    functi...\n      SWAP2 \t\t\tnsfer cosmos > evm\\n    functi...\n      POP \t\t\tnsfer cosmos > evm\\n    functi...\n      POP \t\t\tnsfer cosmos > evm\\n    functi...\n      JUMP \t\t\tnsfer cosmos > evm\\n    functi...\n    tag 244\t\t\t\n      JUMPDEST \t\t\t\n      PUSH 0\t\t\t\n      DUP2 \t\t\t\n      ISZERO \t\t\t\n      ISZERO \t\t\t\n      SWAP1 \t\t\t\n      POP \t\t\t\n      SWAP2 \t\t\t\n      SWAP1 \t\t\t\n      POP \t\t\t\n      JUMP \t\t\t\n    tag 245\t\t\t\n      JUMPDEST \t\t\t\n      PUSH [tag] 284\t\t\t\n      DUP2 \t\t\t\n      PUSH [tag] 244\t\t\t\n      JUMP \t\t\t\n    tag 284\t\t\t\n      JUMPDEST \t\t\t\n      DUP3 \t\t\t\n      MSTORE \t\t\t\n      POP \t\t\t\n      POP \t\t\t\n      JUMP \t\t\t\n    tag 31\t\t\t\n      JUMPDEST \t\t\t\n      PUSH 0\t\t\t\n      PUSH 20\t\t\t\n      DUP3 \t\t\t\n      ADD \t\t\t\n      SWAP1 \t\t\t\n      POP \t\t\t\n      PUSH [tag] 286\t\t\t\n      PUSH 0\t\t\t\n      DUP4 \t\t\t\n      ADD \t\t\t\n      DUP5 \t\t\t\n      PUSH [tag] 245\t\t\t\n      JUMP \t\t\t\n    tag 286\t\t\t\n      JUMPDEST \t\t\t\n      SWAP3 \t\t\t\n      SWAP2 \t\t\t\n      POP \t\t\t\n      POP \t\t\t\n      JUMP \t\t\t\n    tag 246\t\t\t\n      JUMPDEST \t\t\t\n      PUSH 0\t\t\t\n      DUP2 \t\t\t\n      MLOAD \t\t\t\n      SWAP1 \t\t\t\n      POP \t\t\t\n      SWAP2 \t\t\t\n      SWAP1 \t\t\t\n      POP \t\t\t\n      JUMP \t\t\t\n    tag 247\t\t\t\n      JUMPDEST \t\t\t\n      PUSH 0\t\t\t\n      DUP3 \t\t\t\n      DUP3 \t\t\t\n      MSTORE \t\t\t\n      PUSH 20\t\t\t\n      DUP3 \t\t\t\n      ADD \t\t\t\n      SWAP1 \t\t\t\n      POP \t\t\t\n      SWAP3 \t\t\t\n      SWAP2 \t\t\t\n      POP \t\t\t\n      POP \t\t\t\n      JUMP \t\t\t\n    tag 248\t\t\t\n      JUMPDEST \t\t\t\n      DUP3 \t\t\t\n      DUP2 \t\t\t\n      DUP4 \t\t\t\n      MCOPY \t\t\t\n      PUSH 0\t\t\t\n      DUP4 \t\t\t\n      DUP4 \t\t\t\n      ADD \t\t\t\n      MSTORE \t\t\t\n      POP \t\t\t\n      POP \t\t\t\n      POP \t\t\t\n      JUMP \t\t\t\n    tag 249\t\t\t\n      JUMPDEST \t\t\t\n      PUSH 0\t\t\t\n      PUSH 1F\t\t\t\n      NOT \t\t\t\n      PUSH 1F\t\t\t\n      DUP4 \t\t\t\n      ADD \t\t\t\n      AND \t\t\t\n      SWAP1 \t\t\t\n      POP \t\t\t\n      SWAP2 \t\t\t\n      SWAP1 \t\t\t\n      POP \t\t\t\n      JUMP \t\t\t\n    tag 250\t\t\t\n      JUMPDEST \t\t\t\n      PUSH 0\t\t\t\n      PUSH [tag] 292\t\t\t\n      DUP3 \t\t\t\n      PUSH [tag] 246\t\t\t\n      JUMP \t\t\t\n    tag 292\t\t\t\n      JUMPDEST \t\t\t\n      PUSH [tag] 293\t\t\t\n      DUP2 \t\t\t\n      DUP6 \t\t\t\n      PUSH [tag] 247\t\t\t\n      JUMP \t\t\t\n    tag 293\t\t\t\n      JUMPDEST \t\t\t\n      SWAP4 \t\t\t\n      POP \t\t\t\n      PUSH [tag] 294\t\t\t\n      DUP2 \t\t\t\n      DUP6 \t\t\t\n      PUSH 20\t\t\t\n      DUP7 \t\t\t\n      ADD \t\t\t\n      PUSH [tag] 248\t\t\t\n      JUMP \t\t\t\n    tag 294\t\t\t\n      JUMPDEST \t\t\t\n      PUSH [tag] 295\t\t\t\n      DUP2 \t\t\t\n      PUSH [tag] 249\t\t\t\n      JUMP \t\t\t\n    tag 295\t\t\t\n      JUMPDEST \t\t\t\n      DUP5 \t\t\t\n      ADD \t\t\t\n      SWAP2 \t\t\t\n      POP \t\t\t\n      POP \t\t\t\n      SWAP3 \t\t\t\n      SWAP2 \t\t\t\n      POP \t\t\t\n      POP \t\t\t\n      JUMP \t\t\t\n    tag 35\t\t\t\n      JUMPDEST \t\t\t\n      PUSH 0\t\t\t\n      PUSH 20\t\t\t\n      DUP3 \t\t\t\n      ADD \t\t\t\n      SWAP1 \t\t\t\n      POP \t\t\t\n      DUP2 \t\t\t\n      DUP2 \t\t\t\n      SUB \t\t\t\n      PUSH 0\t\t\t\n      DUP4 \t\t\t\n      ADD \t\t\t\n      MSTORE \t\t\t\n      PUSH [tag] 297\t\t\t\n      DUP2 \t\t\t\n      DUP5 \t\t\t\n      PUSH [tag] 250\t\t\t\n      JUMP \t\t\t\n    tag 297\t\t\t\n      JUMPDEST \t\t\t\n      SWAP1 \t\t\t\n      POP \t\t\t\n      SWAP3 \t\t\t\n      SWAP2 \t\t\t\n      POP \t\t\t\n      POP \t\t\t\n      JUMP \t\t\t\n    tag 251\t\t\t\n      JUMPDEST \t\t\t\n      PUSH 0\t\t\t\n      PUSH FFFFFFFFFFFFFFFFFFFFFFFFFFFFFFFFFFFFFFFF\t\t\t\n      DUP3 \t\t\t\n      AND \t\t\t\n      SWAP1 \t\t\t\n      POP \t\t\t\n      SWAP2 \t\t\t\n      SWAP1 \t\t\t\n      POP \t\t\t\n      JUMP \t\t\t\n    tag 252\t\t\t\n      JUMPDEST \t\t\t\n      PUSH 0\t\t\t\n      PUSH [tag] 300\t\t\t\n      DUP3 \t\t\t\n      PUSH [tag] 251\t\t\t\n      JUMP \t\t\t\n    tag 300\t\t\t\n      JUMPDEST \t\t\t\n      SWAP1 \t\t\t\n      POP \t\t\t\n      SWAP2 \t\t\t\n      SWAP1 \t\t\t\n      POP \t\t\t\n      JUMP \t\t\t\n    tag 253\t\t\t\n      JUMPDEST \t\t\t\n      PUSH [tag] 302\t\t\t\n      DUP2 \t\t\t\n      PUSH [tag] 252\t\t\t\n      JUMP \t\t\t\n    tag 302\t\t\t\n      JUMPDEST \t\t\t\n      DUP2 \t\t\t\n      EQ \t\t\t\n      PUSH [tag] 303\t\t\t\n      JUMPI \t\t\t\n      PUSH 0\t\t\t\n      DUP1 \t\t\t\n      REVERT \t\t\t\n    tag 303\t\t\t\n      JUMPDEST \t\t\t\n      POP \t\t\t\n      JUMP \t\t\t\n    tag 254\t\t\t\n      JUMPDEST \t\t\t\n      PUSH 0\t\t\t\n      DUP2 \t\t\t\n      CALLDATALOAD \t\t\t\n      SWAP1 \t\t\t\n      POP \t\t\t\n      PUSH [tag] 305\t\t\t\n      DUP2 \t\t\t\n      PUSH [tag] 253\t\t\t\n      JUMP \t\t\t\n    tag 305\t\t\t\n      JUMPDEST \t\t\t\n      SWAP3 \t\t\t\n      SWAP2 \t\t\t\n      POP \t\t\t\n      POP \t\t\t\n      JUMP \t\t\t\n    tag 255\t\t\t\n      JUMPDEST \t\t\t\n      PUSH 0\t\t\t\n      DUP2 \t\t\t\n      SWAP1 \t\t\t\n      POP \t\t\t\n      SWAP2 \t\t\t\n      SWAP1 \t\t\t\n      POP \t\t\t\n      JUMP \t\t\t\n    tag 256\t\t\t\n      JUMPDEST \t\t\t\n      PUSH [tag] 308\t\t\t\n      DUP2 \t\t\t\n      PUSH [tag] 255\t\t\t\n      JUMP \t\t\t\n    tag 308\t\t\t\n      JUMPDEST \t\t\t\n      DUP2 \t\t\t\n      EQ \t\t\t\n      PUSH [tag] 309\t\t\t\n      JUMPI \t\t\t\n      PUSH 0\t\t\t\n      DUP1 \t\t\t\n      REVERT \t\t\t\n    tag 309\t\t\t\n      JUMPDEST \t\t\t\n      POP \t\t\t\n      JUMP \t\t\t\n    tag 257\t\t\t\n      JUMPDEST \t\t\t\n      PUSH 0\t\t\t\n      DUP2 \t\t\t\n      CALLDATALOAD \t\t\t\n      SWAP1 \t\t\t\n      POP \t\t\t\n      PUSH [tag] 311\t\t\t\n      DUP2 \t\t\t\n      PUSH [tag] 256\t\t\t\n      JUMP \t\t\t\n    tag 311\t\t\t\n      JUMPDEST \t\t\t\n      SWAP3 \t\t\t\n      SWAP2 \t\t\t\n      POP \t\t\t\n      POP \t\t\t\n      JUMP \t\t\t\n    tag 38\t\t\t\n      JUMPDEST \t\t\t\n      PUSH 0\t\t\t\n      DUP1 \t\t\t\n      PUSH 40\t\t\t\n      DUP4 \t\t\t\n      DUP6 \t\t\t\n      SUB \t\t\t\n      SLT \t\t\t\n      ISZERO \t\t\t\n      PUSH [tag] 313\t\t\t\n      JUMPI \t\t\t\n      PUSH [tag] 314\t\t\t\n      PUSH [tag] 239\t\t\t\n      JUMP \t\t\t\n    tag 314\t\t\t\n      JUMPDEST \t\t\t\n    tag 313\t\t\t\n      JUMPDEST \t\t\t\n      PUSH 0\t\t\t\n      PUSH [tag] 315\t\t\t\n      DUP6 \t\t\t\n      DUP3 \t\t\t\n      DUP7 \t\t\t\n      ADD \t\t\t\n      PUSH [tag] 254\t\t\t\n      JUMP \t\t\t\n    tag 315\t\t\t\n      JUMPDEST \t\t\t\n      SWAP3 \t\t\t\n      POP \t\t\t\n      POP \t\t\t\n      PUSH 20\t\t\t\n      PUSH [tag] 316\t\t\t\n      DUP6 \t\t\t\n      DUP3 \t\t\t\n      DUP7 \t\t\t\n      ADD \t\t\t\n      PUSH [tag] 257\t\t\t\n      JUMP \t\t\t\n    tag 316\t\t\t\n      JUMPDEST \t\t\t\n      SWAP2 \t\t\t\n      POP \t\t\t\n      POP \t\t\t\n      SWAP3 \t\t\t\n      POP \t\t\t\n      SWAP3 \t\t\t\n      SWAP1 \t\t\t\n      POP \t\t\t\n      JUMP \t\t\t\n    tag 258\t\t\t\n      JUMPDEST \t\t\t\n      PUSH [tag] 318\t\t\t\n      DUP2 \t\t\t\n      PUSH [tag] 255\t\t\t\n      JUMP \t\t\t\n    tag 318\t\t\t\n      JUMPDEST \t\t\t\n      DUP3 \t\t\t\n      MSTORE \t\t\t\n      POP \t\t\t\n      POP \t\t\t\n      JUMP \t\t\t\n    tag 44\t\t\t\n      JUMPDEST \t\t\t\n      PUSH 0\t\t\t\n      PUSH 20\t\t\t\n      DUP3 \t\t\t\n      ADD \t\t\t\n      SWAP1 \t\t\t\n      POP \t\t\t\n      PUSH [tag] 320\t\t\t\n      PUSH 0\t\t\t\n      DUP4 \t\t\t\n      ADD \t\t\t\n      DUP5 \t\t\t\n      PUSH [tag] 258\t\t\t\n      JUMP \t\t\t\n    tag 320\t\t\t\n      JUMPDEST \t\t\t\n      SWAP3 \t\t\t\n      SWAP2 \t\t\t\n      POP \t\t\t\n      POP \t\t\t\n      JUMP \t\t\t\n    tag 47\t\t\t\n      JUMPDEST \t\t\t\n      PUSH 0\t\t\t\n      DUP1 \t\t\t\n      PUSH 0\t\t\t\n      PUSH 60\t\t\t\n      DUP5 \t\t\t\n      DUP7 \t\t\t\n      SUB \t\t\t\n      SLT \t\t\t\n      ISZERO \t\t\t\n      PUSH [tag] 322\t\t\t\n      JUMPI \t\t\t\n      PUSH [tag] 323\t\t\t\n      PUSH [tag] 239\t\t\t\n      JUMP \t\t\t\n    tag 323\t\t\t\n      JUMPDEST \t\t\t\n    tag 322\t\t\t\n      JUMPDEST \t\t\t\n      PUSH 0\t\t\t\n      PUSH [tag] 324\t\t\t\n      DUP7 \t\t\t\n      DUP3 \t\t\t\n      DUP8 \t\t\t\n      ADD \t\t\t\n      PUSH [tag] 254\t\t\t\n      JUMP \t\t\t\n    tag 324\t\t\t\n      JUMPDEST \t\t\t\n      SWAP4 \t\t\t\n      POP \t\t\t\n      POP \t\t\t\n      PUSH 20\t\t\t\n      PUSH [tag] 325\t\t\t\n      DUP7 \t\t\t\n      DUP3 \t\t\t\n      DUP8 \t\t\t\n      ADD \t\t\t\n      PUSH [tag] 254\t\t\t\n      JUMP \t\t\t\n    tag 325\t\t\t\n      JUMPDEST \t\t\t\n      SWAP3 \t\t\t\n      POP \t\t\t\n      POP \t\t\t\n      PUSH 40\t\t\t\n      PUSH [tag] 326\t\t\t\n      DUP7 \t\t\t\n      DUP3 \t\t\t\n      DUP8 \t\t\t\n      ADD \t\t\t\n      PUSH [tag] 257\t\t\t\n      JUMP \t\t\t\n    tag 326\t\t\t\n      JUMPDEST \t\t\t\n      SWAP2 \t\t\t\n      POP \t\t\t\n      POP \t\t\t\n      SWAP3 \t\t\t\n      POP \t\t\t\n      SWAP3 \t\t\t\n      POP \t\t\t\n      SWAP3 \t\t\t\n      JUMP \t\t\t\n    tag 259\t\t\t\n      JUMPDEST \t\t\t\n      PUSH 0\t\t\t\n      DUP2 \t\t\t\n      SWAP1 \t\t\t\n      POP \t\t\t\n      SWAP2 \t\t\t\n      SWAP1 \t\t\t\n      POP \t\t\t\n      JUMP \t\t\t\n    tag 260\t\t\t\n      JUMPDEST \t\t\t\n      PUSH [tag] 329\t\t\t\n      DUP2 \t\t\t\n      PUSH [tag] 259\t\t\t\n      JUMP \t\t\t\n    tag 329\t\t\t\n      JUMPDEST \t\t\t\n      DUP2 \t\t\t\n      EQ \t\t\t\n      PUSH [tag] 330\t\t\t\n      JUMPI \t\t\t\n      PUSH 0\t\t\t\n      DUP1 \t\t\t\n      REVERT \t\t\t\n    tag 330\t\t\t\n      JUMPDEST \t\t\t\n      POP \t\t\t\n      JUMP \t\t\t\n    tag 261\t\t\t\n      JUMPDEST \t\t\t\n      PUSH 0\t\t\t\n      DUP2 \t\t\t\n      CALLDATALOAD \t\t\t\n      SWAP1 \t\t\t\n      POP \t\t\t\n      PUSH [tag] 332\t\t\t\n      DUP2 \t\t\t\n      PUSH [tag] 260\t\t\t\n      JUMP \t\t\t\n    tag 332\t\t\t\n      JUMPDEST \t\t\t\n      SWAP3 \t\t\t\n      SWAP2 \t\t\t\n      POP \t\t\t\n      POP \t\t\t\n      JUMP \t\t\t\n    tag 52\t\t\t\n      JUMPDEST \t\t\t\n      PUSH 0\t\t\t\n      PUSH 20\t\t\t\n      DUP3 \t\t\t\n      DUP5 \t\t\t\n      SUB \t\t\t\n      SLT \t\t\t\n      ISZERO \t\t\t\n      PUSH [tag] 334\t\t\t\n      JUMPI \t\t\t\n      PUSH [tag] 335\t\t\t\n      PUSH [tag] 239\t\t\t\n      JUMP \t\t\t\n    tag 335\t\t\t\n      JUMPDEST \t\t\t\n    tag 334\t\t\t\n      JUMPDEST \t\t\t\n      PUSH 0\t\t\t\n      PUSH [tag] 336\t\t\t\n      DUP5 \t\t\t\n      DUP3 \t\t\t\n      DUP6 \t\t\t\n      ADD \t\t\t\n      PUSH [tag] 261\t\t\t\n      JUMP \t\t\t\n    tag 336\t\t\t\n      JUMPDEST \t\t\t\n      SWAP2 \t\t\t\n      POP \t\t\t\n      POP \t\t\t\n      SWAP3 \t\t\t\n      SWAP2 \t\t\t\n      POP \t\t\t\n      POP \t\t\t\n      JUMP \t\t\t\n    tag 262\t\t\t\n      JUMPDEST \t\t\t\n      PUSH [tag] 338\t\t\t\n      DUP2 \t\t\t\n      PUSH [tag] 259\t\t\t\n      JUMP \t\t\t\n    tag 338\t\t\t\n      JUMPDEST \t\t\t\n      DUP3 \t\t\t\n      MSTORE \t\t\t\n      POP \t\t\t\n      POP \t\t\t\n      JUMP \t\t\t\n    tag 55\t\t\t\n      JUMPDEST \t\t\t\n      PUSH 0\t\t\t\n      PUSH 20\t\t\t\n      DUP3 \t\t\t\n      ADD \t\t\t\n      SWAP1 \t\t\t\n      POP \t\t\t\n      PUSH [tag] 340\t\t\t\n      PUSH 0\t\t\t\n      DUP4 \t\t\t\n      ADD \t\t\t\n      DUP5 \t\t\t\n      PUSH [tag] 262\t\t\t\n      JUMP \t\t\t\n    tag 340\t\t\t\n      JUMPDEST \t\t\t\n      SWAP3 \t\t\t\n      SWAP2 \t\t\t\n      POP \t\t\t\n      POP \t\t\t\n      JUMP \t\t\t\n    tag 58\t\t\t\n      JUMPDEST \t\t\t\n      PUSH 0\t\t\t\n      DUP1 \t\t\t\n      PUSH 40\t\t\t\n      DUP4 \t\t\t\n      DUP6 \t\t\t\n      SUB \t\t\t\n      SLT \t\t\t\n      ISZERO \t\t\t\n      PUSH [tag] 342\t\t\t\n      JUMPI \t\t\t\n      PUSH [tag] 343\t\t\t\n      PUSH [tag] 239\t\t\t\n      JUMP \t\t\t\n    tag 343\t\t\t\n      JUMPDEST \t\t\t\n    tag 342\t\t\t\n      JUMPDEST \t\t\t\n      PUSH 0\t\t\t\n      PUSH [tag] 344\t\t\t\n      DUP6 \t\t\t\n      DUP3 \t\t\t\n      DUP7 \t\t\t\n      ADD \t\t\t\n      PUSH [tag] 261\t\t\t\n      JUMP \t\t\t\n    tag 344\t\t\t\n      JUMPDEST \t\t\t\n      SWAP3 \t\t\t\n      POP \t\t\t\n      POP \t\t\t\n      PUSH 20\t\t\t\n      PUSH [tag] 345\t\t\t\n      DUP6 \t\t\t\n      DUP3 \t\t\t\n      DUP7 \t\t\t\n      ADD \t\t\t\n      PUSH [tag] 254\t\t\t\n      JUMP \t\t\t\n    tag 345\t\t\t\n      JUMPDEST \t\t\t\n      SWAP2 \t\t\t\n      POP \t\t\t\n      POP \t\t\t\n      SWAP3 \t\t\t\n      POP \t\t\t\n      SWAP3 \t\t\t\n      SWAP1 \t\t\t\n      POP \t\t\t\n      JUMP \t\t\t\n    tag 263\t\t\t\n      JUMPDEST \t\t\t\n      PUSH 0\t\t\t\n      PUSH FF\t\t\t\n      DUP3 \t\t\t\n      AND \t\t\t\n      SWAP1 \t\t\t\n      POP \t\t\t\n      SWAP2 \t\t\t\n      SWAP1 \t\t\t\n      POP \t\t\t\n      JUMP \t\t\t\n    tag 264\t\t\t\n      JUMPDEST \t\t\t\n      PUSH [tag] 348\t\t\t\n      DUP2 \t\t\t\n      PUSH [tag] 263\t\t\t\n      JUMP \t\t\t\n    tag 348\t\t\t\n      JUMPDEST \t\t\t\n      DUP3 \t\t\t\n      MSTORE \t\t\t\n      POP \t\t\t\n      POP \t\t\t\n      JUMP \t\t\t\n    tag 63\t\t\t\n      JUMPDEST \t\t\t\n      PUSH 0\t\t\t\n      PUSH 20\t\t\t\n      DUP3 \t\t\t\n      ADD \t\t\t\n      SWAP1 \t\t\t\n      POP \t\t\t\n      PUSH [tag] 350\t\t\t\n      PUSH 0\t\t\t\n      DUP4 \t\t\t\n      ADD \t\t\t\n      DUP5 \t\t\t\n      PUSH [tag] 264\t\t\t\n      JUMP \t\t\t\n    tag 350\t\t\t\n      JUMPDEST \t\t\t\n      SWAP3 \t\t\t\n      SWAP2 \t\t\t\n      POP \t\t\t\n      POP \t\t\t\n      JUMP \t\t\t\n    tag 72\t\t\t\n      JUMPDEST \t\t\t\n      PUSH 0\t\t\t\n      PUSH 20\t\t\t\n      DUP3 \t\t\t\n      DUP5 \t\t\t\n      SUB \t\t\t\n      SLT \t\t\t\n      ISZERO \t\t\t\n      PUSH [tag] 352\t\t\t\n      JUMPI \t\t\t\n      PUSH [tag] 353\t\t\t\n      PUSH [tag] 239\t\t\t\n      JUMP \t\t\t\n    tag 353\t\t\t\n      JUMPDEST \t\t\t\n    tag 352\t\t\t\n      JUMPDEST \t\t\t\n      PUSH 0\t\t\t\n      PUSH [tag] 354\t\t\t\n      DUP5 \t\t\t\n      DUP3 \t\t\t\n      DUP6 \t\t\t\n      ADD \t\t\t\n      PUSH [tag] 257\t\t\t\n      JUMP \t\t\t\n    tag 354\t\t\t\n      JUMPDEST \t\t\t\n      SWAP2 \t\t\t\n      POP \t\t\t\n      POP \t\t\t\n      SWAP3 \t\t\t\n      SWAP2 \t\t\t\n      POP \t\t\t\n      POP \t\t\t\n      JUMP \t\t\t\n    tag 76\t\t\t\n      JUMPDEST \t\t\t\n      PUSH 0\t\t\t\n      PUSH 20\t\t\t\n      DUP3 \t\t\t\n      DUP5 \t\t\t\n      SUB \t\t\t\n      SLT \t\t\t\n      ISZERO \t\t\t\n      PUSH [tag] 356\t\t\t\n      JUMPI \t\t\t\n      PUSH [tag] 357\t\t\t\n      PUSH [tag] 239\t\t\t\n      JUMP \t\t\t\n    tag 357\t\t\t\n      JUMPDEST \t\t\t\n    tag 356\t\t\t\n      JUMPDEST \t\t\t\n      PUSH 0\t\t\t\n      PUSH [tag] 358\t\t\t\n      DUP5 \t\t\t\n      DUP3 \t\t\t\n      DUP6 \t\t\t\n      ADD \t\t\t\n      PUSH [tag] 254\t\t\t\n      JUMP \t\t\t\n    tag 358\t\t\t\n      JUMPDEST \t\t\t\n      SWAP2 \t\t\t\n      POP \t\t\t\n      POP \t\t\t\n      SWAP3 \t\t\t\n      SWAP2 \t\t\t\n      POP \t\t\t\n      POP \t\t\t\n      JUMP \t\t\t\n    tag 104\t\t\t\n      JUMPDEST \t\t\t\n      PUSH 0\t\t\t\n      DUP1 \t\t\t\n      PUSH 40\t\t\t\n      DUP4 \t\t\t\n      DUP6 \t\t\t\n      SUB \t\t\t\n      SLT \t\t\t\n      ISZERO \t\t\t\n      PUSH [tag] 360\t\t\t\n      JUMPI \t\t\t\n      PUSH [tag] 361\t\t\t\n      PUSH [tag] 239\t\t\t\n      JUMP \t\t\t\n    tag 361\t\t\t\n      JUMPDEST \t\t\t\n    tag 360\t\t\t\n      JUMPDEST \t\t\t\n      PUSH 0\t\t\t\n      PUSH [tag] 362\t\t\t\n      DUP6 \t\t\t\n      DUP3 \t\t\t\n      DUP7 \t\t\t\n      ADD \t\t\t\n      PUSH [tag] 254\t\t\t\n      JUMP \t\t\t\n    tag 362\t\t\t\n      JUMPDEST \t\t\t\n      SWAP3 \t\t\t\n      POP \t\t\t\n      POP \t\t\t\n      PUSH 20\t\t\t\n      PUSH [tag] 363\t\t\t\n      DUP6 \t\t\t\n      DUP3 \t\t\t\n      DUP7 \t\t\t\n      ADD \t\t\t\n      PUSH [tag] 254\t\t\t\n      JUMP \t\t\t\n    tag 363\t\t\t\n      JUMPDEST \t\t\t\n      SWAP2 \t\t\t\n      POP \t\t\t\n      POP \t\t\t\n      SWAP3 \t\t\t\n      POP \t\t\t\n      SWAP3 \t\t\t\n      SWAP1 \t\t\t\n      POP \t\t\t\n      JUMP \t\t\t\n    tag 265\t\t\t\n      JUMPDEST \t\t\t\n      PUSH 4E487B7100000000000000000000000000000000000000000000000000000000\t\t\t\n      PUSH 0\t\t\t\n      MSTORE \t\t\t\n      PUSH 22\t\t\t\n      PUSH 4\t\t\t\n      MSTORE \t\t\t\n      PUSH 24\t\t\t\n      PUSH 0\t\t\t\n      REVERT \t\t\t\n    tag 113\t\t\t\n      JUMPDEST \t\t\t\n      PUSH 0\t\t\t\n      PUSH 2\t\t\t\n      DUP3 \t\t\t\n      DIV \t\t\t\n      SWAP1 \t\t\t\n      POP \t\t\t\n      PUSH 1\t\t\t\n      DUP3 \t\t\t\n      AND \t\t\t\n      DUP1 \t\t\t\n      PUSH [tag] 366\t\t\t\n      JUMPI \t\t\t\n      PUSH 7F\t\t\t\n      DUP3 \t\t\t\n      AND \t\t\t\n      SWAP2 \t\t\t\n      POP \t\t\t\n    tag 366\t\t\t\n      JUMPDEST \t\t\t\n      PUSH 20\t\t\t\n      DUP3 \t\t\t\n      LT \t\t\t\n      DUP2 \t\t\t\n      SUB \t\t\t\n      PUSH [tag] 367\t\t\t\n      JUMPI \t\t\t\n      PUSH [tag] 368\t\t\t\n      PUSH [tag] 265\t\t\t\n      JUMP \t\t\t\n    tag 368\t\t\t\n      JUMPDEST \t\t\t\n    tag 367\t\t\t\n      JUMPDEST \t\t\t\n      POP \t\t\t\n      SWAP2 \t\t\t\n      SWAP1 \t\t\t\n      POP \t\t\t\n      JUMP \t\t\t\n    tag 266\t\t\t\n      JUMPDEST \t\t\t\n      PUSH [tag] 370\t\t\t\n      DUP2 \t\t\t\n      PUSH [tag] 252\t\t\t\n      JUMP \t\t\t\n    tag 370\t\t\t\n      JUMPDEST \t\t\t\n      DUP3 \t\t\t\n      MSTORE \t\t\t\n      POP \t\t\t\n      POP \t\t\t\n      JUMP \t\t\t\n    tag 184\t\t\t\n      JUMPDEST \t\t\t\n      PUSH 0\t\t\t\n      PUSH 60\t\t\t\n      DUP3 \t\t\t\n      ADD \t\t\t\n      SWAP1 \t\t\t\n      POP \t\t\t\n      PUSH [tag] 372\t\t\t\n      PUSH 0\t\t\t\n      DUP4 \t\t\t\n      ADD \t\t\t\n      DUP7 \t\t\t\n      PUSH [tag] 266\t\t\t\n      JUMP \t\t\t\n    tag 372\t\t\t\n      JUMPDEST \t\t\t\n      PUSH [tag] 373\t\t\t\n      PUSH 20\t\t\t\n      DUP4 \t\t\t\n      ADD \t\t\t\n      DUP6 \t\t\t\n      PUSH [tag] 258\t\t\t\n      JUMP \t\t\t\n    tag 373\t\t\t\n      JUMPDEST \t\t\t\n      PUSH [tag] 374\t\t\t\n      PUSH 40\t\t\t\n      DUP4 \t\t\t\n      ADD \t\t\t\n      DUP5 \t\t\t\n      PUSH [tag] 258\t\t\t\n      JUMP \t\t\t\n    tag 374\t\t\t\n      JUMPDEST \t\t\t\n      SWAP5 \t\t\t\n      SWAP4 \t\t\t\n      POP \t\t\t\n      POP \t\t\t\n      POP \t\t\t\n      POP \t\t\t\n      JUMP \t\t\t\n    tag 189\t\t\t\n      JUMPDEST \t\t\t\n      PUSH 0\t\t\t\n      PUSH 20\t\t\t\n      DUP3 \t\t\t\n      ADD \t\t\t\n      SWAP1 \t\t\t\n      POP \t\t\t\n      PUSH [tag] 376\t\t\t\n      PUSH 0\t\t\t\n      DUP4 \t\t\t\n      ADD \t\t\t\n      DUP5 \t\t\t\n      PUSH [tag] 266\t\t\t\n      JUMP \t\t\t\n    tag 376\t\t\t\n      JUMPDEST \t\t\t\n      SWAP3 \t\t\t\n      SWAP2 \t\t\t\n      POP \t\t\t\n      POP \t\t\t\n      JUMP \t\t\t\n    tag 267\t\t\t\n      JUMPDEST \t\t\t\n      PUSH 4E487B7100000000000000000000000000000000000000000000000000000000\t\t\t\n      PUSH 0\t\t\t\n      MSTORE \t\t\t\n      PUSH 11\t\t\t\n      PUSH 4\t\t\t\n      MSTORE \t\t\t\n      PUSH 24\t\t\t\n      PUSH 0\t\t\t\n      REVERT \t\t\t\n    tag 226\t\t\t\n      JUMPDEST \t\t\t\n      PUSH 0\t\t\t\n      PUSH [tag] 379\t\t\t\n      DUP3 \t\t\t\n      PUSH [tag] 255\t\t\t\n      JUMP \t\t\t\n    tag 379\t\t\t\n      JUMPDEST \t\t\t\n      SWAP2 \t\t\t\n      POP \t\t\t\n      PUSH [tag] 380\t\t\t\n      DUP4 \t\t\t\n      PUSH [tag] 255\t\t\t\n      JUMP \t\t\t\n    tag 380\t\t\t\n      JUMPDEST \t\t\t\n      SWAP3 \t\t\t\n      POP \t\t\t\n      DUP3 \t\t\t\n      DUP3 \t\t\t\n      ADD \t\t\t\n      SWAP1 \t\t\t\n      POP \t\t\t\n      DUP1 \t\t\t\n      DUP3 \t\t\t\n      GT \t\t\t\n      ISZERO \t\t\t\n      PUSH [tag] 381\t\t\t\n      JUMPI \t\t\t\n      PUSH [tag] 382\t\t\t\n      PUSH [tag] 267\t\t\t\n      JUMP \t\t\t\n    tag 382\t\t\t\n      JUMPDEST \t\t\t\n    tag 381\t\t\t\n      JUMPDEST \t\t\t\n      SWAP3 \t\t\t\n      SWAP2 \t\t\t\n      POP \t\t\t\n      POP \t\t\t\n      JUMP \t\t\t\n    tag 237\t\t\t\n      JUMPDEST \t\t\t\n      PUSH 0\t\t\t\n      PUSH 40\t\t\t\n      DUP3 \t\t\t\n      ADD \t\t\t\n      SWAP1 \t\t\t\n      POP \t\t\t\n      PUSH [tag] 384\t\t\t\n      PUSH 0\t\t\t\n      DUP4 \t\t\t\n      ADD \t\t\t\n      DUP6 \t\t\t\n      PUSH [tag] 266\t\t\t\n      JUMP \t\t\t\n    tag 384\t\t\t\n      JUMPDEST \t\t\t\n      PUSH [tag] 385\t\t\t\n      PUSH 20\t\t\t\n      DUP4 \t\t\t\n      ADD \t\t\t\n      DUP5 \t\t\t\n      PUSH [tag] 262\t\t\t\n      JUMP \t\t\t\n    tag 385\t\t\t\n      JUMPDEST \t\t\t\n      SWAP4 \t\t\t\n      SWAP3 \t\t\t\n      POP \t\t\t\n      POP \t\t\t\n      POP \t\t\t\n      JUMP \t\t\t\n    .data\n"
}