{
	"compilerInput": "{\"language\":\"Solidity\",\"sources\":{\"contracts/1_Storage.sol\":{\"content\":\"\\ncontract Storage {\\n\\n    address fluxProcessorAddr;\\n    uint256 a;\\n    uint256 b;\\n    uint256 sum;\\n    bool processorUsed;\\n\\n    constructor(address _fluxProcessorAddr, uint256 _a, uint256 _b) {\\n        fluxProcessorAddr = _fluxProcessorAddr;\\n        a = _a;\\n        b = _b;\\n    }\\n\\n    function computeSum() public {\\n        (bool success, bytes memory data) = fluxProcessorAddr.delegatecall(abi.encodeWithSignature(\\\"computeSum()\\\"));\\n        require(success, \\\"delegatecall failed\\\");\\n    }\\n\\n    function getA() public view returns (uint256) {\\n        return a;\\n    }\\n\\n    function getB() public view returns (uint256) {\\n        return a;\\n    }\\n\\n    function getSum() public view returns (uint256) {\\n        return sum;\\n    }\\n}\"}},\"settings\":{\"optimizer\":{\"enabled\":false,\"runs\":200},\"outputSelection\":{\"*\":{\"\":[\"ast\"],\"*\":[\"abi\",\"metadata\",\"devdoc\",\"userdoc\",\"storageLayout\",\"evm.legacyAssembly\",\"evm.bytecode\",\"evm.deployedBytecode\",\"evm.methodIdentifiers\",\"evm.gasEstimates\",\"evm.assembly\"]}},\"remappings\":[]}}",
	"name": "Storage",
	"bytecode": {
		"linkReferences": {},
		"object": "608060405234801561000f575f80fd5b506040516104d63803806104d683398181016040528101906100319190610117565b825f806101000a81548173ffffffffffffffffffffffffffffffffffffffff021916908373ffffffffffffffffffffffffffffffffffffffff1602179055508160018190555080600281905550505050610167565b5f80fd5b5f73ffffffffffffffffffffffffffffffffffffffff82169050919050565b5f6100b38261008a565b9050919050565b6100c3816100a9565b81146100cd575f80fd5b50565b5f815190506100de816100ba565b92915050565b5f819050919050565b6100f6816100e4565b8114610100575f80fd5b50565b5f81519050610111816100ed565b92915050565b5f805f6060848603121561012e5761012d610086565b5b5f61013b868287016100d0565b935050602061014c86828701610103565b925050604061015d86828701610103565b9150509250925092565b610362806101745f395ff3fe608060405234801561000f575f80fd5b506004361061004a575f3560e01c8063569c5f6d1461004e578063a1c519151461006c578063c2a970d11461008a578063d46300fd14610094575b5f80fd5b6100566100b2565b6040516100639190610233565b60405180910390f35b6100746100bb565b6040516100819190610233565b60405180910390f35b6100926100c4565b005b61009c610212565b6040516100a99190610233565b60405180910390f35b5f600354905090565b5f600154905090565b5f805f8054906101000a900473ffffffffffffffffffffffffffffffffffffffff1673ffffffffffffffffffffffffffffffffffffffff166040516024016040516020818303038152906040527fc2a970d1000000000000000000000000000000000000000000000000000000007bffffffffffffffffffffffffffffffffffffffffffffffffffffffff19166020820180517bffffffffffffffffffffffffffffffffffffffffffffffffffffffff838183161783525050505060405161018c919061029e565b5f60405180830381855af49150503d805f81146101c4576040519150601f19603f3d011682016040523d82523d5f602084013e6101c9565b606091505b50915091508161020e576040517f08c379a00000000000000000000000000000000000000000000000000000000081526004016102059061030e565b60405180910390fd5b5050565b5f600154905090565b5f819050919050565b61022d8161021b565b82525050565b5f6020820190506102465f830184610224565b92915050565b5f81519050919050565b5f81905092915050565b8281835e5f83830152505050565b5f6102788261024c565b6102828185610256565b9350610292818560208601610260565b80840191505092915050565b5f6102a9828461026e565b915081905092915050565b5f82825260208201905092915050565b7f64656c656761746563616c6c206661696c6564000000000000000000000000005f82015250565b5f6102f86013836102b4565b9150610303826102c4565b602082019050919050565b5f6020820190508181035f830152610325816102ec565b905091905056fea2646970667358221220d6c8889b62dfb752170451cb5994eddc6f1a596d1a64f7f914e8f61510d3fcfe64736f6c634300081a0033",
		"opcodes": "PUSH1 0x80 PUSH1 0x40 MSTORE CALLVALUE DUP1 ISZERO PUSH2 0xF JUMPI PUSH0 DUP1 REVERT JUMPDEST POP PUSH1 0x40 MLOAD PUSH2 0x4D6 CODESIZE SUB DUP1 PUSH2 0x4D6 DUP4 CODECOPY DUP2 DUP2 ADD PUSH1 0x40 MSTORE DUP2 ADD SWAP1 PUSH2 0x31 SWAP2 SWAP1 PUSH2 0x117 JUMP JUMPDEST DUP3 PUSH0 DUP1 PUSH2 0x100 EXP DUP2 SLOAD DUP2 PUSH20 0xFFFFFFFFFFFFFFFFFFFFFFFFFFFFFFFFFFFFFFFF MUL NOT AND SWAP1 DUP4 PUSH20 0xFFFFFFFFFFFFFFFFFFFFFFFFFFFFFFFFFFFFFFFF AND MUL OR SWAP1 SSTORE POP DUP2 PUSH1 0x1 DUP2 SWAP1 SSTORE POP DUP1 PUSH1 0x2 DUP2 SWAP1 SSTORE POP POP POP POP PUSH2 0x167 JUMP JUMPDEST PUSH0 DUP1 REVERT JUMPDEST PUSH0 PUSH20 0xFFFFFFFFFFFFFFFFFFFFFFFFFFFFFFFFFFFFFFFF DUP3 AND SWAP1 POP SWAP2 SWAP1 POP JUMP JUMPDEST PUSH0 PUSH2 0xB3 DUP3 PUSH2 0x8A JUMP JUMPDEST SWAP1 POP SWAP2 SWAP1 POP JUMP JUMPDEST PUSH2 0xC3 DUP2 PUSH2 0xA9 JUMP JUMPDEST DUP2 EQ PUSH2 0xCD JUMPI PUSH0 DUP1 REVERT JUMPDEST POP JUMP JUMPDEST PUSH0 DUP2 MLOAD SWAP1 POP PUSH2 0xDE DUP2 PUSH2 0xBA JUMP JUMPDEST SWAP3 SWAP2 POP POP JUMP JUMPDEST PUSH0 DUP2 SWAP1 POP SWAP2 SWAP1 POP JUMP JUMPDEST PUSH2 0xF6 DUP2 PUSH2 0xE4 JUMP JUMPDEST DUP2 EQ PUSH2 0x100 JUMPI PUSH0 DUP1 REVERT JUMPDEST POP JUMP JUMPDEST PUSH0 DUP2 MLOAD SWAP1 POP PUSH2 0x111 DUP2 PUSH2 0xED JUMP JUMPDEST SWAP3 SWAP2 POP POP JUMP JUMPDEST PUSH0 DUP1 PUSH0 PUSH1 0x60 DUP5 DUP7 SUB SLT ISZERO PUSH2 0x12E JUMPI PUSH2 0x12D PUSH2 0x86 JUMP JUMPDEST JUMPDEST PUSH0 PUSH2 0x13B DUP7 DUP3 DUP8 ADD PUSH2 0xD0 JUMP JUMPDEST SWAP4 POP POP PUSH1 0x20 PUSH2 0x14C DUP7 DUP3 DUP8 ADD PUSH2 0x103 JUMP JUMPDEST SWAP3 POP POP PUSH1 0x40 PUSH2 0x15D DUP7 DUP3 DUP8 ADD PUSH2 0x103 JUMP JUMPDEST SWAP2 POP POP SWAP3 POP SWAP3 POP SWAP3 JUMP JUMPDEST PUSH2 0x362 DUP1 PUSH2 0x174 PUSH0 CODECOPY PUSH0 RETURN INVALID PUSH1 0x80 PUSH1 0x40 MSTORE CALLVALUE DUP1 ISZERO PUSH2 0xF JUMPI PUSH0 DUP1 REVERT JUMPDEST POP PUSH1 0x4 CALLDATASIZE LT PUSH2 0x4A JUMPI PUSH0 CALLDATALOAD PUSH1 0xE0 SHR DUP1 PUSH4 0x569C5F6D EQ PUSH2 0x4E JUMPI DUP1 PUSH4 0xA1C51915 EQ PUSH2 0x6C JUMPI DUP1 PUSH4 0xC2A970D1 EQ PUSH2 0x8A JUMPI DUP1 PUSH4 0xD46300FD EQ PUSH2 0x94 JUMPI JUMPDEST PUSH0 DUP1 REVERT JUMPDEST PUSH2 0x56 PUSH2 0xB2 JUMP JUMPDEST PUSH1 0x40 MLOAD PUSH2 0x63 SWAP2 SWAP1 PUSH2 0x233 JUMP JUMPDEST PUSH1 0x40 MLOAD DUP1 SWAP2 SUB SWAP1 RETURN JUMPDEST PUSH2 0x74 PUSH2 0xBB JUMP JUMPDEST PUSH1 0x40 MLOAD PUSH2 0x81 SWAP2 SWAP1 PUSH2 0x233 JUMP JUMPDEST PUSH1 0x40 MLOAD DUP1 SWAP2 SUB SWAP1 RETURN JUMPDEST PUSH2 0x92 PUSH2 0xC4 JUMP JUMPDEST STOP JUMPDEST PUSH2 0x9C PUSH2 0x212 JUMP JUMPDEST PUSH1 0x40 MLOAD PUSH2 0xA9 SWAP2 SWAP1 PUSH2 0x233 JUMP JUMPDEST PUSH1 0x40 MLOAD DUP1 SWAP2 SUB SWAP1 RETURN JUMPDEST PUSH0 PUSH1 0x3 SLOAD SWAP1 POP SWAP1 JUMP JUMPDEST PUSH0 PUSH1 0x1 SLOAD SWAP1 POP SWAP1 JUMP JUMPDEST PUSH0 DUP1 PUSH0 DUP1 SLOAD SWAP1 PUSH2 0x100 EXP SWAP1 DIV PUSH20 0xFFFFFFFFFFFFFFFFFFFFFFFFFFFFFFFFFFFFFFFF AND PUSH20 0xFFFFFFFFFFFFFFFFFFFFFFFFFFFFFFFFFFFFFFFF AND PUSH1 0x40 MLOAD PUSH1 0x24 ADD PUSH1 0x40 MLOAD PUSH1 0x20 DUP2 DUP4 SUB SUB DUP2 MSTORE SWAP1 PUSH1 0x40 MSTORE PUSH32 0xC2A970D100000000000000000000000000000000000000000000000000000000 PUSH28 0xFFFFFFFFFFFFFFFFFFFFFFFFFFFFFFFFFFFFFFFFFFFFFFFFFFFFFFFF NOT AND PUSH1 0x20 DUP3 ADD DUP1 MLOAD PUSH28 0xFFFFFFFFFFFFFFFFFFFFFFFFFFFFFFFFFFFFFFFFFFFFFFFFFFFFFFFF DUP4 DUP2 DUP4 AND OR DUP4 MSTORE POP POP POP POP PUSH1 0x40 MLOAD PUSH2 0x18C SWAP2 SWAP1 PUSH2 0x29E JUMP JUMPDEST PUSH0 PUSH1 0x40 MLOAD DUP1 DUP4 SUB DUP2 DUP6 GAS DELEGATECALL SWAP2 POP POP RETURNDATASIZE DUP1 PUSH0 DUP2 EQ PUSH2 0x1C4 JUMPI PUSH1 0x40 MLOAD SWAP2 POP PUSH1 0x1F NOT PUSH1 0x3F RETURNDATASIZE ADD AND DUP3 ADD PUSH1 0x40 MSTORE RETURNDATASIZE DUP3 MSTORE RETURNDATASIZE PUSH0 PUSH1 0x20 DUP5 ADD RETURNDATACOPY PUSH2 0x1C9 JUMP JUMPDEST PUSH1 0x60 SWAP2 POP JUMPDEST POP SWAP2 POP SWAP2 POP DUP2 PUSH2 0x20E JUMPI PUSH1 0x40 MLOAD PUSH32 0x8C379A000000000000000000000000000000000000000000000000000000000 DUP2 MSTORE PUSH1 0x4 ADD PUSH2 0x205 SWAP1 PUSH2 0x30E JUMP JUMPDEST PUSH1 0x40 MLOAD DUP1 SWAP2 SUB SWAP1 REVERT JUMPDEST POP POP JUMP JUMPDEST PUSH0 PUSH1 0x1 SLOAD SWAP1 POP SWAP1 JUMP JUMPDEST PUSH0 DUP2 SWAP1 POP SWAP2 SWAP1 POP JUMP JUMPDEST PUSH2 0x22D DUP2 PUSH2 0x21B JUMP JUMPDEST DUP3 MSTORE POP POP JUMP JUMPDEST PUSH0 PUSH1 0x20 DUP3 ADD SWAP1 POP PUSH2 0x246 PUSH0 DUP4 ADD DUP5 PUSH2 0x224 JUMP JUMPDEST SWAP3 SWAP2 POP POP JUMP JUMPDEST PUSH0 DUP2 MLOAD SWAP1 POP SWAP2 SWAP1 POP JUMP JUMPDEST PUSH0 DUP2 SWAP1 POP SWAP3 SWAP2 POP POP JUMP JUMPDEST DUP3 DUP2 DUP4 MCOPY PUSH0 DUP4 DUP4 ADD MSTORE POP POP POP JUMP JUMPDEST PUSH0 PUSH2 0x278 DUP3 PUSH2 0x24C JUMP JUMPDEST PUSH2 0x282 DUP2 DUP6 PUSH2 0x256 JUMP JUMPDEST SWAP4 POP PUSH2 0x292 DUP2 DUP6 PUSH1 0x20 DUP7 ADD PUSH2 0x260 JUMP JUMPDEST DUP1 DUP5 ADD SWAP2 POP POP SWAP3 SWAP2 POP POP JUMP JUMPDEST PUSH0 PUSH2 0x2A9 DUP3 DUP5 PUSH2 0x26E JUMP JUMPDEST SWAP2 POP DUP2 SWAP1 POP SWAP3 SWAP2 POP POP JUMP JUMPDEST PUSH0 DUP3 DUP3 MSTORE PUSH1 0x20 DUP3 ADD SWAP1 POP SWAP3 SWAP2 POP POP JUMP JUMPDEST PUSH32 0x64656C656761746563616C6C206661696C656400000000000000000000000000 PUSH0 DUP3 ADD MSTORE POP JUMP JUMPDEST PUSH0 PUSH2 0x2F8 PUSH1 0x13 DUP4 PUSH2 0x2B4 JUMP JUMPDEST SWAP2 POP PUSH2 0x303 DUP3 PUSH2 0x2C4 JUMP JUMPDEST PUSH1 0x20 DUP3 ADD SWAP1 POP SWAP2 SWAP1 POP JUMP JUMPDEST PUSH0 PUSH1 0x20 DUP3 ADD SWAP1 POP DUP2 DUP2 SUB PUSH0 DUP4 ADD MSTORE PUSH2 0x325 DUP2 PUSH2 0x2EC JUMP JUMPDEST SWAP1 POP SWAP2 SWAP1 POP JUMP INVALID LOG2 PUSH5 0x6970667358 0x22 SLT KECCAK256 0xD6 0xC8 DUP9 SWAP12 PUSH3 0xDFB752 OR DIV MLOAD 0xCB MSIZE SWAP5 0xED 0xDC PUSH16 0x1A596D1A64F7F914E8F61510D3FCFE64 PUSH20 0x6F6C634300081A00330000000000000000000000 "
	},
	"abi": [
		{
			"inputs": [
				{
					"internalType": "address",
					"name": "_fluxProcessorAddr",
					"type": "address"
				},
				{
					"internalType": "uint256",
					"name": "_a",
					"type": "uint256"
				},
				{
					"internalType": "uint256",
					"name": "_b",
					"type": "uint256"
				}
			],
			"stateMutability": "nonpayable",
			"type": "constructor"
		},
		{
			"inputs": [],
			"name": "computeSum",
			"outputs": [],
			"stateMutability": "nonpayable",
			"type": "function"
		},
		{
			"inputs": [],
			"name": "getA",
			"outputs": [
				{
					"internalType": "uint256",
					"name": "",
					"type": "uint256"
				}
			],
			"stateMutability": "view",
			"type": "function"
		},
		{
			"inputs": [],
			"name": "getB",
			"outputs": [
				{
					"internalType": "uint256",
					"name": "",
					"type": "uint256"
				}
			],
			"stateMutability": "view",
			"type": "function"
		},
		{
			"inputs": [],
			"name": "getSum",
			"outputs": [
				{
					"internalType": "uint256",
					"name": "",
					"type": "uint256"
				}
			],
			"stateMutability": "view",
			"type": "function"
		}
	],
	"storageLayout": {
		"storage": [
			{
				"astId": 2,
				"contract": "contracts/1_Storage.sol:Storage",
				"label": "fluxProcessorAddr",
				"offset": 0,
				"slot": "0",
				"type": "t_address"
			},
			{
				"astId": 4,
				"contract": "contracts/1_Storage.sol:Storage",
				"label": "a",
				"offset": 0,
				"slot": "1",
				"type": "t_uint256"
			},
			{
				"astId": 6,
				"contract": "contracts/1_Storage.sol:Storage",
				"label": "b",
				"offset": 0,
				"slot": "2",
				"type": "t_uint256"
			},
			{
				"astId": 8,
				"contract": "contracts/1_Storage.sol:Storage",
				"label": "sum",
				"offset": 0,
				"slot": "3",
				"type": "t_uint256"
			},
			{
				"astId": 10,
				"contract": "contracts/1_Storage.sol:Storage",
				"label": "processorUsed",
				"offset": 0,
				"slot": "4",
				"type": "t_bool"
			}
		],
		"types": {
			"t_address": {
				"encoding": "inplace",
				"label": "address",
				"numberOfBytes": "20"
			},
			"t_bool": {
				"encoding": "inplace",
				"label": "bool",
				"numberOfBytes": "1"
			},
			"t_uint256": {
				"encoding": "inplace",
				"label": "uint256",
				"numberOfBytes": "32"
			}
		}
	},
	"web3Deploy": "var _fluxProcessorAddr = /* var of type address here */ ;\nvar _a = /* var of type uint256 here */ ;\nvar _b = /* var of type uint256 here */ ;\nvar storageContract = new web3.eth.Contract([{\"inputs\":[{\"internalType\":\"address\",\"name\":\"_fluxProcessorAddr\",\"type\":\"address\"},{\"internalType\":\"uint256\",\"name\":\"_a\",\"type\":\"uint256\"},{\"internalType\":\"uint256\",\"name\":\"_b\",\"type\":\"uint256\"}],\"stateMutability\":\"nonpayable\",\"type\":\"constructor\"},{\"inputs\":[],\"name\":\"computeSum\",\"outputs\":[],\"stateMutability\":\"nonpayable\",\"type\":\"function\"},{\"inputs\":[],\"name\":\"getA\",\"outputs\":[{\"internalType\":\"uint256\",\"name\":\"\",\"type\":\"uint256\"}],\"stateMutability\":\"view\",\"type\":\"function\"},{\"inputs\":[],\"name\":\"getB\",\"outputs\":[{\"internalType\":\"uint256\",\"name\":\"\",\"type\":\"uint256\"}],\"stateMutability\":\"view\",\"type\":\"function\"},{\"inputs\":[],\"name\":\"getSum\",\"outputs\":[{\"internalType\":\"uint256\",\"name\":\"\",\"type\":\"uint256\"}],\"stateMutability\":\"view\",\"type\":\"function\"}]);\nvar storage = storageContract.deploy({\n     data: '0x608060405234801561000f575f80fd5b506040516104d63803806104d683398181016040528101906100319190610117565b825f806101000a81548173ffffffffffffffffffffffffffffffffffffffff021916908373ffffffffffffffffffffffffffffffffffffffff1602179055508160018190555080600281905550505050610167565b5f80fd5b5f73ffffffffffffffffffffffffffffffffffffffff82169050919050565b5f6100b38261008a565b9050919050565b6100c3816100a9565b81146100cd575f80fd5b50565b5f815190506100de816100ba565b92915050565b5f819050919050565b6100f6816100e4565b8114610100575f80fd5b50565b5f81519050610111816100ed565b92915050565b5f805f6060848603121561012e5761012d610086565b5b5f61013b868287016100d0565b935050602061014c86828701610103565b925050604061015d86828701610103565b9150509250925092565b610362806101745f395ff3fe608060405234801561000f575f80fd5b506004361061004a575f3560e01c8063569c5f6d1461004e578063a1c519151461006c578063c2a970d11461008a578063d46300fd14610094575b5f80fd5b6100566100b2565b6040516100639190610233565b60405180910390f35b6100746100bb565b6040516100819190610233565b60405180910390f35b6100926100c4565b005b61009c610212565b6040516100a99190610233565b60405180910390f35b5f600354905090565b5f600154905090565b5f805f8054906101000a900473ffffffffffffffffffffffffffffffffffffffff1673ffffffffffffffffffffffffffffffffffffffff166040516024016040516020818303038152906040527fc2a970d1000000000000000000000000000000000000000000000000000000007bffffffffffffffffffffffffffffffffffffffffffffffffffffffff19166020820180517bffffffffffffffffffffffffffffffffffffffffffffffffffffffff838183161783525050505060405161018c919061029e565b5f60405180830381855af49150503d805f81146101c4576040519150601f19603f3d011682016040523d82523d5f602084013e6101c9565b606091505b50915091508161020e576040517f08c379a00000000000000000000000000000000000000000000000000000000081526004016102059061030e565b60405180910390fd5b5050565b5f600154905090565b5f819050919050565b61022d8161021b565b82525050565b5f6020820190506102465f830184610224565b92915050565b5f81519050919050565b5f81905092915050565b8281835e5f83830152505050565b5f6102788261024c565b6102828185610256565b9350610292818560208601610260565b80840191505092915050565b5f6102a9828461026e565b915081905092915050565b5f82825260208201905092915050565b7f64656c656761746563616c6c206661696c6564000000000000000000000000005f82015250565b5f6102f86013836102b4565b9150610303826102c4565b602082019050919050565b5f6020820190508181035f830152610325816102ec565b905091905056fea2646970667358221220d6c8889b62dfb752170451cb5994eddc6f1a596d1a64f7f914e8f61510d3fcfe64736f6c634300081a0033', \n     arguments: [\n          _fluxProcessorAddr,\n          _a,\n          _b,\n     ]\n}).send({\n     from: web3.eth.accounts[0], \n     gas: '4700000'\n   }, function (e, contract){\n    console.log(e, contract);\n    if (typeof contract.address !== 'undefined') {\n         console.log('Contract mined! address: ' + contract.address + ' transactionHash: ' + contract.transactionHash);\n    }\n })",
	"functionHashes": {
		"c2a970d1": "computeSum()",
		"d46300fd": "getA()",
		"a1c51915": "getB()",
		"569c5f6d": "getSum()"
	},
	"gasEstimates": {
		"Creation": {
			"codeDepositCost": "173200",
			"executionCost": "infinite",
			"totalCost": "infinite"
		},
		"External": {
			"computeSum()": "infinite",
			"getA()": "2476",
			"getB()": "2432",
			"getSum()": "2410"
		}
	},
	"devdoc": {
		"kind": "dev",
		"methods": {},
		"version": 1
	},
	"userdoc": {
		"kind": "user",
		"methods": {},
		"version": 1
	},
	"Runtime Bytecode": {
		"immutableReferences": {},
		"linkReferences": {},
		"object": "608060405234801561000f575f80fd5b506004361061004a575f3560e01c8063569c5f6d1461004e578063a1c519151461006c578063c2a970d11461008a578063d46300fd14610094575b5f80fd5b6100566100b2565b6040516100639190610233565b60405180910390f35b6100746100bb565b6040516100819190610233565b60405180910390f35b6100926100c4565b005b61009c610212565b6040516100a99190610233565b60405180910390f35b5f600354905090565b5f600154905090565b5f805f8054906101000a900473ffffffffffffffffffffffffffffffffffffffff1673ffffffffffffffffffffffffffffffffffffffff166040516024016040516020818303038152906040527fc2a970d1000000000000000000000000000000000000000000000000000000007bffffffffffffffffffffffffffffffffffffffffffffffffffffffff19166020820180517bffffffffffffffffffffffffffffffffffffffffffffffffffffffff838183161783525050505060405161018c919061029e565b5f60405180830381855af49150503d805f81146101c4576040519150601f19603f3d011682016040523d82523d5f602084013e6101c9565b606091505b50915091508161020e576040517f08c379a00000000000000000000000000000000000000000000000000000000081526004016102059061030e565b60405180910390fd5b5050565b5f600154905090565b5f819050919050565b61022d8161021b565b82525050565b5f6020820190506102465f830184610224565b92915050565b5f81519050919050565b5f81905092915050565b8281835e5f83830152505050565b5f6102788261024c565b6102828185610256565b9350610292818560208601610260565b80840191505092915050565b5f6102a9828461026e565b915081905092915050565b5f82825260208201905092915050565b7f64656c656761746563616c6c206661696c6564000000000000000000000000005f82015250565b5f6102f86013836102b4565b9150610303826102c4565b602082019050919050565b5f6020820190508181035f830152610325816102ec565b905091905056fea2646970667358221220d6c8889b62dfb752170451cb5994eddc6f1a596d1a64f7f914e8f61510d3fcfe64736f6c634300081a0033",
		"opcodes": "PUSH1 0x80 PUSH1 0x40 MSTORE CALLVALUE DUP1 ISZERO PUSH2 0xF JUMPI PUSH0 DUP1 REVERT JUMPDEST POP PUSH1 0x4 CALLDATASIZE LT PUSH2 0x4A JUMPI PUSH0 CALLDATALOAD PUSH1 0xE0 SHR DUP1 PUSH4 0x569C5F6D EQ PUSH2 0x4E JUMPI DUP1 PUSH4 0xA1C51915 EQ PUSH2 0x6C JUMPI DUP1 PUSH4 0xC2A970D1 EQ PUSH2 0x8A JUMPI DUP1 PUSH4 0xD46300FD EQ PUSH2 0x94 JUMPI JUMPDEST PUSH0 DUP1 REVERT JUMPDEST PUSH2 0x56 PUSH2 0xB2 JUMP JUMPDEST PUSH1 0x40 MLOAD PUSH2 0x63 SWAP2 SWAP1 PUSH2 0x233 JUMP JUMPDEST PUSH1 0x40 MLOAD DUP1 SWAP2 SUB SWAP1 RETURN JUMPDEST PUSH2 0x74 PUSH2 0xBB JUMP JUMPDEST PUSH1 0x40 MLOAD PUSH2 0x81 SWAP2 SWAP1 PUSH2 0x233 JUMP JUMPDEST PUSH1 0x40 MLOAD DUP1 SWAP2 SUB SWAP1 RETURN JUMPDEST PUSH2 0x92 PUSH2 0xC4 JUMP JUMPDEST STOP JUMPDEST PUSH2 0x9C PUSH2 0x212 JUMP JUMPDEST PUSH1 0x40 MLOAD PUSH2 0xA9 SWAP2 SWAP1 PUSH2 0x233 JUMP JUMPDEST PUSH1 0x40 MLOAD DUP1 SWAP2 SUB SWAP1 RETURN JUMPDEST PUSH0 PUSH1 0x3 SLOAD SWAP1 POP SWAP1 JUMP JUMPDEST PUSH0 PUSH1 0x1 SLOAD SWAP1 POP SWAP1 JUMP JUMPDEST PUSH0 DUP1 PUSH0 DUP1 SLOAD SWAP1 PUSH2 0x100 EXP SWAP1 DIV PUSH20 0xFFFFFFFFFFFFFFFFFFFFFFFFFFFFFFFFFFFFFFFF AND PUSH20 0xFFFFFFFFFFFFFFFFFFFFFFFFFFFFFFFFFFFFFFFF AND PUSH1 0x40 MLOAD PUSH1 0x24 ADD PUSH1 0x40 MLOAD PUSH1 0x20 DUP2 DUP4 SUB SUB DUP2 MSTORE SWAP1 PUSH1 0x40 MSTORE PUSH32 0xC2A970D100000000000000000000000000000000000000000000000000000000 PUSH28 0xFFFFFFFFFFFFFFFFFFFFFFFFFFFFFFFFFFFFFFFFFFFFFFFFFFFFFFFF NOT AND PUSH1 0x20 DUP3 ADD DUP1 MLOAD PUSH28 0xFFFFFFFFFFFFFFFFFFFFFFFFFFFFFFFFFFFFFFFFFFFFFFFFFFFFFFFF DUP4 DUP2 DUP4 AND OR DUP4 MSTORE POP POP POP POP PUSH1 0x40 MLOAD PUSH2 0x18C SWAP2 SWAP1 PUSH2 0x29E JUMP JUMPDEST PUSH0 PUSH1 0x40 MLOAD DUP1 DUP4 SUB DUP2 DUP6 GAS DELEGATECALL SWAP2 POP POP RETURNDATASIZE DUP1 PUSH0 DUP2 EQ PUSH2 0x1C4 JUMPI PUSH1 0x40 MLOAD SWAP2 POP PUSH1 0x1F NOT PUSH1 0x3F RETURNDATASIZE ADD AND DUP3 ADD PUSH1 0x40 MSTORE RETURNDATASIZE DUP3 MSTORE RETURNDATASIZE PUSH0 PUSH1 0x20 DUP5 ADD RETURNDATACOPY PUSH2 0x1C9 JUMP JUMPDEST PUSH1 0x60 SWAP2 POP JUMPDEST POP SWAP2 POP SWAP2 POP DUP2 PUSH2 0x20E JUMPI PUSH1 0x40 MLOAD PUSH32 0x8C379A000000000000000000000000000000000000000000000000000000000 DUP2 MSTORE PUSH1 0x4 ADD PUSH2 0x205 SWAP1 PUSH2 0x30E JUMP JUMPDEST PUSH1 0x40 MLOAD DUP1 SWAP2 SUB SWAP1 REVERT JUMPDEST POP POP JUMP JUMPDEST PUSH0 PUSH1 0x1 SLOAD SWAP1 POP SWAP1 JUMP JUMPDEST PUSH0 DUP2 SWAP1 POP SWAP2 SWAP1 POP JUMP JUMPDEST PUSH2 0x22D DUP2 PUSH2 0x21B JUMP JUMPDEST DUP3 MSTORE POP POP JUMP JUMPDEST PUSH0 PUSH1 0x20 DUP3 ADD SWAP1 POP PUSH2 0x246 PUSH0 DUP4 ADD DUP5 PUSH2 0x224 JUMP JUMPDEST SWAP3 SWAP2 POP POP JUMP JUMPDEST PUSH0 DUP2 MLOAD SWAP1 POP SWAP2 SWAP1 POP JUMP JUMPDEST PUSH0 DUP2 SWAP1 POP SWAP3 SWAP2 POP POP JUMP JUMPDEST DUP3 DUP2 DUP4 MCOPY PUSH0 DUP4 DUP4 ADD MSTORE POP POP POP JUMP JUMPDEST PUSH0 PUSH2 0x278 DUP3 PUSH2 0x24C JUMP JUMPDEST PUSH2 0x282 DUP2 DUP6 PUSH2 0x256 JUMP JUMPDEST SWAP4 POP PUSH2 0x292 DUP2 DUP6 PUSH1 0x20 DUP7 ADD PUSH2 0x260 JUMP JUMPDEST DUP1 DUP5 ADD SWAP2 POP POP SWAP3 SWAP2 POP POP JUMP JUMPDEST PUSH0 PUSH2 0x2A9 DUP3 DUP5 PUSH2 0x26E JUMP JUMPDEST SWAP2 POP DUP2 SWAP1 POP SWAP3 SWAP2 POP POP JUMP JUMPDEST PUSH0 DUP3 DUP3 MSTORE PUSH1 0x20 DUP3 ADD SWAP1 POP SWAP3 SWAP2 POP POP JUMP JUMPDEST PUSH32 0x64656C656761746563616C6C206661696C656400000000000000000000000000 PUSH0 DUP3 ADD MSTORE POP JUMP JUMPDEST PUSH0 PUSH2 0x2F8 PUSH1 0x13 DUP4 PUSH2 0x2B4 JUMP JUMPDEST SWAP2 POP PUSH2 0x303 DUP3 PUSH2 0x2C4 JUMP JUMPDEST PUSH1 0x20 DUP3 ADD SWAP1 POP SWAP2 SWAP1 POP JUMP JUMPDEST PUSH0 PUSH1 0x20 DUP3 ADD SWAP1 POP DUP2 DUP2 SUB PUSH0 DUP4 ADD MSTORE PUSH2 0x325 DUP2 PUSH2 0x2EC JUMP JUMPDEST SWAP1 POP SWAP2 SWAP1 POP JUMP INVALID LOG2 PUSH5 0x6970667358 0x22 SLT KECCAK256 0xD6 0xC8 DUP9 SWAP12 PUSH3 0xDFB752 OR DIV MLOAD 0xCB MSIZE SWAP5 0xED 0xDC PUSH16 0x1A596D1A64F7F914E8F61510D3FCFE64 PUSH20 0x6F6C634300081A00330000000000000000000000 "
	},
	"Assembly": ".code\n  PUSH 80\t\t\tcontract Storage {\\n\\n    addr...\n  PUSH 40\t\t\tcontract Storage {\\n\\n    addr...\n  MSTORE \t\t\tcontract Storage {\\n\\n    addr...\n  CALLVALUE \t\t\tconstructor(address _fluxProce...\n  DUP1 \t\t\tconstructor(address _fluxProce...\n  ISZERO \t\t\tconstructor(address _fluxProce...\n  PUSH [tag] 1\t\t\tconstructor(address _fluxProce...\n  JUMPI \t\t\tconstructor(address _fluxProce...\n  PUSH 0\t\t\tconstructor(address _fluxProce...\n  DUP1 \t\t\tconstructor(address _fluxProce...\n  REVERT \t\t\tconstructor(address _fluxProce...\ntag 1\t\t\tconstructor(address _fluxProce...\n  JUMPDEST \t\t\tconstructor(address _fluxProce...\n  POP \t\t\tconstructor(address _fluxProce...\n  PUSH 40\t\t\tconstructor(address _fluxProce...\n  MLOAD \t\t\tconstructor(address _fluxProce...\n  PUSHSIZE \t\t\tconstructor(address _fluxProce...\n  CODESIZE \t\t\tconstructor(address _fluxProce...\n  SUB \t\t\tconstructor(address _fluxProce...\n  DUP1 \t\t\tconstructor(address _fluxProce...\n  PUSHSIZE \t\t\tconstructor(address _fluxProce...\n  DUP4 \t\t\tconstructor(address _fluxProce...\n  CODECOPY \t\t\tconstructor(address _fluxProce...\n  DUP2 \t\t\tconstructor(address _fluxProce...\n  DUP2 \t\t\tconstructor(address _fluxProce...\n  ADD \t\t\tconstructor(address _fluxProce...\n  PUSH 40\t\t\tconstructor(address _fluxProce...\n  MSTORE \t\t\tconstructor(address _fluxProce...\n  DUP2 \t\t\tconstructor(address _fluxProce...\n  ADD \t\t\tconstructor(address _fluxProce...\n  SWAP1 \t\t\tconstructor(address _fluxProce...\n  PUSH [tag] 2\t\t\tconstructor(address _fluxProce...\n  SWAP2 \t\t\tconstructor(address _fluxProce...\n  SWAP1 \t\t\tconstructor(address _fluxProce...\n  PUSH [tag] 3\t\t\tconstructor(address _fluxProce...\n  JUMP \t\t\tconstructor(address _fluxProce...\ntag 2\t\t\tconstructor(address _fluxProce...\n  JUMPDEST \t\t\tconstructor(address _fluxProce...\n  DUP3 \t\t\t_fluxProcessorAddr\n  PUSH 0\t\t\tfluxProcessorAddr\n  DUP1 \t\t\tfluxProcessorAddr\n  PUSH 100\t\t\tfluxProcessorAddr = _fluxProce...\n  EXP \t\t\tfluxProcessorAddr = _fluxProce...\n  DUP2 \t\t\tfluxProcessorAddr = _fluxProce...\n  SLOAD \t\t\tfluxProcessorAddr = _fluxProce...\n  DUP2 \t\t\tfluxProcessorAddr = _fluxProce...\n  PUSH FFFFFFFFFFFFFFFFFFFFFFFFFFFFFFFFFFFFFFFF\t\t\tfluxProcessorAddr = _fluxProce...\n  MUL \t\t\tfluxProcessorAddr = _fluxProce...\n  NOT \t\t\tfluxProcessorAddr = _fluxProce...\n  AND \t\t\tfluxProcessorAddr = _fluxProce...\n  SWAP1 \t\t\tfluxProcessorAddr = _fluxProce...\n  DUP4 \t\t\tfluxProcessorAddr = _fluxProce...\n  PUSH FFFFFFFFFFFFFFFFFFFFFFFFFFFFFFFFFFFFFFFF\t\t\tfluxProcessorAddr = _fluxProce...\n  AND \t\t\tfluxProcessorAddr = _fluxProce...\n  MUL \t\t\tfluxProcessorAddr = _fluxProce...\n  OR \t\t\tfluxProcessorAddr = _fluxProce...\n  SWAP1 \t\t\tfluxProcessorAddr = _fluxProce...\n  SSTORE \t\t\tfluxProcessorAddr = _fluxProce...\n  POP \t\t\tfluxProcessorAddr = _fluxProce...\n  DUP2 \t\t\t_a\n  PUSH 1\t\t\ta\n  DUP2 \t\t\ta = _a\n  SWAP1 \t\t\ta = _a\n  SSTORE \t\t\ta = _a\n  POP \t\t\ta = _a\n  DUP1 \t\t\t_b\n  PUSH 2\t\t\tb\n  DUP2 \t\t\tb = _b\n  SWAP1 \t\t\tb = _b\n  SSTORE \t\t\tb = _b\n  POP \t\t\tb = _b\n  POP \t\t\tconstructor(address _fluxProce...\n  POP \t\t\tconstructor(address _fluxProce...\n  POP \t\t\tconstructor(address _fluxProce...\n  PUSH [tag] 6\t\t\tcontract Storage {\\n\\n    addr...\n  JUMP \t\t\tcontract Storage {\\n\\n    addr...\ntag 8\t\t\tnt256 sum;\\n    bool processor...\n  JUMPDEST \t\t\tnt256 sum;\\n    bool processor...\n  PUSH 0\t\t\t \n  DUP1 \t\t\t \n  REVERT \t\t\t _b) {\\n     \ntag 10\t\t\tess, bytes memory data) = flux...\n  JUMPDEST \t\t\tess, bytes memory data) = flux...\n  PUSH 0\t\t\torAddr.\n  PUSH FFFFFFFFFFFFFFFFFFFFFFFFFFFFFFFFFFFFFFFF\t\t\ture(\"computeSum()\"));\\n       ...\n  DUP3 \t\t\thSign\n  AND \t\t\teWithSignature(\"computeSum()\")...\n  SWAP1 \t\t\tl(abi.encodeWithSignature(\"com...\n  POP \t\t\tl(abi.encodeWithSignature(\"com...\n  SWAP2 \t\t\tess, bytes memory data) = flux...\n  SWAP1 \t\t\tess, bytes memory data) = flux...\n  POP \t\t\tess, bytes memory data) = flux...\n  JUMP \t\t\tess, bytes memory data) = flux...\ntag 11\t\t\tecall failed\");\\n    }\\n\\n    ...\n  JUMPDEST \t\t\tecall failed\");\\n    }\\n\\n    ...\n  PUSH 0\t\t\tetA() p\n  PUSH [tag] 23\t\t\tnt256) {\\n        return \n  DUP3 \t\t\teturn\n  PUSH [tag] 10\t\t\tnt256) {\\n        return \n  JUMP \t\t\tnt256) {\\n        return \ntag 23\t\t\tnt256) {\\n        return \n  JUMPDEST \t\t\tnt256) {\\n        return \n  SWAP1 \t\t\treturns (uint256) {\\n        r...\n  POP \t\t\treturns (uint256) {\\n        r...\n  SWAP2 \t\t\tecall failed\");\\n    }\\n\\n    ...\n  SWAP1 \t\t\tecall failed\");\\n    }\\n\\n    ...\n  POP \t\t\tecall failed\");\\n    }\\n\\n    ...\n  JUMP \t\t\tecall failed\");\\n    }\\n\\n    ...\ntag 12\t\t\t  function getB() public view ...\n  JUMPDEST \t\t\t  function getB() public view ...\n  PUSH [tag] 25\t\t\t\\n\\n    function getSum() \n  DUP2 \t\t\tSum()\n  PUSH [tag] 11\t\t\t\\n\\n    function getSum() \n  JUMP \t\t\t\\n\\n    function getSum() \ntag 25\t\t\t\\n\\n    function getSum() \n  JUMPDEST \t\t\t\\n\\n    function getSum() \n  DUP2 \t\t\t;\\n   \n  EQ \t\t\tn a;\\n    }\\n\\n    function ge...\n  PUSH [tag] 26\t\t\t     return a;\\n    }\\n\\n    f...\n  JUMPI \t\t\t     return a;\\n    }\\n\\n    f...\n  PUSH 0\t\t\tu\n  DUP1 \t\t\tr\n  REVERT \t\t\tc view retur\ntag 26\t\t\t     return a;\\n    }\\n\\n    f...\n  JUMPDEST \t\t\t     return a;\\n    }\\n\\n    f...\n  POP \t\t\t  function getB() public view ...\n  JUMP \t\t\t  function getB() public view ...\ntag 13\t\t\t\\n        return sum;\\n    }\\n...\n  JUMPDEST \t\t\t\\n        return sum;\\n    }\\n...\n  PUSH 0\t\t\t\n  DUP2 \t\t\t\n  MLOAD \t\t\t\n  SWAP1 \t\t\t\n  POP \t\t\t\n  PUSH [tag] 28\t\t\t\n  DUP2 \t\t\t\n  PUSH [tag] 12\t\t\t\n  JUMP \t\t\t\ntag 28\t\t\t\n  JUMPDEST \t\t\t\n  SWAP3 \t\t\t\\n        return sum;\\n    }\\n...\n  SWAP2 \t\t\t\\n        return sum;\\n    }\\n...\n  POP \t\t\t\\n        return sum;\\n    }\\n...\n  POP \t\t\t\\n        return sum;\\n    }\\n...\n  JUMP \t\t\t\\n        return sum;\\n    }\\n...\ntag 14\t\t\t\n  JUMPDEST \t\t\t\n  PUSH 0\t\t\t\n  DUP2 \t\t\t\n  SWAP1 \t\t\t\n  POP \t\t\t\n  SWAP2 \t\t\t\n  SWAP1 \t\t\t\n  POP \t\t\t\n  JUMP \t\t\t\ntag 15\t\t\t\n  JUMPDEST \t\t\t\n  PUSH [tag] 31\t\t\t\n  DUP2 \t\t\t\n  PUSH [tag] 14\t\t\t\n  JUMP \t\t\t\ntag 31\t\t\t\n  JUMPDEST \t\t\t\n  DUP2 \t\t\t\n  EQ \t\t\t\n  PUSH [tag] 32\t\t\t\n  JUMPI \t\t\t\n  PUSH 0\t\t\t\n  DUP1 \t\t\t\n  REVERT \t\t\t\ntag 32\t\t\t\n  JUMPDEST \t\t\t\n  POP \t\t\t\n  JUMP \t\t\t\ntag 16\t\t\t\n  JUMPDEST \t\t\t\n  PUSH 0\t\t\t\n  DUP2 \t\t\t\n  MLOAD \t\t\t\n  SWAP1 \t\t\t\n  POP \t\t\t\n  PUSH [tag] 34\t\t\t\n  DUP2 \t\t\t\n  PUSH [tag] 15\t\t\t\n  JUMP \t\t\t\ntag 34\t\t\t\n  JUMPDEST \t\t\t\n  SWAP3 \t\t\t\n  SWAP2 \t\t\t\n  POP \t\t\t\n  POP \t\t\t\n  JUMP \t\t\t\ntag 3\t\t\t\n  JUMPDEST \t\t\t\n  PUSH 0\t\t\t\n  DUP1 \t\t\t\n  PUSH 0\t\t\t\n  PUSH 60\t\t\t\n  DUP5 \t\t\t\n  DUP7 \t\t\t\n  SUB \t\t\t\n  SLT \t\t\t\n  ISZERO \t\t\t\n  PUSH [tag] 36\t\t\t\n  JUMPI \t\t\t\n  PUSH [tag] 37\t\t\t\n  PUSH [tag] 8\t\t\t\n  JUMP \t\t\t\ntag 37\t\t\t\n  JUMPDEST \t\t\t\ntag 36\t\t\t\n  JUMPDEST \t\t\t\n  PUSH 0\t\t\t\n  PUSH [tag] 38\t\t\t\n  DUP7 \t\t\t\n  DUP3 \t\t\t\n  DUP8 \t\t\t\n  ADD \t\t\t\n  PUSH [tag] 13\t\t\t\n  JUMP \t\t\t\ntag 38\t\t\t\n  JUMPDEST \t\t\t\n  SWAP4 \t\t\t\n  POP \t\t\t\n  POP \t\t\t\n  PUSH 20\t\t\t\n  PUSH [tag] 39\t\t\t\n  DUP7 \t\t\t\n  DUP3 \t\t\t\n  DUP8 \t\t\t\n  ADD \t\t\t\n  PUSH [tag] 16\t\t\t\n  JUMP \t\t\t\ntag 39\t\t\t\n  JUMPDEST \t\t\t\n  SWAP3 \t\t\t\n  POP \t\t\t\n  POP \t\t\t\n  PUSH 40\t\t\t\n  PUSH [tag] 40\t\t\t\n  DUP7 \t\t\t\n  DUP3 \t\t\t\n  DUP8 \t\t\t\n  ADD \t\t\t\n  PUSH [tag] 16\t\t\t\n  JUMP \t\t\t\ntag 40\t\t\t\n  JUMPDEST \t\t\t\n  SWAP2 \t\t\t\n  POP \t\t\t\n  POP \t\t\t\n  SWAP3 \t\t\t\n  POP \t\t\t\n  SWAP3 \t\t\t\n  POP \t\t\t\n  SWAP3 \t\t\t\n  JUMP \t\t\t\ntag 6\t\t\tcontract Storage {\\n\\n    addr...\n  JUMPDEST \t\t\tcontract Storage {\\n\\n    addr...\n  PUSH #[$] 0000000000000000000000000000000000000000000000000000000000000000\t\t\tcontract Storage {\\n\\n    addr...\n  DUP1 \t\t\tcontract Storage {\\n\\n    addr...\n  PUSH [$] 0000000000000000000000000000000000000000000000000000000000000000\t\t\tcontract Storage {\\n\\n    addr...\n  PUSH 0\t\t\tcontract Storage {\\n\\n    addr...\n  CODECOPY \t\t\tcontract Storage {\\n\\n    addr...\n  PUSH 0\t\t\tcontract Storage {\\n\\n    addr...\n  RETURN \t\t\tcontract Storage {\\n\\n    addr...\n.data\n  0:\n    .code\n      PUSH 80\t\t\tcontract Storage {\\n\\n    addr...\n      PUSH 40\t\t\tcontract Storage {\\n\\n    addr...\n      MSTORE \t\t\tcontract Storage {\\n\\n    addr...\n      CALLVALUE \t\t\tcontract Storage {\\n\\n    addr...\n      DUP1 \t\t\tcontract Storage {\\n\\n    addr...\n      ISZERO \t\t\tcontract Storage {\\n\\n    addr...\n      PUSH [tag] 1\t\t\tcontract Storage {\\n\\n    addr...\n      JUMPI \t\t\tcontract Storage {\\n\\n    addr...\n      PUSH 0\t\t\tcontract Storage {\\n\\n    addr...\n      DUP1 \t\t\tcontract Storage {\\n\\n    addr...\n      REVERT \t\t\tcontract Storage {\\n\\n    addr...\n    tag 1\t\t\tcontract Storage {\\n\\n    addr...\n      JUMPDEST \t\t\tcontract Storage {\\n\\n    addr...\n      POP \t\t\tcontract Storage {\\n\\n    addr...\n      PUSH 4\t\t\tcontract Storage {\\n\\n    addr...\n      CALLDATASIZE \t\t\tcontract Storage {\\n\\n    addr...\n      LT \t\t\tcontract Storage {\\n\\n    addr...\n      PUSH [tag] 2\t\t\tcontract Storage {\\n\\n    addr...\n      JUMPI \t\t\tcontract Storage {\\n\\n    addr...\n      PUSH 0\t\t\tcontract Storage {\\n\\n    addr...\n      CALLDATALOAD \t\t\tcontract Storage {\\n\\n    addr...\n      PUSH E0\t\t\tcontract Storage {\\n\\n    addr...\n      SHR \t\t\tcontract Storage {\\n\\n    addr...\n      DUP1 \t\t\tcontract Storage {\\n\\n    addr...\n      PUSH 569C5F6D\t\t\tcontract Storage {\\n\\n    addr...\n      EQ \t\t\tcontract Storage {\\n\\n    addr...\n      PUSH [tag] 3\t\t\tcontract Storage {\\n\\n    addr...\n      JUMPI \t\t\tcontract Storage {\\n\\n    addr...\n      DUP1 \t\t\tcontract Storage {\\n\\n    addr...\n      PUSH A1C51915\t\t\tcontract Storage {\\n\\n    addr...\n      EQ \t\t\tcontract Storage {\\n\\n    addr...\n      PUSH [tag] 4\t\t\tcontract Storage {\\n\\n    addr...\n      JUMPI \t\t\tcontract Storage {\\n\\n    addr...\n      DUP1 \t\t\tcontract Storage {\\n\\n    addr...\n      PUSH C2A970D1\t\t\tcontract Storage {\\n\\n    addr...\n      EQ \t\t\tcontract Storage {\\n\\n    addr...\n      PUSH [tag] 5\t\t\tcontract Storage {\\n\\n    addr...\n      JUMPI \t\t\tcontract Storage {\\n\\n    addr...\n      DUP1 \t\t\tcontract Storage {\\n\\n    addr...\n      PUSH D46300FD\t\t\tcontract Storage {\\n\\n    addr...\n      EQ \t\t\tcontract Storage {\\n\\n    addr...\n      PUSH [tag] 6\t\t\tcontract Storage {\\n\\n    addr...\n      JUMPI \t\t\tcontract Storage {\\n\\n    addr...\n    tag 2\t\t\tcontract Storage {\\n\\n    addr...\n      JUMPDEST \t\t\tcontract Storage {\\n\\n    addr...\n      PUSH 0\t\t\tcontract Storage {\\n\\n    addr...\n      DUP1 \t\t\tcontract Storage {\\n\\n    addr...\n      REVERT \t\t\tcontract Storage {\\n\\n    addr...\n    tag 3\t\t\tfunction getSum() public view ...\n      JUMPDEST \t\t\tfunction getSum() public view ...\n      PUSH [tag] 7\t\t\tfunction getSum() public view ...\n      PUSH [tag] 8\t\t\tfunction getSum() public view ...\n      JUMP \t\t\tfunction getSum() public view ...\n    tag 7\t\t\tfunction getSum() public view ...\n      JUMPDEST \t\t\tfunction getSum() public view ...\n      PUSH 40\t\t\tfunction getSum() public view ...\n      MLOAD \t\t\tfunction getSum() public view ...\n      PUSH [tag] 9\t\t\tfunction getSum() public view ...\n      SWAP2 \t\t\tfunction getSum() public view ...\n      SWAP1 \t\t\tfunction getSum() public view ...\n      PUSH [tag] 10\t\t\tfunction getSum() public view ...\n      JUMP \t\t\tfunction getSum() public view ...\n    tag 9\t\t\tfunction getSum() public view ...\n      JUMPDEST \t\t\tfunction getSum() public view ...\n      PUSH 40\t\t\tfunction getSum() public view ...\n      MLOAD \t\t\tfunction getSum() public view ...\n      DUP1 \t\t\tfunction getSum() public view ...\n      SWAP2 \t\t\tfunction getSum() public view ...\n      SUB \t\t\tfunction getSum() public view ...\n      SWAP1 \t\t\tfunction getSum() public view ...\n      RETURN \t\t\tfunction getSum() public view ...\n    tag 4\t\t\tfunction getB() public view re...\n      JUMPDEST \t\t\tfunction getB() public view re...\n      PUSH [tag] 11\t\t\tfunction getB() public view re...\n      PUSH [tag] 12\t\t\tfunction getB() public view re...\n      JUMP \t\t\tfunction getB() public view re...\n    tag 11\t\t\tfunction getB() public view re...\n      JUMPDEST \t\t\tfunction getB() public view re...\n      PUSH 40\t\t\tfunction getB() public view re...\n      MLOAD \t\t\tfunction getB() public view re...\n      PUSH [tag] 13\t\t\tfunction getB() public view re...\n      SWAP2 \t\t\tfunction getB() public view re...\n      SWAP1 \t\t\tfunction getB() public view re...\n      PUSH [tag] 10\t\t\tfunction getB() public view re...\n      JUMP \t\t\tfunction getB() public view re...\n    tag 13\t\t\tfunction getB() public view re...\n      JUMPDEST \t\t\tfunction getB() public view re...\n      PUSH 40\t\t\tfunction getB() public view re...\n      MLOAD \t\t\tfunction getB() public view re...\n      DUP1 \t\t\tfunction getB() public view re...\n      SWAP2 \t\t\tfunction getB() public view re...\n      SUB \t\t\tfunction getB() public view re...\n      SWAP1 \t\t\tfunction getB() public view re...\n      RETURN \t\t\tfunction getB() public view re...\n    tag 5\t\t\tfunction computeSum() public {...\n      JUMPDEST \t\t\tfunction computeSum() public {...\n      PUSH [tag] 14\t\t\tfunction computeSum() public {...\n      PUSH [tag] 15\t\t\tfunction computeSum() public {...\n      JUMP \t\t\tfunction computeSum() public {...\n    tag 14\t\t\tfunction computeSum() public {...\n      JUMPDEST \t\t\tfunction computeSum() public {...\n      STOP \t\t\tfunction computeSum() public {...\n    tag 6\t\t\tfunction getA() public view re...\n      JUMPDEST \t\t\tfunction getA() public view re...\n      PUSH [tag] 16\t\t\tfunction getA() public view re...\n      PUSH [tag] 17\t\t\tfunction getA() public view re...\n      JUMP \t\t\tfunction getA() public view re...\n    tag 16\t\t\tfunction getA() public view re...\n      JUMPDEST \t\t\tfunction getA() public view re...\n      PUSH 40\t\t\tfunction getA() public view re...\n      MLOAD \t\t\tfunction getA() public view re...\n      PUSH [tag] 18\t\t\tfunction getA() public view re...\n      SWAP2 \t\t\tfunction getA() public view re...\n      SWAP1 \t\t\tfunction getA() public view re...\n      PUSH [tag] 10\t\t\tfunction getA() public view re...\n      JUMP \t\t\tfunction getA() public view re...\n    tag 18\t\t\tfunction getA() public view re...\n      JUMPDEST \t\t\tfunction getA() public view re...\n      PUSH 40\t\t\tfunction getA() public view re...\n      MLOAD \t\t\tfunction getA() public view re...\n      DUP1 \t\t\tfunction getA() public view re...\n      SWAP2 \t\t\tfunction getA() public view re...\n      SUB \t\t\tfunction getA() public view re...\n      SWAP1 \t\t\tfunction getA() public view re...\n      RETURN \t\t\tfunction getA() public view re...\n    tag 8\t\t\tfunction getSum() public view ...\n      JUMPDEST \t\t\tfunction getSum() public view ...\n      PUSH 0\t\t\tuint256\n      PUSH 3\t\t\tsum\n      SLOAD \t\t\tsum\n      SWAP1 \t\t\treturn sum\n      POP \t\t\treturn sum\n      SWAP1 \t\t\tfunction getSum() public view ...\n      JUMP \t\t\tfunction getSum() public view ...\n    tag 12\t\t\tfunction getB() public view re...\n      JUMPDEST \t\t\tfunction getB() public view re...\n      PUSH 0\t\t\tuint256\n      PUSH 1\t\t\ta\n      SLOAD \t\t\ta\n      SWAP1 \t\t\treturn a\n      POP \t\t\treturn a\n      SWAP1 \t\t\tfunction getB() public view re...\n      JUMP \t\t\tfunction getB() public view re...\n    tag 15\t\t\tfunction computeSum() public {...\n      JUMPDEST \t\t\tfunction computeSum() public {...\n      PUSH 0\t\t\tbool success\n      DUP1 \t\t\tbytes memory data\n      PUSH 0\t\t\tfluxProcessorAddr\n      DUP1 \t\t\tfluxProcessorAddr\n      SLOAD \t\t\tfluxProcessorAddr\n      SWAP1 \t\t\tfluxProcessorAddr\n      PUSH 100\t\t\tfluxProcessorAddr\n      EXP \t\t\tfluxProcessorAddr\n      SWAP1 \t\t\tfluxProcessorAddr\n      DIV \t\t\tfluxProcessorAddr\n      PUSH FFFFFFFFFFFFFFFFFFFFFFFFFFFFFFFFFFFFFFFF\t\t\tfluxProcessorAddr\n      AND \t\t\tfluxProcessorAddr\n      PUSH FFFFFFFFFFFFFFFFFFFFFFFFFFFFFFFFFFFFFFFF\t\t\tfluxProcessorAddr.delegatecall\n      AND \t\t\tfluxProcessorAddr.delegatecall\n      PUSH 40\t\t\tabi.encodeWithSignature(\"compu...\n      MLOAD \t\t\tabi.encodeWithSignature(\"compu...\n      PUSH 24\t\t\tabi.encodeWithSignature(\"compu...\n      ADD \t\t\tabi.encodeWithSignature(\"compu...\n      PUSH 40\t\t\tabi.encodeWithSignature(\"compu...\n      MLOAD \t\t\tabi.encodeWithSignature(\"compu...\n      PUSH 20\t\t\tabi.encodeWithSignature(\"compu...\n      DUP2 \t\t\tabi.encodeWithSignature(\"compu...\n      DUP4 \t\t\tabi.encodeWithSignature(\"compu...\n      SUB \t\t\tabi.encodeWithSignature(\"compu...\n      SUB \t\t\tabi.encodeWithSignature(\"compu...\n      DUP2 \t\t\tabi.encodeWithSignature(\"compu...\n      MSTORE \t\t\tabi.encodeWithSignature(\"compu...\n      SWAP1 \t\t\tabi.encodeWithSignature(\"compu...\n      PUSH 40\t\t\tabi.encodeWithSignature(\"compu...\n      MSTORE \t\t\tabi.encodeWithSignature(\"compu...\n      PUSH C2A970D100000000000000000000000000000000000000000000000000000000\t\t\tabi.encodeWithSignature(\"compu...\n      PUSH FFFFFFFFFFFFFFFFFFFFFFFFFFFFFFFFFFFFFFFFFFFFFFFFFFFFFFFF\t\t\tabi.encodeWithSignature(\"compu...\n      NOT \t\t\tabi.encodeWithSignature(\"compu...\n      AND \t\t\tabi.encodeWithSignature(\"compu...\n      PUSH 20\t\t\tabi.encodeWithSignature(\"compu...\n      DUP3 \t\t\tabi.encodeWithSignature(\"compu...\n      ADD \t\t\tabi.encodeWithSignature(\"compu...\n      DUP1 \t\t\tabi.encodeWithSignature(\"compu...\n      MLOAD \t\t\tabi.encodeWithSignature(\"compu...\n      PUSH FFFFFFFFFFFFFFFFFFFFFFFFFFFFFFFFFFFFFFFFFFFFFFFFFFFFFFFF\t\t\tabi.encodeWithSignature(\"compu...\n      DUP4 \t\t\tabi.encodeWithSignature(\"compu...\n      DUP2 \t\t\tabi.encodeWithSignature(\"compu...\n      DUP4 \t\t\tabi.encodeWithSignature(\"compu...\n      AND \t\t\tabi.encodeWithSignature(\"compu...\n      OR \t\t\tabi.encodeWithSignature(\"compu...\n      DUP4 \t\t\tabi.encodeWithSignature(\"compu...\n      MSTORE \t\t\tabi.encodeWithSignature(\"compu...\n      POP \t\t\tabi.encodeWithSignature(\"compu...\n      POP \t\t\tabi.encodeWithSignature(\"compu...\n      POP \t\t\tabi.encodeWithSignature(\"compu...\n      POP \t\t\tabi.encodeWithSignature(\"compu...\n      PUSH 40\t\t\tfluxProcessorAddr.delegatecall...\n      MLOAD \t\t\tfluxProcessorAddr.delegatecall...\n      PUSH [tag] 22\t\t\tfluxProcessorAddr.delegatecall...\n      SWAP2 \t\t\tfluxProcessorAddr.delegatecall...\n      SWAP1 \t\t\tfluxProcessorAddr.delegatecall...\n      PUSH [tag] 23\t\t\tfluxProcessorAddr.delegatecall...\n      JUMP \t\t\tfluxProcessorAddr.delegatecall...\n    tag 22\t\t\tfluxProcessorAddr.delegatecall...\n      JUMPDEST \t\t\tfluxProcessorAddr.delegatecall...\n      PUSH 0\t\t\tfluxProcessorAddr.delegatecall...\n      PUSH 40\t\t\tfluxProcessorAddr.delegatecall...\n      MLOAD \t\t\tfluxProcessorAddr.delegatecall...\n      DUP1 \t\t\tfluxProcessorAddr.delegatecall...\n      DUP4 \t\t\tfluxProcessorAddr.delegatecall...\n      SUB \t\t\tfluxProcessorAddr.delegatecall...\n      DUP2 \t\t\tfluxProcessorAddr.delegatecall...\n      DUP6 \t\t\tfluxProcessorAddr.delegatecall...\n      GAS \t\t\tfluxProcessorAddr.delegatecall...\n      DELEGATECALL \t\t\tfluxProcessorAddr.delegatecall...\n      SWAP2 \t\t\tfluxProcessorAddr.delegatecall...\n      POP \t\t\tfluxProcessorAddr.delegatecall...\n      POP \t\t\tfluxProcessorAddr.delegatecall...\n      RETURNDATASIZE \t\t\tfluxProcessorAddr.delegatecall...\n      DUP1 \t\t\tfluxProcessorAddr.delegatecall...\n      PUSH 0\t\t\tfluxProcessorAddr.delegatecall...\n      DUP2 \t\t\tfluxProcessorAddr.delegatecall...\n      EQ \t\t\tfluxProcessorAddr.delegatecall...\n      PUSH [tag] 26\t\t\tfluxProcessorAddr.delegatecall...\n      JUMPI \t\t\tfluxProcessorAddr.delegatecall...\n      PUSH 40\t\t\tfluxProcessorAddr.delegatecall...\n      MLOAD \t\t\tfluxProcessorAddr.delegatecall...\n      SWAP2 \t\t\tfluxProcessorAddr.delegatecall...\n      POP \t\t\tfluxProcessorAddr.delegatecall...\n      PUSH 1F\t\t\tfluxProcessorAddr.delegatecall...\n      NOT \t\t\tfluxProcessorAddr.delegatecall...\n      PUSH 3F\t\t\tfluxProcessorAddr.delegatecall...\n      RETURNDATASIZE \t\t\tfluxProcessorAddr.delegatecall...\n      ADD \t\t\tfluxProcessorAddr.delegatecall...\n      AND \t\t\tfluxProcessorAddr.delegatecall...\n      DUP3 \t\t\tfluxProcessorAddr.delegatecall...\n      ADD \t\t\tfluxProcessorAddr.delegatecall...\n      PUSH 40\t\t\tfluxProcessorAddr.delegatecall...\n      MSTORE \t\t\tfluxProcessorAddr.delegatecall...\n      RETURNDATASIZE \t\t\tfluxProcessorAddr.delegatecall...\n      DUP3 \t\t\tfluxProcessorAddr.delegatecall...\n      MSTORE \t\t\tfluxProcessorAddr.delegatecall...\n      RETURNDATASIZE \t\t\tfluxProcessorAddr.delegatecall...\n      PUSH 0\t\t\tfluxProcessorAddr.delegatecall...\n      PUSH 20\t\t\tfluxProcessorAddr.delegatecall...\n      DUP5 \t\t\tfluxProcessorAddr.delegatecall...\n      ADD \t\t\tfluxProcessorAddr.delegatecall...\n      RETURNDATACOPY \t\t\tfluxProcessorAddr.delegatecall...\n      PUSH [tag] 25\t\t\tfluxProcessorAddr.delegatecall...\n      JUMP \t\t\tfluxProcessorAddr.delegatecall...\n    tag 26\t\t\tfluxProcessorAddr.delegatecall...\n      JUMPDEST \t\t\tfluxProcessorAddr.delegatecall...\n      PUSH 60\t\t\tfluxProcessorAddr.delegatecall...\n      SWAP2 \t\t\tfluxProcessorAddr.delegatecall...\n      POP \t\t\tfluxProcessorAddr.delegatecall...\n    tag 25\t\t\tfluxProcessorAddr.delegatecall...\n      JUMPDEST \t\t\tfluxProcessorAddr.delegatecall...\n      POP \t\t\tfluxProcessorAddr.delegatecall...\n      SWAP2 \t\t\t(bool success, bytes memory da...\n      POP \t\t\t(bool success, bytes memory da...\n      SWAP2 \t\t\t(bool success, bytes memory da...\n      POP \t\t\t(bool success, bytes memory da...\n      DUP2 \t\t\tsuccess\n      PUSH [tag] 27\t\t\trequire(success, \"delegatecall...\n      JUMPI \t\t\trequire(success, \"delegatecall...\n      PUSH 40\t\t\trequire(success, \"delegatecall...\n      MLOAD \t\t\trequire(success, \"delegatecall...\n      PUSH 8C379A000000000000000000000000000000000000000000000000000000000\t\t\trequire(success, \"delegatecall...\n      DUP2 \t\t\trequire(success, \"delegatecall...\n      MSTORE \t\t\trequire(success, \"delegatecall...\n      PUSH 4\t\t\trequire(success, \"delegatecall...\n      ADD \t\t\trequire(success, \"delegatecall...\n      PUSH [tag] 28\t\t\trequire(success, \"delegatecall...\n      SWAP1 \t\t\trequire(success, \"delegatecall...\n      PUSH [tag] 29\t\t\trequire(success, \"delegatecall...\n      JUMP \t\t\trequire(success, \"delegatecall...\n    tag 28\t\t\trequire(success, \"delegatecall...\n      JUMPDEST \t\t\trequire(success, \"delegatecall...\n      PUSH 40\t\t\trequire(success, \"delegatecall...\n      MLOAD \t\t\trequire(success, \"delegatecall...\n      DUP1 \t\t\trequire(success, \"delegatecall...\n      SWAP2 \t\t\trequire(success, \"delegatecall...\n      SUB \t\t\trequire(success, \"delegatecall...\n      SWAP1 \t\t\trequire(success, \"delegatecall...\n      REVERT \t\t\trequire(success, \"delegatecall...\n    tag 27\t\t\trequire(success, \"delegatecall...\n      JUMPDEST \t\t\trequire(success, \"delegatecall...\n      POP \t\t\t{\\n        (bool success, byte...\n      POP \t\t\t{\\n        (bool success, byte...\n      JUMP \t\t\tfunction computeSum() public {...\n    tag 17\t\t\tfunction getA() public view re...\n      JUMPDEST \t\t\tfunction getA() public view re...\n      PUSH 0\t\t\tuint256\n      PUSH 1\t\t\ta\n      SLOAD \t\t\ta\n      SWAP1 \t\t\treturn a\n      POP \t\t\treturn a\n      SWAP1 \t\t\tfunction getA() public view re...\n      JUMP \t\t\tfunction getA() public view re...\n    tag 31\t\t\tct Storage {\\n\\n    address fl...\n      JUMPDEST \t\t\tct Storage {\\n\\n    address fl...\n      PUSH 0\t\t\torAddr;\n      DUP2 \t\t\tnt256\n      SWAP1 \t\t\t6 a;\\n    uint256\n      POP \t\t\t6 a;\\n    uint256\n      SWAP2 \t\t\tct Storage {\\n\\n    address fl...\n      SWAP1 \t\t\tct Storage {\\n\\n    address fl...\n      POP \t\t\tct Storage {\\n\\n    address fl...\n      JUMP \t\t\tct Storage {\\n\\n    address fl...\n    tag 32\t\t\t256 sum;\\n    bool processorUs...\n      JUMPDEST \t\t\t256 sum;\\n    bool processorUs...\n      PUSH [tag] 43\t\t\ta, uint256 _b) {\\n       \n      DUP2 \t\t\t     \n      PUSH [tag] 31\t\t\ta, uint256 _b) {\\n       \n      JUMP \t\t\ta, uint256 _b) {\\n       \n    tag 43\t\t\ta, uint256 _b) {\\n       \n      JUMPDEST \t\t\ta, uint256 _b) {\\n       \n      DUP3 \t\t\t256\n      MSTORE \t\t\tr, uint256 _a, uint256 _b) {\\n...\n      POP \t\t\t256 sum;\\n    bool processorUs...\n      POP \t\t\t256 sum;\\n    bool processorUs...\n      JUMP \t\t\t256 sum;\\n    bool processorUs...\n    tag 10\t\t\trAddr = _fluxProcessorAddr;\\n ...\n      JUMPDEST \t\t\trAddr = _fluxProcessorAddr;\\n ...\n      PUSH 0\t\t\tpubl\n      PUSH 20\t\t\tme\n      DUP3 \t\t\tess, byte\n      ADD \t\t\tsuccess, bytes mem\n      SWAP1 \t\t\t  (bool success, bytes mem\n      POP \t\t\t  (bool success, bytes mem\n      PUSH [tag] 45\t\t\t= fluxProcessorAddr.delegateca...\n      PUSH 0\t\t\t(\n      DUP4 \t\t\t\"computeS\n      ADD \t\t\ture(\"computeSum()\n      DUP5 \t\t\tithSig\n      PUSH [tag] 32\t\t\t= fluxProcessorAddr.delegateca...\n      JUMP \t\t\t= fluxProcessorAddr.delegateca...\n    tag 45\t\t\t= fluxProcessorAddr.delegateca...\n      JUMPDEST \t\t\t= fluxProcessorAddr.delegateca...\n      SWAP3 \t\t\trAddr = _fluxProcessorAddr;\\n ...\n      SWAP2 \t\t\trAddr = _fluxProcessorAddr;\\n ...\n      POP \t\t\trAddr = _fluxProcessorAddr;\\n ...\n      POP \t\t\trAddr = _fluxProcessorAddr;\\n ...\n      JUMP \t\t\trAddr = _fluxProcessorAddr;\\n ...\n    tag 33\t\t\tequire(success, \"delegatecall ...\n      JUMPDEST \t\t\tequire(success, \"delegatecall ...\n      PUSH 0\t\t\tfuncti\n      DUP2 \t\t\ts (ui\n      MLOAD \t\t\treturns (uin\n      SWAP1 \t\t\tblic view returns (uin\n      POP \t\t\tblic view returns (uin\n      SWAP2 \t\t\tequire(success, \"delegatecall ...\n      SWAP1 \t\t\tequire(success, \"delegatecall ...\n      POP \t\t\tequire(success, \"delegatecall ...\n      JUMP \t\t\tequire(success, \"delegatecall ...\n    tag 34\t\t\t   return a;\\n    }\\n\\n    fun...\n      JUMPDEST \t\t\t   return a;\\n    }\\n\\n    fun...\n      PUSH 0\t\t\tfunction ge\n      DUP2 \t\t\t (u\n      SWAP1 \t\t\tic view returns (u\n      POP \t\t\tic view returns (u\n      SWAP3 \t\t\t   return a;\\n    }\\n\\n    fun...\n      SWAP2 \t\t\t   return a;\\n    }\\n\\n    fun...\n      POP \t\t\t   return a;\\n    }\\n\\n    fun...\n      POP \t\t\t   return a;\\n    }\\n\\n    fun...\n      JUMP \t\t\t   return a;\\n    }\\n\\n    fun...\n    tag 35\t\t\t      return sum;\\n    }\\n}\n      JUMPDEST \t\t\t      return sum;\\n    }\\n}\n      DUP3 \t\t\t\n      DUP2 \t\t\t\n      DUP4 \t\t\t\n      MCOPY \t\t\t\n      PUSH 0\t\t\t\n      DUP4 \t\t\t\n      DUP4 \t\t\t\n      ADD \t\t\t\n      MSTORE \t\t\t\n      POP \t\t\t      return sum;\\n    }\\n}\n      POP \t\t\t      return sum;\\n    }\\n}\n      POP \t\t\t      return sum;\\n    }\\n}\n      JUMP \t\t\t      return sum;\\n    }\\n}\n    tag 36\t\t\t\n      JUMPDEST \t\t\t\n      PUSH 0\t\t\t\n      PUSH [tag] 50\t\t\t\n      DUP3 \t\t\t\n      PUSH [tag] 33\t\t\t\n      JUMP \t\t\t\n    tag 50\t\t\t\n      JUMPDEST \t\t\t\n      PUSH [tag] 51\t\t\t\n      DUP2 \t\t\t\n      DUP6 \t\t\t\n      PUSH [tag] 34\t\t\t\n      JUMP \t\t\t\n    tag 51\t\t\t\n      JUMPDEST \t\t\t\n      SWAP4 \t\t\t\n      POP \t\t\t\n      PUSH [tag] 52\t\t\t\n      DUP2 \t\t\t\n      DUP6 \t\t\t\n      PUSH 20\t\t\t\n      DUP7 \t\t\t\n      ADD \t\t\t\n      PUSH [tag] 35\t\t\t\n      JUMP \t\t\t\n    tag 52\t\t\t\n      JUMPDEST \t\t\t\n      DUP1 \t\t\t\n      DUP5 \t\t\t\n      ADD \t\t\t\n      SWAP2 \t\t\t\n      POP \t\t\t\n      POP \t\t\t\n      SWAP3 \t\t\t\n      SWAP2 \t\t\t\n      POP \t\t\t\n      POP \t\t\t\n      JUMP \t\t\t\n    tag 23\t\t\t\n      JUMPDEST \t\t\t\n      PUSH 0\t\t\t\n      PUSH [tag] 54\t\t\t\n      DUP3 \t\t\t\n      DUP5 \t\t\t\n      PUSH [tag] 36\t\t\t\n      JUMP \t\t\t\n    tag 54\t\t\t\n      JUMPDEST \t\t\t\n      SWAP2 \t\t\t\n      POP \t\t\t\n      DUP2 \t\t\t\n      SWAP1 \t\t\t\n      POP \t\t\t\n      SWAP3 \t\t\t\n      SWAP2 \t\t\t\n      POP \t\t\t\n      POP \t\t\t\n      JUMP \t\t\t\n    tag 37\t\t\t\n      JUMPDEST \t\t\t\n      PUSH 0\t\t\t\n      DUP3 \t\t\t\n      DUP3 \t\t\t\n      MSTORE \t\t\t\n      PUSH 20\t\t\t\n      DUP3 \t\t\t\n      ADD \t\t\t\n      SWAP1 \t\t\t\n      POP \t\t\t\n      SWAP3 \t\t\t\n      SWAP2 \t\t\t\n      POP \t\t\t\n      POP \t\t\t\n      JUMP \t\t\t\n    tag 38\t\t\t\n      JUMPDEST \t\t\t\n      PUSH 64656C656761746563616C6C206661696C656400000000000000000000000000\t\t\t\n      PUSH 0\t\t\t\n      DUP3 \t\t\t\n      ADD \t\t\t\n      MSTORE \t\t\t\n      POP \t\t\t\n      JUMP \t\t\t\n    tag 39\t\t\t\n      JUMPDEST \t\t\t\n      PUSH 0\t\t\t\n      PUSH [tag] 58\t\t\t\n      PUSH 13\t\t\t\n      DUP4 \t\t\t\n      PUSH [tag] 37\t\t\t\n      JUMP \t\t\t\n    tag 58\t\t\t\n      JUMPDEST \t\t\t\n      SWAP2 \t\t\t\n      POP \t\t\t\n      PUSH [tag] 59\t\t\t\n      DUP3 \t\t\t\n      PUSH [tag] 38\t\t\t\n      JUMP \t\t\t\n    tag 59\t\t\t\n      JUMPDEST \t\t\t\n      PUSH 20\t\t\t\n      DUP3 \t\t\t\n      ADD \t\t\t\n      SWAP1 \t\t\t\n      POP \t\t\t\n      SWAP2 \t\t\t\n      SWAP1 \t\t\t\n      POP \t\t\t\n      JUMP \t\t\t\n    tag 29\t\t\t\n      JUMPDEST \t\t\t\n      PUSH 0\t\t\t\n      PUSH 20\t\t\t\n      DUP3 \t\t\t\n      ADD \t\t\t\n      SWAP1 \t\t\t\n      POP \t\t\t\n      DUP2 \t\t\t\n      DUP2 \t\t\t\n      SUB \t\t\t\n      PUSH 0\t\t\t\n      DUP4 \t\t\t\n      ADD \t\t\t\n      MSTORE \t\t\t\n      PUSH [tag] 61\t\t\t\n      DUP2 \t\t\t\n      PUSH [tag] 39\t\t\t\n      JUMP \t\t\t\n    tag 61\t\t\t\n      JUMPDEST \t\t\t\n      SWAP1 \t\t\t\n      POP \t\t\t\n      SWAP2 \t\t\t\n      SWAP1 \t\t\t\n      POP \t\t\t\n      JUMP \t\t\t\n    .data\n"
}