{
	"compilerInput": "{\"language\":\"Solidity\",\"sources\":{\"contracts/1_Storage.sol\":{\"content\":\"pragma solidity >=0.8.2 <0.9.0;\\n\\ncontract Storage {\\n\\n    uint256 a;\\n    uint256 b;\\n    uint256 sum;\\n    bool processorUsed;\\n\\n    constructor(uint256 _a, uint256 _b) {\\n        a = _a;\\n        b = _b;\\n    }\\n\\n    function computeSum() public {\\n        sum = a + b;\\n    }\\n\\n    function getA() public view returns (uint256) {\\n        return a;\\n    }\\n\\n    function getB() public view returns (uint256) {\\n        return a;\\n    }\\n\\n    function getSum() public view returns (uint256) {\\n        return sum;\\n    }\\n}\"}},\"settings\":{\"optimizer\":{\"enabled\":false,\"runs\":200},\"outputSelection\":{\"*\":{\"\":[\"ast\"],\"*\":[\"abi\",\"metadata\",\"devdoc\",\"userdoc\",\"storageLayout\",\"evm.legacyAssembly\",\"evm.bytecode\",\"evm.deployedBytecode\",\"evm.methodIdentifiers\",\"evm.gasEstimates\",\"evm.assembly\"]}},\"remappings\":[]}}",
	"name": "Storage",
	"bytecode": {
		"linkReferences": {},
		"object": "6080604052348015600e575f80fd5b506040516102603803806102608339818101604052810190602e91906073565b815f8190555080600181905550505060aa565b5f80fd5b5f819050919050565b6055816045565b8114605e575f80fd5b50565b5f81519050606d81604e565b92915050565b5f806040838503121560865760856041565b5b5f6091858286016061565b925050602060a0858286016061565b9150509250929050565b6101a9806100b75f395ff3fe608060405234801561000f575f80fd5b506004361061004a575f3560e01c8063569c5f6d1461004e578063a1c519151461006c578063c2a970d11461008a578063d46300fd14610094575b5f80fd5b6100566100b2565b60405161006391906100fa565b60405180910390f35b6100746100bb565b60405161008191906100fa565b60405180910390f35b6100926100c3565b005b61009c6100da565b6040516100a991906100fa565b60405180910390f35b5f600254905090565b5f8054905090565b6001545f546100d29190610140565b600281905550565b5f8054905090565b5f819050919050565b6100f4816100e2565b82525050565b5f60208201905061010d5f8301846100eb565b92915050565b7f4e487b71000000000000000000000000000000000000000000000000000000005f52601160045260245ffd5b5f61014a826100e2565b9150610155836100e2565b925082820190508082111561016d5761016c610113565b5b9291505056fea2646970667358221220952728d0a3b21742815c1627660d2cf5816d9148c4f2d6eac6252d7933012ad164736f6c634300081a0033",
		"opcodes": "PUSH1 0x80 PUSH1 0x40 MSTORE CALLVALUE DUP1 ISZERO PUSH1 0xE JUMPI PUSH0 DUP1 REVERT JUMPDEST POP PUSH1 0x40 MLOAD PUSH2 0x260 CODESIZE SUB DUP1 PUSH2 0x260 DUP4 CODECOPY DUP2 DUP2 ADD PUSH1 0x40 MSTORE DUP2 ADD SWAP1 PUSH1 0x2E SWAP2 SWAP1 PUSH1 0x73 JUMP JUMPDEST DUP2 PUSH0 DUP2 SWAP1 SSTORE POP DUP1 PUSH1 0x1 DUP2 SWAP1 SSTORE POP POP POP PUSH1 0xAA JUMP JUMPDEST PUSH0 DUP1 REVERT JUMPDEST PUSH0 DUP2 SWAP1 POP SWAP2 SWAP1 POP JUMP JUMPDEST PUSH1 0x55 DUP2 PUSH1 0x45 JUMP JUMPDEST DUP2 EQ PUSH1 0x5E JUMPI PUSH0 DUP1 REVERT JUMPDEST POP JUMP JUMPDEST PUSH0 DUP2 MLOAD SWAP1 POP PUSH1 0x6D DUP2 PUSH1 0x4E JUMP JUMPDEST SWAP3 SWAP2 POP POP JUMP JUMPDEST PUSH0 DUP1 PUSH1 0x40 DUP4 DUP6 SUB SLT ISZERO PUSH1 0x86 JUMPI PUSH1 0x85 PUSH1 0x41 JUMP JUMPDEST JUMPDEST PUSH0 PUSH1 0x91 DUP6 DUP3 DUP7 ADD PUSH1 0x61 JUMP JUMPDEST SWAP3 POP POP PUSH1 0x20 PUSH1 0xA0 DUP6 DUP3 DUP7 ADD PUSH1 0x61 JUMP JUMPDEST SWAP2 POP POP SWAP3 POP SWAP3 SWAP1 POP JUMP JUMPDEST PUSH2 0x1A9 DUP1 PUSH2 0xB7 PUSH0 CODECOPY PUSH0 RETURN INVALID PUSH1 0x80 PUSH1 0x40 MSTORE CALLVALUE DUP1 ISZERO PUSH2 0xF JUMPI PUSH0 DUP1 REVERT JUMPDEST POP PUSH1 0x4 CALLDATASIZE LT PUSH2 0x4A JUMPI PUSH0 CALLDATALOAD PUSH1 0xE0 SHR DUP1 PUSH4 0x569C5F6D EQ PUSH2 0x4E JUMPI DUP1 PUSH4 0xA1C51915 EQ PUSH2 0x6C JUMPI DUP1 PUSH4 0xC2A970D1 EQ PUSH2 0x8A JUMPI DUP1 PUSH4 0xD46300FD EQ PUSH2 0x94 JUMPI JUMPDEST PUSH0 DUP1 REVERT JUMPDEST PUSH2 0x56 PUSH2 0xB2 JUMP JUMPDEST PUSH1 0x40 MLOAD PUSH2 0x63 SWAP2 SWAP1 PUSH2 0xFA JUMP JUMPDEST PUSH1 0x40 MLOAD DUP1 SWAP2 SUB SWAP1 RETURN JUMPDEST PUSH2 0x74 PUSH2 0xBB JUMP JUMPDEST PUSH1 0x40 MLOAD PUSH2 0x81 SWAP2 SWAP1 PUSH2 0xFA JUMP JUMPDEST PUSH1 0x40 MLOAD DUP1 SWAP2 SUB SWAP1 RETURN JUMPDEST PUSH2 0x92 PUSH2 0xC3 JUMP JUMPDEST STOP JUMPDEST PUSH2 0x9C PUSH2 0xDA JUMP JUMPDEST PUSH1 0x40 MLOAD PUSH2 0xA9 SWAP2 SWAP1 PUSH2 0xFA JUMP JUMPDEST PUSH1 0x40 MLOAD DUP1 SWAP2 SUB SWAP1 RETURN JUMPDEST PUSH0 PUSH1 0x2 SLOAD SWAP1 POP SWAP1 JUMP JUMPDEST PUSH0 DUP1 SLOAD SWAP1 POP SWAP1 JUMP JUMPDEST PUSH1 0x1 SLOAD PUSH0 SLOAD PUSH2 0xD2 SWAP2 SWAP1 PUSH2 0x140 JUMP JUMPDEST PUSH1 0x2 DUP2 SWAP1 SSTORE POP JUMP JUMPDEST PUSH0 DUP1 SLOAD SWAP1 POP SWAP1 JUMP JUMPDEST PUSH0 DUP2 SWAP1 POP SWAP2 SWAP1 POP JUMP JUMPDEST PUSH2 0xF4 DUP2 PUSH2 0xE2 JUMP JUMPDEST DUP3 MSTORE POP POP JUMP JUMPDEST PUSH0 PUSH1 0x20 DUP3 ADD SWAP1 POP PUSH2 0x10D PUSH0 DUP4 ADD DUP5 PUSH2 0xEB JUMP JUMPDEST SWAP3 SWAP2 POP POP JUMP JUMPDEST PUSH32 0x4E487B7100000000000000000000000000000000000000000000000000000000 PUSH0 MSTORE PUSH1 0x11 PUSH1 0x4 MSTORE PUSH1 0x24 PUSH0 REVERT JUMPDEST PUSH0 PUSH2 0x14A DUP3 PUSH2 0xE2 JUMP JUMPDEST SWAP2 POP PUSH2 0x155 DUP4 PUSH2 0xE2 JUMP JUMPDEST SWAP3 POP DUP3 DUP3 ADD SWAP1 POP DUP1 DUP3 GT ISZERO PUSH2 0x16D JUMPI PUSH2 0x16C PUSH2 0x113 JUMP JUMPDEST JUMPDEST SWAP3 SWAP2 POP POP JUMP INVALID LOG2 PUSH5 0x6970667358 0x22 SLT KECCAK256 SWAP6 0x27 0x28 0xD0 LOG3 0xB2 OR TIMESTAMP DUP2 TLOAD AND 0x27 PUSH7 0xD2CF5816D9148 0xC4 CALLCODE 0xD6 0xEA 0xC6 0x25 0x2D PUSH26 0x33012AD164736F6C634300081A00330000000000000000000000 "
	},
	"abi": [
		{
			"inputs": [
				{
					"internalType": "uint256",
					"name": "_a",
					"type": "uint256"
				},
				{
					"internalType": "uint256",
					"name": "_b",
					"type": "uint256"
				}
			],
			"stateMutability": "nonpayable",
			"type": "constructor"
		},
		{
			"inputs": [],
			"name": "computeSum",
			"outputs": [],
			"stateMutability": "nonpayable",
			"type": "function"
		},
		{
			"inputs": [],
			"name": "getA",
			"outputs": [
				{
					"internalType": "uint256",
					"name": "",
					"type": "uint256"
				}
			],
			"stateMutability": "view",
			"type": "function"
		},
		{
			"inputs": [],
			"name": "getB",
			"outputs": [
				{
					"internalType": "uint256",
					"name": "",
					"type": "uint256"
				}
			],
			"stateMutability": "view",
			"type": "function"
		},
		{
			"inputs": [],
			"name": "getSum",
			"outputs": [
				{
					"internalType": "uint256",
					"name": "",
					"type": "uint256"
				}
			],
			"stateMutability": "view",
			"type": "function"
		}
	],
	"storageLayout": {
		"storage": [
			{
				"astId": 3,
				"contract": "contracts/1_Storage.sol:Storage",
				"label": "a",
				"offset": 0,
				"slot": "0",
				"type": "t_uint256"
			},
			{
				"astId": 5,
				"contract": "contracts/1_Storage.sol:Storage",
				"label": "b",
				"offset": 0,
				"slot": "1",
				"type": "t_uint256"
			},
			{
				"astId": 7,
				"contract": "contracts/1_Storage.sol:Storage",
				"label": "sum",
				"offset": 0,
				"slot": "2",
				"type": "t_uint256"
			},
			{
				"astId": 9,
				"contract": "contracts/1_Storage.sol:Storage",
				"label": "processorUsed",
				"offset": 0,
				"slot": "3",
				"type": "t_bool"
			}
		],
		"types": {
			"t_bool": {
				"encoding": "inplace",
				"label": "bool",
				"numberOfBytes": "1"
			},
			"t_uint256": {
				"encoding": "inplace",
				"label": "uint256",
				"numberOfBytes": "32"
			}
		}
	},
	"web3Deploy": "var _a = /* var of type uint256 here */ ;\nvar _b = /* var of type uint256 here */ ;\nvar storageContract = new web3.eth.Contract([{\"inputs\":[{\"internalType\":\"uint256\",\"name\":\"_a\",\"type\":\"uint256\"},{\"internalType\":\"uint256\",\"name\":\"_b\",\"type\":\"uint256\"}],\"stateMutability\":\"nonpayable\",\"type\":\"constructor\"},{\"inputs\":[],\"name\":\"computeSum\",\"outputs\":[],\"stateMutability\":\"nonpayable\",\"type\":\"function\"},{\"inputs\":[],\"name\":\"getA\",\"outputs\":[{\"internalType\":\"uint256\",\"name\":\"\",\"type\":\"uint256\"}],\"stateMutability\":\"view\",\"type\":\"function\"},{\"inputs\":[],\"name\":\"getB\",\"outputs\":[{\"internalType\":\"uint256\",\"name\":\"\",\"type\":\"uint256\"}],\"stateMutability\":\"view\",\"type\":\"function\"},{\"inputs\":[],\"name\":\"getSum\",\"outputs\":[{\"internalType\":\"uint256\",\"name\":\"\",\"type\":\"uint256\"}],\"stateMutability\":\"view\",\"type\":\"function\"}]);\nvar storage = storageContract.deploy({\n     data: '0x6080604052348015600e575f80fd5b506040516102603803806102608339818101604052810190602e91906073565b815f8190555080600181905550505060aa565b5f80fd5b5f819050919050565b6055816045565b8114605e575f80fd5b50565b5f81519050606d81604e565b92915050565b5f806040838503121560865760856041565b5b5f6091858286016061565b925050602060a0858286016061565b9150509250929050565b6101a9806100b75f395ff3fe608060405234801561000f575f80fd5b506004361061004a575f3560e01c8063569c5f6d1461004e578063a1c519151461006c578063c2a970d11461008a578063d46300fd14610094575b5f80fd5b6100566100b2565b60405161006391906100fa565b60405180910390f35b6100746100bb565b60405161008191906100fa565b60405180910390f35b6100926100c3565b005b61009c6100da565b6040516100a991906100fa565b60405180910390f35b5f600254905090565b5f8054905090565b6001545f546100d29190610140565b600281905550565b5f8054905090565b5f819050919050565b6100f4816100e2565b82525050565b5f60208201905061010d5f8301846100eb565b92915050565b7f4e487b71000000000000000000000000000000000000000000000000000000005f52601160045260245ffd5b5f61014a826100e2565b9150610155836100e2565b925082820190508082111561016d5761016c610113565b5b9291505056fea2646970667358221220952728d0a3b21742815c1627660d2cf5816d9148c4f2d6eac6252d7933012ad164736f6c634300081a0033', \n     arguments: [\n          _a,\n          _b,\n     ]\n}).send({\n     from: web3.eth.accounts[0], \n     gas: '4700000'\n   }, function (e, contract){\n    console.log(e, contract);\n    if (typeof contract.address !== 'undefined') {\n         console.log('Contract mined! address: ' + contract.address + ' transactionHash: ' + contract.transactionHash);\n    }\n })",
	"functionHashes": {
		"c2a970d1": "computeSum()",
		"d46300fd": "getA()",
		"a1c51915": "getB()",
		"569c5f6d": "getSum()"
	},
	"gasEstimates": {
		"Creation": {
			"codeDepositCost": "85000",
			"executionCost": "infinite",
			"totalCost": "infinite"
		},
		"External": {
			"computeSum()": "infinite",
			"getA()": "2476",
			"getB()": "2432",
			"getSum()": "2410"
		}
	},
	"devdoc": {
		"kind": "dev",
		"methods": {},
		"version": 1
	},
	"userdoc": {
		"kind": "user",
		"methods": {},
		"version": 1
	},
	"Runtime Bytecode": {
		"immutableReferences": {},
		"linkReferences": {},
		"object": "608060405234801561000f575f80fd5b506004361061004a575f3560e01c8063569c5f6d1461004e578063a1c519151461006c578063c2a970d11461008a578063d46300fd14610094575b5f80fd5b6100566100b2565b60405161006391906100fa565b60405180910390f35b6100746100bb565b60405161008191906100fa565b60405180910390f35b6100926100c3565b005b61009c6100da565b6040516100a991906100fa565b60405180910390f35b5f600254905090565b5f8054905090565b6001545f546100d29190610140565b600281905550565b5f8054905090565b5f819050919050565b6100f4816100e2565b82525050565b5f60208201905061010d5f8301846100eb565b92915050565b7f4e487b71000000000000000000000000000000000000000000000000000000005f52601160045260245ffd5b5f61014a826100e2565b9150610155836100e2565b925082820190508082111561016d5761016c610113565b5b9291505056fea2646970667358221220952728d0a3b21742815c1627660d2cf5816d9148c4f2d6eac6252d7933012ad164736f6c634300081a0033",
		"opcodes": "PUSH1 0x80 PUSH1 0x40 MSTORE CALLVALUE DUP1 ISZERO PUSH2 0xF JUMPI PUSH0 DUP1 REVERT JUMPDEST POP PUSH1 0x4 CALLDATASIZE LT PUSH2 0x4A JUMPI PUSH0 CALLDATALOAD PUSH1 0xE0 SHR DUP1 PUSH4 0x569C5F6D EQ PUSH2 0x4E JUMPI DUP1 PUSH4 0xA1C51915 EQ PUSH2 0x6C JUMPI DUP1 PUSH4 0xC2A970D1 EQ PUSH2 0x8A JUMPI DUP1 PUSH4 0xD46300FD EQ PUSH2 0x94 JUMPI JUMPDEST PUSH0 DUP1 REVERT JUMPDEST PUSH2 0x56 PUSH2 0xB2 JUMP JUMPDEST PUSH1 0x40 MLOAD PUSH2 0x63 SWAP2 SWAP1 PUSH2 0xFA JUMP JUMPDEST PUSH1 0x40 MLOAD DUP1 SWAP2 SUB SWAP1 RETURN JUMPDEST PUSH2 0x74 PUSH2 0xBB JUMP JUMPDEST PUSH1 0x40 MLOAD PUSH2 0x81 SWAP2 SWAP1 PUSH2 0xFA JUMP JUMPDEST PUSH1 0x40 MLOAD DUP1 SWAP2 SUB SWAP1 RETURN JUMPDEST PUSH2 0x92 PUSH2 0xC3 JUMP JUMPDEST STOP JUMPDEST PUSH2 0x9C PUSH2 0xDA JUMP JUMPDEST PUSH1 0x40 MLOAD PUSH2 0xA9 SWAP2 SWAP1 PUSH2 0xFA JUMP JUMPDEST PUSH1 0x40 MLOAD DUP1 SWAP2 SUB SWAP1 RETURN JUMPDEST PUSH0 PUSH1 0x2 SLOAD SWAP1 POP SWAP1 JUMP JUMPDEST PUSH0 DUP1 SLOAD SWAP1 POP SWAP1 JUMP JUMPDEST PUSH1 0x1 SLOAD PUSH0 SLOAD PUSH2 0xD2 SWAP2 SWAP1 PUSH2 0x140 JUMP JUMPDEST PUSH1 0x2 DUP2 SWAP1 SSTORE POP JUMP JUMPDEST PUSH0 DUP1 SLOAD SWAP1 POP SWAP1 JUMP JUMPDEST PUSH0 DUP2 SWAP1 POP SWAP2 SWAP1 POP JUMP JUMPDEST PUSH2 0xF4 DUP2 PUSH2 0xE2 JUMP JUMPDEST DUP3 MSTORE POP POP JUMP JUMPDEST PUSH0 PUSH1 0x20 DUP3 ADD SWAP1 POP PUSH2 0x10D PUSH0 DUP4 ADD DUP5 PUSH2 0xEB JUMP JUMPDEST SWAP3 SWAP2 POP POP JUMP JUMPDEST PUSH32 0x4E487B7100000000000000000000000000000000000000000000000000000000 PUSH0 MSTORE PUSH1 0x11 PUSH1 0x4 MSTORE PUSH1 0x24 PUSH0 REVERT JUMPDEST PUSH0 PUSH2 0x14A DUP3 PUSH2 0xE2 JUMP JUMPDEST SWAP2 POP PUSH2 0x155 DUP4 PUSH2 0xE2 JUMP JUMPDEST SWAP3 POP DUP3 DUP3 ADD SWAP1 POP DUP1 DUP3 GT ISZERO PUSH2 0x16D JUMPI PUSH2 0x16C PUSH2 0x113 JUMP JUMPDEST JUMPDEST SWAP3 SWAP2 POP POP JUMP INVALID LOG2 PUSH5 0x6970667358 0x22 SLT KECCAK256 SWAP6 0x27 0x28 0xD0 LOG3 0xB2 OR TIMESTAMP DUP2 TLOAD AND 0x27 PUSH7 0xD2CF5816D9148 0xC4 CALLCODE 0xD6 0xEA 0xC6 0x25 0x2D PUSH26 0x33012AD164736F6C634300081A00330000000000000000000000 "
	},
	"Assembly": ".code\n  PUSH 80\t\t\tcontract Storage {\\n\\n    uint...\n  PUSH 40\t\t\tcontract Storage {\\n\\n    uint...\n  MSTORE \t\t\tcontract Storage {\\n\\n    uint...\n  CALLVALUE \t\t\tconstructor(uint256 _a, uint25...\n  DUP1 \t\t\tconstructor(uint256 _a, uint25...\n  ISZERO \t\t\tconstructor(uint256 _a, uint25...\n  PUSH [tag] 1\t\t\tconstructor(uint256 _a, uint25...\n  JUMPI \t\t\tconstructor(uint256 _a, uint25...\n  PUSH 0\t\t\tconstructor(uint256 _a, uint25...\n  DUP1 \t\t\tconstructor(uint256 _a, uint25...\n  REVERT \t\t\tconstructor(uint256 _a, uint25...\ntag 1\t\t\tconstructor(uint256 _a, uint25...\n  JUMPDEST \t\t\tconstructor(uint256 _a, uint25...\n  POP \t\t\tconstructor(uint256 _a, uint25...\n  PUSH 40\t\t\tconstructor(uint256 _a, uint25...\n  MLOAD \t\t\tconstructor(uint256 _a, uint25...\n  PUSHSIZE \t\t\tconstructor(uint256 _a, uint25...\n  CODESIZE \t\t\tconstructor(uint256 _a, uint25...\n  SUB \t\t\tconstructor(uint256 _a, uint25...\n  DUP1 \t\t\tconstructor(uint256 _a, uint25...\n  PUSHSIZE \t\t\tconstructor(uint256 _a, uint25...\n  DUP4 \t\t\tconstructor(uint256 _a, uint25...\n  CODECOPY \t\t\tconstructor(uint256 _a, uint25...\n  DUP2 \t\t\tconstructor(uint256 _a, uint25...\n  DUP2 \t\t\tconstructor(uint256 _a, uint25...\n  ADD \t\t\tconstructor(uint256 _a, uint25...\n  PUSH 40\t\t\tconstructor(uint256 _a, uint25...\n  MSTORE \t\t\tconstructor(uint256 _a, uint25...\n  DUP2 \t\t\tconstructor(uint256 _a, uint25...\n  ADD \t\t\tconstructor(uint256 _a, uint25...\n  SWAP1 \t\t\tconstructor(uint256 _a, uint25...\n  PUSH [tag] 2\t\t\tconstructor(uint256 _a, uint25...\n  SWAP2 \t\t\tconstructor(uint256 _a, uint25...\n  SWAP1 \t\t\tconstructor(uint256 _a, uint25...\n  PUSH [tag] 3\t\t\tconstructor(uint256 _a, uint25...\n  JUMP \t\t\tconstructor(uint256 _a, uint25...\ntag 2\t\t\tconstructor(uint256 _a, uint25...\n  JUMPDEST \t\t\tconstructor(uint256 _a, uint25...\n  DUP2 \t\t\t_a\n  PUSH 0\t\t\ta\n  DUP2 \t\t\ta = _a\n  SWAP1 \t\t\ta = _a\n  SSTORE \t\t\ta = _a\n  POP \t\t\ta = _a\n  DUP1 \t\t\t_b\n  PUSH 1\t\t\tb\n  DUP2 \t\t\tb = _b\n  SWAP1 \t\t\tb = _b\n  SSTORE \t\t\tb = _b\n  POP \t\t\tb = _b\n  POP \t\t\tconstructor(uint256 _a, uint25...\n  POP \t\t\tconstructor(uint256 _a, uint25...\n  PUSH [tag] 6\t\t\tcontract Storage {\\n\\n    uint...\n  JUMP \t\t\tcontract Storage {\\n\\n    uint...\ntag 8\t\t\tint256 sum;\\n    bool processo...\n  JUMPDEST \t\t\tint256 sum;\\n    bool processo...\n  PUSH 0\t\t\t;\n  DUP1 \t\t\t \n  REVERT \t\t\t    b = _b;\\n\ntag 10\t\t\tn a;\\n    }\\n\\n    function ge...\n  JUMPDEST \t\t\tn a;\\n    }\\n\\n    function ge...\n  PUSH 0\t\t\tc view \n  DUP2 \t\t\t     \n  SWAP1 \t\t\tnt256) {\\n       \n  POP \t\t\tnt256) {\\n       \n  SWAP2 \t\t\tn a;\\n    }\\n\\n    function ge...\n  SWAP1 \t\t\tn a;\\n    }\\n\\n    function ge...\n  POP \t\t\tn a;\\n    }\\n\\n    function ge...\n  JUMP \t\t\tn a;\\n    }\\n\\n    function ge...\ntag 11\t\t\t   }\\n\\n    function getSum() ...\n  JUMPDEST \t\t\t   }\\n\\n    function getSum() ...\n  PUSH [tag] 19\t\t\tn sum;\\n    }\\n}\n  DUP2 \t\t\t\n  PUSH [tag] 10\t\t\tn sum;\\n    }\\n}\n  JUMP \t\t\tn sum;\\n    }\\n}\ntag 19\t\t\tn sum;\\n    }\\n}\n  JUMPDEST \t\t\tn sum;\\n    }\\n}\n  DUP2 \t\t\t  ret\n  EQ \t\t\t     return sum;\\n    }\\n}\n  PUSH [tag] 20\t\t\t256) {\\n        return sum;\\n ...\n  JUMPI \t\t\t256) {\\n        return sum;\\n ...\n  PUSH 0\t\t\t\n  DUP1 \t\t\t\n  REVERT \t\t\t\ntag 20\t\t\t256) {\\n        return sum;\\n ...\n  JUMPDEST \t\t\t256) {\\n        return sum;\\n ...\n  POP \t\t\t   }\\n\\n    function getSum() ...\n  JUMP \t\t\t   }\\n\\n    function getSum() ...\ntag 12\t\t\t\n  JUMPDEST \t\t\t\n  PUSH 0\t\t\t\n  DUP2 \t\t\t\n  MLOAD \t\t\t\n  SWAP1 \t\t\t\n  POP \t\t\t\n  PUSH [tag] 22\t\t\t\n  DUP2 \t\t\t\n  PUSH [tag] 11\t\t\t\n  JUMP \t\t\t\ntag 22\t\t\t\n  JUMPDEST \t\t\t\n  SWAP3 \t\t\t\n  SWAP2 \t\t\t\n  POP \t\t\t\n  POP \t\t\t\n  JUMP \t\t\t\ntag 3\t\t\t\n  JUMPDEST \t\t\t\n  PUSH 0\t\t\t\n  DUP1 \t\t\t\n  PUSH 40\t\t\t\n  DUP4 \t\t\t\n  DUP6 \t\t\t\n  SUB \t\t\t\n  SLT \t\t\t\n  ISZERO \t\t\t\n  PUSH [tag] 24\t\t\t\n  JUMPI \t\t\t\n  PUSH [tag] 25\t\t\t\n  PUSH [tag] 8\t\t\t\n  JUMP \t\t\t\ntag 25\t\t\t\n  JUMPDEST \t\t\t\ntag 24\t\t\t\n  JUMPDEST \t\t\t\n  PUSH 0\t\t\t\n  PUSH [tag] 26\t\t\t\n  DUP6 \t\t\t\n  DUP3 \t\t\t\n  DUP7 \t\t\t\n  ADD \t\t\t\n  PUSH [tag] 12\t\t\t\n  JUMP \t\t\t\ntag 26\t\t\t\n  JUMPDEST \t\t\t\n  SWAP3 \t\t\t\n  POP \t\t\t\n  POP \t\t\t\n  PUSH 20\t\t\t\n  PUSH [tag] 27\t\t\t\n  DUP6 \t\t\t\n  DUP3 \t\t\t\n  DUP7 \t\t\t\n  ADD \t\t\t\n  PUSH [tag] 12\t\t\t\n  JUMP \t\t\t\ntag 27\t\t\t\n  JUMPDEST \t\t\t\n  SWAP2 \t\t\t\n  POP \t\t\t\n  POP \t\t\t\n  SWAP3 \t\t\t\n  POP \t\t\t\n  SWAP3 \t\t\t\n  SWAP1 \t\t\t\n  POP \t\t\t\n  JUMP \t\t\t\ntag 6\t\t\tcontract Storage {\\n\\n    uint...\n  JUMPDEST \t\t\tcontract Storage {\\n\\n    uint...\n  PUSH #[$] 0000000000000000000000000000000000000000000000000000000000000000\t\t\tcontract Storage {\\n\\n    uint...\n  DUP1 \t\t\tcontract Storage {\\n\\n    uint...\n  PUSH [$] 0000000000000000000000000000000000000000000000000000000000000000\t\t\tcontract Storage {\\n\\n    uint...\n  PUSH 0\t\t\tcontract Storage {\\n\\n    uint...\n  CODECOPY \t\t\tcontract Storage {\\n\\n    uint...\n  PUSH 0\t\t\tcontract Storage {\\n\\n    uint...\n  RETURN \t\t\tcontract Storage {\\n\\n    uint...\n.data\n  0:\n    .code\n      PUSH 80\t\t\tcontract Storage {\\n\\n    uint...\n      PUSH 40\t\t\tcontract Storage {\\n\\n    uint...\n      MSTORE \t\t\tcontract Storage {\\n\\n    uint...\n      CALLVALUE \t\t\tcontract Storage {\\n\\n    uint...\n      DUP1 \t\t\tcontract Storage {\\n\\n    uint...\n      ISZERO \t\t\tcontract Storage {\\n\\n    uint...\n      PUSH [tag] 1\t\t\tcontract Storage {\\n\\n    uint...\n      JUMPI \t\t\tcontract Storage {\\n\\n    uint...\n      PUSH 0\t\t\tcontract Storage {\\n\\n    uint...\n      DUP1 \t\t\tcontract Storage {\\n\\n    uint...\n      REVERT \t\t\tcontract Storage {\\n\\n    uint...\n    tag 1\t\t\tcontract Storage {\\n\\n    uint...\n      JUMPDEST \t\t\tcontract Storage {\\n\\n    uint...\n      POP \t\t\tcontract Storage {\\n\\n    uint...\n      PUSH 4\t\t\tcontract Storage {\\n\\n    uint...\n      CALLDATASIZE \t\t\tcontract Storage {\\n\\n    uint...\n      LT \t\t\tcontract Storage {\\n\\n    uint...\n      PUSH [tag] 2\t\t\tcontract Storage {\\n\\n    uint...\n      JUMPI \t\t\tcontract Storage {\\n\\n    uint...\n      PUSH 0\t\t\tcontract Storage {\\n\\n    uint...\n      CALLDATALOAD \t\t\tcontract Storage {\\n\\n    uint...\n      PUSH E0\t\t\tcontract Storage {\\n\\n    uint...\n      SHR \t\t\tcontract Storage {\\n\\n    uint...\n      DUP1 \t\t\tcontract Storage {\\n\\n    uint...\n      PUSH 569C5F6D\t\t\tcontract Storage {\\n\\n    uint...\n      EQ \t\t\tcontract Storage {\\n\\n    uint...\n      PUSH [tag] 3\t\t\tcontract Storage {\\n\\n    uint...\n      JUMPI \t\t\tcontract Storage {\\n\\n    uint...\n      DUP1 \t\t\tcontract Storage {\\n\\n    uint...\n      PUSH A1C51915\t\t\tcontract Storage {\\n\\n    uint...\n      EQ \t\t\tcontract Storage {\\n\\n    uint...\n      PUSH [tag] 4\t\t\tcontract Storage {\\n\\n    uint...\n      JUMPI \t\t\tcontract Storage {\\n\\n    uint...\n      DUP1 \t\t\tcontract Storage {\\n\\n    uint...\n      PUSH C2A970D1\t\t\tcontract Storage {\\n\\n    uint...\n      EQ \t\t\tcontract Storage {\\n\\n    uint...\n      PUSH [tag] 5\t\t\tcontract Storage {\\n\\n    uint...\n      JUMPI \t\t\tcontract Storage {\\n\\n    uint...\n      DUP1 \t\t\tcontract Storage {\\n\\n    uint...\n      PUSH D46300FD\t\t\tcontract Storage {\\n\\n    uint...\n      EQ \t\t\tcontract Storage {\\n\\n    uint...\n      PUSH [tag] 6\t\t\tcontract Storage {\\n\\n    uint...\n      JUMPI \t\t\tcontract Storage {\\n\\n    uint...\n    tag 2\t\t\tcontract Storage {\\n\\n    uint...\n      JUMPDEST \t\t\tcontract Storage {\\n\\n    uint...\n      PUSH 0\t\t\tcontract Storage {\\n\\n    uint...\n      DUP1 \t\t\tcontract Storage {\\n\\n    uint...\n      REVERT \t\t\tcontract Storage {\\n\\n    uint...\n    tag 3\t\t\tfunction getSum() public view ...\n      JUMPDEST \t\t\tfunction getSum() public view ...\n      PUSH [tag] 7\t\t\tfunction getSum() public view ...\n      PUSH [tag] 8\t\t\tfunction getSum() public view ...\n      JUMP \t\t\tfunction getSum() public view ...\n    tag 7\t\t\tfunction getSum() public view ...\n      JUMPDEST \t\t\tfunction getSum() public view ...\n      PUSH 40\t\t\tfunction getSum() public view ...\n      MLOAD \t\t\tfunction getSum() public view ...\n      PUSH [tag] 9\t\t\tfunction getSum() public view ...\n      SWAP2 \t\t\tfunction getSum() public view ...\n      SWAP1 \t\t\tfunction getSum() public view ...\n      PUSH [tag] 10\t\t\tfunction getSum() public view ...\n      JUMP \t\t\tfunction getSum() public view ...\n    tag 9\t\t\tfunction getSum() public view ...\n      JUMPDEST \t\t\tfunction getSum() public view ...\n      PUSH 40\t\t\tfunction getSum() public view ...\n      MLOAD \t\t\tfunction getSum() public view ...\n      DUP1 \t\t\tfunction getSum() public view ...\n      SWAP2 \t\t\tfunction getSum() public view ...\n      SUB \t\t\tfunction getSum() public view ...\n      SWAP1 \t\t\tfunction getSum() public view ...\n      RETURN \t\t\tfunction getSum() public view ...\n    tag 4\t\t\tfunction getB() public view re...\n      JUMPDEST \t\t\tfunction getB() public view re...\n      PUSH [tag] 11\t\t\tfunction getB() public view re...\n      PUSH [tag] 12\t\t\tfunction getB() public view re...\n      JUMP \t\t\tfunction getB() public view re...\n    tag 11\t\t\tfunction getB() public view re...\n      JUMPDEST \t\t\tfunction getB() public view re...\n      PUSH 40\t\t\tfunction getB() public view re...\n      MLOAD \t\t\tfunction getB() public view re...\n      PUSH [tag] 13\t\t\tfunction getB() public view re...\n      SWAP2 \t\t\tfunction getB() public view re...\n      SWAP1 \t\t\tfunction getB() public view re...\n      PUSH [tag] 10\t\t\tfunction getB() public view re...\n      JUMP \t\t\tfunction getB() public view re...\n    tag 13\t\t\tfunction getB() public view re...\n      JUMPDEST \t\t\tfunction getB() public view re...\n      PUSH 40\t\t\tfunction getB() public view re...\n      MLOAD \t\t\tfunction getB() public view re...\n      DUP1 \t\t\tfunction getB() public view re...\n      SWAP2 \t\t\tfunction getB() public view re...\n      SUB \t\t\tfunction getB() public view re...\n      SWAP1 \t\t\tfunction getB() public view re...\n      RETURN \t\t\tfunction getB() public view re...\n    tag 5\t\t\tfunction computeSum() public {...\n      JUMPDEST \t\t\tfunction computeSum() public {...\n      PUSH [tag] 14\t\t\tfunction computeSum() public {...\n      PUSH [tag] 15\t\t\tfunction computeSum() public {...\n      JUMP \t\t\tfunction computeSum() public {...\n    tag 14\t\t\tfunction computeSum() public {...\n      JUMPDEST \t\t\tfunction computeSum() public {...\n      STOP \t\t\tfunction computeSum() public {...\n    tag 6\t\t\tfunction getA() public view re...\n      JUMPDEST \t\t\tfunction getA() public view re...\n      PUSH [tag] 16\t\t\tfunction getA() public view re...\n      PUSH [tag] 17\t\t\tfunction getA() public view re...\n      JUMP \t\t\tfunction getA() public view re...\n    tag 16\t\t\tfunction getA() public view re...\n      JUMPDEST \t\t\tfunction getA() public view re...\n      PUSH 40\t\t\tfunction getA() public view re...\n      MLOAD \t\t\tfunction getA() public view re...\n      PUSH [tag] 18\t\t\tfunction getA() public view re...\n      SWAP2 \t\t\tfunction getA() public view re...\n      SWAP1 \t\t\tfunction getA() public view re...\n      PUSH [tag] 10\t\t\tfunction getA() public view re...\n      JUMP \t\t\tfunction getA() public view re...\n    tag 18\t\t\tfunction getA() public view re...\n      JUMPDEST \t\t\tfunction getA() public view re...\n      PUSH 40\t\t\tfunction getA() public view re...\n      MLOAD \t\t\tfunction getA() public view re...\n      DUP1 \t\t\tfunction getA() public view re...\n      SWAP2 \t\t\tfunction getA() public view re...\n      SUB \t\t\tfunction getA() public view re...\n      SWAP1 \t\t\tfunction getA() public view re...\n      RETURN \t\t\tfunction getA() public view re...\n    tag 8\t\t\tfunction getSum() public view ...\n      JUMPDEST \t\t\tfunction getSum() public view ...\n      PUSH 0\t\t\tuint256\n      PUSH 2\t\t\tsum\n      SLOAD \t\t\tsum\n      SWAP1 \t\t\treturn sum\n      POP \t\t\treturn sum\n      SWAP1 \t\t\tfunction getSum() public view ...\n      JUMP \t\t\tfunction getSum() public view ...\n    tag 12\t\t\tfunction getB() public view re...\n      JUMPDEST \t\t\tfunction getB() public view re...\n      PUSH 0\t\t\tuint256\n      DUP1 \t\t\ta\n      SLOAD \t\t\ta\n      SWAP1 \t\t\treturn a\n      POP \t\t\treturn a\n      SWAP1 \t\t\tfunction getB() public view re...\n      JUMP \t\t\tfunction getB() public view re...\n    tag 15\t\t\tfunction computeSum() public {...\n      JUMPDEST \t\t\tfunction computeSum() public {...\n      PUSH 1\t\t\tb\n      SLOAD \t\t\tb\n      PUSH 0\t\t\ta\n      SLOAD \t\t\ta\n      PUSH [tag] 22\t\t\ta + b\n      SWAP2 \t\t\ta + b\n      SWAP1 \t\t\ta + b\n      PUSH [tag] 23\t\t\ta + b\n      JUMP \t\t\ta + b\n    tag 22\t\t\ta + b\n      JUMPDEST \t\t\ta + b\n      PUSH 2\t\t\tsum\n      DUP2 \t\t\tsum = a + b\n      SWAP1 \t\t\tsum = a + b\n      SSTORE \t\t\tsum = a + b\n      POP \t\t\tsum = a + b\n      JUMP \t\t\tfunction computeSum() public {...\n    tag 17\t\t\tfunction getA() public view re...\n      JUMPDEST \t\t\tfunction getA() public view re...\n      PUSH 0\t\t\tuint256\n      DUP1 \t\t\ta\n      SLOAD \t\t\ta\n      SWAP1 \t\t\treturn a\n      POP \t\t\treturn a\n      SWAP1 \t\t\tfunction getA() public view re...\n      JUMP \t\t\tfunction getA() public view re...\n    tag 25\t\t\tsolidity >=0.8.2 <0.9.0;\\n\\nco...\n      JUMPDEST \t\t\tsolidity >=0.8.2 <0.9.0;\\n\\nco...\n      PUSH 0\t\t\torage {\n      DUP2 \t\t\tint25\n      SWAP1 \t\t\t56 a;\\n    uint25\n      POP \t\t\t56 a;\\n    uint25\n      SWAP2 \t\t\tsolidity >=0.8.2 <0.9.0;\\n\\nco...\n      SWAP1 \t\t\tsolidity >=0.8.2 <0.9.0;\\n\\nco...\n      POP \t\t\tsolidity >=0.8.2 <0.9.0;\\n\\nco...\n      JUMP \t\t\tsolidity >=0.8.2 <0.9.0;\\n\\nco...\n    tag 26\t\t\tt256 sum;\\n    bool processorU...\n      JUMPDEST \t\t\tt256 sum;\\n    bool processorU...\n      PUSH [tag] 31\t\t\t= _a;\\n        b = _b;\\n  \n      DUP2 \t\t\t_b;\\n \n      PUSH [tag] 25\t\t\t= _a;\\n        b = _b;\\n  \n      JUMP \t\t\t= _a;\\n        b = _b;\\n  \n    tag 31\t\t\t= _a;\\n        b = _b;\\n  \n      JUMPDEST \t\t\t= _a;\\n        b = _b;\\n  \n      DUP3 \t\t\t   \n      MSTORE \t\t\t{\\n        a = _a;\\n        b ...\n      POP \t\t\tt256 sum;\\n    bool processorU...\n      POP \t\t\tt256 sum;\\n    bool processorU...\n      JUMP \t\t\tt256 sum;\\n    bool processorU...\n    tag 10\t\t\ttion computeSum() public {\\n  ...\n      JUMPDEST \t\t\ttion computeSum() public {\\n  ...\n      PUSH 0\t\t\ts (u\n      PUSH 20\t\t\t\\n \n      DUP3 \t\t\tn a;\\n    \n      ADD \t\t\teturn a;\\n    }\\n\\n  \n      SWAP1 \t\t\t       return a;\\n    }\\n\\n  \n      POP \t\t\t       return a;\\n    }\\n\\n  \n      PUSH [tag] 33\t\t\t getB() public view returns (u...\n      PUSH 0\t\t\t \n      DUP4 \t\t\t\\n    }\\n\\n \n      ADD \t\t\tn a;\\n    }\\n\\n    f\n      DUP5 \t\t\t    re\n      PUSH [tag] 26\t\t\t getB() public view returns (u...\n      JUMP \t\t\t getB() public view returns (u...\n    tag 33\t\t\t getB() public view returns (u...\n      JUMPDEST \t\t\t getB() public view returns (u...\n      SWAP3 \t\t\ttion computeSum() public {\\n  ...\n      SWAP2 \t\t\ttion computeSum() public {\\n  ...\n      POP \t\t\ttion computeSum() public {\\n  ...\n      POP \t\t\ttion computeSum() public {\\n  ...\n      JUMP \t\t\ttion computeSum() public {\\n  ...\n    tag 27\t\t\t() public view returns (uint25...\n      JUMPDEST \t\t\t() public view returns (uint25...\n      PUSH 4E487B7100000000000000000000000000000000000000000000000000000000\t\t\tn sum;\\n    }\\n}\n      PUSH 0\t\t\tt\n      MSTORE \t\t\t     return sum;\\n    }\\n}\n      PUSH 11\t\t\t\n      PUSH 4\t\t\t\n      MSTORE \t\t\t\n      PUSH 24\t\t\t\n      PUSH 0\t\t\t\n      REVERT \t\t\t\n    tag 23\t\t\t\n      JUMPDEST \t\t\t\n      PUSH 0\t\t\t\n      PUSH [tag] 36\t\t\t\n      DUP3 \t\t\t\n      PUSH [tag] 25\t\t\t\n      JUMP \t\t\t\n    tag 36\t\t\t\n      JUMPDEST \t\t\t\n      SWAP2 \t\t\t\n      POP \t\t\t\n      PUSH [tag] 37\t\t\t\n      DUP4 \t\t\t\n      PUSH [tag] 25\t\t\t\n      JUMP \t\t\t\n    tag 37\t\t\t\n      JUMPDEST \t\t\t\n      SWAP3 \t\t\t\n      POP \t\t\t\n      DUP3 \t\t\t\n      DUP3 \t\t\t\n      ADD \t\t\t\n      SWAP1 \t\t\t\n      POP \t\t\t\n      DUP1 \t\t\t\n      DUP3 \t\t\t\n      GT \t\t\t\n      ISZERO \t\t\t\n      PUSH [tag] 38\t\t\t\n      JUMPI \t\t\t\n      PUSH [tag] 39\t\t\t\n      PUSH [tag] 27\t\t\t\n      JUMP \t\t\t\n    tag 39\t\t\t\n      JUMPDEST \t\t\t\n    tag 38\t\t\t\n      JUMPDEST \t\t\t\n      SWAP3 \t\t\t\n      SWAP2 \t\t\t\n      POP \t\t\t\n      POP \t\t\t\n      JUMP \t\t\t\n    .data\n"
}