{
	"compilerInput": "{\"language\":\"Solidity\",\"sources\":{\"contracts/1_Storage.sol\":{\"content\":\"pragma solidity >=0.8.2 <0.9.0;\\n\\ncontract Storage {\\n\\n    address fluxProcessorAddr;\\n    uint256 a;\\n    uint256 b;\\n    uint256 sum;\\n    bool processorUsed;\\n\\n    constructor(address _fluxProcessorAddr, uint256 _a, uint256 _b) {\\n        fluxProcessorAddr = _fluxProcessorAddr;\\n        a = _a;\\n        b = _b;\\n    }\\n\\n    function computeSum() public {\\n        (bool success, bytes memory data) = fluxProcessorAddr.delegatecall(abi.encodeWithSignature(\\\"computeSum()\\\"));\\n        require(success, \\\"delegatecall failed\\\");\\n    }\\n\\n    function getA() public view returns (uint256) {\\n        return a;\\n    }\\n\\n    function getB() public view returns (uint256) {\\n        return a;\\n    }\\n\\n    function getSum() public view returns (uint256) {\\n        return sum;\\n    }\\n}\\n\\ncontract FluxProcessor {\\n    function computeSum() public {\\n    }\\n}\"}},\"settings\":{\"optimizer\":{\"enabled\":false,\"runs\":200},\"outputSelection\":{\"*\":{\"\":[\"ast\"],\"*\":[\"abi\",\"metadata\",\"devdoc\",\"userdoc\",\"storageLayout\",\"evm.legacyAssembly\",\"evm.bytecode\",\"evm.deployedBytecode\",\"evm.methodIdentifiers\",\"evm.gasEstimates\",\"evm.assembly\"]}},\"remappings\":[]}}",
	"name": "FluxProcessor",
	"bytecode": {
		"linkReferences": {},
		"object": "6080604052348015600e575f80fd5b50606a80601a5f395ff3fe6080604052348015600e575f80fd5b50600436106026575f3560e01c8063c2a970d114602a575b5f80fd5b60306032565b005b56fea2646970667358221220e473de33dfb85270bdfe95a0181dd360172ac48c21447b36f323868270d65db464736f6c634300081a0033",
		"opcodes": "PUSH1 0x80 PUSH1 0x40 MSTORE CALLVALUE DUP1 ISZERO PUSH1 0xE JUMPI PUSH0 DUP1 REVERT JUMPDEST POP PUSH1 0x6A DUP1 PUSH1 0x1A PUSH0 CODECOPY PUSH0 RETURN INVALID PUSH1 0x80 PUSH1 0x40 MSTORE CALLVALUE DUP1 ISZERO PUSH1 0xE JUMPI PUSH0 DUP1 REVERT JUMPDEST POP PUSH1 0x4 CALLDATASIZE LT PUSH1 0x26 JUMPI PUSH0 CALLDATALOAD PUSH1 0xE0 SHR DUP1 PUSH4 0xC2A970D1 EQ PUSH1 0x2A JUMPI JUMPDEST PUSH0 DUP1 REVERT JUMPDEST PUSH1 0x30 PUSH1 0x32 JUMP JUMPDEST STOP JUMPDEST JUMP INVALID LOG2 PUSH5 0x6970667358 0x22 SLT KECCAK256 0xE4 PUSH20 0xDE33DFB85270BDFE95A0181DD360172AC48C2144 PUSH28 0x36F323868270D65DB464736F6C634300081A00330000000000000000 "
	},
	"abi": [
		{
			"inputs": [],
			"name": "computeSum",
			"outputs": [],
			"stateMutability": "nonpayable",
			"type": "function"
		}
	],
	"storageLayout": {
		"storage": [],
		"types": null
	},
	"web3Deploy": "var fluxprocessorContract = new web3.eth.Contract([{\"inputs\":[],\"name\":\"computeSum\",\"outputs\":[],\"stateMutability\":\"nonpayable\",\"type\":\"function\"}]);\nvar fluxprocessor = fluxprocessorContract.deploy({\n     data: '0x6080604052348015600e575f80fd5b50606a80601a5f395ff3fe6080604052348015600e575f80fd5b50600436106026575f3560e01c8063c2a970d114602a575b5f80fd5b60306032565b005b56fea2646970667358221220e473de33dfb85270bdfe95a0181dd360172ac48c21447b36f323868270d65db464736f6c634300081a0033', \n     arguments: [\n     ]\n}).send({\n     from: web3.eth.accounts[0], \n     gas: '4700000'\n   }, function (e, contract){\n    console.log(e, contract);\n    if (typeof contract.address !== 'undefined') {\n         console.log('Contract mined! address: ' + contract.address + ' transactionHash: ' + contract.transactionHash);\n    }\n })",
	"functionHashes": {
		"c2a970d1": "computeSum()"
	},
	"gasEstimates": {
		"Creation": {
			"codeDepositCost": "21200",
			"executionCost": "73",
			"totalCost": "21273"
		},
		"External": {
			"computeSum()": "121"
		}
	},
	"devdoc": {
		"kind": "dev",
		"methods": {},
		"version": 1
	},
	"userdoc": {
		"kind": "user",
		"methods": {},
		"version": 1
	},
	"Runtime Bytecode": {
		"immutableReferences": {},
		"linkReferences": {},
		"object": "6080604052348015600e575f80fd5b50600436106026575f3560e01c8063c2a970d114602a575b5f80fd5b60306032565b005b56fea2646970667358221220e473de33dfb85270bdfe95a0181dd360172ac48c21447b36f323868270d65db464736f6c634300081a0033",
		"opcodes": "PUSH1 0x80 PUSH1 0x40 MSTORE CALLVALUE DUP1 ISZERO PUSH1 0xE JUMPI PUSH0 DUP1 REVERT JUMPDEST POP PUSH1 0x4 CALLDATASIZE LT PUSH1 0x26 JUMPI PUSH0 CALLDATALOAD PUSH1 0xE0 SHR DUP1 PUSH4 0xC2A970D1 EQ PUSH1 0x2A JUMPI JUMPDEST PUSH0 DUP1 REVERT JUMPDEST PUSH1 0x30 PUSH1 0x32 JUMP JUMPDEST STOP JUMPDEST JUMP INVALID LOG2 PUSH5 0x6970667358 0x22 SLT KECCAK256 0xE4 PUSH20 0xDE33DFB85270BDFE95A0181DD360172AC48C2144 PUSH28 0x36F323868270D65DB464736F6C634300081A00330000000000000000 "
	},
	"Assembly": ".code\n  PUSH 80\t\t\tcontract FluxProcessor {\\n    ...\n  PUSH 40\t\t\tcontract FluxProcessor {\\n    ...\n  MSTORE \t\t\tcontract FluxProcessor {\\n    ...\n  CALLVALUE \t\t\tcontract FluxProcessor {\\n    ...\n  DUP1 \t\t\tcontract FluxProcessor {\\n    ...\n  ISZERO \t\t\tcontract FluxProcessor {\\n    ...\n  PUSH [tag] 1\t\t\tcontract FluxProcessor {\\n    ...\n  JUMPI \t\t\tcontract FluxProcessor {\\n    ...\n  PUSH 0\t\t\tcontract FluxProcessor {\\n    ...\n  DUP1 \t\t\tcontract FluxProcessor {\\n    ...\n  REVERT \t\t\tcontract FluxProcessor {\\n    ...\ntag 1\t\t\tcontract FluxProcessor {\\n    ...\n  JUMPDEST \t\t\tcontract FluxProcessor {\\n    ...\n  POP \t\t\tcontract FluxProcessor {\\n    ...\n  PUSH #[$] 0000000000000000000000000000000000000000000000000000000000000000\t\t\tcontract FluxProcessor {\\n    ...\n  DUP1 \t\t\tcontract FluxProcessor {\\n    ...\n  PUSH [$] 0000000000000000000000000000000000000000000000000000000000000000\t\t\tcontract FluxProcessor {\\n    ...\n  PUSH 0\t\t\tcontract FluxProcessor {\\n    ...\n  CODECOPY \t\t\tcontract FluxProcessor {\\n    ...\n  PUSH 0\t\t\tcontract FluxProcessor {\\n    ...\n  RETURN \t\t\tcontract FluxProcessor {\\n    ...\n.data\n  0:\n    .code\n      PUSH 80\t\t\tcontract FluxProcessor {\\n    ...\n      PUSH 40\t\t\tcontract FluxProcessor {\\n    ...\n      MSTORE \t\t\tcontract FluxProcessor {\\n    ...\n      CALLVALUE \t\t\tcontract FluxProcessor {\\n    ...\n      DUP1 \t\t\tcontract FluxProcessor {\\n    ...\n      ISZERO \t\t\tcontract FluxProcessor {\\n    ...\n      PUSH [tag] 1\t\t\tcontract FluxProcessor {\\n    ...\n      JUMPI \t\t\tcontract FluxProcessor {\\n    ...\n      PUSH 0\t\t\tcontract FluxProcessor {\\n    ...\n      DUP1 \t\t\tcontract FluxProcessor {\\n    ...\n      REVERT \t\t\tcontract FluxProcessor {\\n    ...\n    tag 1\t\t\tcontract FluxProcessor {\\n    ...\n      JUMPDEST \t\t\tcontract FluxProcessor {\\n    ...\n      POP \t\t\tcontract FluxProcessor {\\n    ...\n      PUSH 4\t\t\tcontract FluxProcessor {\\n    ...\n      CALLDATASIZE \t\t\tcontract FluxProcessor {\\n    ...\n      LT \t\t\tcontract FluxProcessor {\\n    ...\n      PUSH [tag] 2\t\t\tcontract FluxProcessor {\\n    ...\n      JUMPI \t\t\tcontract FluxProcessor {\\n    ...\n      PUSH 0\t\t\tcontract FluxProcessor {\\n    ...\n      CALLDATALOAD \t\t\tcontract FluxProcessor {\\n    ...\n      PUSH E0\t\t\tcontract FluxProcessor {\\n    ...\n      SHR \t\t\tcontract FluxProcessor {\\n    ...\n      DUP1 \t\t\tcontract FluxProcessor {\\n    ...\n      PUSH C2A970D1\t\t\tcontract FluxProcessor {\\n    ...\n      EQ \t\t\tcontract FluxProcessor {\\n    ...\n      PUSH [tag] 3\t\t\tcontract FluxProcessor {\\n    ...\n      JUMPI \t\t\tcontract FluxProcessor {\\n    ...\n    tag 2\t\t\tcontract FluxProcessor {\\n    ...\n      JUMPDEST \t\t\tcontract FluxProcessor {\\n    ...\n      PUSH 0\t\t\tcontract FluxProcessor {\\n    ...\n      DUP1 \t\t\tcontract FluxProcessor {\\n    ...\n      REVERT \t\t\tcontract FluxProcessor {\\n    ...\n    tag 3\t\t\tfunction computeSum() public {...\n      JUMPDEST \t\t\tfunction computeSum() public {...\n      PUSH [tag] 4\t\t\tfunction computeSum() public {...\n      PUSH [tag] 5\t\t\tfunction computeSum() public {...\n      JUMP \t\t\tfunction computeSum() public {...\n    tag 4\t\t\tfunction computeSum() public {...\n      JUMPDEST \t\t\tfunction computeSum() public {...\n      STOP \t\t\tfunction computeSum() public {...\n    tag 5\t\t\tfunction computeSum() public {...\n      JUMPDEST \t\t\tfunction computeSum() public {...\n      JUMP \t\t\tfunction computeSum() public {...\n    .data\n"
}