{"abi":[{"type":"constructor","inputs":[{"name":"_manager","type":"address","internalType":"contract IPoolManager"}],"stateMutability":"nonpayable"},{"type":"function","name":"actionModifyLiquidity","inputs":[{"name":"key","type":"tuple","internalType":"struct PoolKey","components":[{"name":"currency0","type":"address","internalType":"Currency"},{"name":"currency1","type":"address","internalType":"Currency"},{"name":"fee","type":"uint24","internalType":"uint24"},{"name":"tickSpacing","type":"int24","internalType":"int24"},{"name":"hooks","type":"address","internalType":"contract IHooks"}]},{"name":"params","type":"tuple","internalType":"struct IPoolManager.ModifyLiquidityParams","components":[{"name":"tickLower","type":"int24","internalType":"int24"},{"name":"tickUpper","type":"int24","internalType":"int24"},{"name":"liquidityDelta","type":"int256","internalType":"int256"},{"name":"salt","type":"bytes32","internalType":"bytes32"}]},{"name":"hookData","type":"bytes","internalType":"bytes"}],"outputs":[{"name":"callerDelta","type":"int256","internalType":"BalanceDelta"},{"name":"feesAccrued","type":"int256","internalType":"BalanceDelta"}],"stateMutability":"nonpayable"},{"type":"function","name":"actionSwap","inputs":[{"name":"key","type":"tuple","internalType":"struct PoolKey","components":[{"name":"currency0","type":"address","internalType":"Currency"},{"name":"currency1","type":"address","internalType":"Currency"},{"name":"fee","type":"uint24","internalType":"uint24"},{"name":"tickSpacing","type":"int24","internalType":"int24"},{"name":"hooks","type":"address","internalType":"contract IHooks"}]},{"name":"params","type":"tuple","internalType":"struct IPoolManager.SwapParams","components":[{"name":"zeroForOne","type":"bool","internalType":"bool"},{"name":"amountSpecified","type":"int256","internalType":"int256"},{"name":"sqrtPriceLimitX96","type":"uint160","internalType":"uint160"}]},{"name":"hookData","type":"bytes","internalType":"bytes"}],"outputs":[{"name":"swapDelta","type":"int256","internalType":"BalanceDelta"}],"stateMutability":"nonpayable"},{"type":"function","name":"manager","inputs":[],"outputs":[{"name":"","type":"address","internalType":"contract IPoolManager"}],"stateMutability":"view"},{"type":"function","name":"unlockCallback","inputs":[{"name":"input","type":"bytes","internalType":"bytes"}],"outputs":[{"name":"","type":"bytes","internalType":"bytes"}],"stateMutability":"nonpayable"},{"type":"error","name":"ActionNotSupported","inputs":[]},{"type":"error","name":"CheckParameters","inputs":[]}],"bytecode":{"object":"60a06040523461007657610019610014610147565b610168565b61002161007b565b611d7861016e8239608051818181608101528181610a5d01528181610c4a01528181610e20015281816110aa015281816112a7015281816114f00152818161153a0152818161158501526115d40152611d7890f35b610081565b60405190565b5f80fd5b601f801991011690565b634e487b7160e01b5f52604160045260245ffd5b906100ad90610085565b810190811060018060401b038211176100c557604052565b61008f565b906100dd6100d661007b565b92836100a3565b565b5f80fd5b60018060a01b031690565b6100f7906100e3565b90565b610103906100ee565b90565b61010f816100fa565b0361011657565b5f80fd5b9050519061012782610106565b565b906020828203126101425761013f915f0161011a565b90565b6100df565b610165611ee68038038061015a816100ca565b928339810190610129565b90565b60805256fe60806040526004361015610013575b6106cd565b61001d5f3561005c565b8063481c6a7514610057578063568846ef1461005257806391dd73461461004d5763924437790361000e57610694565b610559565b610488565b610115565b60e01c90565b60405190565b5f80fd5b5f80fd5b5f91031261007a57565b61006c565b7f000000000000000000000000000000000000000000000000000000000000000090565b73ffffffffffffffffffffffffffffffffffffffff1690565b90565b6100d36100ce6100d8926100a3565b6100bc565b6100a3565b90565b6100e4906100bf565b90565b6100f0906100db565b90565b6100fc906100e7565b9052565b9190610113905f602085019401906100f3565b565b3461014557610125366004610070565b61014161013061007f565b610138610062565b91829182610100565b0390f35b610068565b5f80fd5b5f80fd5b601f801991011690565b7f4e487b71000000000000000000000000000000000000000000000000000000005f52604160045260245ffd5b9061019390610152565b810190811067ffffffffffffffff8211176101ad57604052565b61015c565b906101c56101be610062565b9283610189565b565b6101d0906100a3565b90565b6101dc816101c7565b036101e357565b5f80fd5b905035906101f4826101d3565b565b62ffffff1690565b610207816101f6565b0361020e57565b5f80fd5b9050359061021f826101fe565b565b60020b90565b61023081610221565b0361023757565b5f80fd5b9050359061024882610227565b565b610253906101c7565b90565b61025f8161024a565b0361026657565b5f80fd5b9050359061027782610256565b565b919060a0838203126102e9576102e29061029360a06101b2565b936102a0825f83016101e7565b5f8601526102b182602083016101e7565b60208601526102c38260408301610212565b60408601526102d5826060830161023b565b606086015260800161026a565b6080830152565b61014e565b90565b6102fa816102ee565b0361030157565b5f80fd5b90503590610312826102f1565b565b90565b61032081610314565b0361032757565b5f80fd5b9050359061033882610317565b565b9190608083820312610398576103919061035460806101b2565b93610361825f830161023b565b5f860152610372826020830161023b565b60208601526103848260408301610305565b604086015260600161032b565b6060830152565b61014e565b5f80fd5b5f80fd5b5f80fd5b909182601f830112156103e35781359167ffffffffffffffff83116103de5760200192600183028401116103d957565b6103a5565b6103a1565b61039d565b916101408383031261043757610400825f8501610279565b9261040e8360a0830161033a565b9261012082013567ffffffffffffffff81116104325761042e92016103a9565b9091565b61014a565b61006c565b61045061044b610455926102ee565b6100bc565b6102ee565b90565b6104619061043c565b9052565b91602061048692949361047f60408201965f830190610458565b0190610458565b565b346104bd576104a461049b3660046103e8565b929190916109e9565b906104b96104b0610062565b92839283610465565b0390f35b610068565b906020828203126104f3575f82013567ffffffffffffffff81116104ee576104ea92016103a9565b9091565b61014a565b61006c565b5190565b60209181520190565b90825f9392825e0152565b61052f61053860209361053d93610526816104f8565b938480936104fc565b95869101610505565b610152565b0190565b6105569160208201915f818403910152610510565b90565b3461058a5761058661057561056f3660046104c2565b90610c2d565b61057d610062565b91829182610541565b0390f35b610068565b151590565b61059d8161058f565b036105a457565b5f80fd5b905035906105b582610594565b565b6105c0816100a3565b036105c757565b5f80fd5b905035906105d8826105b7565b565b91906060838203126106265761061f906105f460606101b2565b93610601825f83016105a8565b5f8601526106128260208301610305565b60208601526040016105cb565b6040830152565b61014e565b916101208383031261067a57610643825f8501610279565b926106518360a083016105da565b9261010082013567ffffffffffffffff81116106755761067192016103a9565b9091565b61014a565b61006c565b9190610692905f60208501940190610458565b565b346106c8576106c46106b36106aa36600461062b565b92919091610db4565b6106bb610062565b9182918261067f565b0390f35b610068565b5f80fd5b5f90565b6106de906100db565b90565b6106ea906106d5565b9052565b6106f7906101f6565b9052565b61070490610221565b9052565b610711906100db565b90565b61071d90610708565b9052565b90608080610779936107395f8201515f8601906106e1565b61074b602082015160208601906106e1565b61075d604082015160408601906106ee565b61076f606082015160608601906106fb565b0151910190610714565b565b610784906102ee565b9052565b61079190610314565b9052565b906060806107db936107ad5f8201515f8601906106fb565b6107bf602082015160208601906106fb565b6107d16040820151604086019061077b565b0151910190610788565b565b90825f939282370152565b9190610802816107fb81610807956104fc565b80956107dd565b610152565b0190565b61083261084095939492946108286101408401965f850190610721565b60a0830190610795565b6101208185039101526107e8565b90565b7f4e487b71000000000000000000000000000000000000000000000000000000005f52602160045260245ffd5b6002111561087a57565b610843565b9061088982610870565b565b6108949061087f565b90565b6108a09061088b565b9052565b916108c7926108ba60408201935f830190610897565b6020818403910152610510565b90565b5f80fd5b60e01b90565b5f80fd5b67ffffffffffffffff81116108f6576108f2602091610152565b0190565b61015c565b9092919261091061090b826108d8565b6101b2565b9381855260208501908284011161092c5761092a92610505565b565b6108d4565b9080601f8301121561094f5781602061094c935191016108fb565b90565b61039d565b90602082820312610984575f82015167ffffffffffffffff811161097f5761097c9201610931565b90565b61014a565b61006c565b610991610062565b3d5f823e3d90fd5b6109a2816102ee565b036109a957565b5f80fd5b905051906109ba82610999565b565b91906040838203126109e457806109d86109e1925f86016109ad565b936020016109ad565b90565b61006c565b5f9291610a1f610aa995610a2e936109ff6106d1565b50610a086106d1565b509294610a13610062565b9586946020860161080b565b60208201810382520382610189565b610a5882610a49610a3d610062565b938492602084016108a4565b60208201810382520382610189565b610a817f00000000000000000000000000000000000000000000000000000000000000006100e7565b610a9e836348c89491610a92610062565b968795869485936108ce565b835260048301610541565b03925af18015610afb57610ad5915f91610ad9575b506020610aca826104f8565b8183010191016109bc565b9091565b610af591503d805f833e610aed8183610189565b810190610954565b5f610abe565b610989565b606090565b15610b0c57565b5f80fd5b60021115610b1a57565b5f80fd5b90503590610b2b82610b10565b565b90929192610b42610b3d826108d8565b6101b2565b93818552602085019082840111610b5e57610b5c926107dd565b565b6108d4565b9080601f83011215610b8157816020610b7e93359101610b2d565b90565b61039d565b919091604081840312610bc657610b9f835f8301610b1e565b92602082013567ffffffffffffffff8111610bc157610bbe9201610b63565b90565b61014a565b61006c565b60209181520190565b5f7f696e76616c696420706f6f6c20616374696f6e00000000000000000000000000910152565b610c086013602092610bcb565b610c1181610bd4565b0190565b610c2a9060208101905f818303910152610bfb565b90565b90610c8891610c3a610b00565b50610c7f33610c79610c73610c6e7f00000000000000000000000000000000000000000000000000000000000000006100e7565b6101c7565b916101c7565b14610b05565b90810190610b86565b9080610c9c610c965f61087f565b9161087f565b14610d0157610cb4610cae600161087f565b9161087f565b14610cf557610cc1610062565b7f08c379a000000000000000000000000000000000000000000000000000000000815280610cf160048201610c15565b0390fd5b610cfe9061127c565b90565b50610d0b9061107d565b90565b610d179061058f565b9052565b610d24906100a3565b9052565b90604080610d5c93610d405f8201515f860190610d0e565b610d526020820151602086019061077b565b0151910190610d1b565b565b610d85610d939593949294610d7b6101208401965f850190610721565b60a0830190610d28565b6101008185039101526107e8565b90565b90602082820312610daf57610dac915f016109ad565b90565b61006c565b5f9291610de1610e6c95610df093610dca6106d1565b509294610dd5610062565b95869460208601610d5e565b60208201810382520382610189565b610e1b6001610e0c610e00610062565b938492602084016108a4565b60208201810382520382610189565b610e447f00000000000000000000000000000000000000000000000000000000000000006100e7565b610e61836348c89491610e55610062565b968795869485936108ce565b835260048301610541565b03925af18015610ebd57610e98915f91610e9b575b506020610e8d826104f8565b818301019101610d96565b90565b610eb791503d805f833e610eaf8183610189565b810190610954565b5f610e81565b610989565b90505190610ecf826101d3565b565b90505190610ede826101fe565b565b90505190610eed82610227565b565b90505190610efc82610256565b565b919060a083820312610f6e57610f6790610f1860a06101b2565b93610f25825f8301610ec2565b5f860152610f368260208301610ec2565b6020860152610f488260408301610ed1565b6040860152610f5a8260608301610ee0565b6060860152608001610eef565b6080830152565b61014e565b90505190610f80826102f1565b565b90505190610f8f82610317565b565b9190608083820312610fef57610fe890610fab60806101b2565b93610fb8825f8301610ee0565b5f860152610fc98260208301610ee0565b6020860152610fdb8260408301610f73565b6040860152606001610f82565b6060830152565b61014e565b91610140838303126110425761100c825f8501610efe565b9261101a8360a08301610f91565b9261012082015167ffffffffffffffff811161103d5761103a9201610931565b90565b61014a565b61006c565b61106c61107a9492936110626101408401955f850190610721565b60a0830190610795565b610120818403910152610510565b90565b6110a260409161108b610b00565b506020611097826104f8565b818301019101610ff4565b9192906110ce7f00000000000000000000000000000000000000000000000000000000000000006100e7565b6110f15f635a6bcfda6110fc8895976110e5610062565b988997889687956108ce565b855260048501611047565b03925af190811561117f57611149915f8092909161114c575b50611123909193829061144c565b61113a61112e610062565b93849260208401610465565b60208201810382520382610189565b90565b6111239250611172915060403d8111611178575b61116a8183610189565b8101906109bc565b91611115565b503d611160565b610989565b9050519061119182610594565b565b905051906111a0826105b7565b565b91906060838203126111ee576111e7906111bc60606101b2565b936111c9825f8301611184565b5f8601526111da8260208301610f73565b6020860152604001611193565b6040830152565b61014e565b91610120838303126112415761120b825f8501610efe565b926112198360a083016111a2565b9261010082015167ffffffffffffffff811161123c576112399201610931565b90565b61014a565b61006c565b61126b6112799492936112616101208401955f850190610721565b60a0830190610d28565b610100818403910152610510565b90565b6112a060209161128a610b00565b5082611295826104f8565b8183010191016111f3565b92906112cb7f00000000000000000000000000000000000000000000000000000000000000006100e7565b6112ee5f63f3cd914c6112f98795986112e2610062565b998a97889687956108ce565b855260048501611246565b03925af19081156113735761131f61134292611333945f91611345575b5091829061144c565b611327610062565b9283916020830161067f565b60208201810382520382610189565b90565b611366915060203d811161136c575b61135e8183610189565b810190610d96565b5f611316565b503d611354565b610989565b600f0b90565b61139261138d61139792611378565b6100bc565b6102ee565b90565b90565b6113b16113ac6113b69261139a565b6100bc565b6102ee565b90565b6113c390516101c7565b90565b7f4e487b71000000000000000000000000000000000000000000000000000000005f52601160045260245ffd5b6113fc906102ee565b7f80000000000000000000000000000000000000000000000000000000000000008114611428575f0390565b6113c6565b90565b61144461143f611449926102ee565b6100bc565b61142d565b90565b9061146f61146a61146461145f84611616565b61137e565b92611625565b61137e565b905f8161148461147e5f61139d565b916102ee565b126115c4575b8261149d6114975f61139d565b916102ee565b12611572575b505f90806114b96114b35f61139d565b916102ee565b13611528575b50816114d36114cd5f61139d565b916102ee565b136114de575b505050565b6114ed602061152094016113b9565b917f00000000000000000000000000000000000000000000000000000000000000006115193292611430565b9293611b4e565b5f80806114d9565b61156c906115375f86016113b9565b907f0000000000000000000000000000000000000000000000000000000000000000906115643291611430565b918593611b4e565b5f6114bf565b6115be90611582602086016113b9565b907f000000000000000000000000000000000000000000000000000000000000000032906115b76115b2886113f3565b611430565b9293611795565b5f6114a3565b61160d6115d25f86016113b9565b7f000000000000000000000000000000000000000000000000000000000000000032611605611600876113f3565b611430565b918593611795565b61148a565b5f90565b61161e611612565b5060801d90565b61162d611612565b50600f0b90565b61163d8161142d565b0361164457565b5f80fd5b9050519061165582611634565b565b906020828203126116705761166d915f01611648565b90565b61006c565b61167e906106d5565b9052565b9190611695905f60208501940190611675565b565b6116a0906100db565b90565b6116ac906100bf565b90565b6116b8906116a3565b90565b6116c4906100db565b90565b906020828203126116e0576116dd915f01611184565b90565b61006c565b6116ee906101c7565b9052565b6116fb9061142d565b9052565b91602061172092949361171960408201965f8301906116e5565b01906116f2565b565b60409061174b611752949695939661174160608401985f8501906116e5565b60208301906116e5565b01906116f2565b565b5f91031261175e57565b61006c565b60409061178c611793949695939661178260608401985f8501906116e5565b60208301906116f2565b01906116f2565b565b9192935f14611831576117a7906100e7565b6117b663f5298aca9392611d1d565b9392813b1561182c575f6117dd916117e882966117d1610062565b988997889687956108ce565b855260048501611763565b03925af18015611827576117fb575b505b565b61181a905f3d8111611820575b6118128183610189565b810190611754565b5f6117f7565b503d611808565b610989565b6108ca565b90929161183d84611cba565b5f146118c9575091602091611877611857611882956100e7565b92636a256b2992939293909361186b610062565b968795869485936108ce565b835260048301611682565b03925af180156118c457611898575b505b6117f9565b6118b89060203d81116118bd575b6118b08183610189565b810190611657565b611891565b503d6118a6565b610989565b61190460206118d98496946100e7565b63a5841194906118f95f87936118ed610062565b968795869485936108ce565b835260048301611682565b03925af18015611b1757611aeb575b508061192f61192961192430611697565b6101c7565b916101c7565b14155f14611a475760209061195361194e611949856106d5565b6116af565b6116bb565b61197d5f6323b872dd6119886119688a6100e7565b98611971610062565b998a97889687956108ce565b855260048501611722565b03925af18015611a42576119d1936020936119a992611a17575b505b6100e7565b6119c65f636a256b296119ba610062565b968795869485936108ce565b835260048301611682565b03925af18015611a12576119e6575b50611893565b611a069060203d8111611a0b575b6119fe8183610189565b810190611657565b6119e0565b503d6119f4565b610989565b611a3690853d8111611a3b575b611a2e8183610189565b8101906116c7565b6119a2565b503d611a24565b610989565b506020611a63611a5e611a59846106d5565b6116af565b6116bb565b9263a9059cbb93611a905f611a77886100e7565b9396611a9b611a84610062565b988996879586946108ce565b8452600484016116ff565b03925af18015611ae6576119d1936020936119a992611abb575b506119a4565b611ada90853d8111611adf575b611ad28183610189565b8101906116c7565b611ab5565b503d611ac8565b610989565b611b0b9060203d8111611b10575b611b038183610189565b810190611657565b611913565b503d611af9565b610989565b604090611b45611b4c9496959396611b3b60608401985f850190611675565b60208301906116e5565b01906116f2565b565b9192935f14611bea57611b60906100e7565b611b6f63156e29f69392611d1d565b9392813b15611be5575f611b9691611ba18296611b8a610062565b988997889687956108ce565b855260048501611763565b03925af18015611be057611bb4575b505b565b611bd3905f3d8111611bd9575b611bcb8183610189565b810190611754565b5f611bb0565b503d611bc1565b610989565b6108ca565b611bf6909291926100e7565b630b0d9c0992919392813b15611c75575f611c2491611c2f8296611c18610062565b988997889687956108ce565b855260048501611b1c565b03925af18015611c7057611c44575b50611bb2565b611c63905f3d8111611c69575b611c5b8183610189565b810190611754565b5f611c3e565b503d611c51565b610989565b6108ca565b5f90565b611c92611c8d611c979261139a565b6100bc565b6100a3565b90565b611ca390611c7e565b90565b611cb7611cb25f611c9a565b6106d5565b90565b611ccc90611cc6611c7a565b506106d5565b611ced611ce7611ce2611cdd611ca6565b6106d5565b6101c7565b916101c7565b1490565b5f90565b611cfe906100bf565b90565b611d15611d10611d1a926100a3565b6100bc565b61142d565b90565b611d3a611d35611d3f92611d2f611cf1565b506106d5565b611cf5565b611d01565b9056fea26469706673582212207b9c27a29b84f85266d1e04ad9daa6b60fa47e46f4ef2547453dc45cbd88f02564736f6c634300081a0033","linkReferences":{}},"methodIdentifiers":{"actionModifyLiquidity((address,address,uint24,int24,address),(int24,int24,int256,bytes32),bytes)":"568846ef","actionSwap((address,address,uint24,int24,address),(bool,int256,uint160),bytes)":"92443779","manager()":"481c6a75","unlockCallback(bytes)":"91dd7346"},"id":0}